:1000000048C262C261C260C25FC25EC25DC25CC2FF
:100010005BC25AC259C258C257C256C255C254C214
:100020000FCB52C251C250C24FC24EC24DC24CC27F
:100030004BC24AC21FC31EC323C3B7C3AAC32DC327
:100040006DC331C3C3C349C35DC362C367C3F2C3D6
:100050006BC370C380C3F4C384C389C38EC393C30B
:10006000BBC3BAC3B9C3C4C3C3C3C6C3C1C3C0C37C
:1000700084C32CC53FC552C588C672C663C576C544
:1000800089C59AC69BC5ABC5BFC5D3C51CC7E6C548
:10009000FBC50BC62EC71EC62EC63EC64EC6A2C682
:1000A000B8C652C7CDC6E3C6F9C638C765C77AC752
:1000B000F4CD5ACD5BCD5FCD64CD76CD77CD79CD06
:1000C00082CD83CD8ECDA6CDE4CD202D20002E0077
:1000D0003D20003D022D030A033D02D701D001C897
:1000E00001C1019E02940285027602BD01A8029E12
:1000F0000294028F02BD0110020902FE01FC01FA06
:1001000001F801F601F301F001ED01EA01E701E474
:1001100001E001DC013D023A023D023A020A031B02
:10012000032D030A032D032102180233022A0200C1
:10013000023D023A020A032D03E50200000A032DE4
:1001400003EC02E502F9022D0322030F030A030266
:1001500003580253029E0299024E0262025D029E01
:100160000267029902DF02D902D302CD02C702C19F
:1001700002B202AD02A802A3029E02670299022DFA
:100180000322031B030F030A03A30271029E026CE6
:100190000267020A031B032D033D024B0247024183
:1001A000023D02BC02B702B202AD02A802A3029E47
:1001B00002990294028F028A0280027B02496E66D3
:1001C00000372E352F313500372E352F372E35009D
:1001D00031352F372E350031352F3000323535008F
:1001E00031323800363400343800333200323400D3
:1001F000313600313200380036003400330032002E
:10020000426964697265637400446972656374006D
:1002100053746570706564004E65676174697665D6
:1002200000506F7369746976650052657665727304
:100230006564004E6F726D616C004F4E004F464614
:100240000053455455500041524D00545800322E31
:10025000333000302E373000302E343000302E381E
:100260003000302E363700312E323500312E31320B
:1002700000302E38380031302E3000382E3030002B
:10028000362E303000352E303000342E30300033F2
:100290002E303000322E303000312E353000312EED
:1002A000303000302E373500302E353000302E33D0
:1002B0003800302E323500302E313700302E3133B9
:1002C00000302E31383800302E31323500302E30AB
:1002D000393400302E30363300302E303437003091
:1002E0002E3033310044616D7065640044616D707F
:1002F0006564204C696768740056657279204C6F9C
:100300007700486967686573740048696768004DDD
:10031000656469756D2048696768004D6564697535
:100320006D004D656469756D204C6F77004C6F777B
:1003300000AC03A903A5039F039A0391038E0383D3
:1003400003790377036E0363035C0351034F035088
:1003500000416C69676E424C333550005467794BED
:100360004634005475726E6967794145340054759E
:10037000726E6967794E004500506C6174696E75E4
:100380006D3500416C69676E424C33355800484BFF
:10039000005475726E6967793400536B7977005831
:1003A00050374146005850330053750044004C6F9D
:1003B0006F70004D554C5449005441494C004D411B
:1003C000494E0043616E63656C2026204578697450
:1003D0003F00282B29426F78202020526561642835
:1003E0002D2900282B294245534320205265616462
:1003F000282D2900280329536574757020457869D4
:1004000074280229002803294E6F2020202020591B
:10041000657328022900746F20424553433F002032
:100420004F4B2000577269746520005461726765F4
:1004300074004C61796F75742000206D696E002026
:10044000562F63656C6C00332E0020755365630076
:10045000436F6E6E656374004D656D00204572726A
:100460006F7221005265762E0000040E1F040404F2
:1004700000000404041F0E0400504320496E7465FC
:100480007266616365005570646174696E672E2ED3
:100490002E0011241FBECFEFD4E0DEBFCDBF11E090
:1004A000A0E0B1E0ECEAFDE102C005900D92AE31B2
:1004B000B107D9F723E0AEE1B1E001C01D92AE363D
:1004C000B207E1F70FDA70CC9BCD1F93CF93DF9388
:1004D000182FEC01CE013BDCEC2FE11BF0E0E15CDE
:1004E000FD4F808321968111F5CFDF91CF911F9130
:1004F00008952F923F92AF92BF92DF92EF920F93A7
:100500001F93CF93DF931F92CDB7DEB781E0D10168
:1005100011969C91911180E0D82ED194F1018281A5
:10052000F4E08F9FC00111248E5F9F4F18DCCDDF58
:10053000D10112962C91B4E02B9F80011124C801A7
:1005400080509040298303DCE82EC8018F5F9F4FC5
:10055000FEDB182FE0910201F091030129812F3079
:1005600091F48281823148F480912201882329F11B
:1005700080916903882309F125C080916903811165
:100580001CC012E01FC02C3119F410913E021AC099
:10059000273021F482818E30A8F013C0293039F43D
:1005A0008281803160F48F3069F417E00BC02E3007
:1005B00049F48281803128F405C013E003C01DE0B6
:1005C00001C016E08281813160F0223129F48091EE
:1005D0002201811105C005C0233011F0213109F439
:1005E00013E0AA24AA94B12CF1018181D81609F450
:1005F0003DC107D98FE392E017D9D10112968C91B2
:10060000833050F480912201823031F460E080E048
:10061000F2D88EEA93E02BD9F101818160E0843633
:1006200010F08DE005C08A3010F08EE001C08FE040
:10063000E2D8D10111968C9190E001D961E080E07F
:10064000DAD880ED90E013D9D1011196EC91119791
:100650001E1708F408C1EE1508F405C112964C9156
:1006600050E04F31510508F0FEC0465E5F4F4F939A
:100670005F930895F0E0EE0FFF1FEF55FE4FF0C0BF
:1006800080912201F0E0EE0FFF1F811103C0E756B9
:10069000FE4FE6C0EF56FE4FE3C0F0E0EE0FFF1F47
:1006A000E957FE4FDDC0A0910201B09103011296FF
:1006B0008C918E3010F00EEF01C00FEF0E0F0F3F38
:1006C00049F087E494E0D3D8802F90E0B8D88FE346
:1006D00094E0C8C08DE392E0C5C0A0910201B09142
:1006E000030112968C91803110F0E15005C08F30DB
:1006F00011F4EB5F01C0E95FF0E0EE0FFF1FEB5973
:10070000FE4FAEC0F0E0EE0FFF1FE75AFE4FA8C04D
:10071000F0E0EE0FFF1FE15BFE4FA2C0F0E0EE0F36
:10072000FF1FE358FE4F9CC0F0E0EE0FFF1FED5B94
:10073000FE4F96C0A0910201B091030112968C91D8
:10074000F0E0EE0FFF1F8B3018F4ED5CFE4F88C019
:10075000E55CFE4F85C0F0E0EE0FFF1FE15DFE4F50
:100760007FC0F0E0EE0FFF1FE75DFE4F79C0F0E0C5
:10077000EE0FFF1FEB5DFE4F73C0F0E0EE0FFF1FAB
:10078000E75EFE4F6DC0F0E0EE0FFF1FEB5EFE4F29
:1007900067C0B4E6EB9FC0011124B501A4DACB0118
:1007A00099274DD885E22FD85EC0A0910201B09163
:1007B000030112968C91F0E0EE0FFF1F813118F0CB
:1007C000E55EFE4F4DC0EF5DFE4F4AC0F0E0EE0F1C
:1007D000FF1FEB50FF4F44C0F0E0CF0186509F4F0A
:1007E000880F991F880F991F2AD88AE494E03AC08D
:1007F0008E2F90E024D837C0A0910201B091030160
:100800008C9111962C9130E0FAE08F9F200D311DD4
:100810001124F0E0EE0FFF1F203731051CF4E551E5
:10082000FF4F02C0EF51FF4F8591949120D88AE38A
:1008300094E018C0F0E0EE0FFF1FE750FF4F10C02C
:10084000A0910201B091030112968C91F0E0EE0F9D
:10085000FF1F813118F0EF52FF4F02C0E952FF4FE6
:100860008591949104D8D1011196DC9080E434D71D
:10087000882399F08FEFF101808385E6AFE1BEE434
:100880001197F1F700C00000815021F488ECF101CC
:1008900082833DC04E9BF2CF3AC080E11DD78823B2
:1008A00049F0D10111968C91E81640F48150F10184
:1008B000818304C080E11BD78111F3CF80E20CD784
:1008C000882349F0D10111968C91811740F48F5FF4
:1008D000F101818304C080E20AD78111F3CF80E85F
:1008E000FBD6882309F480CE81E0D1018C9385E684
:1008F000EFE1FEE43197F1F700C00000815029F4E8
:1009000084E6D10112968C9302C04F9BF1CF0F90D9
:10091000DF91CF911F910F91EF90DF90BF90AF903B
:100920003F902F9008952AE12093630210923D0298
:1009300020E7209364029093330180933201DFD546
:10094000882321F009D691E0811101C090E0892F20
:100950000895CF93DF938091000190910101E3DF2F
:100960008823C9F1A0910201B0910301E091000137
:10097000F09101019C91808198132FC011969C9158
:1009800011978181981329C01D969C911D9785858B
:10099000981323C01E969C911E97868598131DC0A0
:1009A00080E1ED01C05CDF4F2881EF01C05CDF4FCB
:1009B0009881291312C0ED01C05BDF4F2881EF0140
:1009C000C05BDF4F9881291308C081501196319682
:1009D0008111E7CF18C0C1E001C0C2E084E294E019
:1009E00046D7C11103C08FE194E007C0C23019F4AB
:1009F0008BE294E03CD78CE594E039D783D68C2FFA
:100A0000DF91CF91089510923D02E7D5882371F0D0
:100A100080E780936402809102019091030190939A
:100A2000330180933201BCD5811102C0C3E0D6CF1F
:100A300080910001909101019093330180933201E4
:100A40008BD5882399F3E0910201F0910301A091E5
:100A50000001B091010180E7C0E021919D9129132F
:100A6000C3E08150D1F7BACF2F923F920F931F93DB
:100A7000CF93DF9300D01F92CDB7DEB71B8281E00A
:100A8000898378940EE115E08B81813F08F00B8318
:100A90008B818F3108F01B8220912201222359F093
:100AA000223011F030E008C0E0910201F091030122
:100AB00082818031B8F331E08B8190E08F319105F4
:100AC00008F083C2FC01E75CFF4F0994332309F46B
:100AD0007CC2E0910201F091030183818A83CE01FF
:100AE00001961C0106DDE0910201F09103018A816B
:100AF00083836BC2332309F468C2E0910201F09151
:100B0000030184818A83CE0101961C01F2DCE0910D
:100B10000201F09103018A81848357C2332309F4CF
:100B200054C2E0910201F091030185818A83CE01D4
:100B300001961C01DEDCE0910201F09103018A8143
:100B4000858343C2222309F440C2E0910201F0915F
:100B5000030187818A83CE0101961C01CADCE091E2
:100B60000201F09103018A8187832FC2213009F0AD
:100B70002CC2E0910201F091030180858A83CE01AD
:100B800001961C01B6DCE0910201F09103018A811B
:100B900080871BC2213009F418C2E0910201F09154
:100BA000030186818A83CE0101961C01A2DCE091BB
:100BB0000201F09103018A81868307C2E09102015C
:100BC000F091030181858A83CE0101961C0191DC9D
:100BD000E0910201F09103018A818187F6C1E091E1
:100BE0000201F09103018281833108F0EEC1828914
:100BF0008A83CE0101961C017CDCE0910201F09118
:100C000003018A81828BE1C1E0910201F09103012D
:100C10008281833108F0D9C183898A83CE0101960C
:100C20001C0167DCE0910201F09103018A81838B52
:100C3000CCC1E0910201F091030182818B3008F474
:100C4000C4C185898A83CE0101961C0152DCE091E2
:100C50000201F09103018A81858BB7C1E091020105
:100C6000F091030182818B50883008F0AEC18689F3
:100C70008A83CE0101961C013CDCE0910201F091D7
:100C800003018A81868BA1C1E0910201F0910301E9
:100C900082858A83CE0101961C012BDCE091020142
:100CA000F09103018A81828790C1E0910201F09165
:100CB000030182818E3008F088C184898A83CE0145
:100CC00001961C0116DCE0910201F09103018A817A
:100CD000848B7BC1E0910201F091030183858A83BB
:100CE000CE0101961C0105DCE0910201F0910301A7
:100CF0008A8183876AC1E0910201F09103018485B2
:100D00008A83CE0101961C01F4DBE0910201F0918F
:100D100003018A81848759C1E0910201F0910301A6
:100D200087858A83CE0101961C01E3DBE0910201F5
:100D3000F09103018A81878748C1211146C1E09162
:100D40000201F091030180898A83CE0101961C0182
:100D5000D0DBE0910201F09103018A81808B35C1E3
:100D6000211133C1E0910201F091030181898A834D
:100D700010930401CE0101961C01BBDBE09102013E
:100D8000F09103018A81818B20C1E0910201F091F1
:100D9000030182818C3008F418C1211116C18789A2
:100DA0008A83CE0101961C01A4DBE0910201F0913F
:100DB00003018A81878B09C1E0910201F09103014F
:100DC00082818D50863008F000C1808D8A83CE01EB
:100DD00001961C018EDBE0910201F09103018A81F2
:100DE000808FF3C0E0910201F091030182818D3088
:100DF00008F4EBC0818D8A8310930401CE01019623
:100E00001C0177DBE0910201F09103018A81818F5F
:100E1000DCC0E0910201F091030182818D3008F481
:100E2000D4C0828D8A8310930401CE0101961C01E7
:100E300060DBE0910201F09103018A81828FC5C0DD
:100E4000E0910201F091030182818D3008F4BDC070
:100E5000838D8A8310930401CE0101961C0149DB26
:100E6000E0910201F09103018A81838FAEC0E0918D
:100E70000201F091030182818D3008F4A6C0848DB7
:100E80008A8310930401CE0101961C0132DBE091AC
:100E90000201F09103018A81848F97C0E0910201E1
:100EA000F091030182818D3008F48FC0858D8A8393
:100EB000CE0101961C011DDBE0910201F0910301BE
:100EC0008A81858F82C0E0910201F09103018281C5
:100ED0008D50863008F079C0868D8A83CE010196C8
:100EE0001C0107DBE0910201F09103018A81868FEA
:100EF0006CC0E0910201F091030182818D3008F411
:100F000064C0878D8A83CE0101961C01F2DAE091DC
:100F10000201F09103018A81878F57C080913E02C0
:100F2000882309F452C0E0910201F091030180A1ED
:100F30008A83CE0101961C01DCDAE0910201F09176
:100F400003018A8180A341C0E0910201F091030175
:100F500082818131D0F12223C1F181A18A83109352
:100F60000401CE0101961C01C4DAE0910201F09166
:100F700003018A8181A329C0E0910201F09103015C
:100F80008281823110F1211120C082A18A83CE0199
:100F900001961C01AEDAE0910201F09103018A8111
:100FA00082A313C0E0910201F0910301828182319A
:100FB00060F083A18A83CE0101961C019ADAE09148
:100FC0000201F09103018A8183A3009304019B81B4
:100FD000943611F0983CF9F414D48B81843631F4B2
:100FE00084E294E044D486E194E002C083EC93E090
:100FF0003ED461E080E0FFD385E094E038D482D332
:10100000873039F4F89481E09B81943641F080E098
:1010100006C01B8239CD8981890F8B8335CD0F9016
:101020000F900F90DF91CF911F910F913F902F90D4
:10103000089584E694E01BD4E0910201F09103014D
:10104000808190E0FCD38EEC90E011D4E09102011D
:10105000F0910301818190E0F2D38AEC90E007D413
:1010600080912201813039F018F0823039F00895F2
:101070008EEB93E005C089EB93E002C083EB93E035
:10108000F6C3CF93DF93BDD3C0E0D0E080910201DF
:10109000909103018C0F9D1FFC01E05AFF4F80814E
:1010A000B2D32196C031D10589F761E080E0A3D3A6
:1010B00083E291E0B9D326D3A4D3BBDF61E080E023
:1010C0009AD382E394E0D3D384E694E0D0D3E09142
:1010D0000201F0910301828190E0B1D3DF91CF91C1
:1010E00011C30F931F93CF93DF9310921E0189D3E7
:1010F000809102019091030116DC882309F485C0D8
:101100008091020190910301E3E2F1E01082DC01A1
:10111000AF5BBF4F2C91233209F0208331960196AB
:1011200021E0E133F20791F7109231011092690347
:1011300010923E0210E001E0C12FD0E0FE01EE0F60
:10114000FF1FEF5CFC4F659174918FE392E0DFD558
:10115000AFE3B2E0E3E2F1E081919D91891719F0EC
:10116000992319F01CC0811114C0E0910201F09183
:1011700003018281803128F4143080F400936903E4
:101180000DC000936903C15FDE4F888180933E02EA
:1011900005C081E0E233F807F9F601C01FE01F5FE8
:1011A0001F3050F291E090931E01E0910201F09106
:1011B00003018585853A31F486858A35A1F410923C
:1011C000220113C08A3531F48685853A61F4909303
:1011D00022010BC0853539F486858A3A21F482E0F4
:1011E0008093220102C010921E0180911E01811184
:1011F00003C088E594E00BC0808184508A3040F0C1
:1012000010921E0184E694E002C080E594E02FD3A2
:1012100080911E01882311F034DF04C08CE594E036
:1012200026D370D280911E01DF91CF911F910F9133
:101230000895E7D289ED91E048D98FE392E0F4D2A6
:1012400061D2DFD285E091E0EFD261E080E0D3D2DD
:1012500084E694E00CD38AEC92E3F1D253C2CF93AC
:10126000DF93C0E1D0E1D093C100CBD280911E01C9
:10127000882319F083EE93E002C082ED93E0F7D269
:1012800061E080E0B8D284EF93E0F1D23BD28530C8
:1012900019F120F4843039F724DFE5CF863029F0C6
:1012A000873009F7DF91CF9139C080911E018823E3
:1012B00021F0DADB8823B9F204C013DF8111F9CF02
:1012C000D2CF9FD280911E01882369F21092C10073
:1012D00040DBC093C100C7CF80911E01882311F06D
:1012E000D0DEC1CFA6DFBFCFCF93DF9399D1DAD4C1
:1012F0008CE0CBD280E571D2C9E6D4E0FE018491C6
:1013000073D22196F4E0C937DF07C1F7DF91CF919F
:101310000895EADFA4CF4598459A089510923401C4
:1013200010923501109236011092370186B185FB7B
:10133000882780F9982F459A3D9A45982DE32A955C
:10134000F1F70000349B02C0982F926044983C98BB
:10135000459A3D9845989093360181E0911101C0DE
:1013600080E00895459A3D9AD6DF3C9A08954498C6
:101370003C98D1DF3D9845980895CF93DF93F2DFF5
:101380004498C9DF449AC7DF44983C98D8E0C0E04D
:10139000C695C1DF3499C068D150D1F7E8DF8C2FF2
:1013A000DF91CF910895CF93DF93CFEFDFEFE5DFAC
:1013B00080FD04C0209711F02197F9CF81E0CD2B5B
:1013C00009F480E0DF91CF910895CF93DF93D82F78
:1013D000C9DF449AA0DF9FDFC8E0D0FF02C0449A73
:1013E00001C0449898DFD695C150B9F7DF91CF91ED
:1013F000BECFCF93DF9344983C98CFEFDFEF8BDFE6
:101400002197209711F0349BFACF81E0CD2B09F47E
:1014100080E0DF91CF910895CF93A4DF44987BDFE4
:101420007ADF79DF78DFE5DF8823A9F010926A039D
:10143000C8E080916A03869580936A036CDF349BD1
:1014400005C080916A03806880936A03C15089F760
:101450008EDF81E001C080E0CF910895A4DF882372
:1014600031F0DADF882319F080916A0301C082E04D
:101470008093380181E0909138019D3009F080E03F
:10148000089580E0A2DFC8DF80916A038093340171
:101490000895CF93DF93D82F65DF449A3CDF4498BB
:1014A0003ADF39DF38DFC8E0D0FF02C0449A01C01C
:1014B000449831DFD695C150B9F79BDF882351F0AE
:1014C00056DFCFEFDFEF59DF81FF04C0209711F027
:1014D0002197F9CFDF91CF91089580916302D9DFF1
:1014E00080913D02D6DF80916402D3DFB7CFCF93E6
:1014F000C82F84EB6ADF8C2FCCDFCF91AFCF0EDF0C
:10150000811102C080E00895BCDF809134018150D8
:101510008E3FC0F782E059DF82E0BBDF84E0B9DFB5
:101520008BED90E00197F1F700C0000081E0B1DFA2
:101530009FEB2AED80E0915020408040E1F700C011
:10154000000082E0D4DF8823E9F266DF80916A033D
:101550008093350181E00895CF9386E0C8DF811143
:1015600002C080E01BC0B9DF8823D9F3C0916402B8
:101570001ADF8823B1F350DF882399F3E091320119
:10158000F0913301CF0101969093330180933201A2
:1015900080916A038083C15059F781E0CF9108950B
:1015A000CF9387E0A4DF8823A9F097DF882391F009
:1015B000C0916402E0913201F0913301CF010196B4
:1015C0009093330180933201808163DFC15091F7A2
:1015D000CF91E9CE80E0CF910895CF93C09163027F
:1015E000C695CF3068F488E082DF882349F08C2FDD
:1015F00050DF34DF882321F080E04BDFCF91D3CE62
:1016000080E0CF91089583E072DF882339F08EED7A
:1016100040DF8DEA3EDF85EA3CDFC5CE80E00895FD
:101620008AB18F708AB98BB1806F8BB985E085BD27
:1016300082EB86BDEEE6F0E08081816080830895D4
:101640001F920F920FB60F9211242F938F939F9397
:1016500082EB86BD90916D0389B180958927909129
:101660002101982390959093210120912001282316
:101670002927209320018923822390916D039827A5
:1016800090936D0390916C0320916D032823292B77
:1016900020936C0380916D03807F19F486E480931E
:1016A0001F0180911F01815080931F0181110CC087
:1016B0008091040180931F0190916B0380916D03D1
:1016C000807F892B80936B039F918F912F910F9037
:1016D0000FBE0F901F901895F89490916C0389237A
:1016E00090916C03982790936C0378940895F894E4
:1016F00090916B03892390916B03982790936B03D0
:1017000078940895CF93CFB778948091C10084FFE7
:1017100007C08091C00087FF03C085D180E011C061
:1017200080E4DADF811110C080E2D6DF81110EC0C3
:1017300080E1D2DF81110CC080E8CEDF882329F35D
:1017400087E0CFBFCF91089586E0FBCF85E0F9CF4A
:1017500084E0F7CF2B9A00C02B9808951F93CF9366
:10176000DF931F92CDB7DEB7662311F02D9A01C02B
:101770002D982C9897B19F6097B918B1107F982F2A
:1017800092959F70912B98B98983E4DF89818F703E
:10179000812B88B9DFDF1F6018B90F90DF91CF91DF
:1017A0001F9108952D982C9A87B1807F87B92B9A25
:1017B00000C086B12B9800C02B9A00C096B19F70D4
:1017C0008295807F2B98892B0895ECDF87FDFDCFD4
:1017D00084E090E00197F1F7E5CFCF93C82FF5DFD4
:1017E00060E08C2FCF91BACFCF93C82FEEDF61E0AE
:1017F0008C2FCF91B3CF611102C0805801C08054AB
:10180000ECCF81E0EACFCF93C82FDFDFCA3041F4BD
:10181000803410F480E401C080E08058CF91DDCFA7
:1018200061E08C2FCF919ACFCF93DF93EC01899118
:10183000882311F0E8DFFBCFDF91CF910895CF939C
:10184000DF9300D000D000D0CDB7DEB74AE0BE01B4
:101850006F5F7F4F63D2CE010196E6DF26960FB60B
:10186000F894DEBF0FBECDBFDF91CF910895CF9327
:10187000DF93FC018491EF012196882319F0C3DFE7
:10188000FE01F8CFDF91CF910895CF93C82F97B184
:101890009F6097B9259A249A239AE0E0FDE7319753
:1018A000F1F7419A409A56DFE0E0F7E23197F1F71D
:1018B00051DFE0E8F0E03197F1F74CDFE0E8F0E0ED
:1018C0003197F1F7409846DFE0E8F0E03197F1F723
:1018D00088E283DF88E081DF94DF86E07EDF8C2F83
:1018E000CF917BCF88E10FB6F8948093600010927F
:1018F00060000FBE0EDD2BE088E190E00FB6F8949B
:10190000A895809360000FBE20936000FFCF9627BC
:10191000092E0294202D2F702927692F6025660F2C
:10192000607E2627602D6927607F6695092E000C52
:10193000661F9695969596959F7196279827822F64
:1019400008952F923F92FF920F931F93CF93DF93AF
:10195000E1018A858F3079F480916202823029F02A
:10196000833029F0811105C002C086E003C085E004
:1019700001C087E08A876EE280E090E0C8DF698579
:10198000C6DF6885C4DF6F81C2DF6E81C0DF382F9C
:10199000292F8C81FE80082F1D81F80EF80161919E
:1019A0008F01832F922FB3DF382F292FF012F6CF1C
:1019B0006A85ADDF082FF92E88E08093C1008EE2A2
:1019C00080D189857ED188857CD18F817AD18E81A5
:1019D00078D11E81EC81FD81808173D12C813D8184
:1019E0002F5F3F4F3D832C831150A1F78A8569D12A
:1019F0008F2D67D1802F65D180E18093C1008FE961
:101A00009FE00197F1F700C000008091C6008B8332
:101A10008091C6008987DF91CF911F910F91FF9030
:101A20003F902F900895CF93DF93CDB7DEB72E97D9
:101A30000FB6F894DEBF0FBECDBFE3DE89E794E0BA
:101A400016DFF8943E018CE0680E711C98E1C92EF7
:101A5000D12C05E612E029E3E22E21E0F22E34E358
:101A6000A32E31E0B32E45E0842E41E0942E98E180
:101A70000FB6F89490936000109260000FBE1D8620
:101A80001C867E826D82E1E0EF83312C25D18C8330
:101A9000811114C03394F3E03F12F8CFB2DE86E830
:101AA00094E0E5DE2BE088E190E00FB6F894A8958D
:101AB000809360000FBE20936000FFCF8F3229F724
:101AC0000BD18A878F3211F407D18A878FE00FB646
:101AD000F894A895C09260000FBE809360006FE2FA
:101AE00080E090E014DF6A8512DF1C01F5D0898761
:101AF000682FC1010CDF1C01EFD08887682FC1015E
:101B000006DF1C01E9D08B83682FC10100DF2C01A7
:101B10004B8185E6282E82E0382E420D4E87DCD0A0
:101B2000F10181931F01682FC201F1DE2C014E8566
:101B30004211F4CFD1D08A83CFD0898389819A8111
:101B40008415950511F480E001C083E08B87811135
:101B5000A4C08A8590E0FC01F097ED30F10508F013
:101B60009AC0E85AFF4F099485E021C089E08F832D
:101B70009E828D8292C082E08F8392E89C878D87BF
:101B80008CC0CE0101961C01DCDEC8DB3D98459877
:101B90002BE088E190E00FB6F894A8958093600060
:101BA0000FBE20936000FFCFB9DB77C06ADC8C8763
:101BB00074C0A5DC811102C087E08B8783E08F832E
:101BC000BE82AD826AC01FDD09C0809165028C872C
:101BD000880F8093630210923D02FFDC81115DC08B
:101BE00017C0898580936302888580933D02809128
:101BF0006502809364021093330100933201ACDCE0
:101C0000882331F0809164028F831E830D8345C049
:101C10008FE042C08FE08B8789858093630288853F
:101C200080933D028B818093640210933301009373
:101C30003201B6DC882389F1F0923301E09232015F
:101C40008BDC882351F11093330100933201F09221
:101C50006102E09260021B8680916402A0913201D1
:101C6000B0913301E0916002F09161022C9190817A
:101C7000291711F094E09B871196B0933301A0933C
:101C800032013196F0936102E0936002815031F7A6
:101C900004C0459802C082E08B87FE0131961F0187
:101CA00050DEE5CEE0ECF0E080818D7F80838CE03B
:101CB00090E09093C5008093C40086E08093C200BA
:101CC00008959091C00095FFFCCF8093C60080914D
:101CD000C00086FFFCCF08958091C00087FFFCCF35
:101CE0008091C6000895AA1BBB1B51E107C0AA1F23
:101CF000BB1FA617B70710F0A61BB70B881F991FAD
:101D00005A95A9F780959095BC01CD010895FB01E6
:101D1000DC0105900D920020E1F70895BB27FB013F
:101D20005527AA27880F991FAA1FA41710F0A41BD4
:101D300083955051B9F7A05DAA3308F0A95DA1932E
:101D4000009779F7B111B1931192CB010DC0F999B8
:101D5000FECF92BD81BDF89A992780B50895A8E17C
:101D6000B0E042E050E012C0DC01FC01672F71914D
:101D70007723E1F7329704C07C916D937083629171
:101D8000AE17BF07C8F30895DC01CB01FC01F99938
:101D9000FECF06C0F2BDE1BDF89A319600B40D92B7
:0C1DA00041505040B8F70895F894FFCF70
:101DAC003901650214524242586D383850380000DF
:0E1DBC00000000000000000200000101010014
:00000001FF
