:1000000023C23DC23CC23BC23AC239C238C237C227
:1000100036C235C234C233C232C231C230C22FC23C
:1000200083CB2DC22CC22BC22AC229C228C227C20E
:1000300026C225C2B2C4B1C4B6C438C52BC5C0C41B
:10004000F4C4C4C491C5DCC48FC58EC5EEC46DC5EF
:10005000F2C4F7C407C56FC50BC510C515C514C5D7
:1000600036C535C534C53FC53EC541C53CC53BC594
:100070000BC50AC509C570C5202D20002E003D20E6
:1000800000D1019901910188017F01D101A8028568
:1000900002D1016F0168016001590119020F0200CC
:1000A00002F1015501230219020F020A025501A1B2
:1000B000019F019D019B01970194018E018B018598
:1000C0000182017C0178017401D101CE0185029683
:1000D00002A8028502A802B501AC01C701BE01A3B6
:1000E000018502A802600200008502A80267026082
:1000F000027402A8029D028A0285027D025A0254FD
:10010000024E02480242023C022D02280223021E35
:10011000021902E2011402A8029D0296028A0285D7
:10012000021E02EC011902E701E20185029602A813
:1001300002D101DF01DB01D501D101370232022DED
:1001400002280223021E02190214020F020A0205EB
:1001500002FB01F601496E6600372E352F3135005E
:10016000372E352F372E350031352F372E350031CC
:10017000352F300032353500313238003634003614
:10018000330034380033320033310032340031363A
:10019000003135003132003800370036003400338A
:1001A0000032004269646972656374004E6567617C
:1001B0007469766500506F7369746976650052657D
:1001C000766572736564004E6F726D616C004F4EA0
:1001D000004F46460053455455500041524D00547F
:1001E0005800312E323500312E313200302E383861
:1001F0000031302E3000382E303000362E303000B6
:10020000352E303000342E303000332E3030003276
:100210002E303000312E353000312E303000302E6F
:10022000373500302E353000302E333800302E3246
:100230003500302E313700302E313300302E31383A
:100240003800302E31323500302E30393400302E27
:1002500030363300302E30343700302E303331001A
:1002600044616D7065640044616D706564204C6923
:100270006768740056657279204C6F77004869672B
:10028000686573740048696768004D656469756DD9
:100290002048696768004D656469756D004D656447
:1002A00069756D204C6F77004C6F77005F035503C5
:1002B0004B03410337032D032B03210317030D03C6
:1002C0000203F702EF02E502E302DF02D602D402E4
:1002D000D2025A0054005375706572535F34005354
:1002E000756E0052004D7973746572795F34004DFC
:1002F000537461725F34004D537461725F323041E8
:1003000076004D537461725F3230415F00484B5F3D
:10031000554245435F3400484B5F554245435F3388
:100320000048485F554245435F32004400426C75C7
:10033000655365725F3700426C75655365725F3651
:1003400000426C75655365725F3300426C7565538E
:1003500065725F3200426C75655365725F310041B2
:10036000004C6F6F70004D554C5449005441494C3E
:10037000004D41494E0043616E63656C2026204567
:100380007869743F00282B29426F7820202052651D
:100390006164282D2900282B2942455343202052EF
:1003A000656164282D290028032953657475702020
:1003B00045786974280229002803294E6F202020DF
:1003C000202059657328022900746F204245534349
:1003D0003F00204F4B200057726974652000546124
:1003E00072676574004C61796F75742000206D69C7
:1003F0006E0020562F63656C6C00332E0020755301
:10040000656300436F6E6E656374004D656D00201B
:100410004572726F7221005265762E0000040E1F25
:1004200004040400000404041F0E0400506F7765E8
:10043000722075702042455343202100557064613D
:1004400074696E672E2E2E0011241FBECFEFD4E0EC
:10045000DEBFCDBF11E0A0E0B1E0EEE0FBE102C005
:1004600005900D92AC3AB107D9F724E0ACEAB1E0BF
:1004700001C01D92A130B207E1F7A8DA46CBC0CD8A
:1004800081E08093BE0289EE92E2359903C010921A
:10049000B20004C001970097C1F727C08091B20055
:1004A0008730E0F3359921C020E030E080E097E02C
:1004B00041E050E0935F6091B2006917E0F3359B33
:1004C00007C0BA01022E01C0660F0A94EAF7862B14
:1004D0002F5F3F4F9F3671F79091B2009B37E0F34B
:1004E000359B03C01092BE02089580E008954598A0
:1004F0001092B2009091B2009D30E0F39DE080FF39
:1005000002C0459A01C04598935F86952091B2003C
:100510002917E0F3953799F7459A8091B200823810
:10052000E0F308954091B1018091C5029091C60217
:1005300058E09C0124279695879520FF04C021E070
:10054000822720EA92274695515099F74093B101AE
:100550009093C6028093C50208951F93CF93DF93B3
:10056000162F1092C6021092C5021092B30110927B
:10057000B2012FEF2093B001C82FD92F180F80DFC1
:100580008093B1019091BE02911127C08993CADF77
:100590001C13F5CF8091B6018823E1F071DF8093C1
:1005A000B2018091BE02811118C06ADF8093B3014D
:1005B0008091BE02811111C02091C5023091C60206
:1005C0008091B2019091B3012817390719F082EC9C
:1005D0008093B00155DF8093B00181E09091B0012C
:1005E000903309F080E0DF91CF911F9108950F9330
:1005F0001F93CF93DF931F92CDB7DEB73D9A25E8C7
:100600002A95F1F700001092C6021092C5028C01E3
:10061000680FF80181918F018093B101698367DFD1
:1006200081DF69816013F5CF8091B601882331F0B5
:100630008091C5025CDF8091C60259DF3D980F9022
:10064000DF91CF911F910F910895CF93DF93CDB795
:10065000DEB76D970FB6F894DEBF0FBECDBF84E353
:1006600097E3A1E38B8F9C8FAD8F81E1EDE8F1E003
:10067000DE01119601900D928A95E1F761E1CE01BC
:100680000196B5DF68E0CE01429667DF8823C1F0AE
:10069000FE017296DE015B96CE01459631912D9159
:1006A00032130EC0E817F907C9F78D898093B80196
:1006B0008E898093B7018F898093B60181E001C054
:1006C00080E06D960FB6F894DEBF0FBECDBFDF9110
:1006D000CF910895CF93C82FD3DE8093B001C1503E
:1006E0008091BE02882329F0C111F6CF8FEF80934D
:1006F000B0018091B001CF910895CF93DF9300D0E6
:1007000000D0CDB7DEB79091C3028091BF029F3F6A
:1007100011F48F3F81F02FEF29831A829B838C8302
:1007200064E0CE01019663DF82E0D4DF91E08033A4
:1007300019F090E001C091E0892F0F900F900F9079
:100740000F90DF91CF910895CF93DF9300D000D029
:10075000CDB7DEB78EEF89831A821B828091C402E7
:100760008C83811102C081E08B8364E0CE0101960D
:100770003EDF82E0AFDF8F3F61F46091C402809181
:10078000B4019091B50133DF88E2A4DF91E08033BA
:1007900009F090E0892F0F900F900F900F90DF914C
:1007A000CF910895CF93DF9300D0CDB7DEB7A5DF0B
:1007B000882389F084E089838091C4028A8362E07F
:1007C000CE01019614DF6091C4028091B401909132
:1007D000B501C3DE01C080E00F900F90DF91CF9193
:1007E0000895CF93DF9300D0CDB7DEB786DF88239F
:1007F00081F0AADF882369F085E0898381E08A831C
:1008000062E0CE010196F3DE8FEF64DF91E080338A
:1008100009F090E0892F0F900F90DF91CF9108950C
:100820001F93CF93DF93182FEC01CE0156D9EC2FF5
:10083000E11BF0E0E452FC4F808321968111F5CF5B
:10084000DF91CF911F9108952F923F92AF92BF9267
:10085000DF92EF920F931F93CF93DF93E10181E03B
:100860009981911180E0D82ED194EA8124E0E29F11
:10087000F0011124E050FF4F82819381D1DF8A8102
:1008800094E0899FF0011124E050FF4FE080118136
:10089000E0918A01F0918B018F3091F49281923135
:1008A00048F49091CB03992329F19091FD0399236A
:1008B00009F125C09091FD0391111CC012E01FC0E9
:1008C0008C3119F41091DB031AC0873021F4928126
:1008D0009E30A8F013C0893039F49281903160F4D1
:1008E0009F3069F417E00BC08E3049F4928190314B
:1008F00028F405C013E003C01DE001C016E092819A
:10090000913160F0823129F48091CB03811105C0CF
:1009100005C0833011F0813109F413E0AA24AA94B0
:10092000B12C8981D81609F420C1DFD78CED93E072
:10093000EFD78A81833050F48091CB03823031F439
:1009400060E080E0CCD781E693E005D8898160E063
:10095000843610F08DE005C08A3010F08EE001C0C2
:100960008FE0BDD7898190E0DED761E080E0B7D726
:100970008EE790E0F0D7E9811E1708F4F5C0EE1578
:1009800008F4F2C04A8150E04232510508F0ECC050
:10099000465E5F4F4F935F930895F0E0EE0FFF1FA9
:1009A000E75CFE4FDEC08091CB03F0E0EE0FFF1F4F
:1009B000811103C0EF5CFE4FD4C0E75DFE4FD1C094
:1009C000F0E0EE0FFF1FE15EFE4FCBC0A0918A0169
:1009D000B0918B0112968C918E3010F00EEF01C009
:1009E0000FEF0E0F0F3F49F08AEF93E0B4D7802F3F
:1009F00090E099D782EF93E0B6C081ED91E0B3C06B
:100A0000A0918A01B0918B0112968C91803110F0E7
:100A1000E15005C08F3011F4EB5F01C0E95FF0E0F9
:100A2000EE0FFF1FE350FF4F9CC0F0E0EE0FFF1FE3
:100A3000EB5EFE4F96C0F0E0EE0FFF1FE151FF4F5F
:100A400090C0A0918A01B0918B0112968C91F0E038
:100A5000EE0FFF1F8B3018F4E152FF4F82C0E951B7
:100A6000FF4F7FC0F0E0EE0FFF1FE953FF4F79C04B
:100A7000F0E0EE0FFF1FE752FF4F73C0F0E0EE0F04
:100A8000FF1FEB52FF4F6DC0F0E0EE0FFF1FE7536B
:100A9000FF4F67C0F4E6EF9FC0011124B501E9D70D
:100AA000CB01992740D785E222D75EC0A0918A0169
:100AB000B0918B0112968C91F0E0EE0FFF1F813107
:100AC00018F0E553FF4F4DC0EF52FF4F4AC0F0E022
:100AD000CF0186509F4F880F991F880F991F23D7EA
:100AE0008DEF93E040C08E2F90E01DD73DC0A091C8
:100AF0008A01B0918B018C9111962C9130E09AE093
:100B0000899F200D311D1124F0E0EE0FFF1F2037CB
:100B100031051CF4ED55FF4F02C0E756FF4F85919C
:100B2000949119D78DEE93E01EC0F0E0EE0FFF1FF9
:100B3000E355FF4F16C0A0918A01B0918B01129628
:100B40008C91F0E0EE0FFF1F813118F0E757FF4F57
:100B500008C0E157FF4F05C0F0E0EE0FFF1FE1585E
:100B6000FF4F85919491F7D6D98080E429D68823C8
:100B700081F08FEF888385E6EFE1FEE43197F1F7AE
:100B800000C00000815011F488EC30C04E9BF4CFBF
:100B900031C080E115D6882331F08981E81638F418
:100BA0008150898304C080E116D68111F6CF80E29E
:100BB00007D6882331F08981811738F48F5F8983C4
:100BC00004C080E208D68111F6CF80E8F9D58823E9
:100BD00009F4A7CE81E0888385E6EFE1FEE4319752
:100BE000F1F700C00000815019F484E68A8302C046
:100BF0004F9BF3CFDF91CF911F910F91EF90DF903B
:100C0000BF90AF903F902F9008951092BF0220E7C1
:100C10002093C4029093B5018093B4011092C30253
:100C2000FED4882339F0BEDD91E0811101C090E04F
:100C3000892F089580E00895CF93DF9380918801F4
:100C400090918901E2DF882309F48DC0E0918A0147
:100C5000F0918B01A0918801B091890190818C91D4
:100C6000981383C0918111968C91119798137DC030
:100C700095851D968C911D97981377C096851E9625
:100C80008C911E97981371C01092BF0280E78093D9
:100C9000C4028C91808312968C911297828380E09B
:100CA00090E0ED01C80FD91FC05CDF4F2881EF0134
:100CB000C80FD91FC05CDF4F288301968033910590
:100CC00081F7F093B501E093B40181E08093C40211
:100CD000C0E0D0E0E0918A01F0918B01A091880101
:100CE000B0918901AC0FBD1FEC0FFD1F9C9180815D
:100CF000981739F0C093BF02F093B501E093B401A7
:100D000070DD2196C034D10529F71092BF0280E72B
:100D10008093C40280918801909189019093B501DC
:100D20008093B4018FE19EE40197F1F700C00000C9
:100D300039DD8823E1F08FE19EE40197F1F700C0EF
:100D40000000A0918A01B0918B01E0918801F0919F
:100D5000890180E0C0E02D9191912913C3E08F5F5C
:100D60008037C9F705C0C1E003C0C2E001C0C3E0DD
:100D700087ED93E0F0D5C11103C082ED93E007C089
:100D8000C23019F48EED93E0E6D58FE094E0E3D520
:100D90002DD58C2FDF91CF9108952F923F92FF9206
:100DA0000F931F93CF93DF9300D01F92CDB7DEB781
:100DB0001B8281E08983789415E00EE1F1E2FF2E39
:100DC0008B81893081F4E0918A01F0918B018185DA
:100DD0008A83CE0101961C0137DDE0918A01F091F2
:100DE0008B018A8181878B818F3081F4E0918A0128
:100DF000F0918B0182858A83CE0101961C0124DD4E
:100E0000E0918A01F0918B018A8182878B81823106
:100E100081F4E0918A01F0918B0183858A83CE0170
:100E200001961C0111DDE0918A01F0918B018A810C
:100E300083878B81833181F4E0918A01F0918B016A
:100E400084858A83CE0101961C01FEDCE0918A0133
:100E5000F0918B018A8184878B81843181F4E091C8
:100E60008A01F0918B0187858A83CE0101961C014E
:100E7000EBDCE0918A01F0918B018A8187878B817D
:100E80008630A1F48091CB03813081F4E0918A0116
:100E9000F0918B0180858A83CE0101961C01D4DC00
:100EA000E0918A01F0918B018A8180878091CB0348
:100EB000E0918A01F0918B01882329F08230C1F5FD
:100EC00082818031A8F18B8181110CC083818A835A
:100ED000CE0101961C01B8DCE0918A01F0918B01F2
:100EE0008A8183838B81813081F4E0918A01F09142
:100EF0008B0184818A83CE0101961C01A5DCE091DF
:100F00008A01F0918B018A8184838B81823081F404
:100F1000E0918A01F0918B0185818A83CE0101964F
:100F20001C0192DCE0918A01F0918B018A8185831A
:100F30008091CB03882359F18B81853081F4E09136
:100F40008A01F0918B0187818A83CE0101961C0171
:100F50007BDCE0918A01F0918B018A8187838B8110
:100F60008831A9F4E0918A01F0918B01828181316D
:100F700070F081A18A8310938C01CE0101961C012F
:100F800063DCE0918A01F0918B018A8181A38B81DE
:100F90008730C9F48091CB03E0918A01F0918B01F5
:100FA000882329F09281943170F4823061F4868133
:100FB0008A83CE0101961C0147DCE0918A01F09101
:100FC0008B018A818683E0918A01F0918B01828175
:100FD0008B3028F18B818C3061F485898A83CE0136
:100FE00001961C0131DCE0918A01F0918B018A812C
:100FF000858B8B818E3099F4E0918A01F0918B0181
:101000008281833160F486898A83CE0101961C0136
:101010001BDCE0918A01F0918B018A81868B8B81A8
:10102000803199F4E0918A01F0918B0182818E30B8
:1010300060F484898A83CE0101961C0105DCE0916D
:101040008A01F0918B018A81848B8091CB0381117D
:101050003EC08B81853181F4E0918A01F0918B0152
:1010600080898A83CE0101961C01EEDBE0918A0122
:10107000F0918B018A81808B8B81843091F4E09197
:101080008A01F0918B0181898A8310938C01CE01B2
:1010900001961C01D9DBE0918A01F0918B018A81D4
:1010A000818BE0918A01F0918B0182818C3078F004
:1010B0008B81833061F487898A83CE0101961C017C
:1010C000C3DBE0918A01F0918B018A81878BE091EB
:1010D0008A01F0918B0182818D3008F479C08B8177
:1010E000863171F4818D8A8310938C01CE01019633
:1010F0001C01AADBE0918A01F0918B018A81818F2A
:101100008B81873191F4E0918A01F0918B01828D7E
:101110008A8310938C01CE0101961C0195DBE0912E
:101120008A01F0918B018A81828F8B81893191F4C0
:10113000E0918A01F0918B01838D8A8310938C0159
:10114000CE0101961C0180DBE0918A01F0918B01B8
:101150008A81838F8B818A3191F4E0918A01F091A9
:101160008B01848D8A8310938C01CE0101961C0122
:101170006BDBE0918A01F0918B018A81848F8B81F6
:101180008B3181F4E0918A01F0918B01858D8A8306
:10119000CE0101961C0158DBE0918A01F0918B0190
:1011A0008A81858F8B818D3099F4E0918A01F0914D
:1011B0008B018281833160F4868D8A83CE01019612
:1011C0001C0142DBE0918A01F0918B018A81868FBC
:1011D0008B81813199F4E0918A01F0918B018281B8
:1011E0008E3060F0878D8A83CE0101961C012CDB46
:1011F000E0918A01F0918B018A81878F8B818C31FC
:10120000A1F48091DB03882381F0E0918A01F091C1
:101210008B0180A18A83CE0101961C0115DBE09130
:101220008A01F0918B018A8180A3E0918A01F0917B
:101230008B018281823130F18B818D3181F48091FB
:10124000CB0381110CC082A18A83CE0101961C01BF
:10125000FBDAE0918A01F0918B018A8182A38B8174
:101260008E3181F4E0918A01F0918B0183A18A8310
:10127000CE0101961C01E8DAE0918A01F0918B0120
:101280008A8183A3E0918A01F0918B01828184316C
:10129000C8F18B818F3161F484A18A83CE010196DC
:1012A0001C01D2DAE0918A01F0918B018A8184A33A
:1012B0008B81803281F4E0918A01F0918B0185A1CC
:1012C0008A83CE0101961C01BFDAE0918A01F09178
:1012D0008B018A8185A38B818132A1F48091CB031C
:1012E000882381F0E0918A01F0918B0186A18A83A5
:1012F000CE0101961C01A8DAE0918A01F0918B01E0
:101300008A8186A300938C019B81943611F0983CCE
:10131000E9F4EBD28B81843631F487ED93E01BD373
:1013200089EC93E002C086E793E015D361E080E0AA
:10133000D6D288EB93E00FD359D2873091F4F8944A
:1013400081E09B81943679F080E00DC08981890F1E
:101350008F3F11F08B8301C0FB828B81823208F4B6
:101360002FCD1B822DCD0F900F900F90DF91CF913D
:101370001F910F91FF903F902F90089587E194E087
:10138000EAD2E0918A01F0918B01808190E0CBD28A
:101390008CE790E0E0D2E0918A01F0918B018181AD
:1013A00090E0C1D288E790E0D6D28091CB03813023
:1013B00039F018F0823039F0089581E793E005C0E4
:1013C0008CE693E002C086E693E0C5C2CF93DF933C
:1013D0008CD2C0E0D0E080918A0190918B018C0F7B
:1013E0009D1FFC01E05AFF4F808181D22196C031C0
:1013F000D10589F761E080E072D28CEC93E088D26D
:10140000F5D173D2BBDF61E080E069D285EE93E075
:10141000A2D287E194E09FD2E0918A01F0918B0102
:10142000828190E080D2DF91CF91E0C11F93CF9372
:10143000DF931092AC0159D280918A0190918B0177
:10144000E4DB882309F46FC080918A0190918B01BD
:10145000ECECF3E01082DC01AF5BBF4F2C91233248
:1014600009F020833196019623E0EA3DF20791F7D7
:101470001092DA031092FD031092DB03CCEAD2E063
:1014800011E0FE01659174918CED93E006D3ACED13
:10149000B3E0ECECF3E081919D91891719F0992369
:1014A00019F009C0811103C01093FD0304C083E04B
:1014B000EB3DF80781F7229622E0C23DD20709F7FB
:1014C00091E09093AC01E0918A01F0918B018585C8
:1014D000853A31F486858A35A1F41092CB0313C086
:1014E0008A3531F48685853A61F49093CB030BC03D
:1014F000853539F486858A3A21F482E08093CB03DE
:1015000002C01092AC018091AC01811103C08BE04C
:1015100094E00BC0808184508B3040F01092AC017D
:1015200087E194E002C083E094E015D28091AC01A1
:10153000882311F04BDF04C08FE094E00CD256D129
:101540008091AC01DF91CF911F9108958091AC0102
:1015500081113CDFCAD18EE791E062D98CED93E036
:10156000D7D144D1C2D18EE991E0D2D161E080E0FF
:10157000B6D187E194E0EFD18EED97E3D4D136C1B7
:10158000B4D18091AC01882319F086E993E002C0C0
:1015900085E893E0E0D161E080E0A1D187EA93E0C3
:1015A000DAD124D18530E9F020F4843049F73EDFE8
:1015B000E7CF863019F0873019F708958091AC0194
:1015C000882321F0EADB8823D9F204C02FDF8111C0
:1015D000F9CFD6CF8AD18091AC01882389F22CDB58
:1015E000CFCFB4DFCDCFCF93DF9313D08DD028D220
:1015F0008CE0BFD180E565D1CCE1D4E0FE018491DF
:1016000067D12196F4E0CC32DF07C1F7DF91CF91AB
:10161000B7CF83E08093B1003D98459A0895EF924B
:10162000FF920F931F93CF93DF931F92CDB7DEB737
:101630001092B7011092B60158D18CE294E08BD190
:1016400061E080E04CD180E9E82EFF24F39409E1C9
:1016500010E0A89521E0E21AF108C701B80109D20B
:10166000892B19F489EA91E053D180EFA9D0811137
:1016700037C08091C10084FF04C08091C00087FD05
:101680002FC0E3D78091B6019091B701873093497D
:10169000C9F08091B6019091B7018A30934991F0D9
:1016A0008091B6019091B7018F30934959F08091A4
:1016B000B6019091B70121E08B30944909F020E008
:1016C000922F01C091E0892FE114F10461F0911192
:1016D00009C08FE39CE90197F1F700C00000B9CF82
:1016E00080E001C081E0898300D18981811104C03B
:1016F0001092B7011092B6010F90DF91CF911F9118
:101700000F91FF90EF9008958AB18F708AB98BB1D5
:10171000806F8BB985E085BD82EB86BDEEE6F0E09B
:1017200080818160808308951F920F920FB60F927F
:1017300011242F938F939F9382EB86BD9091000489
:1017400089B1809589279091AF01982390959093C6
:10175000AF012091AE01282329272093AE018923D0
:101760008223909100049827909300049091FF03A6
:10177000209100042823292B2093FF03809100044B
:10178000807F19F486E48093AD018091AD01815092
:101790008093AD0181110CC080918C018093AD01CB
:1017A0009091FE0380910004807F892B8093FE033B
:1017B0009F918F912F910F900FBE0F901F901895B2
:1017C000F8949091FF0389239091FF0398279093B9
:1017D000FF0378940895F8949091FE0389239091E3
:1017E000FE0398279093FE0378940895CF93CFB784
:1017F00078948091C10084FF07C08091C00087FF6A
:1018000003C0F9D080E011C080E4DADF811110C09C
:1018100080E2D6DF81110EC080E1D2DF81110CC0E1
:1018200080E8CEDF882329F387E0CFBFCF910895EA
:1018300086E0FBCF85E0F9CF84E0F7CF2B9A00C09C
:101840002B9808951F93CF93DF931F92CDB7DEB7E8
:10185000662311F02D9A01C02D982C9897B19F60A6
:1018600097B918B1107F982F92959F70912B98B9C6
:101870008983E4DF89818F70812B88B9DFDF1F6066
:1018800018B90F90DF91CF911F9108952D982C9A40
:1018900087B1807F87B92B9A00C086B12B9800C092
:1018A0002B9A00C096B19F708295807F2B98892BD0
:1018B0000895ECDF87FDFDCF84E090E00197F1F71C
:1018C000E5CFCF93C82FF5DF60E08C2FCF91BACF53
:1018D000CF93C82FEEDF61E08C2FCF91B3CF611192
:1018E00002C0805801C08054ECCF81E0EACFCF9392
:1018F000C82FDFDFCA3041F4803410F480E401C027
:1019000080E08058CF91DDCF61E08C2FCF919ACFCE
:10191000CF93DF93EC018991882311F0E8DFFBCFAF
:10192000DF91CF910895CF93DF9300D000D000D006
:10193000CDB7DEB74AE0BE016F5F7F4FB5D0CE01B5
:101940000196E6DF26960FB6F894DEBF0FBECDBF38
:10195000DF91CF910895CF93DF93FC018491EF0144
:101960002196882319F0C3DFFE01F8CFDF91CF91D4
:101970000895CF93C82F97B19F6097B9259A249A5D
:10198000239AE0E0FDE73197F1F7419A409A56DF5C
:10199000E0E0F7E23197F1F751DFE0E8F0E031976E
:1019A000F1F74CDFE0E8F0E03197F1F7409846DFDF
:1019B000E0E8F0E03197F1F788E283DF88E081DF4B
:1019C00094DF86E07EDF8C2FCF917BCF88E10FB64E
:1019D000F89480936000109260000FBE04DE2BE04C
:1019E00088E190E00FB6F894A895809360000FBE50
:1019F00020936000FFCFCF93F89488E10FB6F8945E
:101A000080936000109260000FBEC0E02BD0811167
:101A100013C0CF5FC330D1F768DF8CE394E09BDF66
:101A20002BE088E190E00FB6F894A89580936000D1
:101A30000FBE20936000FFCF8F3239F7CF9108950A
:101A4000E0ECF0E080818D7F80838CE090E09093EB
:101A5000C5008093C40086E08093C20080E180933B
:101A6000C10008958091C00087FFFCCF8091C6001F
:101A70000895AA1BBB1B51E107C0AA1FBB1FA617D5
:101A8000B70710F0A61BB70B881F991F5A95A9F727
:101A900080959095BC01CD010895FB01DC01059076
:101AA0000D920020E1F70895BB27FB015527AA27D7
:101AB000880F991FAA1FA41710F0A41B83955051DB
:101AC000B9F7A05DAA3308F0A95DA193009779F753
:101AD000B111B1931192CB0108C0F999FECF92BD1B
:101AE00081BDF89A992780B50895DC01FC01672F24
:101AF00071917723E1F7329704C07C916D937083E5
:0E1B00006291AE17BF07C8F30895F894FFCFA7
:101B0E00010D7201010D660101045C010102B500B7
:101B1E0000FFBF00010551010105460101053A0113
:101B2E000102A80001052E0101052401010518017D
:101B3E0001050B01010D5F00010500010104F70015
:101B4E000102ED00010554000102E3000102D9007B
:101B5E000001D1000001CA00007D9B0082FF8E00B3
:101B6E0001FE3B0001FF830001FF760001056900C5
:101B7E000001480001112E00000121000001150096
:101B8E0000010B0001050000BA01C702140000009D
:101B9E0000000000000D424C48656C69F47D325225
:0C1BAE004242586D38385038002E0000BC
:00000001FF
