:1000000036C250C24FC24EC24DC24CC24BC24AC28F
:1000100049C248C247C246C245C244C243C242C2A4
:1000200021CC40C23FC23EC23DC23CC23BC23AC2EA
:1000300039C238C2D5C4D4C4DAC475C568C5E5C4EC
:1000400018C5EAC4CFC503C5CAC5C9C512C597C579
:1000500017C51DC52AC59AC52FC535C551C550C57B
:1000600070C56FC56EC5B1C5BAC578C5B8C5B7C5C9
:10007000E9C446C545C598C543C53D2000202D208F
:10008000002E00ED01AD01A7019F019601ED01A732
:10009000019F0196018D01ED01C402A102ED017DD8
:1000A0000176016E01670135022B021C020D02630D
:1000B000013F0235022B0226026301AF01AD01AB05
:1000C00001A901A501A2019C019901930190018A56
:1000D0000186018201ED01EA01A102B202C402A17E
:1000E00002C402D101C801E301DA01BF01B101A1DB
:1000F00002C4027C020000A102C40283027C0290BE
:1001000002C402B902A602A1029902760270026A32
:100110000264025E025802490244023F023A02357A
:1001200002FE013002C402B902B202A602A1023AE2
:1001300002080235020302FE01A102B202C402ED6E
:1001400001FB01F701F101ED0153024E02490244A6
:10015000023F023A02350230022B02260221021728
:10016000021202496E6600372E352F313500372EC8
:10017000352F372E350031352F372E350031352FBD
:100180003000323535003132380036340036330035
:10019000343800333200333100323400313600312C
:1001A0003500313200380037003600340033003279
:1001B000004269646972656374207265762E00423C
:1001C00069646972656374004E6567617469766518
:1001D00000506F7369746976650052657665727355
:1001E0006564004E6F726D616C004F4E004F464665
:1001F0000053455455500041524D00545800312E83
:10020000323500312E313200302E38380031302E68
:100210003000382E303000362E303000352E303061
:1002200000342E303000332E303000322E3030008B
:10023000312E353000312E303000302E3735003041
:100240002E353000302E333800302E323500302E2F
:10025000313700302E313300302E31383800302E17
:1002600031323500302E30393400302E3036330004
:10027000302E30343700302E3033310044616D7011
:1002800065640044616D706564204C696768740042
:1002900056657279204C6F7700486967686573749A
:1002A0000048696768004D656469756D2048696735
:1002B00068004D656469756D004D656469756D20F4
:1002C0004C6F77004C6F7700800376036C036203FA
:1002D00058034E034C03420338032E032B03200321
:1002E00015030D0303030103FD02F402F202F00201
:1002F0005A0054005375706572535F340053756E25
:100300000052004D7973746572795F34004D5374F7
:1003100061725F34004D537461725F323041760018
:100320004D537461725F3230415F00487400484B36
:100330005F554245435F3400484B5F554245435F3C
:10034000330048485F554245435F32004400426CE9
:1003500075655365725F3700426C75655365725FF2
:100360003600426C75655365725F3300426C75658B
:100370005365725F3200426C75655365725F310080
:1003800041004C6F6F70004D554C54490054414929
:100390004C004D41494E0043616E63656C20262040
:1003A000457869743F00282B29426F78202020521D
:1003B000656164282D2900282B29455343202020DE
:1003C00052656164282D29002803295365747570CE
:1003D0002045786974280229002803294E6F2020BF
:1003E00020202059657328022900746F204553434B
:1003F0003F00204F4B2000577269746520000A545B
:1004000061726765742077726F6E67002045727243
:100410006F72004C61796F75742000206D696E00F9
:1004200020562F63656C6C00332E00207553656376
:1004300000436F6E6E656374004D656D00526576A6
:100440002E0000040E1F04040400000404041F0E08
:100450000400506F7765722075702045534320214A
:10046000005570646174696E672E2E2E0000112491
:100470001FBECFEFD4E0DEBFCDBF11E0A0E0B1E002
:10048000E6E6FCE102C005900D92AA3BB107D9F760
:1004900024E0AAEBB1E001C01D92AF30B207E1F752
:1004A00031DBDFCBADCD81E08093CB0289EE92E2F0
:1004B000359903C01092B20004C00197C9F780E0DB
:1004C00008958091B2008A30E0F33599F8CF20E0AA
:1004D00030E080E09AE041E050E0935F6091B2004C
:1004E0006917E0F3359B07C0BA01022E01C0660F01
:1004F0000A94EAF7862B2F5F3F4F923771F790915E
:10050000B2009F37E0F3359BDACF1092CB0208950B
:1005100045981092B2009091B2009D30E0F39DE0BA
:1005200080FF02C0459A01C04598935F869520914F
:10053000B2002917E0F3953799F7459A8091B200F8
:100540008238E0F308952091BE018091D10290910C
:10055000D20238E0AC0142279695879540FF04C04F
:1005600041E0842740EA94272695315099F79093EB
:10057000D2028093D1022093BE0108950F931F935E
:10058000CF938C01C62F1092D2021092D1021092FA
:10059000C0011092BF0187DF8093BE019091CB0212
:1005A000911124C0F80181938F01CDDFC15099F7DB
:1005B0008091C301882301F176DF8093BF01809190
:1005C000CB02811113C06FDF8093C0018091CB02F9
:1005D00081110CC02091D1023091D2028091BF01D3
:1005E0009091C0012817390749F406C08FEF91E0B8
:1005F000803339F090E005C056DFF9CF54DF82EC4C
:10060000F6CF892FCF911F910F9108950F931F93CC
:10061000CF938C01C62F3D9A85E88A95F1F70000AB
:100620001092D2021092D102F80181918F01809331
:10063000BE016EDF88DFC150B9F78091C301882306
:1006400031F08091D10264DF8091D20261DF3D9868
:10065000CF911F910F910895CF93DF93CDB7DEB760
:100660006D970FB6F894DEBF0FBECDBF8091950198
:1006700090919601A09197018B8F9C8FAD8F81E116
:10068000E9E9F1E0DE01119601900D928A95E1F71A
:1006900061E1CE010196BADF68E0CE0142966EDFDD
:1006A0008823C9F0FE017296DE015B96CE01459665
:1006B00031912D9132130EC0E817F907C9F78D89D2
:1006C0008093C5018E898093C4018F898093C30173
:1006D00081E001C080E06D960FB6F894DEBF0FBEDA
:1006E000CDBFDF91CF910895CF93C82FDCDEC150ED
:1006F0009091CB02992319F0C111F8CF8FEFCF91D0
:100700000895CF93DF9300D000D0CDB7DEB790919E
:10071000CF028091CC029F3F11F48F3F81F02FEFE9
:1007200029831A829B838C8364E0CE0101966EDF5D
:1007300082E0DADF91E0803319F090E001C091E0CF
:10074000892F0F900F900F900F90DF91CF91089508
:10075000CF93DF9300D000D0CDB7DEB78EEF898383
:100760001A821B828091D0028C83811102C081E0A9
:100770008B8364E0CE01019649DF82E0B5DF8F3FD5
:1007800061F46091D0028091C1019091C2013EDF7D
:1007900088E2AADF91E0803309F090E0892F0F9082
:1007A0000F900F900F90DF91CF910895CF93DF932B
:1007B00000D0CDB7DEB7A5DF882381F084E0898340
:1007C0008091D0028A8362E0CE0101961FDF6091A2
:1007D000D0028091C1019091C201D0DE0F900F90A4
:1007E000DF91CF910895CF93DF9300D0CDB7DEB7DF
:1007F00088DF982F882391F0ABDF982F882371F042
:1008000085E0898381E08A8362E0CE010196FEDE85
:1008100080E06ADF91E0803309F090E0892F0F904B
:100820000F90DF91CF9108951F93CF93DF93182FEF
:10083000EC01CE010EDAEC2FE11BF0E0E651FC4FAB
:10084000808321968111F5CFDF91CF911F9108957B
:100850002F923F92AF92BF92CF92EF920F931F933E
:10086000CF93DF93E10181E09981911180E0C82E5F
:10087000C194EA8124E0E29FF0011124E050FF4F8F
:1008800082819381D1DF8A8134E0839FF00111243A
:10089000E050FF4FE0801181E0919201F0919301CF
:1008A0008F3091F49281923148F49091D70399233B
:1008B00051F190910B04992331F12CC090910B04CC
:1008C000911121C012E026C08C3119F41091E90376
:1008D00021C0873021F492819E30C8F41BC089303A
:1008E00031F49281903188F49F3099F013C08E30AA
:1008F00021F49281903158F40DC08E3159F49281D7
:10090000913238F407C013E005C01DE003C016E0C3
:1009100001C017E09281913198F0823129F48091E1
:10092000D703811106C00CC0833049F0813141F4F6
:1009300006C08091E803882311F014E001C013E0A1
:10094000AA24AA94B12C0AE08981C81609F44BC1E3
:1009500066D88AEE93E076D88A81833050F480910D
:10096000D703823031F460E080E053D882E893E02E
:100970008CD8898160E0843610F08DE005C08A3023
:1009800010F08EE001C08FE044D8898190E065D8F6
:1009900061E080E03ED88AE790E077D8298112179D
:1009A00008F420C12E1508F41DC1A0919201B09148
:1009B000930111968C9111978A3010F0602FF9D81D
:1009C0009C91EAE09E9F800D1124EA814E2F50E019
:1009D0004332510508F003C1FA01E65EFF4F099466
:1009E000E22FF0E0EE0FFF1FE95BFE4FEAC08091BF
:1009F000D703E22FF0E0EE0FFF1F811103C0E15C8F
:100A0000FE4FDFC0E95CFE4FDCC0E22FF0E0EE0FEE
:100A1000FF1FE35DFE4FD5C012968C918E3018F00B
:100A20005EEFC52E02C0CC24CA94C20EFFEFCF16D3
:100A300059F088E294E029D88C2D90E00ED880E21D
:100A400094E0C1C0211146C08DEE91E0BCC0129669
:100A50009C91903110F0EFEF05C09F3011F4E5E06C
:100A600001C0E7E0E20FF0E0EE0FFF1FE55FFE4F91
:100A7000A8C0E22FF0E0EE0FFF1FED5DFE4FA1C01A
:100A8000E22FF0E0EE0FFF1FE350FF4F9AC01296E7
:100A90008C91E22FF0E0EE0FFF1F8B3018F4E35142
:100AA000FF4F8FC0EB50FF4F8CC0E22FF0E0EE0FF6
:100AB000FF1FED52FF4F85C0E22FF0E0EE0FFF1F4A
:100AC000EB51FF4F7EC0E22FF0E0EE0FFF1FEF5122
:100AD000FF4F77C012968C91813278F0E22FF0E0D0
:100AE000CF0107969C01029FC001039F900D112426
:100AF000B4D78AEA91E0A6D775C08AEE91E063C0C8
:100B0000E22FF0E0EE0FFF1FEB52FF4F5AC034E62A
:100B1000239FC0011124B50158D8CB0199279DD737
:100B200085E27FD75FC012969C91E22FF0E0EE0F36
:100B3000FF1F913118F0E952FF4F43C0E352FF4FBE
:100B400040C0E22FF0E0CF0186509F4F880F991FE1
:100B5000880F991F82D78BE294E035C0E22FF0E036
:100B6000EE0FFF1F803718F4E155FF4F02C0EB5521
:100B7000FF4F8591949189D78BE194E024C0E22FB7
:100B8000F0E0EE0FFF1FE754FF4F1BC012969C9141
:100B9000E22FF0E0EE0FFF1F913118F0EB56FF4F00
:100BA00010C0E556FF4F0DC012969C91E22FF0E069
:100BB000EE0FFF1F953118F4E557FF4F02C0EF57B6
:100BC000FF4F8591949161D70DC0213041F49DE68E
:100BD000980F9D3008F438CF833A08F035CF822F34
:100BE00090E03BD7C98080E48BD6882381F08FEFDB
:100BF000888385E6EFE1FEE43197F1F700C000005D
:100C0000815011F488EC30C04E9BF4CF31C080E1AC
:100C100077D6882331F08981E81638F481508983AA
:100C200004C080E178D68111F6CF80E269D68823AE
:100C300031F08981811738F48F5F898304C080E2A5
:100C40006AD68111F6CF80E85BD6882309F47CCE82
:100C500081E0888385E6EFE1FEE43197F1F700C09B
:100C60000000815019F484E68A8302C04F9BF3CFC1
:100C7000DF91CF911F910F91EF90CF90BF90AF90E8
:100C80003F902F900895CF93DF93EC011092CC0208
:100C900080E78093D002D093C201C093C101FE01CE
:100CA00011928A95E9F71092CF025DD5882339F029
:100CB0007DDD91E0811101C090E0892F01C080E0CD
:100CC0009FEF9093D8038823C1F09D85953A31F426
:100CD0009E859A3591F41092D8030FC09A3529F465
:100CE0009E85953A51F491E006C0953531F49E8584
:100CF0009A3A19F492E09093D803DF91CF91089536
:100D0000CF93DF938091900190919101BCDF882374
:100D100009F48CC0E0919001F0919101A0919201B1
:100D2000B091930190818C91981382C0918111961A
:100D30008C91119798137CC09091D7038091D80320
:100D4000981376C01092CC0280E78093D00283E0A3
:100D500001900D928A95E1F7E0919001F091910157
:100D6000C0919201D0919301858596859E878D874C
:100D7000DE01A05CBF4FE05CFF4F80E301900D926D
:100D80008A95E1F7D093C201C093C10181E08093BD
:100D9000D002C0E0D0E0E0919201F0919301A091E7
:100DA0009001B0919101AC0FBD1FEC0FFD1F9C9104
:100DB0008081981739F0C093CC02F093C201E09380
:100DC000C10111DD2196C034D10529F71092CC0262
:100DD00080E78093D002809190019091910190934F
:100DE000C2018093C1018FE19EE40197F1F700C039
:100DF0000000DCDC8823F1F08FE19EE40197F1F73D
:100E000000C00000E0919201F0919301A091900147
:100E1000B0919101CF0180599F4FC0E031912D9148
:100E20003213C3E0E817F907C9F705C0C1E003C0F2
:100E3000C2E001C0C3E087EF93E027D6C11103C031
:100E400082EF93E007C08CE094E01FD6C23019F423
:100E50008EEF93E01AD66AD58C2FDF91CF9108954B
:100E60008DE394E012D6E0919201F091930180819C
:100E700090E0F3D581E890E008D6E0919201F091FE
:100E80009301818190E0E9D58DE790E0FED58091D6
:100E9000D703813039F018F0823039F0089582E9B3
:100EA00093E005C08DE893E002C087E893E0EDC5CC
:100EB000CF93DF93B4D5C0E0D0E0E0919201F09100
:100EC0009301EC0FFD1FE05AFF4F8081AAD52196B8
:100ED000C031D10591F761E080E09BD589ED93E0C9
:100EE000B1D524D59CD5BCDF61E080E092D583E10B
:100EF00094E0CBD58DE394E0C8D5E0919201F091D8
:100F00009301828190E0A9D5DF91CF910FC5CF9356
:100F1000DF931092BA0183D5809192019091930151
:100F2000B2DE882309F46AC08091D8038093D70386
:100F3000A0919201B0919301AF5BBF4FE9EDF3E057
:100F400010828D91833209F08083319683E0E73EF1
:100F5000F807B1F71092E70310920B041092E9031F
:100F6000C0E0D1E0EC2FF0E0EE0FFF1FE853FD4FA3
:100F7000659174918AEE93E03CD6AAEEB3E0E9ED78
:100F8000F3E081919D91891719F0992319F00AC016
:100F9000811104C0D0930B04C4E104C083E0E83E97
:100FA000F80779F7CF5FC431E8F28091D80391E078
:100FB0008F3F09F490E09093BA018F3F19F489E3D1
:100FC00094E01EC0E0919201F09193018081E95A72
:100FD000FF4F908121E0943209F020E02093E80354
:100FE000843038F0943219F08F3018F40AC081310F
:100FF00040F01092BA018DE394E002C081E394E0E6
:1010000044D58091BA01882311F052DF04C08CE0EE
:1010100094E03BD58BD48091BA01DF91CF910895B4
:101020002F923F92FF920F931F93CF93DF9300D0A5
:101030001F92CDB7DEB71B8281E08983789415E0DB
:101040000EE183E2F82E8B81893081F4E0919201E8
:10105000F091930181858A83CE0101961C01F8DB12
:10106000E0919201F09193018A8181878B818F3089
:10107000A1F48091E803811110C0E0919201F091F8
:10108000930182858A83CE0101961C01E1DBE09108
:101090009201F09193018A8182878B81823181F460
:1010A000E0919201F091930183858A83CE010196AC
:1010B0001C01CEDBE0919201F09193018A8183873C
:1010C0008B818331A1F48091E803811110C0E091FC
:1010D0009201F091930184858A83CE0101961C01CF
:1010E000B7DBE0919201F09193018A8184878B8133
:1010F000843181F4E0919201F091930187858A8394
:10110000CE0101961C01A4DBE0919201F0919301C4
:101110008A8187878B818630A1F48091D7038130C3
:1011200081F4E0919201F091930180858A83CE0150
:1011300001961C018DDBE0919201F09193018A816F
:1011400080878091D703E0919201F09193018823E9
:1011500051F0823009F040C082818031E8F1809105
:10116000E803811139C08B8181110CC083818A838E
:10117000CE0101961C016CDBE0919201F09193018C
:101180008A8183838B81813081F4E0919201F09197
:10119000930184818A83CE0101961C0159DBE09181
:1011A0009201F09193018A8184838B81823081F452
:1011B000E0919201F091930185818A83CE0101969D
:1011C0001C0146DBE0919201F09193018A818583B5
:1011D0008091D703882379F18B818530A1F48091A8
:1011E000E803811110C0E0919201F0919301878191
:1011F0008A83CE0101961C012BDBE0919201F091D4
:1012000093018A8187838B818831A9F4E0919201CF
:10121000F09193018281813150F181A18A831093F1
:101220009401CE0101961C0113DBE0919201F09133
:1012300093018A8181A38B818730C9F48091D70380
:10124000E0919201F0919301882329F092819431E9
:1012500070F4823061F486818A83CE0101961C018C
:10126000F7DAE0919201F09193018A818683E0910F
:101270009201F091930182818B3028F18B818C3027
:1012800061F485898A83CE0101961C01E1DAE0913F
:101290009201F09193018A81858B8B818E3099F434
:1012A000E0919201F09193018281833110F586895A
:1012B0008A83CE0101961C01CBDAE0919201F09174
:1012C00093018A81868B8B81803199F4E091920120
:1012D000F091930182818E3060F484898A83CE01FB
:1012E00001961C01B5DAE0919201F09193018A8197
:1012F000848B8091D70381113EC08B81853181F42D
:10130000E0919201F091930180898A83CE01019648
:101310001C019EDAE0919201F09193018A81808B09
:101320008B81843091F4E0919201F0919301818955
:101330008A8310939401CE0101961C0189DAE09111
:101340009201F09193018A81818BE0919201F09159
:10135000930182818C3078F08B81833061F48789AE
:101360008A83CE0101961C0173DAE0919201F0911B
:1013700093018A81878BE0919201F09193018281A0
:101380008D3008F479C08B81863171F4818D8A8328
:1013900010939401CE0101961C015ADAE09192015A
:1013A000F09193018A81818F8B81873191F4E09153
:1013B0009201F0919301828D8A8310939401CE0162
:1013C00001961C0145DAE0919201F09193018A8126
:1013D000828F8B81893191F4E0919201F091930198
:1013E000838D8A8310939401CE0101961C0130DA1B
:1013F000E0919201F09193018A81838F8B818A31F0
:1014000091F4E0919201F0919301848D8A8310937D
:101410009401CE0101961C011BDAE0919201F0913A
:1014200093018A81848F8B818B3181F4E0919201C9
:10143000F0919301858D8A83CE0101961C0108DA13
:10144000E0919201F09193018A81858F8B818D309B
:1014500099F4E0919201F09193018281833110F52A
:10146000868D8A83CE0101961C01F2D9E09192010A
:10147000F09193018A81868F8B81813199F4E0917B
:101480009201F091930182818E3060F0878D8A8382
:10149000CE0101961C01DCD9E0919201F0919301FB
:1014A0008A81878F8B818C31A1F48091E903882315
:1014B00081F0E0919201F091930180A18A83CE01A5
:1014C00001961C01C5D9E0919201F09193018A81A6
:1014D00080A3E0919201F09193018281823130F1F9
:1014E0008B818D3181F48091D70381110CC082A151
:1014F0008A83CE0101961C01ABD9E0919201F09153
:1015000093018A8182A38B818E3181F4E0919201D3
:10151000F091930183A18A83CE0101961C0198D991
:10152000E0919201F09193018A8183A3E09192016D
:10153000F09193018281843108F441C08B818F3115
:1015400061F484A18A83CE0101961C0181D9E091C6
:101550009201F09193018A8184A38B818032A1F45E
:101560008091E803811110C0E0919201F091930104
:1015700085A18A83CE0101961C016AD9E09192016E
:10158000F09193018A8185A38B818132C1F480918E
:10159000D7038823A1F08091E803811110C0E09166
:1015A0009201F091930186A18A83CE0101961C01DC
:1015B0004FD9E0919201F09193018A8186A3E09145
:1015C0009201F09193018281853178F08B81823292
:1015D00061F487A18A83CE0101961C0139D9E0917B
:1015E0009201F09193018A8187A38091E803882377
:1015F000A9F08B81833291F4E0919201F0919301F3
:1016000080A58A8310939401CE0101961C0120D9F4
:10161000E0919201F09193018A8180A70093940157
:101620009B81943611F0983CE9F4F9D18B81843692
:1016300031F487EF93E029D28AEE93E002C087E984
:1016400093E023D261E080E0E4D189ED93E01DD204
:101650006DD1873081F4F89481E09B81943679F0E4
:1016600080E00DC08981890F8F3F39F08B838B819A
:10167000843208F4E8CC1B82E6CCFB82F8CF0F90D2
:101680000F900F90DF91CF911F910F91FF903F909E
:101690002F9008958091BA0181110ADCC0D188E9A8
:1016A00091E0C2D88AEE93E0CDD140D1B8D18DEA95
:1016B00091E0C8D161E080E0ACD18DE394E0E5D168
:1016C00084E790E4CAD132C1AAD18091BA018823BB
:1016D00019F087EB93E002C086EA93E0D6D161E08F
:1016E00080E097D188EC93E0D0D120D18530E9F02B
:1016F00020F4843049F70BDCE7CF863019F08730CF
:1017000019F708958091BA01882321F089DC882394
:10171000D9F204C0FCDB8111F9CFD6CF80D1809102
:10172000BA01882389F2ECDACFCFB4DFCDCFCF93E3
:10173000DF9313D087D024D28CE0B5D180E55BD184
:10174000C2E4D4E0FE0184915DD12196F4E0C2357B
:10175000DF07C1F7DF91CF91B7CF83E08093B1006E
:101760003D98459A0895EF92FF920F931F93CF9360
:101770001092C4011092C30152D182E594E085D148
:1017800061E080E046D10AE310E083E0E82EF12C2E
:10179000A89501501109C801B70117D2892B19F476
:1017A00088EB91E04FD180EFABD0811139C08091AF
:1017B000C10084FF04C08091C00087FD31C04CD7B8
:1017C0008091C3019091C40187309349C1F0809109
:1017D000C3019091C4018A30934989F08091C3017B
:1017E0009091C4018F30934951F02091C301309101
:1017F000C40181E02B30344919F080E001C081E060
:10180000C82F0115110579F081110CC02FE78AE16D
:1018100096E0215080409040E1F700C00000B8CF32
:10182000C0E001C0C1E0F894FAD0C11104C0109228
:10183000C4011092C3018C2FCF911F910F91FF9083
:10184000EF9008958AB18F708AB98BB1806F8BB990
:1018500085E085BD82EB86BDEEE6F0E080818160AB
:10186000808308951F920F920FB60F9211242F9329
:101870008F939F9382EB86BD89B190910E048095E2
:10188000282F29279091BD019223892F809580933D
:10189000BD019091BC01922398279093BC018223B3
:1018A000892390910E04982790930E0420910E04A2
:1018B00090910D048223892B80930D0480910E0456
:1018C000807F19F486E48093BB018091BB01815035
:1018D0008093BB0181110CC0809194018093BB0166
:1018E00080910E0490910C04807F892B80930C04CE
:1018F0009F918F912F910F900FBE0F901F90189571
:10190000F89490910D04892390910D049827909359
:101910000D0478940895F89490910C048923909183
:101920000C04982790930C0478940895CF93CFB724
:1019300078948091C10084FF07C08091C00087FF28
:1019400003C0F7D080E011C080E4DADF811110C05D
:1019500080E2D6DF81110EC080E1D2DF81110CC0A0
:1019600080E8CEDF882329F387E0CFBFCF910895A9
:1019700086E0FBCF85E0F9CF84E0F7CF2B9A00C05B
:101980002B980895CF93DF93D82F662311F02D9ACB
:1019900001C02D982C9887B18F6087B9C8B1C07FDE
:1019A0008D2F82958F708C2B88B9E8DFDF70DC2B50
:1019B000D8B9E4DFCF60C8B9DF91CF9108952D98F1
:1019C0002C9A87B1807F87B92B9A00C096B12B984B
:1019D00000C02B9A00C026B12F70892F8295807F7E
:1019E0002B98822B0895EBDF87FDFDCF84E090E0FC
:1019F0000197F1F7E4CFCF93C82FF5DF60E08C2F8C
:101A0000CF91C0CFCF93C82FEEDF61E08C2FCF9165
:101A1000B9CF611102C0805801C08054ECCF81E081
:101A2000EACFCF93C82FDFDFCA3041F4803410F003
:101A300080E001C080E48058CF91DDCF61E08C2F41
:101A4000CF91A0CFCF93DF93EC018991882311F040
:101A5000E8DFFBCFDF91CF910895CF93DF9300D0E4
:101A600000D000D0CDB7DEB74AE0BE016F5F7F4F38
:101A7000C7D0CE010196E6DF26960FB6F894DEBFFA
:101A80000FBECDBFDF91CF910895CF93DF93FC01BF
:101A90008491EF012196882319F0C3DFFE01F8CF6E
:101AA000DF91CF9108951F93CF93DF93182F87B1C4
:101AB0008F6087B9259A249A239A80E09DE7019741
:101AC000F1F7419A409A5ADF80E097E20197F1F7E7
:101AD00055DFC0E8D0E0CE010197F1F74FDFCE012E
:101AE0000197F1F740984ADF2197F1F788E283DF09
:101AF00088E081DF94DF86E07EDF812FDF91CF9168
:101B00001F9179CF0FB6F894A895809160008861F5
:101B100080936000109260000FBE09DE9BE088E1B8
:101B20000FB6F894A895809360000FBE9093600064
:101B3000FFCFCF93F8940FB6F894A89580916000EA
:101B4000886180936000109260000FBEC0E02AD0D0
:101B5000811112C0CF5FC330D1F761DF81E694E01D
:101B600094DF9BE088E10FB6F894A895809360001D
:101B70000FBE90936000FFCF8F3241F7CF91089551
:101B8000E0ECF0E080818D7F80838CE090E09093AA
:101B9000C5008093C40086E08093C20080E18093FA
:101BA000C10008958091C00087FFFCCF8091C600DE
:101BB0000895991B79E004C0991F961708F0961BA9
:101BC000881F7A95C9F780950895AA1BBB1B51E120
:101BD00007C0AA1FBB1FA617B70710F0A61BB70B9D
:101BE000881F991F5A95A9F780959095BC01CD0142
:101BF0000895FB01DC0105900D920020E1F70895A6
:101C0000BB27FB015527AA27880F991FAA1FA417D6
:101C100010F0A41B83955051B9F7A05DAA3308F0CA
:101C2000A95DA193009779F7B111B1931192CB01FE
:101C300000C0DC01FC01672F71917723E1F7329737
:101C400004C07C916D9370836291AE17BF07C8F397
:101C50000895F999FECF92BD81BDF89A992780B574
:061C60000895F894FFCF87
:101C6600010D8C01010D8001010476010102CF00F6
:101C760000FFD90001056B01010560010105540152
:101C86000102C2000105480101053E0101053201BC
:101C960001052501010D790001051A010104110153
:101CA6000102070101056E000102FD000102F300B9
:101CB6000001EB000001E400007DB50082FFA800F2
:101CC60001FE550001FF9D0001FF90000105830004
:101CD600000162000111480000013B0000012F00D5
:101CE6000001250001051A0000010C0000FF00009C
:101CF600C701D30214343731000000000000000091
:101D0600000D424C48656C69F47D20430032524216
:0A1D160042586D38385038002E0096
:00000001FF
