:100000000C9412030C942F030C942F030C942F03C5
:100010000C942F030C942F030C942F030C942F0398
:100020000C942F030C942F030C942F030C942F0388
:100030000C942F030C942F030C942F030C942F0378
:100040000C9409130C942F030C942F030C942F037E
:100050000C942F030C942F030C942F030C942F0358
:100060000C942F030C942F03D606D606DD067F07CB
:100070007007EB062107F2068D070F07E907E9076E
:100080002107B80728072F073D07BF0744074B077D
:1000900069076907980798079807DF07E907A60720
:1000A000E907E9070A0769076907CD076907111614
:1000B00028162B1630163616611638176E167B1654
:1000C0008B16A616DA167516BB16231754163D2086
:1000D00000202D20002E0054020502FF01F701EE42
:1000E000015402FF01F701EE01E50154022B030860
:1000F000035402D501CE01C601BF019C02920283C6
:10010000027402BB01A6029C0292028D02BB01276F
:100110000220020702050203020102FD01FA01F4B6
:1001200001F101EB01E801E201DE01DA01540251C3
:1001300002080319032B0308032B0338022F024A7A
:100140000241021702090208032B03E30200000820
:10015000032B03EA02E302F7022B0320030D03083B
:10016000030003DD02D702D102CB02C502BF02B0F9
:1001700002AB02A602A1029C02650297022B032099
:100180000319030D030803A1026F029C026A0265B2
:1001900002080319032B03540262025E0258025440
:1001A00002BA02B502B002AB02A602A1029C0297FB
:1001B0000292028D0288027E027902496E66003741
:1001C0002E352F313500372E352F372E350031356E
:1001D0002F372E350031352F300032353500313292
:1001E00038003634003633003438003332003331CF
:1001F00000323400313600313500313200380037FA
:10020000003600340033003200426964697265636D
:1002100074207265762E00426964697265637400A9
:100220004469726563740053746570706564004E50
:100230006567617469766500506F73697469766586
:10024000005265766572736564004E6F726D616C05
:10025000004F4E004F464600534554555000415202
:100260004D00545800312E323500312E31320030DD
:100270002E38380031302E3000382E303000362EF7
:10028000303000352E303000342E303000332E30F8
:100290003000322E303000312E353000312E3030EB
:1002A00000302E373500302E353000302E333800F8
:1002B000302E323500302E313700302E31330030C1
:1002C0002E31383800302E31323500302E3039346E
:1002D00000302E30363300302E30343700302E30A0
:1002E00033310044616D7065640044616D70656414
:1002F000204C696768740056657279204C6F7700EE
:10030000486967686573740048696768004D65648B
:1003100069756D2048696768004D656469756D0091
:100320004D656469756D204C6F77004C6F7700EEFA
:1003300003EB03E703E103DE03D503D303D003C5D7
:1003400003C003BD03BA03B703B403B203B003A6EB
:1003500003A303A0039B03980395038A0383037AF3
:100360000371036E036C036903534B005A00585228
:10037000005475726E6967794E005475726E6967C4
:100380007934005467794B4634005475726E69674E
:100390007941453400544200534B00536B79770048
:1003A000526F00506C00506C6174696E756D350051
:1003B0004F004D00485400484B00475F0046560030
:1003C00046435F520046435F46616972795F33007E
:1003D0004638004500416C69676E424C3300414924
:1003E00000585037414600585033005375004400C0
:1003F000A8049E0494048A048004760474046A04A5
:1004000060045604530448043D0435042B042904B5
:1004100025041C041A0418045A005400537570650E
:1004200072535F340053756E0052004D79737465DA
:1004300072795F34004D537461725F34004D5374B0
:1004400061725F32304176004D537461725F3230B9
:10045000415F00487400484B5F554245435F34009C
:10046000484B5F554245435F330048485F5542451E
:10047000435F32004400426C75655365725F37001C
:10048000426C75655365725F3600426C75655365E5
:10049000725F3300426C75655365725F3200426C67
:1004A00075655365725F310041004C6F6F70004D90
:1004B000554C5449005441494C004D41494E00436C
:1004C000616E63656C202620457869743F00282B97
:1004D000294F4B2020202045646974282D290028AD
:1004E0000329534B2020207369424C4228022900E3
:1004F000282B2943322020206174424C42282D2988
:1005000000282B29426F7820202052656164282D15
:100510002900282B29455343202020526561642857
:100520002D29002803295365747570204578697456
:10053000280229002803294E6F20202020205965F9
:100540007328022900202020426565706572204FC3
:100550006E00202020426565706572204F6666003F
:10056000746F204553433F00204F4B200057726962
:10057000746520000A5461726765742077726F6E2B
:100580006700204572726F72004C61796F7574203C
:1005900000206D696E0020562F63656C6C00332E51
:1005A00000207553656300436F6E6E656374004D84
:1005B000656D005265762E0000040E1F04040400D1
:1005C000000404041F0E0400506F776572207570DC
:1005D0002045534320210041746D20534B204D6F23
:1005E00064650053696C20424C42204D6F64650085
:1005F00041746D20424C42204D6F64650053696C1C
:10060000204332204D6F6465002020504320496E06
:1006100074657266616365005570646174696E67C4
:100620002E2E2E0011241FBECFEFD4E0DEBFCDBF93
:1006300011E0A0E0B1E0E0EFF5E302C005900D921B
:10064000A63DB107D9F724E0A6EDB1E001C01D92A7
:10065000A534B207E1F70E948B140C94F61A0C949F
:10066000000081E08093F70289EE92E2359903C0A1
:100670001092B20004C001970097C1F727C0809183
:10068000B2008A30E0F3359921C020E030E080E00C
:100690009AE041E050E0935F6091B2006917E0F3A7
:1006A000359B07C0BA01022E01C0660F0A94EAF713
:1006B000862B2F5F3F4F923771F79091B2009F3793
:1006C000E0F3359B03C01092F702089580E008958F
:1006D00045981092B2009091B2009D30E0F39DE0F9
:1006E00080FF02C0459A01C04598935F869520918E
:1006F000B2002917E0F3953799F7459A8091B20037
:100700008238E0F308954091EA018091FE029091D1
:10071000FF0258E09C0124279695879520FF04C08E
:1007200021E0822720EA92274695515099F740937D
:10073000EA019093FF028093FE0208951F93CF93E6
:10074000DF93162F1092FF021092FE021092EC011E
:100750001092EB01C82FD92F180F0E9431038093FC
:10076000EA019091F702911125C089930E948303B9
:100770001C13F3CF8091EF01882311F10E94310304
:100780008093EB018091F702811114C00E94310324
:100790008093EC018091F70281110CC02091FE0240
:1007A0003091FF028091EB019091EC0128173907FD
:1007B00051F406C08FEF91E0803349F090E007C01C
:1007C0000E943103F8CF0E94310382ECF4CF892FCD
:1007D000DF91CF911F9108950F931F93CF93DF93D4
:1007E0001F92CDB7DEB73D9A25E82A95F1F70000B4
:1007F0001092FF021092FE028C01680FF8018191A5
:100800008F018093EA0169830E9468030E94830339
:1008100069816013F3CF8091EF01882341F08091CB
:10082000FE020E9468038091FF020E9468033D98C7
:100830000F90DF91CF911F910F910895CF93DF9388
:10084000CDB7DEB76D970FB6F894DEBF0FBECDBF44
:1008500084E397E3A1E38B8F9C8FAD8F81E1E5E982
:10086000F1E0DE01119601900D928A95E1F761E1C8
:10087000CE0101960E94EC0368E0CE0142960E94F0
:100880009E038823C1F0FE017296DE015B96CE01C5
:10089000459631912D9132130EC0E817F907C9F72B
:1008A0008D898093F1018E898093F0018F898093E7
:1008B000EF0181E001C080E06D960FB6F894DEBFD5
:1008C0000FBECDBFDF91CF910895CF93C82F0E9467
:1008D0003103C1509091F702992319F0C111F7CF5C
:1008E0008FEFCF910895CF93DF9300D0CDB7DEB7D0
:1008F0008DEF89831A8262E0CE0101960E94EC039B
:1009000081E00E946504813C21F00E94F21180E0A8
:1009100001C081E00F900F90DF91CF910895CF93A8
:10092000DF9300D0CDB7DEB719821A8281E08093C1
:10093000EF0162E0CE0101960E94EC030E94F211E9
:100940000F900F90DF91CF910895CF93DF9300D058
:1009500000D0CDB7DEB79091FC028091F8029F3FA6
:1009600011F48F3F91F02FEF29831A829B838C83A0
:1009700064E0CE0101960E94EC0382E00E946504CF
:1009800091E0803319F090E001C091E0892F0F9041
:100990000F900F900F90DF91CF910895CF93DF9339
:1009A00000D000D0CDB7DEB78EEF89831A821B82CC
:1009B0008091FD028C83811102C081E08B8364E011
:1009C000CE0101960E94EC0382E00E9465048F3FF5
:1009D00071F46091FD028091ED019091EE010E9411
:1009E000EC0388E20E94650491E0803309F090E016
:1009F000892F0F900F900F900F90DF91CF91089556
:100A0000CF93DF9300D0CDB7DEB70E94A504882333
:100A1000D9F08091FD028A838091FB02813021F020
:100A2000823021F487E001C083E0898362E0CE0157
:100A300001960E94EC036091FD028091ED0190917E
:100A4000EE010E949E0301C080E00F900F90DF91A5
:100A5000CF910895CF93DF9300D0CDB7DEB70E943A
:100A6000A504882399F084E089838091FD028A831C
:100A700062E0CE0101960E94EC036091FD0280913C
:100A8000ED019091EE010E949E0301C080E00F9065
:100A90000F90DF91CF910895CF93DF9300D0CDB722
:100AA000DEB70E94A504882399F00E94CE04882313
:100AB00079F085E0898381E08A8362E0CE01019646
:100AC0000E94EC038FEF0E94650491E0803309F0EF
:100AD00090E0892F0F900F90DF91CF910895CF93E1
:100AE000DF9300D0CDB7DEB70E94A504882379F04C
:100AF00082E0898381E08A8362E0CE0101960E94D0
:100B0000EC0384E00E94650491E0803309F090E0FA
:100B1000892F0F900F90DF91CF910895CF93DF939E
:100B200000D0CDB7DEB70E94A504882391F00E94C3
:100B3000CE04882371F081E089838A8362E0CE014C
:100B400001960E94EC0384E00E94650491E08033EA
:100B500009F090E0892F0F900F90DF91CF910895C9
:100B600084E084B915B80895882331F099E19A9505
:100B7000F1F700008150F8CF08951F93CF93DF93D2
:100B8000182FEB0180910504813061F4209751F01A
:100B90002A9A812F0E94B4052A98812F0E94B405B9
:100BA0002197F4CFDF91CF911F91089564E170E018
:100BB00082E30C94BD0568EC70E08EE10E94BD05F7
:100BC0006AEF70E089E10E94BD056CE271E084E1AA
:100BD0000C94BD056CE271E084E60C94BD051F9396
:100BE000CF93DF93182FEC01CE010E94CC1AEC2F8B
:100BF000E11BF0E0E75EFB4F808321968111F4CF8B
:100C0000DF91CF911F9108952F923F92AF92BF92A3
:100C1000CF92EF920F931F93CF93DF93E10181E087
:100C20009981911180E0C82EC194EA8124E0E29F6D
:100C3000F0011124E050FF4F828193810E94EF0563
:100C40008A8134E0839FF0011124E050FF4FE0805F
:100C50001181E0919201F09193018F3091F4928192
:100C6000923148F490910604992351F190913A04FD
:100C7000992331F12CC090913A04911121C012E0D6
:100C800026C08C3119F41091180421C0873021F44A
:100C900092819E30E0F018C0893031F49281903119
:100CA00088F49F3099F013C08E3021F492819031F6
:100CB00058F40DC08E3159F49281913238F407C046
:100CC00013E005C01DE003C016E001C017E09281EB
:100CD000913198F0823129F480910604811106C087
:100CE0000CC0833049F0813141F406C08091170473
:100CF000882311F014E001C013E0AA24AA94B12CB7
:100D00000AE08981C81609F469C10E94091489E1C1
:100D100094E00E9420148A81833060F4809106045C
:100D2000823041F460E080E00E9402148AEA94E09C
:100D30000E944614898160E0843610F08DE005C081
:100D40008A3010F08EE001C08FE00E940214898189
:100D500090E00E942C1461E080E00E9402148EEC6E
:100D600090E00E9446143981131708F436C13E15ED
:100D700008F433C1A0919201B091930111968C9126
:100D800011978A3018F0602F0E94851A9C91EAE032
:100D90009E9F800D11244A8150E04332510508F096
:100DA00018C14C5C5F4FFA010C94A51AE32FF0E0D8
:100DB000EE0FFF1FE156FE4FFDC080910604E32FAA
:100DC000F0E0EE0FFF1F811103C0E956FE4FF2C0A5
:100DD000E157FE4FEFC0E32FF0E0EE0FFF1FEB57A0
:100DE000FE4FE8C012968C918E3018F06EEFC62E32
:100DF00002C0CC24CA94C30EFFEFCF1669F08EE96F
:100E000095E00E9446148C2D90E00E942C1486E9F7
:100E100095E0D2C0311146C084E592E0CDC0129673
:100E20008C91803110F0EFEF05C08F3011F4E5E0C8
:100E300001C0E7E0E30FF0E0EE0FFF1FED59FE4FBA
:100E4000B9C0E32FF0E0EE0FFF1FE558FE4FB2C030
:100E5000E32FF0E0EE0FFF1FEB5AFE4FABC01296F0
:100E60008C91E32FF0E0EE0FFF1F8B3018F4EB5B5B
:100E7000FE4FA0C0E35BFE4F9DC0E32FF0E0EE0FFE
:100E8000FF1FE55DFE4F96C0E32FF0E0EE0FFF1F62
:100E9000E35CFE4F8FC0E32FF0E0EE0FFF1FE75C37
:100EA000FE4F88C012968C91813280F0832F90E0A3
:100EB00007969C01029FC001039F900D11240E9480
:100EC0002C1486EA91E00E94201487C081E592E00C
:100ED00073C0E32FF0E0EE0FFF1FE35DFE4F6AC02B
:100EE000E4E63E9FC0011124B5010E94911ACB0196
:100EF00099270E942C1485E20E940C146EC0129651
:100F00008C91E32FF0E0EE0FFF1F813118F0E15DCF
:100F1000FE4F50C0EB5CFE4F4DC08091FB02811133
:100F20005CC0E32FF0E0EE0FFF1FE35FFE4F42C017
:100F3000E32FF0E0CF0186509F4F880F991F880F55
:100F4000991F0E942C1481EA95E036C0E32FF0E04F
:100F5000EE0FFF1F803718F4ED5FFE4F02C0E75021
:100F6000FF4F859194910E94461481E995E024C039
:100F7000E32FF0E0EE0FFF1FEF5EFE4F1BC0129657
:100F80008C91E32FF0E0EE0FFF1F813118F0E75155
:100F9000FF4F10C0E151FF4F0DC012968C91E32F0F
:100FA000F0E0EE0FFF1F853118F4E152FF4F02C051
:100FB000EB52FF4F859194910E9446140EC0313040
:100FC00041F49DE6980F9D3008F426CF833A08F04F
:100FD00023CF832F90E00E942C14C98080E40E94CC
:100FE00055138823D9F08FEF888385E6EFE1FEE47F
:100FF0003197F1F700C00000815011F488EC44C033
:101000004E9BF4CFDF91CF911F910F91EF90CF9036
:10101000BF90AF903F902F900C94D60580E10E9436
:101020005513882341F08981E81650F48150898353
:101030000E94D60505C080E10E9460138111F3CFA4
:1010400080E20E945513882341F08981811750F472
:101050008F5F89830E94D60505C080E20E946013DD
:101060008111F3CF80E80E945513882309F449CEFB
:1010700081E0888385E6EFE1FEE43197F1F700C077
:101080000000815019F484E68A83BCCF4F9BF3CFD4
:10109000B9CFCF93DF93EC011092F80280E78093F1
:1010A000FD02D093EE01C093ED01FE0111928A95ED
:1010B000E9F70E94F7118823F9F08091FB02813053
:1010C00081F048F0823099F08330B1F41092FC0244
:1010D0000E94401A12C08AE18093FC020E947211A1
:1010E0000CC08AE18093FC020E94000506C01092A9
:1010F000FC020E942A0501C080E09FEF9093070444
:101100008823C1F09D85953A31F49E859A3591F4F6
:10111000109207040FC09A3529F49E85953A51F430
:1011200091E006C0953531F49E859A3A19F492E023
:1011300090930704DF91CF910895CF93DF9380912F
:101140009001909191010E944908882309F4DDC023
:10115000A0919001B0919101E0919201F0919301E1
:101160009C9180819813D3C011969C911197818195
:101170009813CDC090910604809107049813C7C0BE
:101180001092F80280E78093FD028D919D91AC91C1
:1011900080839183A283A0919201B0919301E09109
:1011A0009001F0919101858596851E969C938E9372
:1011B0001D97A05CBF4FE05CFF4F80E301900D9254
:1011C0008A95E1F7E0919201F0919301F093EE019D
:1011D000E093ED018091FB028130F9F048F084301A
:1011E00008F0B0C081E08093FD02C0E0D0E04EC0C6
:1011F0000E94BB11882309F4A5C00E949A1188237C
:1012000009F4A0C080919001909191019093EE011A
:101210008093ED010E94721162C081818A3018F0C2
:101220006AE00E94851A90812AE0929F800D112425
:10123000833909F46CC0833A09F469C00E946F05D0
:10124000882309F47FC080E78093FD020E948E0509
:10125000882309F477C08091900190919101909337
:10126000EE018093ED010E94000539C0C093F802A1
:10127000F093EE01E093ED018091FB028330B9F42D
:101280000E94561A2196C034D105B1F0E091920126
:10129000F0919301A0919001B0919101AC0FBD1F0D
:1012A000EC0FFD1F9C9180819813E0CFEBCF823033
:1012B00049F70E944C05E6CF1092F80280E7809330
:1012C000FD0280919001909191019093EE018093A5
:1012D000ED018091FB02833029F40E94401A8111B4
:1012E00033C030C0823071F58FE19EE40197F1F791
:1012F00000C000000E942A05882321F18FE19EE4AE
:101300000197F1F700C000001FC0C1E001C0C2E0BA
:101310008DE695E00E944614C11107C088E695E06D
:101320000E9446140E94DB0520C082E895E00E94DE
:101330004614C23021F484E795E00E9446140E94CE
:10134000EA0513C0C3E0E4CFA0919201B0919301EC
:10135000E0919001F091910180E7C0E02D91919191
:101360002913C3E08150D1F7D3CF0E946B138C2F88
:10137000DF91CF91089583EB95E00E944614E091B0
:101380009201F0919301808190E00E942C1485EDF0
:1013900090E00E944614E0919201F09193018181C6
:1013A00090E00E942C1481ED90E00E944614809100
:1013B0000604813039F018F0823039F008958AEB54
:1013C00094E005C085EB94E002C08FEA94E00C94B1
:1013D0004614CF93DF930E940914C0E0D0E08091BF
:1013E0009201909193018C0F9D1FFC01E05AFF4FD9
:1013F00080810E940C142196C031D10581F761E0F3
:1014000080E00E94021488E094E00E9420140E9470
:101410006B130E9409140E94BB0961E080E00E94E6
:10142000021489E895E00E94461483EB95E00E943F
:101430004614E0919201F0919301828190E00E9424
:101440002C14DF91CF910C946B130F931F93CF93B8
:10145000DF931092D6010E9409148091920190911D
:1014600093010E944908882309F4AFC080910704C2
:10147000809306048091920190919301E8E0F4E05A
:101480001082DC01AF5BBF4F2C91233209F0208327
:101490003196019624E0E631F20791F71092160496
:1014A00010923A04109218048091FB029EEF980F5C
:1014B000923098F5C0E0D1E0EC2FF0E0EE0FFF1F86
:1014C000E051FC4F6591749189E194E00E94AB1A60
:1014D000A9E1B4E0E8E0F4E081919D91891719F069
:1014E000992319F00AC0811104C0D0933A04C4E1D1
:1014F00004C084E0E731F80779F7CF5FC431E0F248
:1015000081E0909107049F3F09F480E08093D60129
:1015100081113FC08FEA95E05AC0823088F710E011
:1015200001E0C12FD0E0FE01EE0FFF1FE15DFC4F97
:101530006591749189E194E00E94AB1AA9E1B4E04D
:10154000E8E0F4E081919D91891719F0992319F051
:101550001CC0811114C0E0919201F091930182812D
:10156000803128F4143080F400933A040DC00093C5
:101570003A04CA54DE4F88818093180405C024E0E1
:10158000E731F207F9F601C01DE11F5F1D3148F296
:10159000B7CFE0919201F09193018081E95AFF4F1A
:1015A00091E02081243209F090E090931704843078
:1015B00038F0911103C08F3018F40BC0813148F01E
:1015C0001092D60183EB95E002C087EA95E00E9475
:1015D00046148091D601882329F00E94DB050E94E1
:1015E000E90908C082E895E00E9446140E94EA05D5
:1015F0000E946B138091D601DF91CF911F910F91C3
:1016000008952F923F92FF920F931F93CF93DF93F2
:1016100000D01F92CDB7DEB71B8281E0898378941A
:1016200015E00EE123E2F22E8B81893089F4E091FE
:101630009201F091930181858A83CE0101961C016C
:101640000E940406E0919201F09193018A818187C2
:101650008B818F30A9F480911704811111C0E09122
:101660009201F091930182858A83CE0101961C013B
:101670000E940406E0919201F09193018A81828791
:101680008B81823189F4E0919201F09193018385FD
:101690008A83CE0101961C010E940406E09192010A
:1016A000F09193018A8183878B818331A9F48091A2
:1016B0001704811111C0E0919201F091930184858A
:1016C0008A83CE0101961C010E940406E0919201DA
:1016D000F09193018A8184878B81843189F4E09130
:1016E0009201F091930187858A83CE0101961C01B6
:1016F0000E940406E0919201F09193018A8187870C
:101700008B818630A9F480910604813089F4E091C0
:101710009201F091930180858A83CE0101961C018C
:101720000E940406E0919201F09193018A818087E2
:1017300080910604E0919201F0919301882351F089
:10174000823009F03FC082818031E0F1809117043E
:10175000811138C08B8181110DC083818A83CE01B4
:1017600001961C010E940406E0919201F091930100
:101770008A8183838B81813089F4E0919201F09199
:10178000930184818A83CE0101961C010E94040684
:10179000E0919201F09193018A8184838B81823060
:1017A00089F4E0919201F091930185818A83CE01C1
:1017B00001961C010E940406E0919201F0919301B0
:1017C0008A81858380910604882389F18B81853005
:1017D000A9F480911704811111C0E0919201F09158
:1017E000930187818A83CE0101961C010E94040621
:1017F000E0919201F09193018A8187838B818831F6
:10180000B1F4E0919201F09193018281813178F0FD
:1018100081A18A8310939401CE0101961C010E943C
:101820000406E0919201F09193018A8181A38B815A
:101830008730D1F480910604E0919201F0919301F8
:10184000882329F09281943178F4823069F486817A
:101850008A83CE0101961C010E940406E091920148
:10186000F09193018A8186838091FB02811142C0AD
:10187000E0919201F091930182818331D8F58B81BF
:101880008A3069F482898A83CE0101961C010E9404
:101890000406E0919201F09193018A81828B8B8101
:1018A0008B3089F4E0919201F091930183898A83CE
:1018B000CE0101961C010E940406E0919201F09174
:1018C00093018A81838BE0919201F091930182814F
:1018D0008D3080F08B81883069F4808D8A83CE01D1
:1018E00001961C010E940406E0919201F09193017F
:1018F0008A81808FE0919201F091930182818B30F7
:1019000038F18B818C3069F485898A83CE01019608
:101910001C010E940406E0919201F09193018A81DA
:10192000858B8B818E30A1F4E0919201F09193012F
:101930008281833168F486898A83CE0101961C01F5
:101940000E940406E0919201F09193018A81868BB6
:101950008B818031A1F4E0919201F0919301828119
:101960008E3068F484898A83CE0101961C010E941E
:101970000406E0919201F09193018A81848B809119
:101980000604811141C08B81853189F4E091920177
:10199000F091930180898A83CE0101961C010E94F7
:1019A0000406E0919201F09193018A81808B8B81F2
:1019B000843099F4E0919201F091930181898A83B6
:1019C00010939401CE0101961C010E940406E0913F
:1019D0009201F09193018A81818BE0919201F091C3
:1019E000930182818C3080F08B81833069F4878908
:1019F0008A83CE0101961C010E940406E0919201A7
:101A0000F09193018A81878BE0919201F09193018B
:101A100082818D3008F47FC08B81863179F4818D8D
:101A20008A8310939401CE0101961C010E94040642
:101A3000E0919201F09193018A81818F8B818731AE
:101A400099F4E0919201F0919301828D8A83109331
:101A50009401CE0101961C010E940406E0919201BE
:101A6000F09193018A81828F8B81893199F4E09181
:101A70009201F0919301838D8A8310939401CE019A
:101A800001961C010E940406E0919201F0919301DD
:101A90008A81838F8B818A3199F4E0919201F09150
:101AA0009301848D8A8310939401CE0101961C01C9
:101AB0000E940406E0919201F09193018A81848F43
:101AC0008B818B3189F4E0919201F0919301858DA6
:101AD0008A83CE0101961C010E940406E0919201C6
:101AE000F09193018A81858F8B818D30A1F4E091F3
:101AF0009201F09193018281833168F4868D8A830B
:101B0000CE0101961C010E940406E0919201F09121
:101B100093018A81868F8B818131A1F4E0919201BA
:101B2000F091930182818E3068F0878D8A83CE0197
:101B300001961C010E940406E0919201F09193012C
:101B40008A81878F8B818C31A9F480911804882336
:101B500089F0E0919201F091930180A18A83CE01F6
:101B600001961C010E940406E0919201F0919301FC
:101B70008A8180A3E0919201F09193018281823168
:101B800040F18B818D3189F48091060481110DC063
:101B900082A18A83CE0101961C010E940406E09175
:101BA0009201F09193018A8182A38B818E3189F415
:101BB000E0919201F091930183A18A83CE01019675
:101BC0001C010E940406E0919201F09193018A8128
:101BD00083A3E0919201F09193018281843108F412
:101BE00044C08B818F3169F484A18A83CE01019630
:101BF0001C010E940406E0919201F09193018A81F8
:101C000084A38B818032A9F480911704811111C0C3
:101C1000E0919201F091930185A18A83CE01019612
:101C20001C010E940406E0919201F09193018A81C7
:101C300085A38B818132C9F4809106048823A9F0A1
:101C400080911704811111C0E0919201F0919301EC
:101C500086A18A83CE0101961C010E940406E091B0
:101C60009201F09193018A8186A3E0919201F09113
:101C700093018281853180F08B81823269F487A162
:101C80008A83CE0101961C010E940406E091920114
:101C9000F09193018A8187A3809117048823B1F082
:101CA0008B81833299F4E0919201F091930180A5A8
:101CB0008A8310939401CE0101961C010E940406B0
:101CC000E0919201F09193018A8180A700939401A1
:101CD0009B81943611F0983C19F50E9409148B8170
:101CE000843639F48DE695E00E94461480E695E04E
:101CF00002C08FEB94E00E94461461E080E00E94F5
:101D0000021484E395E00E9446140E946B1387300E
:101D100091F4F89481E09B81943679F080E00DC0D5
:101D20008981890F8F3F11F08B8301C0FB828B81EA
:101D3000843208F479CC1B8277CC0F900F900F90EF
:101D4000DF91CF911F910F91FF903F902F900895B9
:101D50001F93CF93DF931F92CDB7DEB711E0809131
:101D600005048111109305040E94091461E080E0CC
:101D70000E94021480910504882329F0813039F4EF
:101D800085E495E002C082E595E00E94461460E09B
:101D900080E00E9402148EEC94E00E9446140E949F
:101DA0006B1389830E9409148981843039F085304E
:101DB000D9F60F90DF91CF911F9108950E940914D9
:101DC00085E495E00E94461461E080E00E940214E0
:101DD00084E395E00E9446140E946B1389830E945D
:101DE00009148981863039F0873041F71093050452
:101DF0000E94DB0502C0109205046091050481E099
:101E000090E00E94D41AABCF0F931F93CF93DF9330
:101E1000D82F13E002E08091FB02843058F50E9435
:101E20002F15DD23A1F00E94E8118AEF9091C100E7
:101E300094FF04C09091C00097FD4BC0EFE3FFE119
:101E40003197F1F700C00000815081F742C08EEC5D
:101E500094E00E9446140E946B13C82F0E9409143C
:101E6000C43041F0C530D9F6DF91CF911F910F9169
:101E70000C94E8110E94091480EF94E00E9446142B
:101E800061E080E00E9402148FED94E00E9446140D
:101E90000E946B13C82F0E940914C53089F028F4E2
:101EA000C43041F70093FB020DC0C63031F0C7309B
:101EB00009F781E08093FB0205C01093FB0202C08A
:101EC0001092FB026091FB0280E090E00E94D41A25
:101ED000A2CFDF91CF911F910F9108958091D601EC
:101EE00081110E94E9090E9409148AE991E00E9487
:101EF000EF0589E194E00E9420140E946B130E9478
:101F0000091489EA91E00E94201461E080E00E94B7
:101F1000021483EB95E00E94461480E190E40E9455
:101F20002C140E946B1380E00E94040F0C94A80EE6
:101F30000E9409148091D601882319F082E195E06E
:101F400002C081E095E00E94461461E080E00E94BA
:101F5000021483E295E00E9446140E946B138530C0
:101F600021F128F4843021F70E94250AE1CF863040
:101F700019F08730E9F0DCCF8091D601882329F071
:101F80000E94010B8823A1F205C00E94250A81113D
:101F9000F7CFCECF0E9409148091D601882341F259
:101FA0000E949D080E94611AC3CF0E946E0FC0CF8D
:101FB0008091FB02811102C00C9419100895CF93F7
:101FC000DF9381E090E00E94CC1A811103C010924F
:101FD000050403C081E0809305040E94B0050E94BF
:101FE000F9120E94611A8CE00E94551480E50E944B
:101FF000F013C8EBD5E0FE0184910E94F9132196FD
:10200000F5E0C83CDF07B9F780E090E00E94CC1A09
:10201000843018F48093FB0202C01092FB0281E02E
:102020000E94040FDF91CF910C94980F4598459A28
:1020300008951092EF011092F0011092F1011092A8
:10204000F20196B195FB992790F93D9A45988DE359
:102050008A95F1F700003499926044983C98459A2B
:102060003D989093F10181E0911101C080E00895C5
:102070003D9A0E9416103C9A089544983C980E94FC
:1020800016103D980895CF93DF930E94381044981E
:102090000E941610449A0E94161044983C98D8E06A
:1020A000C0E0C6950E9416103499C068D150C9F797
:1020B0000E943D108C2FDF91CF910895CF93DF9335
:1020C000CFEFDFEF0E94431080FD04C0209711F096
:1020D0002197F8CF81E0CD2B09F480E0DF91CF91FB
:1020E0000895CF93DF93D82F0E943810449A0E940E
:1020F00016100E941610C8E0D0FF02C0449A01C01A
:1021000044980E941610D695C150B1F7DF91CF9137
:102110000C943D10CF93DF9344983C98CFEFDFEFC2
:102120000E9416102197209711F0349BF9CF81E07F
:10213000CD2B09F480E0DF91CF910895CF931092D9
:102140003B040E94381044980E9416100E941610FA
:102150000E9416100E9416100E948A108823A9F06F
:10216000C8E080913B04869580933B040E94161042
:10217000349B05C080913B04806880933B04C15030
:1021800081F70E943D1081E001C080E0CF91089569
:102190000E945E10882349F00E949E10882329F037
:1021A00081E090913B049D3009F080E0089580E04B
:1021B0000E9471100E949E1080913B0488508B32C7
:1021C00010F010923B0480913B048093EF0108953E
:1021D000CF93DF93D82F0E943810449A0E94161094
:1021E00044980E9416100E9416100E941610C8E013
:1021F000D0FF02C0449A01C044980E941610D695A0
:10220000C150B1F70E948A10882361F00E943D10EE
:10221000CFEFDFEF0E94431081FF04C0209711F041
:102220002197F8CFDF91CF9108958091FC020E9411
:10223000E8108091F8020E94E8108091FD020E944F
:10224000E8100C94C810CF93C82F84EB0E94711033
:102250008C2F0E94E810CF910C94C8100E94191086
:10226000811102C080E008950E94D7108823D1F325
:1022700082E00E94711082E00E94E81084E00E94D7
:10228000E8108BED90E00197F1F700C0000081E0CD
:102290000E94E8109FEB2AED80E0915020408040A2
:1022A000E1F700C0000082E00E9423118823D1F2F0
:1022B0000E949E1080913B048093F0018FEF0E945A
:1022C000711080E80E94E8108FEC97E00197F1F719
:1022D00000C000008FEE0E94711082E00E94E810A2
:1022E00081E00895CF9386E00E942311811102C0FE
:1022F00080E01EC00E9415118823D1F3C091FD0219
:102300000E945E108823A1F30E949E10882381F30F
:10231000E091ED01F091EE01CF0101969093EE0175
:102320008093ED0180913B048083C15049F781E0A7
:10233000CF910895CF9387E00E9423118823C1F0A5
:102340000E9415118823A1F0C091FD02E091ED01DA
:10235000F091EE01CF0101969093EE018093ED0193
:1023600080810E94E810C15089F7CF910C945E10D3
:1023700080E0CF910895CF93C091FC02C695CF30F5
:1023800090F488E00E942311882369F08C2F0E942A
:10239000E8100E94C810882331F080E00E94E81005
:1023A000CF910C945E1080E0CF91089583E00E945D
:1023B0002311882359F08EED0E94E8108DEA0E94C7
:1023C000E81085EA0E94E8100C945E1080E0089501
:1023D0008091FB02882329F083E08093B1003D982F
:1023E000459A08951092F0011092EF010895AF926E
:1023F000BF92DF92EF92FF920F931F93CF93DF93E1
:102400001F92CDB7DEB71092F0011092EF018091CC
:10241000FB028823C9F0843008F0DBC00E94091455
:1024200088EC95E00E94461461E080E00E9402146E
:1024300088E3A82EB12C03E010E093E0E92E22E01F
:10244000F22EDD24D39488C00E942E11C0C080EFEC
:102450000E9455138111A8C08091C10084FD8CC0D9
:102460000E94391981118DC00E941E048111F092C1
:10247000FB028091EF019091F0018730934909F4BC
:1024800083C08091EF019091F0018A30934909F463
:102490007BC08091EF019091F0018F30934909F456
:1024A00073C08091EF019091F00121E08B3094494D
:1024B00009F020E08091EF019091F0018031934F7D
:1024C00009F464C08091EF019091F0018033934F43
:1024D00009F45CC08091EF019091F0018031944F3C
:1024E00009F454C08091EF019091F0018039934F2D
:1024F00009F44CC08091EF019091F0018035984F24
:1025000009F444C08091EF019091F001813B984E15
:10251000E9F18091EF019091F00131E0823B984E1A
:1025200009F030E0832F482F211132C0982F892FD6
:102530003091FB02313099F1323061F1A114B104D4
:10254000B1F1911133C0FFE72AE136E0F1502040AC
:102550003040E1F700C00000A89521E0A21AB108C0
:10256000C501B8010E94911A892B09F070CF83ED43
:1025700091E00E9420146BCF8091C00087FD14C0B1
:102580006FCFE092FB0275CF21E094CF81E0CBCFFB
:1025900091E0CDCF442391F2D092FB02CFCF222302
:1025A00069F2F092FB02CACF80E001C081E0F894AA
:1025B000909100038983992319F00E944F1502C05E
:1025C0000E94091489819091FB029093F20181117C
:1025D00005C01092F0011092EF0180E00F90DF91A2
:1025E000CF911F910F91FF90EF90DF90BF90AF9030
:1025F00008958AB18F708AB98BB1806F8BB985E0ED
:1026000085BD82EB86BDEEE6F0E08081816080834F
:1026100008951F920F920FB60F9211242F938F934C
:102620009F9382EB86BD90913E0489B18095892766
:102630009091D901982390959093D9012091D80138
:10264000282329272093D8018923822390913E04AF
:10265000982790933E0490913D0420913E042823B6
:10266000292B20933D0480913E04807F19F486E459
:102670008093D7018091D70181508093D701811138
:102680000CC0809194018093D70190913C0480917B
:102690003E04807F892B80933C049F918F912F91E2
:1026A0000F900FBE0F901F901895F89490913D04D5
:1026B000892390913D04982790933D047894089540
:1026C000F89490913C04892390913C04982790932E
:1026D0003C04789408951F93CF93DF931F92CDB756
:1026E000DEB71FB778948091C10084FF0AC0809143
:1026F000C00087FF06C00E9455151092000380E0BD
:1027000015C080E40E945513811118C080E20E9418
:102710005513811115C080E10E945513811112C01B
:1027200080E80E9455138823F1F287E01FBF8823B9
:1027300059F089830E94D605898106C086E0F6CFCC
:1027400085E0F4CF84E0F2CF0F90DF91CF911F911D
:1027500008952B9A00C02B9808951F93CF93DF9371
:102760001F92CDB7DEB7662311F02D9A01C02D98C8
:102770002C9897B19F6097B918B1107F982F9295B8
:102780009F70912B98B989830E94A91389818F70BA
:10279000812B88B90E94A9131F6018B90F90DF918F
:1027A000CF911F9108952D982C9A87B1807F87B97A
:1027B0002B9A00C086B12B9800C02B9A00C096B10E
:1027C0009F708295807F2B98892B08950E94D31348
:1027D00087FDFCCF84E090E00197F1F70C94D313D0
:1027E000CF93C82F0E94E61360E08C2FCF910C94FA
:1027F000AD13CF93C82F0E94E61361E08C2FCF91C9
:102800000C94AD13611102C0805801C080540C9427
:10281000F01381E00C94F013CF93C82F0E94E613BD
:10282000CA3049F4803410F480E401C080E080585C
:10283000CF910C94F01361E08C2FCF910C94AD13D9
:10284000CF93DF93EC018991882319F00E940C1437
:10285000FACFDF91CF910895CF93DF9300D000D0CE
:1028600000D0CDB7DEB74AE0BE016F5F7F4F0E9458
:10287000B21ACE0101960E94201426960FB6F89443
:10288000DEBF0FBECDBFDF91CF910895CF93DF9311
:10289000FC018491EF012196882321F00E940C1401
:1028A000FE01F7CFDF91CF910895CF93C82F97B155
:1028B0009F6097B9259A249A239AE0E0FDE7319723
:1028C000F1F7419A409A0E94A913E0E0F7E23197AC
:1028D000F1F70E94A913E0E8F0E03197F1F70E94C8
:1028E000A913E0E8F0E03197F1F740980E94A913AE
:1028F000E0E8F0E03197F1F788E20E94F01388E019
:102900000E94F0130E94091486E00E94F0138C2F9D
:10291000CF910C94F01388E10FB6F8948093600087
:10292000109260000FBE0E94DF0F2BE088E190E064
:102930000FB6F894A895809360000FBE20936000B6
:10294000FFCF9627092E0294202D2F702927692F5B
:102950006025660F607E2627602D6927607F66955B
:10296000092E000C661F9695969596959F71962751
:102970009827822F08952F923F92FF920F931F93D3
:10298000CF93DF93E1016EE280E090E00E94A1141A
:1029900068850E94A1146091FC020E94A1146091BC
:1029A000F8020E94A1146F810E94A114382F292FD0
:1029B0008D81FF80082F1E81F80EF80161918F0133
:1029C000832F922F0E94A114382F292FF012F5CFB8
:1029D0006C810E94A114082FF92E88E08093C10019
:1029E0008EE20E94731A88850E94731A8091FC02FD
:1029F0000E94731A8091F8020E94731A8F810E94BC
:102A0000731A1F81ED81FE8180810E94731A2D81CE
:102A10003E812F5F3F4F3E832D83115099F78C816C
:102A20000E94731A8F2D0E94731A802F0E94731AAE
:102A300080E18093C1008FE99FE00197F1F700C02A
:102A400000008091C6008B838091C6008887DF914B
:102A5000CF911F910F91FF903F902F9008950E946A
:102A6000091461E082E00E9402148091FB0281302F
:102A700059F038F0823059F0833069F487ED95E0F1
:102A800008C08DEF95E005C083EE95E002C080EFB1
:102A900095E00E94461460E080E00C9402140E94CD
:102AA0002F1589E096E00C944614CF93DF93CDB7B1
:102AB000DEB72C970FB6F894DEBF0FBECDBF81E016
:102AC000809300030E944F15F8943E018AE0680E3F
:102AD000711C98E1C92ED12C01E013E023EFE22E06
:102AE00021E0F22E3FEEA32E31E0B32E49EA842EF0
:102AF00041E0942E98E10FB6F89490936000109204
:102B000060000FBE312C0E947E1A8C83811118C088
:102B10003394E3E03E12F7CF0E94091488E196E077
:102B20000E9446140E94DB052BE088E190E00FB67E
:102B3000F894A895809360000FBE20936000FFCFAB
:102B40008F3201F71B861A867F826E82F1E0F8874A
:102B50000E947E1A89878F3219F40E947E1A898713
:102B60008FE00FB6F894A895C09260000FBE8093D6
:102B700060006FE280E090E00E94A11469850E94ED
:102B8000A1141C010E947E1A8093FC02682FC101CF
:102B90000E94A1141C010E947E1A8093F802682FE3
:102BA000C1010E94A1141C010E947E1A8B83682F10
:102BB000C1010E94A1142C014B8181E0282E83E0E9
:102BC000382E420D4C870E947E1AF10181931F011D
:102BD000682FC2010E94A1142C014C854211F2CF32
:102BE0000E947E1A8A830E947E1A898389819A8133
:102BF0008415950511F480E001C083E08D83811177
:102C000039C11093EE010093ED01898590E0FC013C
:102C1000F097E031F10508F02BC1E95AFF4F0C9411
:102C2000A51A8091EF01882309F424C18091FB0249
:102C3000833028F4813048F40E94D71083C0833059
:102C400009F018C10E94C0187DC00E9473047AC0A8
:102C50008AE68A870FC18CE088879F828E820AC1AC
:102C600082E0888784EA8A871B8604C1CE010196A8
:102C70001C010E94BB148091FB02882329F0843040
:102C800028F43D98459A02C00E9419100E94F21142
:102C900028E088E190E00FB6F894A8958093600052
:102CA0000FBE20936000FFCF80910103843010F0AD
:102CB00089E0DFC08093FB020E94E8110E944F155B
:102CC000D9C08091FB02882331F0833008F0D2C054
:102CD0000E948F04CFC00E941910CCC094E0988746
:102CE000BF82AE820E94F7112DC08091FB0281113C
:102CF000C1C04598BFC08091FB02833030F4813061
:102D000008F0B6C00E94D6111DC0833009F0B2C0D1
:102D10000E940C1A17C08091FB02823020F0843090
:102D200008F0A8C0A5C0909101039A87990F9093CD
:102D3000FC021092F802811103C00E94BB1102C074
:102D40000E946F05811196C08FE093C080910103AE
:102D50008093FD028091FB02833028F4813040F49F
:102D60000E9472111AC08330E1F40E94351A15C016
:102D70000E94000512C0809101038093FD028091A2
:102D8000FB02823041F028F0833059F40E94401A4F
:102D900004C082E005C00E942A05811102C08FE0B4
:102DA0008D838D81811166C08091FD0288871F838C
:102DB0000E8360C08B818093FD028FE08D838091B4
:102DC000FB02833018F4813038F03AC0833009F0C8
:102DD00051C00E944B1A48C00E949A11882309F4DE
:102DE00049C0F092EE01E092ED010E947211882339
:102DF00009F440C01D821093EE010093ED01F092A2
:102E0000FA02E092F9028091FD02A091ED01B091E9
:102E1000EE01E091F902F091FA022C9190812917CC
:102E200011F094E09D831196B093EE01A093ED0113
:102E30003196F093FA02E093F902815031F71AC00B
:102E40000E948E0511C08B818093FD028FE08D83DF
:102E50008091FB02823031F058F0833059F40E94A7
:102E6000561A02C00E944C05882321F01D8202C020
:102E700082E08D83FE0131961F010E94BB143ACE81
:102E80009091430498279093430498E0459A1092B8
:102E9000B20080FF0FC02091B2002031E0F34598CE
:102EA0001092B2002091B2002031E0F3869591504B
:102EB00069F708952091B2002830E0F34598109208
:102EC000B2002091B2002830E0F3459A1092B2008F
:102ED0002091B2002830E0F345981092B200209182
:102EE000B2002830E0F3E2CF3D9A8FEF0E94401706
:102EF0008FEF0E9440178FE70E9440171092430403
:102F00008BE10E944017809140048F5F80934004C2
:102F10000C944017809143040E944017459A1092E8
:102F2000B2008091B2008830E0F33D98089510928D
:102F3000B200359B09C08091B2008E37D0F31FC01C
:102F40008091B2008E37D8F4359BFACF8091B200D1
:102F50008093420490914404981798F01092B20024
:102F6000359B09C08091B2008E37D0F308C08091A4
:102F7000B2008E3720F4359BFACF80E008958FEFB2
:102F8000089581E00895FC01108280E090E021E046
:102F900030E01092B200359B0AC04091B2004E372B
:102FA000D0F380E008954091B2004E37D0F7359BC2
:102FB000FACF5091B20040914404451780F010922E
:102FC000B200359B09C04091B2004E37D0F3E9CF33
:102FD0004091B2004E3728F7359BFACF09C0608187
:102FE000A901082E01C0440F0A94EAF7642B6083FC
:102FF00001968830910569F680913F049081892778
:1030000080933F0481E00895CF93DF9388E180931C
:10301000440480914104853139F0823129F08130B6
:1030200031F4C1E0D0E005C0C0E6DAEE02C0C3E290
:10303000D0E00E94971787FF05C021972097C9F716
:1030400080E017C0CAE00E9497178F3FC9F3C150B4
:10305000D1F790914204892F869586959695890F90
:10306000809344040E9497178F3F51F31816D4F3AE
:1030700081E0DF91CF910895EF92FF920F931F931C
:10308000CF93DF9300D01F92CDB7DEB77C011B82B8
:103090000E940418811102C080E068C010923F04B1
:1030A000CE0103960E94C3178823B1F38B818B3125
:1030B00099F7CE0103960E94C317882369F39B8179
:1030C000809140049813E8CFCE0102960E94C31766
:1030D000882311F38A818230F8F6CE0101960E948E
:1030E000C3178823C9F289819A81892BA9F2CE015D
:1030F00003960E94C317882379F28B818E3061F684
:10310000CE0103960E94C317882331F29B818091E0
:1031100041049813C1CFCE0103960E94C3178823A0
:1031200009F4BACF8B818111B7CF00E010E0C7015D
:10313000800F911F29813A8122503109021713070C
:1031400040F40E94C317882309F4A6CF0F5F1F4FD6
:10315000EECFCE0103960E94C317882309F49CCFBB
:1031600080913F04811198CF459A81E00F900F9094
:103170000F90DF91CF911F910F91FF90EF900895E5
:1031800081E0809341040E94741780E00E94401700
:1031900081E00E9440178EE00E94401781E00E946B
:1031A00040170E948A178AED91E00E943C18811115
:1031B00004C00E94F21180E0089581E00895EF922A
:1031C000FF921F93CF93DF9300D0CDB7DEB77C0182
:1031D000162F8DE1809341042A8349830E9474173E
:1031E00080E00E94401788E00E9440178EE00E9415
:1031F00040178DE10E94401784E00E94401784E050
:103200000E94401780E00E944017812F0E944017C3
:103210004981842F0E9440172A81822F0E944017E3
:1032200080E00E9440170E948A178AED91E00E9478
:103230003C18882399F08091DA01811111C08091A6
:10324000DB01811711F081110BC08091DC0181112C
:1032500007C08091DD01F701808302C080E001C0DA
:1032600081E00F900F90DF91CF911F91FF90EF9031
:1032700008950E94C018882399F021E040E060E39F
:1032800080EF91E00E94DF18882351F022E040E0B7
:1032900060E38FEE91E00E94DF1891E0811101C0A0
:1032A00090E0892F08958091FC028F3F21F4809156
:1032B000F8028F3F29F186E0809341040E94741741
:1032C00080E00E94401785E00E9440178EE00E9437
:1032D000401786E00E94401780E00E94401780E07F
:1032E0000E9440178091FC020E9440178091F802D2
:1032F0000E9440170E948A178AED91E00C943C18B6
:1033000081E00895CF93C1E08091FD028111C0E07A
:103310000E94741780E00E94401784E00E944017CA
:103320008EE00E944017809141040E9440178C2F2C
:103330000E9440178091FD020E94401780EA0E947F
:1033400040170E948A178091ED019091EE01CF9174
:103350000C943C18FF920F931F93CF93DF931F920F
:10336000CDB7DEB70091FD02002341F0202F30E001
:10337000265F3F4F122F832FF12C04C01AE081E00B
:10338000FF24F39489830E94741789810E94401757
:10339000812F0E9440178EE00E94401780914104C7
:1033A0000E9440178F2D0E944017802F0E944017C7
:1033B00080E00E94401780E00E94401780E00E9459
:1033C000401780E00E94401780E00E94401780E094
:1033D0000E94401780E00E944017E091ED01F091BB
:1033E000EE0180810E9440172091ED013091EE01A5
:1033F0002F5F3F4F3093EE012093ED01015069F7AD
:103400000E948A178AED91E00F90DF91CF911F9172
:103410000F91FF900C943C1882E1809341040E942C
:10342000741780E00E94401787E00E9440178EE0EA
:103430000E94401782E10E94401784E10E944017D9
:1034400080E00E9440178CEA0E94401788E80E94A2
:10345000401783E10E94401786E70E9440170E94B0
:103460008A178AED91E00C943C180E945319882326
:1034700029F084E1809341040C94821980E008953E
:103480000E945319882329F086E1809341040C940B
:10349000821980E008950E945319882329F083E15E
:1034A000809341040C94AA1980E008950E94531956
:1034B000882329F085E1809341040C94AA1980E0C7
:1034C0000895E0ECF0E080818D7F80838CE090E0D7
:1034D0009093C5008093C40086E08093C20080E191
:1034E0008093C10008959091C00095FFFCCF809318
:1034F000C6008091C00086FFFCCF08958091C00077
:1035000087FFFCCF8091C6000895991B79E004C025
:10351000991F961708F0961B881F7A95C9F7809512
:103520000895AA1BBB1B51E107C0AA1FBB1FA6170A
:10353000B70710F0A61BB70B881F991F5A95A9F75C
:1035400080959095BC01CD010895EE0FFF1F059069
:10355000F491E02D0994FB01DC0105900D9200200F
:10356000E1F70895BB27FB015527AA27880F991F6C
:10357000AA1FA41710F0A41B83955051B9F7A05DA2
:10358000AA3308F0A95DA193009779F7B111B1931F
:103590001192CB010C94E61AF999FECF92BD81BD30
:1035A000F89A992780B50895262FF999FECF92BDF4
:1035B00081BDF89A019700B4021639F01FBA20BDF8
:1035C0000FB6F894FA9AF99A0FBE0895DC01FC013F
:1035D000672F71917723E1F7329704C07C916D9347
:1035E00070836291AE17BF07C8F30895F894FFCFB8
:1035F000010D8E01010D8201010478010102D1004B
:1036000000FFDB0001056D010105620101055601A6
:103610000102C40001054A01010540010105340110
:1036200001052701010D7B0001051C0101041301A7
:1036300001020901010570000102FF000102F5000D
:103640000001ED000001E600007DB70082FFAA0046
:1036500001FE570001FF9F0001FF92000105850058
:103660000001640001114A0000013D000001310029
:103670000001270001051C0000010E0000FF0200F0
:10368000F30101031400000000000000000D424C93
:1036900048656C69F47D2043003477524242586D8E
:1036A00031363850380000000000000000000000F3
:1036B0000000000000000200000000000101000006
:0636C0000000002E0000D6
:00000001FF
