:100000000C9408030C9425030C9425030C942503ED
:100010000C9425030C9425030C9425030C942503C0
:100020000C9425030C9425030C9425030C942503B0
:100030000C9425030C9425030C9425030C942503A0
:100040000C94BB120C9425030C9425030C942503EB
:100050000C9425030C9425030C9425030C94250380
:100060000C9425030C942503B306B306BA064B077C
:100070003C07C8060007CF065D07EA06C507C507A7
:100080000007960707070E0720079D0727072E077B
:1000900035073507680768076807C507C507760786
:1000A000C507C507350735073507AF073507C3153A
:1000B000DA15DD15E215E8151316EA1620162D16C9
:1000C0003D1658168C1627166D16D5160616202DB9
:1000D00020002E003D200054020502FF01F701EE32
:1000E000015402FF01F701EE01E50154022B030860
:1000F000035402D501CE01C601BF019C02920283C6
:10010000027402BB01A6029C0292028D02BB01276F
:100110000220020702050203020102FD01FA01F4B6
:1001200001F101EB01E801E201DE01DA01540251C3
:1001300002080319032B0308032B0338022F024A7A
:100140000241021702090208032B03E30200000820
:10015000032B03EA02E302F7022B0320030D03083B
:10016000030003DD02D702D102CB02C502BF02B0F9
:1001700002AB02A602A1029C02650297022B032099
:100180000319030D030803A1026F029C026A0265B2
:1001900002080319032B03540262025E0258025440
:1001A00002BA02B502B002AB02A602A1029C0297FB
:1001B0000292028D0288027E027902496E66003741
:1001C0002E352F313500372E352F372E350031356E
:1001D0002F372E350031352F300032353500313292
:1001E00038003634003633003438003332003331CF
:1001F00000323400313600313500313200380037FA
:10020000003600340033003200426964697265636D
:1002100074207265762E00426964697265637400A9
:100220004469726563740053746570706564004E50
:100230006567617469766500506F73697469766586
:10024000005265766572736564004E6F726D616C05
:10025000004F4E004F464600534554555000415202
:100260004D00545800312E323500312E31320030DD
:100270002E38380031302E3000382E303000362EF7
:10028000303000352E303000342E303000332E30F8
:100290003000322E303000312E353000312E3030EB
:1002A00000302E373500302E353000302E333800F8
:1002B000302E323500302E313700302E31330030C1
:1002C0002E31383800302E31323500302E3039346E
:1002D00000302E30363300302E30343700302E30A0
:1002E00033310044616D7065640044616D70656414
:1002F000204C696768740056657279204C6F7700EE
:10030000486967686573740048696768004D65648B
:1003100069756D2048696768004D656469756D0091
:100320004D656469756D204C6F77004C6F7700DF09
:1003300003DC03D803D203CF03C603C403C103B64F
:1003400003B103AE03AB03A803A603A4039A039768
:100350000394038F038C0381037A0371036803659D
:100360000363035A005852005475726E6967794EE0
:10037000005475726E69677934005467794B46345E
:10038000005475726E6967794145340054420053D8
:100390006B797700526F00506C00506C6174696E1D
:1003A000756D35004F004D00484B00475F004656C5
:1003B0000046435F520046435F46616972795F338E
:1003C000004638004500416C69676E424C3300417D
:1003D0004900585037414600585033005375004487
:1003E0000094048A04800476046C04620460045659
:1003F000044C04420437042C0424041A0418041482
:10040000040B04090407045A005400537570657204
:10041000535F340053756E0052004D7973746572EA
:10042000795F34004D537461725F34004D537461D1
:10043000725F32304176004D537461725F323041E9
:100440005F00484B5F554245435F3400484B5F5562
:100450004245435F330048485F554245435F3200A1
:100460004400426C75655365725F3700426C756578
:100470005365725F3600426C75655365725F330079
:10048000426C75655365725F3200426C75655365E9
:10049000725F310041004C6F6F70004D554C5449F4
:1004A000005441494C004D41494E0043616E636523
:1004B0006C202620457869743F00282B294F4B205B
:1004C00020202045646974282D2900280329534BD6
:1004D0002020207369424C4228022900282B2943FE
:1004E000322020206174424C42282D2900282B29DB
:1004F000426F7820202052656164282D2900282B26
:100500002945534320202052656164282D29002865
:100510000329536574757020457869742802290091
:100520002803294E6F202020202059657328022996
:1005300000202020426565706572204F6E002020EB
:1005400020426565706572204F666600746F2045B5
:1005500053433F00204F4B200057726974652000C1
:100560000A5461726765742077726F6E6700204568
:1005700072726F72004C61796F75742000206D6922
:100580006E0020562F63656C6C00332E002075536F
:10059000656300436F6E6E656374004D656D005258
:1005A00065762E0000040E1F0404040000040404F9
:1005B0001F0E0400506F77657220757020455343FD
:1005C00020210041746D20534B204D6F6465005312
:1005D000696C20424C42204D6F64650041746D206F
:1005E000424C42204D6F64650053696C20433220B9
:1005F0004D6F6465002020504320496E746572661B
:10060000616365005570646174696E672E2E2E00FB
:1006100011241FBECFEFD4E0DEBFCDBF11E0A0E0BC
:10062000B1E0ECE3F5E302C005900D92A03DB10707
:10063000D9F724E0A0EDB1E001C01D92AE33B207BE
:10064000E1F70E943D140C949C1A0C94000081E088
:100650008093F10289EE92E2359903C01092B200C4
:1006600004C001970097C1F727C08091B2008A307B
:10067000E0F3359921C020E030E080E09AE041E0ED
:1006800050E0935F6091B2006917E0F3359B07C0BB
:10069000BA01022E01C0660F0A94EAF7862B2F5F7B
:1006A0003F4F923771F79091B2009F37E0F3359B3F
:1006B00003C01092F102089580E0089545981092C9
:1006C000B2009091B2009D30E0F39DE080FF02C047
:1006D000459A01C04598935F86952091B2002917ED
:1006E000E0F3953799F7459A8091B2008238E0F3AC
:1006F00008954091E4018091F8029091F90258E048
:100700009C0124279695879520FF04C021E082272D
:1007100020EA92274695515099F74093E40190932F
:10072000F9028093F80208951F93CF93DF93162F59
:100730001092F9021092F8021092E6011092E5016F
:10074000C82FD92F180F0E9427038093E40190919E
:10075000F102911125C089930E9479031C13F3CFF4
:100760008091E901882311F10E9427038093E5011C
:100770008091F102811114C00E9427038093E60149
:100780008091F10281110CC02091F8023091F902A0
:100790008091E5019091E6012817390751F406C0D0
:1007A0008FEF91E0803349F090E007C00E9427036B
:1007B000F8CF0E94270382ECF4CF892FDF91CF91ED
:1007C0001F9108950F931F93CF93DF931F92CDB77F
:1007D000DEB73D9A25E82A95F1F700001092F9025C
:1007E0001092F8028C01680FF80181918F018093BB
:1007F000E40169830E945E030E94790369816013AA
:10080000F3CF8091E901882341F08091F8020E94A2
:100810005E038091F9020E945E033D980F90DF9184
:10082000CF911F910F910895CF93DF93CDB7DEB78E
:100830006D970FB6F894DEBF0FBECDBF84E397E38C
:10084000A1E38B8F9C8FAD8F81E1E5E9F1E0DE01C3
:10085000119601900D928A95E1F761E1CE01019622
:100860000E94E20368E0CE0142960E94940388232E
:10087000C1F0FE017296DE015B96CE014596319184
:100880002D9132130EC0E817F907C9F78D898093AF
:10089000EB018E898093EA018F898093E90181E0E1
:1008A00001C080E06D960FB6F894DEBF0FBECDBFDD
:1008B000DF91CF910895CF93C82F0E942703C15095
:1008C0009091F102992319F0C111F7CF8FEFCF91D9
:1008D0000895CF93DF9300D0CDB7DEB78DEF898336
:1008E0001A8262E0CE0101960E94E20381E00E943A
:1008F0005B04813C21F00E94A41180E001C081E0F2
:100900000F900F90DF91CF910895CF93DF9300D098
:10091000CDB7DEB719821A8281E08093E90162E0E7
:10092000CE0101960E94E2030E94A4110F900F9045
:10093000DF91CF910895CF93DF9300D000D0CDB752
:10094000DEB79091F6028091F2029F3F11F48F3F43
:1009500091F02FEF29831A829B838C8364E0CE0170
:1009600001960E94E20382E00E945B0491E08033E2
:1009700019F090E001C091E0892F0F900F900F9037
:100980000F90DF91CF910895CF93DF9300D000D0E7
:10099000CDB7DEB78EEF89831A821B828091F70272
:1009A0008C83811102C081E08B8364E0CE010196CB
:1009B0000E94E20382E00E945B048F3F71F4609129
:1009C000F7028091E7019091E8010E94E20388E23A
:1009D0000E945B0491E0803309F090E0892F0F9032
:1009E0000F900F900F90DF91CF910895CF93DF93E9
:1009F00000D0CDB7DEB70E949B048823D9F0809148
:100A0000F7028A838091F502813021F0823021F44F
:100A100087E001C083E0898362E0CE0101960E94F5
:100A2000E2036091F7028091E7019091E8010E9452
:100A3000940301C080E00F900F90DF91CF91089553
:100A4000CF93DF9300D0CDB7DEB70E949B048823FD
:100A500099F084E089838091F7028A8362E0CE0175
:100A600001960E94E2036091F7028091E701909164
:100A7000E8010E94940301C080E00F900F90DF9185
:100A8000CF910895CF93DF9300D0CDB7DEB70E940A
:100A90009B04882399F00E94C404882379F085E0A0
:100AA000898381E08A8362E0CE0101960E94E2039D
:100AB0008FEF0E945B0491E0803309F090E0892F72
:100AC0000F900F90DF91CF910895CF93DF9300D0D7
:100AD000CDB7DEB70E949B04882379F082E089833A
:100AE00081E08A8362E0CE0101960E94E20384E005
:100AF0000E945B0491E0803309F090E0892F0F9011
:100B00000F90DF91CF910895CF93DF9300D0CDB7B1
:100B1000DEB70E949B04882391F00E94C4048823BE
:100B200071F081E089838A8362E0CE0101960E94A0
:100B3000E20384E00E945B0491E0803309F090E0DE
:100B4000892F0F900F90DF91CF91089584E084B9A1
:100B500015B80895882331F099E19A95F1F70000CE
:100B60008150F8CF08951F93CF93DF93182FEB0197
:100B70008091FF03813061F4209751F02A9A812FF0
:100B80000E94AA052A98812F0E94AA052197F4CFD6
:100B9000DF91CF911F91089564E170E082E30C949E
:100BA000B30568EC70E08EE10E94B3056AEF70E077
:100BB00089E10E94B3056CE271E084E10C94B30515
:100BC0006CE271E084E60C94B3051F93CF93DF933E
:100BD000182FEC01CE010E94721AEC2FE11BF0E0FD
:100BE000EE5EFB4F808321968111F4CFDF91CF9190
:100BF0001F9108952F923F92AF92BF92DF92EF9292
:100C00000F931F93CF93DF93E10181E099819111BD
:100C100080E0D82ED194EA8124E0E29FF0011124F3
:100C2000E050FF4F828193810E94E5058A8194E024
:100C3000899FF0011124E050FF4FE0801181E09185
:100C40009201F09193018F3091F49281923148F4A6
:100C500090910004992329F190913304992309F18B
:100C600025C09091330491111CC012E01FC08C313B
:100C700019F4109111041AC0873021F492819E302A
:100C8000A8F013C0893039F49281903160F49F301C
:100C900069F417E00BC08E3049F49281903128F44A
:100CA00005C013E003C01DE001C016E09281913140
:100CB00098F0823129F480910004811106C00CC0A3
:100CC000833049F0813141F406C0809110048823BB
:100CD00011F014E001C013E0AA24AA94B12C898178
:100CE000D81609F457C10E94BB1382E194E00E9418
:100CF000D2138A81833060F480910004823041F401
:100D000060E080E00E94B41386E994E00E94F8134A
:100D1000898160E0843610F08DE005C08A3010F0E3
:100D20008EE001C08FE00E94B413898190E00E94A0
:100D3000DE1361E080E00E94B41384ED90E00E9435
:100D4000F8130981101708F424C10E1508F421C105
:100D50004A8150E04332510508F017C14C5C5F4FA7
:100D6000FA010C944B1AE02FF0E0EE0FFF1FE15652
:100D7000FE4F03C180910004E02FF0E0EE0FFF1F53
:100D8000811103C0E956FE4FF8C0E157FE4FF5C090
:100D9000E02FF0E0EE0FFF1FEB57FE4FEEC0A091EB
:100DA0009201B091930112968C918E3010F0025006
:100DB00001C001500F3F59F08AE895E00E94F813F6
:100DC000802F90E00E94DE1382E895E0D8C084E591
:100DD00092E0D5C0A0919201B091930112968C91AE
:100DE000803110F0EFEF05C08F3011F4E5E001C065
:100DF000E7E0E00FF0E0EE0FFF1FED59FE4FBDC042
:100E0000E02FF0E0EE0FFF1FE558FE4FB6C0E02FD9
:100E1000F0E0EE0FFF1FEB5AFE4FAFC0A091920122
:100E2000B091930112968C91E02FF0E0EE0FFF1F2E
:100E30008B3018F4EB5BFE4FA0C0E35BFE4F9DC010
:100E4000E02FF0E0EE0FFF1FE55DFE4F96C0E02FB4
:100E5000F0E0EE0FFF1FE35CFE4F8FC0E02FF0E0ED
:100E6000EE0FFF1FE75CFE4F88C0E02FF0E0EE0FB3
:100E7000FF1FE35DFE4F81C0F4E60F9FC001112408
:100E8000B5010E94371ACB0199270E94DE1385E233
:100E90000E94BE137EC0A0919201B0919301129660
:100EA0008C91E02FF0E0EE0FFF1F813118F0E15D33
:100EB000FE4F63C0EB5CFE4F60C08091F502811174
:100EC00068C0E02FF0E0EE0FFF1FE35FFE4F55C05C
:100ED000E02FF0E0CF0186509F4F880F991F880FB9
:100EE000991F0E94DE138DE895E049C0A091920100
:100EF000B09193018C9111962C9130E09AE0899FEA
:100F0000200D311D1124E02FF0E0EE0FFF1F2037E0
:100F100031051CF4ED5FFE4F02C0E750FF4F859195
:100F200094910E94F8138DE795E029C0E02FF0E03E
:100F3000EE0FFF1FEF5EFE4F20C0A0919201B09117
:100F4000930112968C91E02FF0E0EE0FFF1F81319C
:100F500018F0E751FF4F11C0E151FF4F0EC0A091B3
:100F60009201B091930112968C91E02FF0E0EE0F78
:100F7000FF1F853138F4E152FF4F859194910E9413
:100F8000F81307C0EB52FF4FF8CF802F90E00E947C
:100F9000DE13D98080E40E9407138823D9F08FEFF5
:100FA000888385E6EFE1FEE43197F1F700C00000A9
:100FB000815011F488EC44C04E9BF4CFDF91CF9167
:100FC0001F910F91EF90DF90BF90AF903F902F90C7
:100FD0000C94CC0580E10E940713882341F089819D
:100FE000E81650F4815089830E94CC0505C080E149
:100FF0000E9412138111F3CF80E20E94071388230D
:1010000041F08981811750F48F5F89830E94CC055C
:1010100005C080E20E9412138111F3CF80E80E9484
:101020000713882309F45BCE81E0888385E6EFE12E
:10103000FEE43197F1F700C00000815019F484E616
:101040008A83BCCF4F9BF3CFB9CF1092F20220E737
:101050002093F7029093E8018093E7010E94A91181
:101060008823D9F08091F502813071F040F0823010
:1010700081F0833091F41092F6020C94F2198AE117
:101080008093F6020C9424118AE18093F6020C946A
:10109000F6041092F6020C94200580E00895CF9398
:1010A000DF9380919001909191010E9425088823FF
:1010B00009F4C9C0E0919201F0919301A0919001CF
:1010C000B091910190818C919813BFC0918111963C
:1010D0008C9111979813B9C095851D968C911D9789
:1010E0009813B3C096851E968C911E979813ADC029
:1010F0001092F20280E78093F7028C91808312961F
:101100008C911297828380E090E0ED01C80FD91F87
:10111000C05CDF4F2881EF01C80FD91FC05CDF4FD3
:10112000288301968033910581F7F093E801E093DD
:10113000E7018091F5028130F9F048F0843008F041
:101140009FC081E08093F702C0E0D0E03DC00E94E4
:101150006D11882309F494C00E944C11882309F46E
:101160008FC080919001909191019093E8018093BC
:10117000E7010E94241151C00E946505882309F4EB
:101180007FC080E78093F7020E948405882309F4DA
:1011900077C080919001909191019093E8018093A4
:1011A000E7010E94F60439C0C093F202F093E8010F
:1011B000E093E7018091F5028330B9F40E94081AA8
:1011C0002196C034D105B1F0E0919201F0919301E4
:1011D000A0919001B0919101AC0FBD1FEC0FFD1FCC
:1011E0009C9180819813E0CFEBCF823049F70E9429
:1011F0004205E6CF1092F20280E78093F7028091D9
:101200009001909191019093E8018093E701809182
:10121000F502833029F40E94F219811133C030C0E5
:10122000823071F58FE19EE40197F1F700C0000074
:101230000E942005882321F18FE19EE40197F1F7B8
:1012400000C000001FC0C1E001C0C2E089E595E018
:101250000E94F813C11107C084E595E00E94F813BD
:101260000E94D10520C08EE695E00E94F813C2309E
:1012700021F480E695E00E94F8130E94E00513C077
:10128000C3E0E4CFA0919201B0919301E09190016D
:10129000F091910180E7C0E02D9191912913C3E075
:1012A0008150D1F7D3CF0E941D138C2FDF91CF91A6
:1012B00008952F923F92FF920F931F93CF93DF9346
:1012C00000D01F92CDB7DEB71B8281E0898378946E
:1012D00015E00EE1F3E2FF2E8B81893089F4E09175
:1012E0009201F091930181858A83CE0101961C01C0
:1012F0000E94FA05E0919201F09193018A81818721
:101300008B818F30A9F480911004811111C0E0917C
:101310009201F091930182858A83CE0101961C018E
:101320000E94FA05E0919201F09193018A818287EF
:101330008B81823189F4E0919201F0919301838550
:101340008A83CE0101961C010E94FA05E091920168
:10135000F09193018A8183878B818331A9F48091F5
:101360001004811111C0E0919201F09193018485E4
:101370008A83CE0101961C010E94FA05E091920138
:10138000F09193018A8184878B81843189F4E09183
:101390009201F091930187858A83CE0101961C0109
:1013A0000E94FA05E0919201F09193018A8187876A
:1013B0008B818630A9F480910004813089F4E0911A
:1013C0009201F091930180858A83CE0101961C01E0
:1013D0000E94FA05E0919201F09193018A81808741
:1013E00080910004E0919201F0919301882351F0E3
:1013F000823009F03FC082818031E0F18091100499
:10140000811138C08B8181110DC083818A83CE0107
:1014100001961C010E94FA05E0919201F09193015E
:101420008A8183838B81813089F4E0919201F091EC
:10143000930184818A83CE0101961C010E94FA05E2
:10144000E0919201F09193018A8184838B818230B3
:1014500089F4E0919201F091930185818A83CE0114
:1014600001961C010E94FA05E0919201F09193010E
:101470008A81858380910004882389F18B8185305E
:10148000A9F480911004811111C0E0919201F091B2
:10149000930187818A83CE0101961C010E94FA057F
:1014A000E0919201F09193018A8187838B81883149
:1014B000B1F4E0919201F09193018281813178F051
:1014C00081A18A8310939401CE0101961C010E9490
:1014D000FA05E0919201F09193018A8181A38B81B9
:1014E0008730D1F480910004E0919201F091930152
:1014F000882329F09281943178F4823069F48681CE
:101500008A83CE0101961C010E94FA05E0919201A6
:10151000F09193018A8186838091F502811142C006
:10152000E0919201F091930182818331D8F58B8112
:101530008A3069F482898A83CE0101961C010E9457
:10154000FA05E0919201F09193018A81828B8B815F
:101550008B3089F4E0919201F091930183898A8321
:10156000CE0101961C010E94FA05E0919201F091D2
:1015700093018A81838BE0919201F09193018281A2
:101580008D3080F08B81883069F4808D8A83CE0124
:1015900001961C010E94FA05E0919201F0919301DD
:1015A0008A81808FE0919201F091930182818B304A
:1015B00038F18B818C3069F485898A83CE0101965C
:1015C0001C010E94FA05E0919201F09193018A8139
:1015D000858B8B818E30A1F4E0919201F091930183
:1015E0008281833168F486898A83CE0101961C0149
:1015F0000E94FA05E0919201F09193018A81868B15
:101600008B818031A1F4E0919201F091930182816C
:101610008E3068F484898A83CE0101961C010E9471
:10162000FA05E0919201F09193018A81848B809177
:101630000004811141C08B81853189F4E0919201D0
:10164000F091930180898A83CE0101961C010E944A
:10165000FA05E0919201F09193018A81808B8B8150
:10166000843099F4E0919201F091930181898A8309
:1016700010939401CE0101961C010E94FA05E0919D
:101680009201F09193018A81818BE0919201F09116
:10169000930182818C3080F08B81833069F487895B
:1016A0008A83CE0101961C010E94FA05E091920105
:1016B000F09193018A81878BE0919201F0919301DF
:1016C00082818D3008F47FC08B81863179F4818DE1
:1016D0008A8310939401CE0101961C010E94FA05A1
:1016E000E0919201F09193018A81818F8B81873102
:1016F00099F4E0919201F0919301828D8A83109385
:101700009401CE0101961C010E94FA05E09192011C
:10171000F09193018A81828F8B81893199F4E091D4
:101720009201F0919301838D8A8310939401CE01ED
:1017300001961C010E94FA05E0919201F09193013B
:101740008A81838F8B818A3199F4E0919201F091A3
:101750009301848D8A8310939401CE0101961C011C
:101760000E94FA05E0919201F09193018A81848FA1
:101770008B818B3189F4E0919201F0919301858DF9
:101780008A83CE0101961C010E94FA05E091920124
:10179000F09193018A81858F8B818D30A1F4E09146
:1017A0009201F09193018281833168F4868D8A835E
:1017B000CE0101961C010E94FA05E0919201F09180
:1017C00093018A81868F8B818131A1F4E09192010E
:1017D000F091930182818E3068F0878D8A83CE01EB
:1017E00001961C010E94FA05E0919201F09193018B
:1017F0008A81878F8B818C31A9F480911104882391
:1018000089F0E0919201F091930180A18A83CE0149
:1018100001961C010E94FA05E0919201F09193015A
:101820008A8180A3E0919201F091930182818231BB
:1018300040F18B818D3189F48091000481110DC0BC
:1018400082A18A83CE0101961C010E94FA05E091D3
:101850009201F09193018A8182A38B818E3189F468
:10186000E0919201F091930183A18A83CE010196C8
:101870001C010E94FA05E0919201F09193018A8186
:1018800083A3E0919201F09193018281843108F465
:1018900044C08B818F3169F484A18A83CE01019683
:1018A0001C010E94FA05E0919201F09193018A8156
:1018B00084A38B818032A9F480911004811111C01E
:1018C000E0919201F091930185A18A83CE01019666
:1018D0001C010E94FA05E0919201F09193018A8126
:1018E00085A38B818132C9F4809100048823A9F0FB
:1018F00080911004811111C0E0919201F091930147
:1019000086A18A83CE0101961C010E94FA05E0910E
:101910009201F09193018A8186A3E0919201F09166
:1019200093018281853180F08B81823269F487A1B5
:101930008A83CE0101961C010E94FA05E091920172
:10194000F09193018A8187A3809110048823B1F0DC
:101950008B81833299F4E0919201F091930180A5FB
:101960008A8310939401CE0101961C010E94FA050E
:10197000E0919201F09193018A8180A700939401F4
:101980009B81943611F0983C19F50E94BB138B8112
:10199000843639F489E595E00E94F8138CE495E0EB
:1019A00002C08BEA94E00E94F81361E080E00E949C
:1019B000B41380E295E00E94F8130E941D13873053
:1019C00091F4F89481E09B81943679F080E00DC029
:1019D0008981890F8F3F11F08B8301C0FB828B813E
:1019E000843208F479CC1B8277CC0F900F900F9043
:1019F000DF91CF911F910F91FF903F902F9008950D
:101A00008FE995E00E94F813E0919201F091930123
:101A1000808190E00E94DE1382ED90E00E94F81336
:101A2000E0919201F0919301818190E00E94DE1398
:101A30008EEC90E00E94F81380910004813039F020
:101A400018F0823039F0089586EA94E005C081EA02
:101A500094E002C08BE994E00C94F813CF93DF93E9
:101A60000E94BB13C0E0D0E080919201909193015D
:101A70008C0F9D1FFC01E05AFF4F80810E94BE1316
:101A80002196C031D10581F761E080E00E94B41356
:101A900081E094E00E94D2130E941D130E94BB13A8
:101AA0000E94000D61E080E00E94B41385E795E09C
:101AB0000E94F8138FE995E00E94F813E0919201DB
:101AC000F0919301828190E00E94DE13DF91CF912B
:101AD0000C941D130F931F93CF93DF931092D0019B
:101AE0000E94BB1380919201909193010E9425085E
:101AF000882309F4C3C08091920190919301E1E0A1
:101B0000F4E01082DC01AF5BBF4F2C91233209F06F
:101B100020833196019624E0EF30F20791F710927E
:101B20000F0410923304109211048091F5029EEF7D
:101B3000980F923078F5C1EED3E011E0FE01659187
:101B4000749182E194E00E94511AA2E1B4E0E1E0D4
:101B5000F4E081919D91891719F0992319F009C03A
:101B6000811103C01093330404C084E0E031F8070E
:101B700081F7229624E0C730D20701F791E09093D5
:101B8000D001E0919201F09193018585853A09F0A9
:101B900043C03CC0823090F710E001E0C12FD0E09C
:101BA000FE01EE0FFF1FE15DFC4F6591749182E134
:101BB00094E00E94511AA2E1B4E0E1E0F4E08191E6
:101BC0009D91891719F0992319F01CC0811114C037
:101BD000E0919201F09193018281803128F41430D8
:101BE00080F4009333040DC000933304CD54DE4FD2
:101BF00088818093110405C084E0E031F807F9F68C
:101C000001C01AE11F5F1A3148F2B8CF86858A35C4
:101C1000A1F41092000413C08A3531F48685853A08
:101C200061F4909300040BC0853539F486858A3AB7
:101C300021F482E08093000402C01092D0018091D0
:101C4000D001811103C08BE995E01AC08081E95A67
:101C5000FF4F91E02081243209F090E0909310042E
:101C6000843038F0911103C08F3018F40BC08131EB
:101C700048F01092D0018FE995E002C083E995E029
:101C80000E94F8138091D001882329F00E94D10589
:101C90000E942E0D08C08EE695E00E94F8130E9467
:101CA000E0050E941D138091D001DF91CF911F911B
:101CB0000F9108951F93CF93DF931F92CDB7DEB797
:101CC00011E08091FF0381111093FF030E94BB1369
:101CD00061E080E00E94B4138091FF03882329F023
:101CE000813039F481E395E002C08EE395E00E94F3
:101CF000F81360E080E00E94B4138AEB94E00E9445
:101D0000F8130E941D1389830E94BB1389818430BC
:101D100039F08530D9F60F90DF91CF911F9108955A
:101D20000E94BB1381E395E00E94F81361E080E01C
:101D30000E94B41380E295E00E94F8130E941D13E4
:101D400089830E94BB138981863039F0873041F73F
:101D50001093FF030E94D10502C01092FF0360910F
:101D6000FF0381E090E00E947A1AABCF0F931F939C
:101D7000CF93DF93D82F13E002E08091F5028430F7
:101D800058F50E94E114DD23A1F00E949A118AEF18
:101D90009091C10094FF04C09091C00097FD4BC08A
:101DA000EFE3FFE13197F1F700C00000815081F7C8
:101DB00042C08AEB94E00E94F8130E941D13C82FC2
:101DC0000E94BB13C43041F0C530D9F6DF91CF91EA
:101DD0001F910F910C949A110E94BB138CED94E00B
:101DE0000E94F81361E080E00E94B4138BEC94E051
:101DF0000E94F8130E941D13C82F0E94BB13C53008
:101E000089F028F4C43041F70093F5020DC0C630C4
:101E100031F0C73009F781E08093F50205C01093D7
:101E2000F50202C01092F5026091F50280E090E0A8
:101E30000E947A1AA2CFDF91CF911F910F9108953E
:101E40008091D00181110E942E0D0E94BB138AE95E
:101E500091E00E94E50582E194E00E94D2130E9485
:101E60001D130E94BB1386EA91E00E94D21361E029
:101E700080E00E94B4138FE995E00E94F81384EE8D
:101E80009EE30E94DE130E941D1380E00E94B60EA6
:101E90000C945A0E0E94BB138091D001882319F034
:101EA0008EEF94E002C08DEE94E00E94F81361E0A2
:101EB00080E00E94B4138FE095E00E94F8130E9426
:101EC0001D13853021F128F4843021F70E946A0D1A
:101ED000E1CF863019F08730E9F0DCCF8091D00176
:101EE000882329F00E9459098823A1F205C00E9485
:101EF0006A0D8111F7CFCECF0E94BB138091D00124
:101F0000882341F20E944F080E94131AC3CF0E94F7
:101F1000200FC0CF8091F502811102C00C94CB0F2D
:101F20000895CF93DF9381E090E00E94721A8111AF
:101F300003C01092FF0303C081E08093FF030E945F
:101F4000A6050E94AB120E94131A8CE00E9407148F
:101F500080E50E94A213C4EAD5E0FE0184910E94AC
:101F6000AB132196F5E0C43BDF07B9F780E090E0C2
:101F70000E94721A843018F48093F50202C0109205
:101F8000F50281E00E94B60EDF91CF910C944A0FCA
:101F90004598459A08951092E9011092EA0110922D
:101FA000EB011092EC0196B195FB992790F93D9ABF
:101FB00045988DE38A95F1F7000034999260449832
:101FC0003C98459A3D989093EB0181E0911101C0B6
:101FD00080E008953D9A0E94C80F3C9A0895449865
:101FE0003C980E94C80F3D980895CF93DF930E94BC
:101FF000EA0F44980E94C80F449A0E94C80F449860
:102000003C98D8E0C0E0C6950E94C80F3499C068DB
:10201000D150C9F70E94EF0F8C2FDF91CF91089517
:10202000CF93DF93CFEFDFEF0E94F50F80FD04C069
:10203000209711F02197F8CF81E0CD2B09F480E0B3
:10204000DF91CF910895CF93DF93D82F0E94EA0FAD
:10205000449A0E94C80F0E94C80FC8E0D0FF02C077
:10206000449A01C044980E94C80FD695C150B1F758
:10207000DF91CF910C94EF0FCF93DF9344983C986E
:10208000CFEFDFEF0E94C80F2197209711F0349B0C
:10209000F9CF81E0CD2B09F480E0DF91CF91089555
:1020A000CF93109234040E94EA0F44980E94C80F04
:1020B0000E94C80F0E94C80F0E94C80F0E943C10C7
:1020C0008823A9F0C8E08091340486958093340475
:1020D0000E94C80F349B05C08091340480688093AF
:1020E0003404C15081F70E94EF0F81E001C080E00D
:1020F000CF9108950E941010882349F00E9450103B
:10210000882329F081E0909134049D3009F080E02B
:10211000089580E00E9423100E94501080913404A2
:1021200088508B3210F010923404809134048093E4
:10213000E9010895CF93DF93D82F0E94EA0F449AC4
:102140000E94C80F44980E94C80F0E94C80F0E94A6
:10215000C80FC8E0D0FF02C0449A01C044980E9452
:10216000C80FD695C150B1F70E943C10882361F08A
:102170000E94EF0FCFEFDFEF0E94F50F81FF04C049
:10218000209711F02197F8CFDF91CF91089580919A
:10219000F6020E949A108091F2020E949A10809199
:1021A000F7020E949A100C947A10CF93C82F84EBF8
:1021B0000E9423108C2F0E949A10CF910C947A10B9
:1021C0000E94CB0F811102C080E008950E94891007
:1021D0008823D1F382E00E94231082E00E949A10AB
:1021E00084E00E949A108BED90E00197F1F700C017
:1021F000000081E00E949A109FEB2AED80E0915050
:1022000020408040E1F700C0000082E00E94D5102D
:102210008823D1F20E945010809134048093EA0107
:102220008FEF0E94231080E80E949A108FEC97E0B5
:102230000197F1F700C000008FEE0E94231082E0AA
:102240000E949A1081E00895CF9386E00E94D510F5
:10225000811102C080E01EC00E94C7108823D1F304
:10226000C091F7020E9410108823A1F30E94501021
:10227000882381F3E091E701F091E801CF01019615
:102280009093E8018093E701809134048083C150EA
:1022900049F781E0CF910895CF9387E00E94D51050
:1022A0008823C1F00E94C7108823A1F0C091F702D3
:1022B000E091E701F091E801CF0101969093E801E8
:1022C0008093E70180810E949A10C15089F7CF91D5
:1022D0000C94101080E0CF910895CF93C091F60236
:1022E000C695CF3090F488E00E94D510882369F01D
:1022F0008C2F0E949A100E947A10882331F080E07F
:102300000E949A10CF910C94101080E0CF91089504
:1023100083E00E94D510882359F08EED0E949A1018
:102320008DEA0E949A1085EA0E949A100C9410106F
:1023300080E008958091F502882329F083E080935E
:10234000B1003D98459A08951092EA011092E90172
:102350000895AF92BF92DF92EF92FF920F931F9377
:10236000CF93DF931F92CDB7DEB71092EA011092A0
:10237000E9018091F5028823C9F0843008F0DBC0C0
:102380000E94BB1384EB95E00E94F81361E080E0AB
:102390000E94B41388E3A82EB12C03E010E093E070
:1023A000E92E22E0F22EDD24D39488C00E94E010B2
:1023B000C0C080EF0E9407138111A8C08091C100A6
:1023C00084FD8CC00E94EB1881118DC00E94140402
:1023D0008111F092F5028091E9019091EA01873034
:1023E000934909F483C08091E9019091EA018A3010
:1023F000934909F47BC08091E9019091EA018F3003
:10240000934909F473C08091E9019091EA0121E0B8
:102410008B30944909F020E08091E9019091EA0124
:102420008031934F09F464C08091E9019091EA01F1
:102430008033934F09F45CC08091E9019091EA01E7
:102440008031944F09F454C08091E9019091EA01E0
:102450008039934F09F44CC08091E9019091EA01D1
:102460008035984F09F444C08091E9019091EA01C8
:10247000813B984EE9F18091E9019091EA0131E0C8
:10248000823B984E09F030E0832F482F211132C053
:10249000982F892F3091F502313099F1323061F166
:1024A000A114B104B1F1911133C0FFE72AE136E084
:1024B000F15020403040E1F700C00000A89521E035
:1024C000A21AB108C501B8010E94371A892B09F078
:1024D00070CF8DEC91E00E94D2136BCF8091C00041
:1024E00087FD14C06FCFE092F50275CF21E094CF45
:1024F00081E0CBCF91E0CDCF442391F2D092F50291
:10250000CFCF222369F2F092F502CACF80E001C05A
:1025100081E0F8949091FA028983992319F00E943E
:10252000011502C00E94BB1389819091F50290931E
:10253000EC01811105C01092EA011092E90180E0DE
:102540000F90DF91CF911F910F91FF90EF90DF904F
:10255000BF90AF9008958AB18F708AB98BB1806FA8
:102560008BB985E085BD82EB86BDEEE6F0E080812B
:102570008160808308951F920F920FB60F921124ED
:102580002F938F939F9382EB86BD9091370489B1EF
:10259000809589279091D301982390959093D301AA
:1025A0002091D201282329272093D2018923822335
:1025B0009091370498279093370490913604209196
:1025C00037042823292B2093360480913704807FF9
:1025D00019F486E48093D1018091D10181508093D8
:1025E000D10181110CC0809194018093D10190910F
:1025F000350480913704807F892B809335049F9127
:102600008F912F910F900FBE0F901F901895F894F7
:10261000909136048923909136049827909336043C
:1026200078940895F8949091350489239091350415
:10263000982790933504789408951F93CF93DF9350
:102640001F92CDB7DEB71FB778948091C10084FF89
:102650000AC08091C00087FF06C00E940715109233
:10266000FA0280E015C080E40E940713811118C0AF
:1026700080E20E940713811115C080E10E940713B8
:10268000811112C080E80E9407138823F1F287E0CD
:102690001FBF882359F089830E94CC05898106C019
:1026A00086E0F6CF85E0F4CF84E0F2CF0F90DF91A3
:1026B000CF911F9108952B9A00C02B9808951F93D6
:1026C000CF93DF931F92CDB7DEB7662311F02D9A1B
:1026D00001C02D982C9897B19F6097B918B1107FC1
:1026E000982F92959F70912B98B989830E945B13C4
:1026F00089818F70812B88B90E945B131F6018B984
:102700000F90DF91CF911F9108952D982C9A87B14A
:10271000807F87B92B9A00C086B12B9800C02B9A76
:1027200000C096B19F708295807F2B98892B089569
:102730000E94851387FDFCCF84E090E00197F1F7BC
:102740000C948513CF93C82F0E94981360E08C2FB0
:10275000CF910C945F13CF93C82F0E94981361E020
:102760008C2FCF910C945F13611102C0805801C06F
:1027700080540C94A21381E00C94A213CF93C82F21
:102780000E949813CA3049F4803410F480E401C0E8
:1027900080E08058CF910C94A21361E08C2FCF91F0
:1027A0000C945F13CF93DF93EC018991882319F088
:1027B0000E94BE13FACFDF91CF910895CF93DF939C
:1027C00000D000D000D0CDB7DEB74AE0BE016F5FC9
:1027D0007F4F0E94581ACE0101960E94D21326966E
:1027E0000FB6F894DEBF0FBECDBFDF91CF91089535
:1027F000CF93DF93FC018491EF012196882321F090
:102800000E94BE13FE01F7CFDF91CF910895CF93C1
:10281000C82F97B19F6097B9259A249A239AE0E030
:10282000FDE73197F1F7419A409A0E945B13E0E08F
:10283000F7E23197F1F70E945B13E0E8F0E031979F
:10284000F1F70E945B13E0E8F0E03197F1F7409870
:102850000E945B13E0E8F0E03197F1F788E20E9414
:10286000A21388E00E94A2130E94BB1386E00E947C
:10287000A2138C2FCF910C94A21388E10FB6F89479
:1028800080936000109260000FBE0E94910F2BE0B9
:1028900088E190E00FB6F894A895809360000FBE91
:1028A00020936000FFCF9627092E0294202D2F70D1
:1028B0002927692F6025660F607E2627602D6927EE
:1028C000607F6695092E000C661F969596959695E5
:1028D0009F7196279827822F08952F923F92FF92FB
:1028E0000F931F93CF93DF93E1016EE280E090E0BE
:1028F0000E94531468850E9453146091F6020E944E
:1029000053146091F2020E9453146F810E94531479
:10291000382F292F8D81FF80082F1E81F80EF80196
:1029200061918F01832F922F0E945314382F292FEA
:10293000F012F5CF6C810E945314082FF92E88E015
:102940008093C1008EE20E94251A88850E94251A74
:102950008091F6020E94251A8091F2020E94251AA7
:102960008F810E94251A1F81ED81FE8180810E9446
:10297000251A2D813E812F5F3F4F3E832D831150BD
:1029800099F78C810E94251A8F2D0E94251A802F7D
:102990000E94251A80E18093C1008FE99FE0019792
:1029A000F1F700C000008091C6008B838091C600C3
:1029B0008887DF91CF911F910F91FF903F902F90CB
:1029C00008950E94BB1361E082E00E94B4138091DD
:1029D000F502813059F038F0823059F0833069F4D3
:1029E00083EC95E008C089EE95E005C08FEC95E09A
:1029F00002C08CED95E00E94F81360E080E00C943A
:102A0000B4130E94E11485EF95E00C94F813CF9372
:102A1000DF93CDB7DEB72C970FB6F894DEBF0FBEAD
:102A2000CDBF81E08093FA020E940115F8943E0127
:102A30008AE0680E711C98E1C92ED12C0BEF12E0D0
:102A40002DEEE22E21E0F22E39EEA32E31E0B32E50
:102A500046EA842E41E0942E98E10FB6F8949093C4
:102A60006000109260000FBE312C0E94301A8C83DF
:102A7000811118C03394E3E03E12F7CF0E94BB13DC
:102A800084E096E00E94F8130E94D1052BE088E1D3
:102A900090E00FB6F894A895809360000FBE209345
:102AA0006000FFCF8F3201F71B861A867F826E820D
:102AB000F1E0F8870E94301A89878F3219F40E945A
:102AC000301A89878FE00FB6F894A895C0926000FD
:102AD0000FBE809360006FE280E090E00E9453148C
:102AE00069850E9453141C010E94301A8093F602DB
:102AF000682FC1010E9453141C010E94301A809358
:102B0000F202682FC1010E9453141C010E94301A66
:102B10008B83682FC1010E9453142C014B818BEFD2
:102B2000282E82E0382E420D4C870E94301AF10187
:102B300081931F01682FC2010E9453142C014C8500
:102B40004211F2CF0E94301A8A830E94301A898380
:102B500089819A818415950511F480E001C083E094
:102B60008D83811139C11093E8010093E7018985B4
:102B700090E0FC01F097E031F10508F02BC1E95A33
:102B8000FF4F0C944B1A8091E901882309F424C16A
:102B90008091F502833028F4813048F40E94891036
:102BA00083C0833009F018C10E9472187DC00E9452
:102BB00069047AC08AE68A870FC18CE088879F8281
:102BC0008E820AC182E0888781EA8A871B8604C1D7
:102BD000CE0101961C010E946D148091F50288239C
:102BE00029F0843028F43D98459A02C00E94CB0F0A
:102BF0000E94A41128E088E190E00FB6F894A8950F
:102C0000809360000FBE20936000FFCF8091FB0295
:102C1000843010F089E0DFC08093F5020E949A11A1
:102C20000E940115D9C08091F502882331F08330CC
:102C300008F0D2C00E948504CFC00E94CB0FCCC048
:102C400094E09887BF82AE820E94A9112DC0809126
:102C5000F5028111C1C04598BFC08091F502833053
:102C600030F4813008F0B6C00E9488111DC0833056
:102C700009F0B2C00E94BE1917C08091F5028230DF
:102C800020F0843008F0A8C0A5C09091FB029A877C
:102C9000990F9093F6021092F202811103C00E94E4
:102CA0006D1102C00E946505811196C08FE093C02E
:102CB0008091FB028093F7028091F502833028F423
:102CC000813040F40E9424111AC08330E1F40E9444
:102CD000E71915C00E94F60412C08091FB02809390
:102CE000F7028091F502823041F028F0833059F4E8
:102CF0000E94F21904C082E005C00E9420058111E3
:102D000002C08FE08D838D81811166C08091F702B2
:102D100088871F830E8360C08B818093F7028FE0CA
:102D20008D838091F502833018F4813038F03AC0F9
:102D3000833009F051C00E94FD1948C00E944C1117
:102D4000882309F449C0F092E801E092E7010E946B
:102D50002411882309F440C01D821093E8010093D8
:102D6000E701F092F402E092F3028091F702A09161
:102D7000E701B091E801E091F302F091F4022C91A7
:102D80009081291711F094E09D831196B093E8018A
:102D9000A093E7013196F093F402E093F30281509F
:102DA00031F71AC00E94840511C08B818093F7020D
:102DB0008FE08D838091F502823031F058F08330BE
:102DC00059F40E94081A02C00E944205882321F08B
:102DD0001D8202C082E08D83FE0131961F010E9498
:102DE0006D143ACE90913C04982790933C0498E05F
:102DF000459A1092B20080FF0FC02091B20020319E
:102E0000E0F345981092B2002091B2002031E0F337
:102E10008695915069F708952091B2002830E0F32B
:102E200045981092B2002091B2002830E0F3459A04
:102E30001092B2002091B2002830E0F34598109231
:102E4000B2002091B2002830E0F3E2CF3D9A8FEF3C
:102E50000E94F2168FEF0E94F2168FE70E94F21680
:102E600010923C048BE10E94F216809139048F5F2E
:102E7000809339040C94F21680913C040E94F2165F
:102E8000459A1092B2008091B2008830E0F33D98EC
:102E900008951092B200359B09C08091B2008E3720
:102EA000D0F31FC08091B2008E37D8F4359BFACF93
:102EB0008091B20080933B0490913D04981798F064
:102EC0001092B200359B09C08091B2008E37D0F3CA
:102ED00008C08091B2008E3720F4359BFACF80E095
:102EE00008958FEF089581E00895FC01108280E03D
:102EF00090E021E030E01092B200359B0AC0409192
:102F0000B2004E37D0F380E008954091B2004E37C2
:102F1000D0F7359BFACF5091B20040913D04451750
:102F200080F01092B200359B09C04091B2004E373C
:102F3000D0F3E9CF4091B2004E3728F7359BFACF56
:102F400009C06081A901082E01C0440F0A94EAF764
:102F5000642B608301968830910569F6809138046E
:102F6000908189278093380481E00895CF93DF937F
:102F700088E180933D0480913A04853139F08231B3
:102F800029F0813031F4C1E0D0E005C0C0E6DAEECE
:102F900002C0C3E2D0E00E94491787FF05C0219715
:102FA0002097C9F780E017C0CAE00E9449178F3FF9
:102FB000C9F3C150D1F790913B04892F869586952E
:102FC0009695890F80933D040E9449178F3F51F3D6
:102FD0001816D4F381E0DF91CF910895EF92FF921C
:102FE0000F931F93CF93DF9300D01F92CDB7DEB71F
:102FF0007C011B820E94B617811102C080E068C06C
:1030000010923804CE0103960E9475178823B1F3FD
:103010008B818B3199F7CE0103960E947517882317
:1030200069F39B81809139049813E8CFCE01029611
:103030000E947517882311F38A818230F8F6CE0139
:1030400001960E9475178823C9F289819A81892B7C
:10305000A9F2CE0103960E947517882379F28B811D
:103060008E3061F6CE0103960E947517882331F2E7
:103070009B8180913A049813C1CFCE0103960E94A0
:103080007517882309F4BACF8B818111B7CF00E07F
:1030900010E0C701800F911F29813A812250310928
:1030A0000217130740F40E947517882309F4A6CF6E
:1030B0000F5F1F4FEECFCE0103960E947517882336
:1030C00009F49CCF80913804811198CF459A81E012
:1030D0000F900F900F90DF91CF911F910F91FF9064
:1030E000EF90089581E080933A040E94261780E0D3
:1030F0000E94F21681E00E94F2168EE00E94F21603
:1031000081E00E94F2160E943C1784ED91E00E943B
:10311000EE17811104C00E94A41180E0089581E09F
:103120000895EF92FF921F93CF93DF9300D0CDB716
:10313000DEB77C01162F8DE180933A042A83498300
:103140000E94261780E00E94F21688E00E94F21684
:103150008EE00E94F2168DE10E94F21684E00E9439
:10316000F21684E00E94F21680E00E94F216812F8F
:103170000E94F2164981842F0E94F2162A81822F22
:103180000E94F21680E00E94F2160E943C1784ED25
:1031900091E00E94EE17882399F08091D40181116B
:1031A00011C08091D501811711F081110BC0809160
:1031B000D601811107C08091D701F701808302C039
:1031C00080E001C081E00F900F90DF91CF911F91BF
:1031D000FF90EF9008950E947218882399F021E0E3
:1031E00040E060E38AEE91E00E949118882351F05C
:1031F00022E040E060E389EE91E00E94911891E0C6
:10320000811101C090E0892F08958091F6028F3FCF
:1032100021F48091F2028F3F29F186E080933A04F5
:103220000E94261780E00E94F21685E00E94F216A6
:103230008EE00E94F21686E00E94F21680E00E9464
:10324000F21680E00E94F2168091F6020E94F216B9
:103250008091F2020E94F2160E943C1784ED91E0E8
:103260000C94EE1781E00895CF93C1E08091F702AE
:103270008111C0E00E94261780E00E94F21684E0CF
:103280000E94F2168EE00E94F21680913A040E948B
:10329000F2168C2F0E94F2168091F7020E94F2160D
:1032A00080EA0E94F2160E943C178091E7019091FB
:1032B000E801CF910C94EE17FF920F931F93CF93D9
:1032C000DF931F92CDB7DEB70091F702002341F0E4
:1032D000202F30E0265F3F4F122F832FF12C04C0A8
:1032E0001AE081E0FF24F39489830E9426178981E4
:1032F0000E94F216812F0E94F2168EE00E94F216B2
:1033000080913A040E94F2168F2D0E94F216802FAF
:103310000E94F21680E00E94F21680E00E94F216EF
:1033200080E00E94F21680E00E94F21680E00E9487
:10333000F21680E00E94F21680E00E94F216E09100
:10334000E701F091E80180810E94F2162091E701E7
:103350003091E8012F5F3F4F3093E8012093E70160
:10336000015069F70E943C1784ED91E00F90DF91C6
:10337000CF911F910F91FF900C94EE1782E18093F3
:103380003A040E94261780E00E94F21687E00E940D
:10339000F2168EE00E94F21682E10E94F21684E19B
:1033A0000E94F21680E00E94F2168CEA0E94F21649
:1033B00088E80E94F21683E10E94F21686E70E94D6
:1033C000F2160E943C1784ED91E00C94EE170E94D7
:1033D0000519882329F084E180933A040C94341968
:1033E00080E008950E940519882329F086E18093E2
:1033F0003A040C94341980E008950E94051988233A
:1034000029F083E180933A040C945C1980E00895DC
:103410000E940519882329F085E180933A040C94D1
:103420005C1980E00895E0ECF0E080818D7F80837E
:103430008CE090E09093C5008093C40086E0809378
:10344000C20080E18093C10008959091C00095FF73
:10345000FCCF8093C6008091C00086FFFCCF08950A
:103460008091C00087FFFCCF8091C6000895AA1B01
:10347000BB1B51E107C0AA1FBB1FA617B70710F05F
:10348000A61BB70B881F991F5A95A9F78095909591
:10349000BC01CD010895EE0FFF1F0590F491E02DC2
:1034A0000994FB01DC0105900D920020E1F70895DD
:1034B000BB27FB015527AA27880F991FAA1FA4170E
:1034C00010F0A41B83955051B9F7A05DAA3308F002
:1034D000A95DA193009779F7B111B1931192CB0136
:1034E0000C948C1AF999FECF92BD81BDF89A992758
:1034F00080B50895262FF999FECF92BD81BDF89A27
:10350000019700B4021639F01FBA20BD0FB6F89427
:10351000FA9AF99A0FBE0895DC01FC01672F7191A8
:103520007723E1F7329704C07C916D9370836291A9
:0C353000AE17BF07C8F30895F894FFCF52
:10353C00010D8E01010D8201010478010102D100FF
:10354C0000FFDB0001056D0101056201010556015B
:10355C000102C40001054A010105400101053401C5
:10356C0001052701010D7B0001051C01010413015C
:10357C0001020901010570000102FF000102F500C2
:10358C000001ED000001E600007DB70082FFAA00FB
:10359C0001FE570001FF9F0001FF9200010585000D
:1035AC000001640001114A0000013D0000013100DE
:1035BC000001270001051C0000010E0000FF0200A5
:1035CC00ED01FB021400000000000000000D424C55
:1035DC0048656C69F47D3477524242586D31363807
:1035EC005038000000000000000000000000000047
:1035FC00000002000000000101000000002E00008D
:00000001FF
