:100000000DC227C226C225C224C223C222C221C2D7
:1000100020C21FC21EC21DC21CC21BC21AC219C2EC
:10002000EDCA17C216C215C214C213C212C211C23F
:1000300010C20FC2CCC2CBC2D0C25EC351C3DAC29F
:100040001AC3DEC26AC3F6C20AC30FC314C399C37C
:1000500018C31DC32DC39BC331C336C33BC33AC3AF
:1000600062C361C360C36BC36AC36DC368C367C344
:1000700031C330C32FC363C34ECD54CD56CD5ACDFB
:100080005FCD6ECDC9CD6ECD75CD76CD81CD8FCD09
:100090006FCD202D20002E003D2000E5018B027841
:1000A00002E50197019001880181012B0225021FC1
:1000B0000218027D0131022B02250223027D01CCB0
:1000C00001C501BE01BC01BA01B801B601B301B05E
:1000D00001AD01AA01A701A401A0019C01E501E273
:1000E00001780281028B0278028B02D501D101DDF9
:1000F00001D901C00178028B026302000078028BF3
:10010000026802630270028B0285027B027802742D
:1001100002FE01FA012B022702F601060202022B5F
:10012000020A0227025E02590254024F024A0245A5
:10013000023902350231022D022B020A0227028BFC
:1001400002850281027B0278022D0214022B020F2B
:10015000020A02780281028B02E501F301EF01E954
:1001600001E50141023D023902350231022D022B27
:100170000227022502230221021D021B02496E668C
:1001800000372E352F313500372E352F372E3500DD
:1001900031352F372E350031352F300032353500CF
:1001A0003132380036340034380033320032340013
:1001B000313600313200380036003400330032006E
:1001C00042696469004469726563740053746570C0
:1001D000004E656700506F7300526576004E6F7277
:1001E0006D004F4E004F4646005345545550004158
:1001F000524D00545800322E33002E3730002E342A
:1002000030002E3830002E363700312E3235003196
:100210002E3132002E3838003130003800360035AB
:1002200000340033003200312E350031002E3735D6
:10023000002E3530002E3338002E3235002E313767
:10024000002E3133002E313838002E313235002E59
:10025000303934002E303633002E303437002E3013
:1002600033310044616D700044616D704C697400FD
:10027000564C6F0048692B004869004D6564486919
:10028000004D6564004D65644C6F004C6F00390390
:10029000360332032C03230321031E0313030E032F
:1002A0000B030803050303030103F702F402F10241
:1002B000EC02E902DE02D702CE02C502C202C0028F
:1002C0005A005852005475726E6967794E00547521
:1002D000726E69677934005467794B4634005475FF
:1002E000726E69677941453400544200536B7977E7
:1002F00000526F00506C00506C6174696E756D3502
:10030000004F004D00484B00475F004656004643F3
:100310005F520046435F46616972795F3300463839
:10032000004500416C69676E424C330058503741BC
:1003300046005850330053750044004C6F6F7000F6
:100340004D554C5449005441494C004D41494E00D3
:1003500043616E63656C202620457869743F0028F0
:100360002B29426F7820202052656164282D2900B6
:10037000282B2945534320202052656164282D29CC
:100380000028032953657475702045786974280224
:1003900029002803294E6F2020202020596573282A
:1003A000022900746F204553433F00204F4B20002B
:1003B000577269746520000A54617267657420770A
:1003C000726F6E6700204572726F72004C61796FB8
:1003D00075742000206D696E0020562F63656C6C6B
:1003E00000332E00207553656300436F6E6E6563A6
:1003F00074004D656D005265762E0000040E1F04DA
:10040000040400000404041F0E04005043496E74E9
:1004100066005570646174652E2E2E0011241FBE77
:10042000CFEFD4E0DEBFCDBF11E0A0E0B1E0EAE065
:10043000FDE102C005900D92A23BB107D9F724E07F
:10044000A2EBB1E001C01D92A030B207E1F728DABB
:100450005ACCD6CD1F93CF93DF93182FEC01CE014A
:100460003ADCEC2FE11BF0E0EE52FD4F8083219649
:100470008111F5CFDF91CF911F9108952F923F9277
:10048000AF92BF92DF92EF920F931F93CF93DF93C0
:10049000E10181E09981911180E0D82ED194EA8127
:1004A00024E0E29FF0011124E050FF4F828193810C
:1004B000D1DF8A8194E0899FF0011124E050FF4F41
:1004C000E0801181E0918A01F0918B018F3091F4ED
:1004D0009281923148F49091B601992329F190913B
:1004E000FB03992309F125C09091FB0391111CC0D6
:1004F00012E01FC08C3119F41091D1021AC087305C
:1005000021F492819E30A8F013C0893039F4928191
:10051000903160F49F3069F417E00BC08E3049F4DD
:100520009281903128F405C013E003C01DE001C0A2
:1005300016E09281913160F0823129F48091B60108
:10054000811105C005C0833011F0813109F413E039
:10055000AA24AA94B12C8981D81609F42CC12FD9C8
:1005600082ED92E03FD98A81833050F48091B601C8
:10057000823031F460E080E01CD98BE393E055D900
:10058000898160E0843610F08DE005C08A3010F07B
:100590008EE001C08FE00DD9898190E02ED961E015
:1005A00080E007D988E990E040D9E9811E1708F476
:1005B00001C1EE1508F4FEC04A8150E042325105F7
:1005C00008F0F8C0465E5F4F4F935F930895F0E0E8
:1005D000EE0FFF1FEF59FE4FEAC08091B601F0E029
:1005E000EE0FFF1F811103C0E75AFE4FE0C0EF5A24
:1005F000FE4FDDC0F0E0EE0FFF1FE95BFE4FD7C0FE
:10060000A0918A01B0918B0112968C918E3010F0DE
:100610000EEF01C00FEF0E0F0F3F49F081EE93E098
:1006200004D9802F90E0E9D889ED93E0C2C085EE2F
:1006300091E0BFC0A0918A01B0918B0112968C917C
:10064000803110F0E15005C08F3011F4EB5F01C034
:10065000E95FF0E0EE0FFF1FEB5DFE4FA8C0F0E09A
:10066000EE0FFF1FE75EFE4FA2C0F0E0EE0FFF1F90
:10067000E15FFE4F9CC0F0E0EE0FFF1FE35CFE4F1A
:1006800096C0F0E0EE0FFF1FED5FFE4F90C0A0910F
:100690008A01B0918B0112968C91F0E0EE0FFF1F52
:1006A0008B3018F4ED50FF4F82C0E550FF4F7FC0F4
:1006B000F0E0EE0FFF1FE552FF4F79C0F0E0EE0FC4
:1006C000FF1FE351FF4F73C0F0E0EE0FFF1FE75134
:1006D000FF4F6DC0F0E0EE0FFF1FE352FF4F67C00A
:1006E000F4E6EF9FC0011124B501C1DACB019927CF
:1006F00084D885E266D85EC0A0918A01B0918B0152
:1007000012968C91F0E0EE0FFF1F813118F0E1524C
:10071000FF4F4DC0EB51FF4F4AC0F0E0EE0FFF1FFF
:10072000E354FF4F44C0F0E0CF0186509F4F880F45
:10073000991F880F991F61D884EE93E03AC08E2FDD
:1007400090E05BD837C0A0918A01B0918B018C9169
:1007500011962C9130E09AE0899F200D311D1124D3
:10076000F0E0EE0FFF1F203731051CF4ED54FF4F72
:1007700002C0E755FF4F8591949157D884ED93E0DF
:1007800018C0F0E0EE0FFF1FEF53FF4F10C0A09115
:100790008A01B0918B0112968C91F0E0EE0FFF1F51
:1007A000813118F0E756FF4F02C0E156FF4F8591A7
:1007B00094913BD8D98080E46DD7882381F08FEF66
:1007C000888385E6EFE1FEE43197F1F700C0000091
:1007D000815011F488EC30C04E9BF4CF31C080E1E1
:1007E00059D7882331F08981E81638F481508983FC
:1007F00004C080E15AD78111F6CF80E24BD788231D
:1008000031F08981811738F48F5F898304C080E2D9
:100810004CD78111F6CF80E83DD7882309F49BCED1
:1008200081E0888385E6EFE1FEE43197F1F700C0CF
:100830000000815019F484E68A8302C04F9BF3CFF5
:10084000DF91CF911F910F91EF90DF90BF90AF900C
:100850003F902F9008951092D00220E72093F60247
:100860009093C7018093C6018AE18093F5021AD65E
:10087000811150C680E00895CF93DF938091880165
:1008800090918901E8DF882309F461C0E0918A0131
:10089000F0918B01A0918801B091890190818C9198
:1008A000981357C0918111968C911197981351C04C
:1008B00095851D968C911D9798134BC096851E9615
:1008C0008C911E97981345C01092D00280E78093B8
:1008D000F6028C91808312968C911297828380E02D
:1008E00090E0ED01C80FD91FC05CDF4F2881EF01F8
:1008F000C80FD91FC05CDF4F288301968033910554
:1009000081F7F093C701E093C60145D6882399F19A
:1009100025D6882381F18091880190918901909357
:10092000C7018093C601F6D5882329F1A0918A01D9
:10093000B0918B01E0918801F091890180E7C0E0DE
:100940002D9191912913C3E08150D1F703C0C1E0EB
:1009500001C0C2E080EB93E068D7C11103C08BEA0D
:1009600093E007C085EC93E060D7C23031F487EBA9
:1009700093E05BD702C0C3E0EDCFA2D68C2FDF910E
:10098000CF9108952F923F92EF92FF920F931F9372
:10099000CF93DF9300D01F92CDB7DEB71B8281E0EB
:1009A0008983789405E08EE1F82E91E2E92EE091BA
:1009B0008A01F0918B01DF01A95ABF4F11E08C91A0
:1009C000843209F010E08B81893061F481858A835B
:1009D000CE0101961C0152DDE0918A01F0918B015C
:1009E0008A8181878B818F3091F4111110C0E09141
:1009F0008A01F0918B0182858A83CE0101961C01C8
:100A00003DDDE0918A01F0918B018A8182878B81A3
:100A1000823181F4E0918A01F0918B0183858A8390
:100A2000CE0101961C012ADDE0918A01F0918B0133
:100A30008A8183878B81833191F4111110C0E091F9
:100A40008A01F0918B0184858A83CE0101961C0175
:100A500015DDE0918A01F0918B018A8184878B8179
:100A6000843181F4E0918A01F0918B0187858A833A
:100A7000CE0101961C0102DDE0918A01F0918B010B
:100A80008A8187878B818630A1F48091B60181307D
:100A900081F4E0918A01F0918B0180858A83CE01F7
:100AA00001961C01EBDCE0918A01F0918B018A81B7
:100AB00080878091B601E0918A01F0918B018823B3
:100AC00039F08230D1F582818031B8F1111135C011
:100AD0008B8181110CC083818A83CE0101961C0118
:100AE000CDDCE0918A01F0918B018A8183838B8137
:100AF000813081F4E0918A01F0918B0184818A83B5
:100B0000CE0101961C01BADCE0918A01F0918B01C3
:100B10008A8184838B81823081F4E0918A01F09113
:100B20008B0185818A83CE0101961C01A7DCE091AF
:100B30008A01F0918B018A8185838091B601882397
:100B400069F18B81853091F4111110C0E0918A0117
:100B5000F0918B0187818A83CE0101961C018EDC86
:100B6000E0918A01F0918B018A8187838B818831A2
:100B7000A9F4E0918A01F0918B018281813170F0BA
:100B800081A18A8300938C01CE0101961C0176DC41
:100B9000E0918A01F0918B018A8181A38B8187305A
:100BA000C9F48091B601E0918A01F0918B0188230C
:100BB00029F09281943170F4823061F486818A83C5
:100BC000CE0101961C015ADCE0918A01F0918B0163
:100BD0008A818683E0918A01F0918B018281833141
:100BE000C0F58B818A3061F482898A83CE010196B7
:100BF0001C0144DCE0918A01F0918B018A81828B97
:100C00008B818B3081F4E0918A01F0918B01838993
:100C10008A83CE0101961C0131DCE0918A01F091BA
:100C20008B018A81838BE0918A01F0918B01828113
:100C30008D3078F08B81883061F4808D8A83CE018D
:100C400001961C011BDCE0918A01F0918B018A81E5
:100C5000808FE0918A01F0918B0182818B3028F1A5
:100C60008B818C3061F485898A83CE0101961C01C9
:100C700005DCE0918A01F0918B018A81858B8B8163
:100C80008E3099F4E0918A01F0918B018281833159
:100C900060F486898A83CE0101961C01EFDBE09126
:100CA0008A01F0918B018A81868B8B81803199F446
:100CB000E0918A01F0918B0182818E3060F4848909
:100CC0008A83CE0101961C01D9DBE0918A01F09163
:100CD0008B018A81848B8091B60181113EC08B810A
:100CE000853181F4E0918A01F0918B0180898A83BA
:100CF000CE0101961C01C2DBE0918A01F0918B01CB
:100D00008A81808B8B81843091F4E0918A01F0910B
:100D10008B0181898A8300938C01CE0101961C018D
:100D2000ADDBE0918A01F0918B018A81818BE091AA
:100D30008A01F0918B0182818C3078F08B81833035
:100D400061F487898A83CE0101961C0197DBE091CB
:100D50008A01F0918B018A81878BE0918A01F09161
:100D60008B0182818D3008F479C08B81863171F4DA
:100D7000818D8A8300938C01CE0101961C017EDB5C
:100D8000E0918A01F0918B018A81818F8B8187317B
:100D900091F4E0918A01F0918B01828D8A83009316
:100DA0008C01CE0101961C0169DBE0918A01F09172
:100DB0008B018A81828F8B81893191F4E0918A0144
:100DC000F0918B01838D8A8300938C01CE01019673
:100DD0001C0154DBE0918A01F0918B018A81838FA1
:100DE0008B818A3191F4E0918A01F0918B01848D9D
:100DF0008A8300938C01CE0101961C013FDBE091B8
:100E00008A01F0918B018A81848F8B818B3181F4EF
:100E1000E0918A01F0918B01858D8A83CE01019644
:100E20001C012CDBE0918A01F0918B018A81858F76
:100E30008B818D3099F4E0918A01F0918B01828150
:100E4000833160F4868D8A83CE0101961C0116DB06
:100E5000E0918A01F0918B018A81868F8B818131AB
:100E600099F4E0918A01F0918B0182818E3060F0DB
:100E7000878D8A83CE0101961C0100DBE0918A01F7
:100E8000F0918B018A81878F8B818C31A1F48091C5
:100E9000D102882381F0E0918A01F0918B0180A139
:100EA0008A83CE0101961C01E9DAE0918A01F09172
:100EB0008B018A8180A3E0918A01F0918B0182816C
:100EC000823130F18B818D3181F48091B6018111B5
:100ED0000CC082A18A83CE0101961C01CFDAE09179
:100EE0008A01F0918B018A8182A38B818E3181F4FA
:100EF000E0918A01F0918B0183A18A83CE01019652
:100F00001C01BCDAE0918A01F0918B018A8183A3F4
:100F1000E0918A01F0918B0182818431E8F18B812B
:100F20008F3161F484A18A83CE0101961C01A6DA77
:100F3000E0918A01F0918B018A8184A38B818032B8
:100F400091F4111110C0E0918A01F0918B0185A1FB
:100F50008A83CE0101961C0191DAE0918A01F09119
:100F60008B018A8185A38B818132B1F48091B60196
:100F7000882391F0111110C0E0918A01F0918B014A
:100F800086A18A83CE0101961C0178DAE0918A015C
:100F9000F0918B018A8186A3F0928C019B8194361B
:100FA00011F0983CE9F40BD48B81843631F480EB5A
:100FB00093E03BD483EA93E002C080E593E035D42C
:100FC00061E080E0F6D382E993E02FD479D38730D3
:100FD00091F4F89481E09B81943679F080E00DC023
:100FE0008981890F8F3F11F08B8301C0EB828B8148
:100FF000823208F4DCCC1B82DACC0F900F900F9079
:10100000DF91CF911F910F91FF90EF903F902F9024
:10101000089586EF93E009D4E0918A01F0918B0165
:10102000808190E0EAD386E990E0FFD3E0918A01E5
:10103000F0918B01818190E0E0D382E990E0F5D3DB
:101040008091B601813039F018F0823039F008957E
:101050008BE493E005C086E493E002C080E493E073
:10106000E4C3CF93DF93ABD3C0E0D0E080918A019B
:1010700090918B018C0F9D1FFC01E05AFF4F8081E6
:10108000A0D32196C031D10589F761E080E091D3EA
:1010900087EB91E0A7D314D392D3BBDF61E080E06C
:1010A00088D38CEC93E0C1D386EF93E0BED3E0917C
:1010B0008A01F0918B01828190E09FD3DF91CF91E3
:1010C000FFC20F931F93CF93DF931092B20177D398
:1010D00080918A0190918B01BEDB882309F485C041
:1010E00080918A0190918B01E7EBF1E01082DC01A5
:1010F000AF5BBF4F2C91233209F0208331960196CC
:1011000021E0E53CF20791F71092C5011092FB0334
:101110001092D10210E001E0C12FD0E0FE01EE0FED
:10112000FF1FE257FD4F6591749182ED92E0B3D5B8
:10113000A2EDB2E0E7EBF1E081919D91891719F002
:10114000992319F01CC0811114C0E0918A01F0911B
:101150008B018281803128F4143080F40093FB03EA
:101160000DC00093FB03C856DE4F88818093D102E7
:1011700005C081E0E63CF807F9F601C019E11F5F00
:10118000193150F291E09093B201E0918A01F0910F
:101190008B018585853A31F486858A35A1F41092D4
:1011A000B60113C08A3531F48685853A61F490938F
:1011B000B6010BC0853539F486858A3A21F482E080
:1011C0008093B60102C01092B2018091B2018111E8
:1011D00003C082EF93E00BC0808184508B3040F0DD
:1011E0001092B20186EF93E002C08AEE93E01DD325
:1011F0008091B201882311F034DF04C085EC93E0C4
:1012000014D35ED28091B201DF91CF911F910F91E3
:1012100008958091B201811124DFD1D28DE891E04F
:10122000E1D261E080E0C5D286EF93E0FED282E4B5
:1012300098E3E3D245C2C3D28091B201882319F06A
:1012400080E793E002C08FE593E0EFD261E080E0B9
:10125000B0D281E893E0E9D233D28530F1F020F4C6
:10126000843049F72EDFE7CF863019F0873019F741
:101270002EC08091B201882321F084DB8823D9F22B
:1012800004C01FDF8111F9CFD6CF99D28091B2016E
:10129000882389F2F1DAC7D4CECFBBDFCCCFCF938E
:1012A000DF939CD1C0D48CE0CED280E574D2CBEF5A
:1012B000D3E0FE01849176D22196F4E0CB30DF07B3
:1012C000C1F7DF91CF91B7CF4598459A0895109215
:1012D000C8011092C9011092CA011092CB0196B1B7
:1012E00095FB992790F93D9A45988DE38A95F1F7FA
:1012F00000003499926044983C98459A3D989093A8
:10130000CA0181E0911101C080E008953D9ADCDFBF
:101310003C9A089544983C98D7DF3D980895CF9320
:10132000DF93F4DF4498D0DF449ACEDF44983C98B2
:10133000D8E0C0E0C695C8DF3499C068D150D1F775
:10134000E9DF8C2FDF91CF910895CF93DF93CFEF1B
:10135000DFEFE5DF80FD04C0209711F02197F9CF82
:1013600081E0CD2B09F480E0DF91CF910895CF93F8
:10137000DF93D82FCBDF449AA7DFA6DFC8E0D0FFEA
:1013800002C0449A01C044989FDFD695C150B9F776
:10139000DF91CF91BFCFCF93DF9344983C98CFEFAD
:1013A000DFEF92DF2197209711F0349BFACF81E095
:1013B000CD2B09F480E0DF91CF910895CF93109267
:1013C000FC03A4DF449880DF7FDF7EDF7DDFE3DF87
:1013D000882399F0C8E08091FC0386958093FC03F4
:1013E00073DF349B05C08091FC0380688093FC030D
:1013F000C15089F78FDF81E001C080E0CF9108956F
:10140000A4DF882341F0DADF882329F081E090917E
:10141000FC039D3009F080E0089580E0A8DFCEDF76
:101420008091FC0388508B3210F01092FC03809165
:10143000FC038093C8010895CF93DF93D82F66DF14
:10144000449A42DF449840DF3FDF3EDFC8E0D0FFF0
:1014500002C0449A01C0449837DFD695C150B9F70D
:101460009ADF882351F056DFCFEFDFEF58DF81FF9F
:1014700004C0209711F02197F9CFDF91CF91089503
:101480008091F502D9DF8091D002D6DF8091F602FB
:10149000D3DFB6CFCF93C82F84EB69DF8C2FCCDF9F
:1014A000CF91AECF14DF811102C080E00895B5DF87
:1014B0008823D9F382E05BDF82E0BEDF84E0BCDF1B
:1014C0008BED90E00197F1F700C0000081E0B4DF00
:1014D0009FEB2AED80E0915020408040E1F700C072
:1014E000000082E0D7DF882301F368DF8091FC03EE
:1014F0008093C9018FEF3BDF80E89EDF8FEC97E0A0
:101500000197F1F700C000008FEE31DF82E094DF39
:1015100081E00895CF9386E0BDDF811102C080E0B5
:101520001BC0AEDF8823D9F3C091F6020EDF8823FB
:10153000B1F344DF882399F3E091C601F091C7012C
:10154000CF0101969093C7018093C6018091FC035F
:101550008083C15059F781E0CF910895CF9387E000
:1015600099DF8823A9F08CDF882391F0C091F602DF
:10157000E091C601F091C701CF0101969093C70198
:101580008093C601808158DFC15091F7CF91DDCEA5
:1015900080E0CF910895CF93C091F502C695CF30EA
:1015A00068F488E077DF882349F08C2F45DF28DF57
:1015B000882321F080E040DFCF91C7CE80E0CF913B
:1015C000089583E067DF882339F08EED35DF8DEAFB
:1015D00033DF85EA31DFB9CE80E008958AB18F70BC
:1015E0008AB98BB1806F8BB985E085BD82EB86BDF2
:1015F000EEE6F0E080818160808308951F920F9273
:101600000FB60F9211242F938F939F9382EB86BD79
:101610009091FF0389B1809589279091B501982316
:1016200090959093B5012091B40128232927209308
:10163000B401892382239091FF0398279093FF039D
:101640009091FE032091FF032823292B2093FE0372
:101650008091FF03807F19F486E48093B301809129
:10166000B30181508093B30181110CC080918C0132
:101670008093B3019091FD038091FF03807F892BBC
:101680008093FD039F918F912F910F900FBE0F902C
:101690001F901895F8949091FE0389239091FE0372
:1016A00098279093FE0378940895F8949091FD0301
:1016B00089239091FD0398279093FD0378940895D2
:1016C000CF93CFB778948091C10084FF07C08091F9
:1016D000C00087FF03C07BD180E011C080E4DADF67
:1016E000811110C080E2D6DF81110EC080E1D2DF0F
:1016F00081110CC080E8CEDF882329F387E0CFBFBB
:10170000CF91089586E0FBCF85E0F9CF84E0F7CF55
:101710002B9A00C02B9808951F93CF93DF931F92AD
:10172000CDB7DEB7662311F02D9A01C02D982C9805
:1017300097B19F6097B918B1107F982F92959F70BD
:10174000912B98B98983E4DF89818F70812B88B9C7
:10175000DFDF1F6018B90F90DF91CF911F910895BF
:101760002D982C9A87B1807F87B92B9A00C086B1BB
:101770002B9800C02B9A00C096B19F708295807FF5
:101780002B98892B0895ECDF87FDFDCF84E090E056
:101790000197F1F7E5CFCF93C82FF5DF60E08C2FED
:1017A000CF91BACFCF93C82FEEDF61E08C2FCF91CE
:1017B000B3CF611102C0805801C08054ECCF81E0EA
:1017C000EACFCF93C82FDFDFCA3041F4803410F462
:1017D00080E401C080E08058CF91DDCF61E08C2FA4
:1017E000CF919ACFCF93DF93EC018991882311F0A9
:1017F000E8DFFBCFDF91CF910895CF93DF9300D047
:1018000000D000D0CDB7DEB74AE0BE016F5F7F4F9A
:1018100049D2CE010196E6DF26960FB6F894DEBFD8
:101820000FBECDBFDF91CF910895CF93DF93FC0121
:101830008491EF012196882319F0C3DFFE01F8CFD0
:10184000DF91CF910895CF93C82F97B19F6097B93B
:10185000259A249A239AE0E0FDE73197F1F7419A1F
:10186000409A56DFE0E0F7E23197F1F751DFE0E828
:10187000F0E03197F1F74CDFE0E8F0E03197F1F775
:10188000409846DFE0E8F0E03197F1F788E283DF47
:1018900088E081DF94DF86E07EDF8C2FCF917BCFE5
:1018A00088E10FB6F89480936000109260000FBE3C
:1018B000F6DC2BE088E190E00FB6F894A8958093D1
:1018C00060000FBE20936000FFCF9627092E029480
:1018D000202D2F702927692F6025660F607E26270F
:1018E000602D6927607F6695092E000C661F96950E
:1018F000969596959F7196279827822F08952F92F7
:101900003F92FF920F931F93CF93DF93E1016EE21B
:1019100080E090E0DADF6885D8DF6091F502D5DFFE
:101920006091D002D2DF6F81D0DF382F292F8D81D7
:10193000FF80082F1E81F80EF80161918F01832F1F
:10194000922FC3DF382F292FF012F6CF6C81BDDF25
:10195000082FF92E88E08093C1008EE276D1888529
:1019600074D18091F50271D18091D0026ED18F81B6
:101970006CD11F81ED81FE81808167D12D813E81F7
:101980002F5F3F4F3E832D831150A1F78C815DD196
:101990008F2D5BD1802F59D180E18093C1008FE9D9
:1019A0009FE00197F1F700C000008091C6008B8393
:1019B0008091C6008887DF91CF911F910F91FF9092
:1019C0003F902F900895FBDE8BE094E02ECFCF93D5
:1019D000DF93CDB7DEB72C970FB6F894DEBF0FBEFE
:1019E000CDBFF1DFF8943E018AE0680E711C98E1EA
:1019F000C92ED12C07EF12E02CECE22E21E0F22EC2
:101A000038ECA32E31E0B32E4DE8842E41E0942E25
:101A100098E10FB6F89490936000109260000FBEAA
:101A2000312C1ED18C83811114C03394E3E03E121B
:101A3000F8CFC5DE82E194E0F8DE2BE088E190E0AB
:101A40000FB6F894A895809360000FBE20936000B5
:101A5000FFCF8F3229F71B861A867F826E82F1E0D4
:101A6000F887FED089878F3211F4FAD089878FE00A
:101A70000FB6F894A895C09260000FBE80936000E6
:101A80006FE280E090E021DF69851FDF1C01E8D074
:101A90008093F502682FC10118DF1C01E1D080930B
:101AA000D002682FC10111DF1C01DAD08B83682FAF
:101AB000C1010BDF2C014B8187EF282E82E0382EED
:101AC000420D4C87CDD0F10181931F01682FC201D7
:101AD000FCDE2C014C854211F4CFC2D08A83C0D0E9
:101AE000898389819A818415950511F480E001C06C
:101AF00083E08D83811192C01093C7010093C601CA
:101B0000898590E0FC01F097ED30F10508F084C084
:101B1000E45CFF4F09948091C801882309F47EC0DA
:101B20007CDC33C086E08A8779C08AE088879F8220
:101B30008E8274C082E0888790E99A878B876EC016
:101B4000CE0101961C01DBDE28E088E190E00FB6B3
:101B5000F894A895809360000FBE20936000FFCF9B
:101B6000B6DB5CC083E08887BF82AE829BDC0DC0A1
:101B7000459854C026DD09C08091F7028A87880FF6
:101B80008093F5021092D00206DD811147C007C094
:101B90008091F7028093F602BDDC811102C08FE0D4
:101BA0003CC08091F60288871F830E8337C08B81EB
:101BB0008093F6028FE08D83D1DC882379F1F09257
:101BC000C701E092C601A6DC882341F11D82109373
:101BD000C7010093C601F092F402E092F3028091F3
:101BE000F602A091C601B091C701E091F302F09115
:101BF000F4022C919081291711F094E09D831196A5
:101C0000B093C701A093C6013196F093F402E0931C
:101C1000F302815031F702C082E08D83FE013196DC
:101C20001F016DDEF5CEE0ECF0E080818D7F8083DA
:101C30008CE090E09093C5008093C40086E0809390
:101C4000C20080E18093C10008959091C00095FF8B
:101C5000FCCF8093C6008091C00086FFFCCF089522
:101C60008091C00087FFFCCF8091C6000895AA1B19
:101C7000BB1B51E107C0AA1FBB1FA617B70710F077
:101C8000A61BB70B881F991F5A95A9F780959095A9
:101C9000BC01CD010895FB01DC0105900D920020EF
:101CA000E1F70895BB27FB015527AA27880F991F45
:101CB000AA1FA41710F0A41B83955051B9F7A05D7B
:101CC000AA3308F0A95DA193009779F7B111B193F8
:101CD0001192CB0108C0F999FECF92BD81BDF89A4F
:101CE000992780B50895DC01FC01672F7191772356
:101CF000E1F7329704C07C916D9370836291AE17C7
:0A1D0000BF07C8F30895F894FFCF61
:101D0A00010D7201010D660101045C010102B500B9
:101D1A0000FFBF00010551010105460101053A0115
:101D2A000102A80001052E0101052401010518017F
:101D3A0001050B01010D5F00010500010104F70017
:101D4A000102ED00010554000102E3000102D9007D
:101D5A000001D1000001CA00007D9B0082FF8E00B5
:101D6A0001FE3B0001FF830001FF760001056900C7
:101D7A000001480001112E00000121000001150098
:101D8A0000010B0001050000CC01F7021442524287
:101D9A0042586D383850380000000000000000003A
:101DAA000000000000000200000000010100000025
:021DBA00000027
:00000001FF
