:1000000027C241C240C23FC23EC23DC23CC23BC207
:100010003AC22DC938C237C236C235C234C233C221
:1000200032C231C230C205C304C309C391C384C301
:1000300013C347C317C3E4C32FC3E2C3E1C341C320
:10004000C6C345C34AC35AC3C8C35EC363C368C3F8
:100050006DC38FC38EC38DC398C397C39AC395C313
:1000600094C35EC32DC540C553C55FC649C664C5AC
:1000700077C58AC564C79CC562C761C7AAC5DDC606
:10008000BDC5D2C5E2C5EFC6F5C505C615C625C6B0
:1000900063C679C613C78EC6A4C6BAC6F9C626C734
:1000A0003BC7202D20002E003D2000EE01C502A2FE
:1000B00002EE01970190018801810136022C021D98
:1000C000020E027D01400236022C0227027D01BE93
:1000D00001BC01BA01B801B601B301B001AD01AA7A
:1000E00001A701A401A0019C01EE01EB01EE01EBCF
:1000F00001A202B302C502A202C502D201C901E4F3
:1001000001DB01C001EE01EB01A202C5027D02008C
:1001100000A202C50284027D029102C502BA02A7B2
:1001200002A2029A02770271026B0265025F025913
:10013000024A02450240023B023602FF013102C57B
:1001400002BA02B302A702A2023B0209023602046B
:1001500002FF01A202B302C502EE01FC01F801F2A6
:1001600001EE0154024F024A02450240023B0236B0
:100170000231022C022702220218021302496E6683
:1001800000372E352F313500372E352F372E3500DD
:1001900031352F372E350031352F300032353500CF
:1001A0003132380036340034380033320032340013
:1001B000313600313200380036003400330032006E
:1001C0004269646972656374004E6567617469763B
:1001D0006500506F73697469766500526576657263
:1001E000736564004E6F726D616C004F4E004F4638
:1001F000460053455455500041524D00545800316B
:100200002E323500312E313200302E383800313068
:100210002E3000382E303000362E303000352E3063
:100220003000342E303000332E303000322E30305B
:1002300000312E353000312E303000302E37350071
:10024000302E353000302E333800302E323500302D
:100250002E313700302E313300302E313838003017
:100260002E31323500302E30393400302E303633D6
:1002700000302E30343700302E3033310044616D81
:100280007065640044616D706564204C69676874D2
:100290000056657279204C6F77004869676865730E
:1002A000740048696768004D656469756D20486928
:1002B0006768004D656469756D004D656469756DAD
:1002C000204C6F77004C6F770074036A036003560D
:1002D000034C034203400336032C03220317030C91
:1002E000030403FA02F802F402EB0253757065721C
:1002F000535F340053756E0052004D79737465720C
:10030000795F34004D537461725F34004D537461F2
:10031000725F32304176004D537461725F3230410A
:100320005F00484B5F554245435F3400484B5F5583
:100330004245435F330048485F554245435F3200C2
:100340004400426C75655365725F3700426C756599
:100350005365725F3600426C75655365725F33009A
:10036000426C75655365725F3200426C756553650A
:10037000725F310041004C6F6F70004D554C544915
:10038000005441494C004D41494E0043616E636544
:100390006C202620457869743F0004205265616412
:1003A0002020202020426F78200500042052656123
:1003B000642020202042455343200500457869747D
:1003C0002020022003205365747570005965732046
:1003D0002020022003202020204E6F00746F204236
:1003E0004553433F00204F4B2000577269746520EE
:1003F00000546172676574004C61796F75742000F8
:10040000206D696E0020562F63656C6C00332E00E2
:10041000207553656300436F6E6E656374004D65B0
:100420006D00204572726F7221005265762E0000B9
:10043000040E1F04040400000404041F0E04000042
:10044000040C1F0C0400000004061F06040000003A
:1004500011241FBECFE5D4E0DEBFCDBF10E0A0E683
:10046000B0E0EAE8F9E102C005900D92A237B107C9
:10047000D9F722E0A2E7B0E001C01D92A03EB2078A
:10048000E1F73CD880CABCCD1F93CF93DF93182FE0
:10049000EC01CE014BDAEC2FE11BF0E0EB55FD4F08
:1004A000808321968111F5CFDF91CF911F9108951F
:1004B0002F923F92AF92BF92DF92EF920F931F93D2
:1004C000CF93DF931F92CDB7DEB781E0D1011196B4
:1004D0009C91911180E0D82ED194F1018281F4E0B9
:1004E0008F9FC00111248E5F9F4F28DACDDFD1018D
:1004F00012962C91B4E02B9F80011124C8018050EA
:100500009040298313DAE82EC8018F5F9F4F0EDADF
:10051000182FE0916200F091630029812F3091F44F
:100520008281823148F480919402882329F180915C
:10053000C602882309F125C08091C60281111CC022
:1005400012E01FC02C3119F41091A4021AC02730F8
:1005500021F482818E30A8F013C0293039F48281D1
:10056000803160F48F3069F417E00BC02E3049F40D
:100570008281803128F405C013E003C01DE001C072
:1005800016E08281813160F0223129F48091940259
:10059000811105C005C0233011F0213109F413E0A9
:1005A000AA24AA94B12CF1018181D81609F42BC197
:1005B00034D785EA92E044D7D10112968C918330EA
:1005C00050F480919402823031F460E080E01FD7D3
:1005D00086E793E058D7F101818160E0843610F01E
:1005E0008DE005C08A3010F08EE001C08FE00FD79B
:1005F000D10111968C9190E02ED761E080E007D771
:1006000088EA90E040D7D1011196EC9111971E171E
:1006100008F4F6C0EE1508F4F3C012964C9150E0C1
:100620004F31510508F0ECC04D5E5F4F4F935F9323
:100630000895F0E0EE0FFF1FEF59FE4FDEC08091EE
:100640009402F0E0EE0FFF1F811103C0E75AFE4F46
:10065000D4C0EF5AFE4FD1C0F0E0EE0FFF1FE95BB0
:10066000FE4FCBC0A0916200B091630012968C91B6
:100670008E3010F00EEF01C00FEF0E0F0F3F49F05C
:100680008DE094E000D7802F90E0E5D685E094E0FF
:10069000B6C08EEE91E0B3C0A0916200B09163004D
:1006A00012968C91803110F0E15005C08F3011F41A
:1006B000EB5F01C0E95FF0E0EE0FFF1FEB5DFE4F67
:1006C0009CC0F0E0EE0FFF1FE35CFE4F96C0F0E031
:1006D000EE0FFF1FE95EFE4F90C0A0916200B09147
:1006E000630012968C91F0E0EE0FFF1F8B3018F430
:1006F000E95FFE4F82C0E15FFE4F7FC0F0E0EE0F8A
:10070000FF1FED5FFE4F79C0F0E0EE0FFF1FE350DB
:10071000FF4F73C0F0E0EE0FFF1FE750FF4F6DC0BB
:10072000F0E0EE0FFF1FE351FF4F67C0F0E0EE0F68
:10073000FF1FE751FF4F61C0B4E6EB9FC0011124DA
:10074000B501C0D8CB01992786D685E268D658C0B6
:10075000A0916200B091630012968C91F0E0EE0FD0
:10076000FF1F813118F0E151FF4F47C0EB50FF4FA1
:1007700044C0F0E0CF0186509F4F880F991F880F2B
:10078000991F69D680E194E03AC08E2F90E063D63D
:1007900037C0A0916200B09163008C9111962C91AA
:1007A00030E0FAE08F9F200D311D1124F0E0EE0FB4
:1007B000FF1F203731051CF4ED53FF4F02C0E754F3
:1007C000FF4F859194915FD680E094E018C0F0E0EF
:1007D000EE0FFF1FE353FF4F10C0A0916200B091D6
:1007E000630012968C91F0E0EE0FFF1F813118F03C
:1007F000E755FF4F02C0E155FF4F8591949143D6D5
:10080000D1011196DC9080E17ED5882399F08FEF9D
:10081000F101808385E6AFE3BCE91197F1F700C0F1
:100820000000815021F488ECF10182833DC0849B5B
:10083000F2CF3AC088E067D5882349F0D1011196FC
:100840008C91E81640F48150F101818304C088E066
:1008500065D58111F3CF80E256D5882349F0D101C7
:1008600011968C91811740F48F5FF101818304C050
:1008700080E254D58111F3CF84E045D5882309F473
:1008800092CE81E0D1018C9385E6EFE3FCE93197CC
:10089000F1F700C00000815029F484E6D1011296DE
:1008A0008C9302C0829BF1CF0F90DF91CF911F916B
:1008B0000F91EF90DF90BF90AF903F902F900895F1
:1008C00010928A011092860120E720938B01909369
:1008D0007B0080937A00ECC7CF93DF938091600018
:1008E00090916100EDDF882309F49EC0A091620021
:1008F000B0916300E0916000F09161009C91808173
:10090000981394C011969C911197818198138EC071
:100910001D969C911D978585981388C01E969C9165
:100920001E978685981382C080E1ED01C05CDF4F81
:100930002881EF01C05CDF4F9881291377C0ED015A
:10094000C05BDF4F2881EF01C05BDF4F9881291327
:100950006DC08150119631968111E7CF81E080936F
:100960008B01C3E0D0E0E0916000F0916100A091C4
:100970006200B0916300AC0FBD1F8C91EC0FFD1FA6
:100980009081981771F08083C093860180916000F8
:10099000909161008C0F9D1F90937B0080937A0053
:1009A0008CD72196CD30D105F1F6CFE0D0E0E091A3
:1009B0006000F0916100A0916200B0916300AC0F03
:1009C000BD1F8C91EC0FFD1F9081981741F0808323
:1009D000C0938601F0937B00E0937A006ED7219656
:1009E000CA33D10521F71092860180E780938B01ED
:1009F000809160009091610090937B0080937A00D9
:100A000057D78823A9F0E0916200F0916300A0918C
:100A10006000B091610080E7C0E021919D912913B1
:100A2000C3E08150D1F705C0C1E003C0C2E001C0FE
:100A3000C3E08AEE93E027D5C11103C085EE93E0B1
:100A400007C0C23019F481EF93E01DD582E294E033
:100A50001AD56FD48C2FDF91CF9108952F923F92AA
:100A60000F931F93CF93DF9300D01F92CDB7DEB7C4
:100A70001B8281E0898378940EE115E08B81813FB0
:100A800008F00B838B818F3108F01B822091940238
:100A9000222359F0223011F030E008C0E0916200CA
:100AA000F091630082818031B8F331E08B8190E076
:100AB0008F31910508F043C2FC01EE5CFF4F0994B1
:100AC000332309F43CC2E0916200F091630083811A
:100AD0008A83CE0101961C01EBDCE0916200F0916B
:100AE00063008A8183832BC2332309F428C2E091F7
:100AF0006200F091630084818A83CE0101961C011B
:100B0000D7DCE0916200F09163008A81848317C290
:100B1000332309F414C2E0916200F09163008581EF
:100B20008A83CE0101961C01C3DCE0916200F09142
:100B300063008A81858303C2222309F400C2E09105
:100B40006200F091630087818A83CE0101961C01C7
:100B5000AFDCE0916200F09163008A818783EFC18E
:100B6000213009F0ECC1E0916200F09163008085D2
:100B70008A83CE0101961C019BDCE0916200F0911A
:100B800063008A818087DBC1213009F4D8C1E091FC
:100B90006200F091630086818A83CE0101961C0178
:100BA00087DCE0916200F09163008A818683C7C18F
:100BB000E0916200F091630081858A83CE01019605
:100BC0001C0176DCE0916200F09163008A818187EC
:100BD000B6C1E0916200F091630082818B3008F42D
:100BE000AEC185898A83CE0101961C0161DCE0914A
:100BF0006200F09163008A81858BA1C1E09162005F
:100C0000F091630082818B50883008F098C186890A
:100C10008A83CE0101961C014BDCE0916200F091C9
:100C200063008A81868B8BC1E0916200F091630042
:100C300082858A83CE0101961C013ADCE091620034
:100C4000F09163008A8182877AC1E0916200F0911D
:100C5000630082818E3008F072C184898A83CE015C
:100C600001961C0125DCE0916200F09163008A810D
:100C7000848B65C1E0916200F091630083858A8373
:100C8000CE0101961C0114DCE0916200F09163003A
:100C90008A81838754C1E0916200F091630084856A
:100CA0008A83CE0101961C0103DCE0916200F09181
:100CB00063008A81848743C1E0916200F091630000
:100CC00087858A83CE0101961C01F2DBE0916200E8
:100CD000F09163008A81878732C1211130C1E09190
:100CE0006200F091630080898A83CE0101961C0125
:100CF000DFDBE0916200F09163008A81808B1FC18D
:100D000021111DC1E0916200F091630081898A8305
:100D100010936500CE0101961C01CADBE0916200D0
:100D2000F09163008A81818B0AC1E0916200F091A9
:100D3000630082818C3008F402C1211100C18789CF
:100D40008A83CE0101961C01B3DBE0916200F09131
:100D500063008A81878BF3C0E0916200F0916300A9
:100D600082818D3008F4EBC0818D8A8310936500F9
:100D7000CE0101961C019CDBE0916200F0916300C2
:100D80008A81818FDCC0E0916200F09163008281F2
:100D90008D3008F4D4C0828D8A8310936500CE0113
:100DA00001961C0185DBE0916200F09163008A816D
:100DB000828FC5C0E0916200F091630082818D3026
:100DC00008F4BDC0838D8A8310936500CE0101961F
:100DD0001C016EDBE0916200F09163008A81838FD9
:100DE000AEC0E0916200F091630082818D3008F422
:100DF000A6C0848D8A8310936500CE0101961C01E4
:100E000057DBE0916200F09163008A81848F97C084
:100E1000E0916200F091630082818D3008F48FC010
:100E2000858D8A83CE0101961C0142DBE091620030
:100E3000F09163008A81858F82C0E0916200F09119
:100E4000630082818D50863008F079C0868D8A8358
:100E5000CE0101961C012CDBE0916200F091630051
:100E60008A81868F6CC0E0916200F091630082817C
:100E70008D3008F464C0878D8A83CE0101961C01F1
:100E800017DBE0916200F09163008A81878F57C081
:100E90008091A402882309F452C0E0916200F0918D
:100EA000630080A18A83CE0101961C0101DBE091E1
:100EB0006200F09163008A8180A341C0E0916200EA
:100EC000F091630082818131D0F12223C1F181A1AF
:100ED0008A8310936500CE0101961C01E9DAE09146
:100EE0006200F09163008A8181A329C0E0916200D1
:100EF000F09163008281823110F1211120C082A122
:100F00008A83CE0101961C01D3DAE0916200F09150
:100F100063008A8182A313C0E0916200F0916300B4
:100F20008281823160F083A18A83CE0101961C0107
:100F3000BFDAE0916200F09163008A8183A300939D
:100F400065009B81943611F0983CF9F466D28B8150
:100F5000843631F48AEE93E096D28CED93E002C0B1
:100F60008BE893E090D261E080E051D28CEC93E08A
:100F70008AD2DFD1823039F4F89481E09B819436B3
:100F800041F080E006C01B8279CD8981890F8B8377
:100F900075CD0F900F900F90DF91CF911F910F9112
:100FA0003F902F9008958AE294E06DD2E091620024
:100FB000F0916300808190E04ED286EA90E063D2A7
:100FC000E0916200F0916300818190E044D282EA76
:100FD00090E059D280919402813039F018F082303B
:100FE00039F0089586E893E005C081E893E002C0F7
:100FF0008BE793E048C2CF93DF930FD2C0E0D0E0FD
:1010000080916200909163008C0F9D1FFC01E05A5B
:10101000FF4F808104D22196C031D10589F761E06C
:1010200080E0F5D185E992E00BD283D1F6D1BBDF28
:1010300061E080E0ECD188EF93E025D28AE294E091
:1010400022D2E0916200F0916300828190E003D2AD
:10105000DF91CF916EC11F93CF93DF9310927200F7
:10106000DCD180916200909163002ADC882309F42E
:101070006FC08091620090916300E5E9F2E0108218
:10108000DC01AF5BBF4F2C91233209F020833196F6
:10109000019622E0E33AF20791F71092A302109230
:1010A000C6021092A402C9ECD2E011E0FE016591E3
:1010B000749185EA92E01AD4A5EAB2E0E5E9F2E09B
:1010C00081919D91891719F0992319F009C0811117
:1010D00003C01093C60204C082E0E43AF80781F727
:1010E000229622E0CB3ED20709F791E0909372005E
:1010F000E0916200F09163008585853A31F4868540
:101100008A35A1F41092940213C08A3531F4868591
:10111000853A61F4909394020BC0853539F4868545
:101120008A3A21F482E08093940202C01092720005
:1011300080917200811103C08EE194E00BC0808128
:1011400084508A3040F0109272008AE294E002C02B
:1011500086E194E098D180917200882311F04BDFF2
:1011600004C082E294E08FD1E4D080917200DF91DC
:10117000CF911F91089551D189ED91E085D985EAEC
:1011800092E05ED1D6D049D186E690E059D161E0B7
:1011900080E03DD18AE294E076D18CE293E35BD1AA
:1011A000C8C03BD180917200882319F08BEA93E08C
:1011B00002C08AE993E067D161E080E028D18CEB3E
:1011C00093E061D180916400882319F0109264004B
:1011D00027C0AFD0833021F118F4823011F7089581
:1011E000843019F08530A1F0DCCF80917200882323
:1011F00021F034DC8823A9F204C02DDF8111F9CF5E
:10120000D0CF0BD180917200882359F265DBC9CF12
:1012100080917200882311F0EEDEC3CFACDFC1CF26
:101220001ADFBFCFCF93DF937AD113D08CE039D1BF
:1012300080E5DFD0CFE2D4E0FE018491E1D02196B9
:10124000F4E0CF34DF07C1F7DF91CF910895EADFF3
:10125000A8CF81B3837C81BB82B38C6382BB85E0E2
:1012600083BF84E682BF89B7816089BF08951F92DA
:101270000F920FB60F9211242F938F939F9384E6B2
:1012800082BF9091C90280B38095892790917500A3
:101290009823909590937500209174002823292716
:1012A00020937400892382239091C90298279093F8
:1012B000C9029091C8022091C9022823292B2093AA
:1012C000C8028091C9028C7319F486E4809373007C
:1012D0008091730081508093730081110CC08091C4
:1012E0006500809373009091C7028091C9028C734E
:1012F000892B8093C7029F918F912F910F900FBEE2
:101300000F901F901895F8949091C802892390919E
:10131000C80298279093C80278940895F894909101
:10132000C70289239091C70298279093C7027894A7
:101330000895CF93CFB7789480E1E5DF81110EC097
:1013400080E2E1DF81110CC088E0DDDF81110AC09D
:1013500084E0D9DF882381F382E005C084E003C004
:1013600085E001C083E0CFBFCF910895AC9A00C063
:10137000AC9808951F93CF93DF931F92CDB7DEB73C
:10138000662311F0AA9A01C0AA98AB9897B39F6000
:1013900097BB18B3107F982F92959F70912B98BB95
:1013A0008983E4DF89818F70812B88BBDFDF1F6039
:1013B00018BB0F90DF91CF911F910895AA98AB9A17
:1013C00087B3807F87BBAC9A00C086B3AC9800C05F
:1013D000AC9A00C096B39F708295807FAC98892BA1
:1013E0000895ECDF87FDFDCF88E090E00197F1F7ED
:1013F000E5CFCF93C82FF5DF60E08C2FCF91BACF28
:10140000CF93C82FEEDF61E08C2FCF91B3CF611166
:1014100002C0805801C08054ECCF81E0EACFCF9366
:10142000C82FDFDFCA3041F4803410F480E401C0FB
:1014300080E08058CF91DDCF61E08C2FCF919ACFA3
:10144000CF93DF93EC018991882311F0E8DFFBCF84
:10145000DF91CF910895CF93DF9300D000D000D0DB
:10146000CDB7DEB74AE0BE016F5F7F4F46D2CE01F7
:101470000196E6DF26960FB6F894DEBF0FBECDBF0D
:10148000DF91CF910895CF93DF93FC018491EF0119
:101490002196882319F0C3DFFE01F8CFDF91CF91A9
:1014A0000895CF93C82F97B39F6097BBA29AA39A32
:1014B000A49AE0E0FAEF3197F1F7C19AC09A56DFAB
:1014C000E0E0FEE43197F1F751DFE0E0F1E0319741
:1014D000F1F74CDFE0E0F1E03197F1F7C09846DF3B
:1014E000E0E0F1E03197F1F788E283DF88E081DF27
:1014F00094DF86E07EDF8C2FCF917BCF88E10FB623
:10150000F89481BD11BC0FBEA2DE2BE088E190E013
:101510000FB6F894A89581BD0FBE21BDFFCF1AB8B4
:1015200089989198909A889A83E085BD08959091C2
:10153000DF0298279093DF0298E0909A14BC80FF16
:101540000CC024B52031E8F3909814BC24B52031A8
:10155000E8F38695915089F7089524B52830E8F38B
:10156000909814BC24B52830E8F3909A14BC24B5A4
:101570002830E8F3909814BC24B52830E8F3E9CF7C
:10158000909A889A8FEFD3DF8FEFD1DF8FE7CFDF8D
:101590001092DF0208958091DF02C9DF909A14BC97
:1015A00084B58830E8F38898089514BC809B07C000
:1015B00084B58B3FD8F318C084B58B3FA8F4809BCB
:1015C000FBCF94B58091CC02891780F014BC809B2E
:1015D00007C084B58B3FD8F307C084B58B3F20F498
:1015E000809BFBCF80E008958FEF089581E0089500
:1015F000EF92FF920F931F93CF93DF93EC0118822A
:1016000000E010E0EE24E394F12CCFDF8F3FC1F037
:10161000813049F42881C701002E01C0880F0A9447
:10162000EAF7282B28830F5F1F4F0830110569F751
:101630008091CA02988189278093CA0281E001C003
:1016400080E0DF91CF911F910F91FF90EF9008956F
:10165000CF93CCE0AADFC150E9F7A7DF8F3F81F03D
:1016600094B59093CE02892F869586959695890F8D
:101670008093CC029ADF8F3F19F01816DCF3C1E09B
:101680008C2FCF910895EF92FF920F931F93CF93DA
:10169000DF9300D0CDB7DEB7F82EE92E1A8219827B
:1016A000D7DF811102C080E05DC01092CA02CE0176
:1016B00002969EDF8823B9F38A818B31A1F7CE0190
:1016C000029696DF882379F39A818091CB02981352
:1016D000EACFCE0102968CDF882329F38A8181111B
:1016E000E2CFCE01019684DF8823E9F28981882345
:1016F000D1F2CE0102967CDF8823A9F28A818E3056
:1017000091F6CE01029674DF882369F29A81809166
:10171000CD029813C8CFCE0102966ADF882319F252
:101720008A818111C0CF0F2D1E2D402F4F1950E0FF
:10173000298130E0225031094217530744F4C8018F
:1017400057DF882309F4AFCF0F5F1F4FEECFCE01D5
:1017500002964EDF882309F4A6CF8091CA02811138
:10176000A2CF89810F900F90DF91CF911F910F91A0
:10177000FF90EF90089586E08093CD0201DF8BE12A
:10178000D6DE8091CB028F5F8093CB02D0DE80E0EB
:10179000CEDE85E0CCDE8EE0CADE86E0C8DE80E00C
:1017A000C6DE80E0C4DE80918A01C1DE80918601C0
:1017B000BEDEF1DE8FEC92E066DF91E0811101C0C8
:1017C00090E0892F089586E18093CD02D9DE8BE1E8
:1017D000AEDE8091CB028F5F8093CB02A8DE80E0EB
:1017E000A6DE84E0A4DE8EE0A2DE86E1A0DE80E05C
:1017F0009EDE80918B019BDE80EA99DECCDE8091BB
:101800007A0090917B003FDF90918B01482F50E050
:10181000292F30E02D5F3F4F4217530711F080E032
:101820000895892F0895CF9385E18093CD02A8DE96
:101830008BE17DDE8091CB028F5F8093CB0277DEE0
:1018400080E075DE80918B01865F71DE8EE06FDE59
:1018500085E16DDE80E06BDE80918B0168DE80E0EB
:1018600066DE80E064DE80E062DE80E060DE80E0F4
:101870005EDE80E05CDE80E05ADEC0E080918B01BD
:10188000C81788F4E0917A00F0917B0080814FDEE8
:1018900080917A0090917B00019690937B008093D9
:1018A0007A00CF5FEBCF77DE8FEC92E0CF91EBCE7B
:1018B00062DF811188CF80E008955DDF8111B3CFB1
:1018C00080E00895AA1BBB1B51E107C0AA1FBB1FE4
:1018D000A617B70710F0A61BB70B881F991F5A95BC
:1018E000A9F780959095BC01CD010895FB01DC011D
:1018F00005900D920020E1F70895BB27FB015527C5
:10190000AA27880F991FAA1FA41710F0A41B83955C
:101910005051B9F7A05DAA3308F0A95DA1930097D3
:1019200079F7B111B1931192CB010DC0E199FECFBE
:101930009FBB8EBBE09A99278DB30895A8E1B0E0D4
:1019400042E050E012C0DC01FC01672F7191772367
:10195000E1F7329704C07C916D9370836291AE176A
:10196000BF07C8F30895DC01CB01FC01E199FECF6C
:1019700006C0FFBBEEBBE09A31960DB20D9241500E
:0A1980005040B8F70895F894FFCF27
:10198A0082008E0101143254444C586D385F31364E
:02199A0000004B
:00000001FF
