:100000000C9428030C9445030C9445030C9445036D
:100010000C9445030C9445030C9445030C94450340
:100020000C9445030C9445030C9445030C94450330
:100030000C9445030C9445030C9445030C94450320
:100040000C9403150C9445030C9445030C94450340
:100050000C9445030C9445030C9445030C94450300
:100060000C9445030C9445030D070D071407B907BD
:10007000AA0722076F072907CB0744075907640718
:100080006F07080876077D078E070F0895079C07FE
:10009000A307A307D607D607D607E407E407E807B0
:1000A000E407E407A307A307A307210804181E1801
:1000B000211826182C185918561973189918A918A8
:1000C000C118F5186A18D61842194C18202D2000AE
:1000D0002E003D20004C020502FD01F401EB014C15
:1000E000023C0319034C02DB01D401CC01C501AD74
:1000F00002A30294028502C101B702AD02A3029ECF
:1001000002C1011F0218020D020B020902070203BD
:10011000020002FA01F701F101EE01E801E401E059
:10012000014C02490219032A033C0319033C033022
:10013000022702420239020F0219033C03F40200B3
:100140000019033C03FB02F40208033C0331031EC5
:10015000031903110367026202AD02A8025D027176
:10016000026C02AD027602A802EE02E802E202DCB4
:1001700002D602D002C102BC02B702B202AD0276C0
:1001800002A8023C0331032A031E031903B20280B2
:1001900002AD027B02760219032A033C034C025A89
:1001A00002560250024C02CB02C602C102BC02B788
:1001B00002B202AD02A802A3029E0299028F028A35
:1001C00002496E6600372E352F313500372E352F18
:1001D000372E350031352F372E350031352F300091
:1001E0003235350031323800363400363300343899
:1001F0000033320033310032340031360031350003
:10020000313200380037003600340033003200420B
:10021000696469726563740044697265637400534C
:10022000746570706564004E656761746976650019
:10023000506F73697469766500526576657273658F
:1002400064004E6F726D616C004F4E004F46460069
:1002500053455455500041524D00545800322E33EE
:100260003000302E373000302E343000302E383011
:1002700000302E363700312E323500312E3132002B
:10028000302E38380031302E3000382E30300036E5
:100290002E303000352E303000342E303000332EEA
:1002A000303000322E303000312E353000312E30DB
:1002B0003000302E373500302E353000302E3338B8
:1002C00000302E323500302E313700302E313300E1
:1002D000302E31383800302E31323500302E303962
:1002E0003400302E30363300302E30343700302E8C
:1002F0003033310044616D7065640044616D706538
:1003000064204C696768740056657279204C6F7779
:1003100000486967686573740048696768004D65DF
:100320006469756D2048696768004D656469756D1D
:10033000004D656469756D204C6F77004C6F7700D8
:10034000D503D203CE03C803BF03BD03B203AF037B
:10035000AD03AA03A803A6039C0399039603910384
:1003600086037F0376036D036A0358520054757247
:100370006E6967794E005475726E696779340054FE
:1003800067794B4634005475726E6967794145341C
:1003900000536B797700526F00506C00506C6174A1
:1003A000696E756D35004E004D00484B00470046A4
:1003B000560046435F46616972795F3300450041EC
:1003C0006C69676E424C33005850374146005850B4
:1003D0003300537500440086047C04720468045E94
:1003E000045404520448043E04340429041E041630
:1003F000040C040A040604FD03FB03540053757047
:100400006572535F340053756E0052004D797374FA
:100410006572795F34004D537461725F34004D53DF
:100420007461725F32304176004D537461725F3295
:1004300030415F00484B5F554245435F3400484BB5
:100440005F554245435F330048485F554245435F2F
:1004500032004400426C75655365725F3700426C30
:1004600075655365725F3600426C75655365725FE2
:100470003300426C75655365725F3200426C75657E
:100480005365725F310041005265736574696E6730
:1004900020616C6C202E2E2E004C6F6F70004D551D
:1004A0004C5449005441494C004D41494E00436170
:1004B0006E63656C202620457869743F0073696E11
:1004C000676C6520006D756C746920004D6F646504
:1004D000004245534323200023200053696E676C7C
:1004E00065204D6F6465004D756C746942455343DA
:1004F000204D6F646500042045646974202020202D
:1005000020204F4B2005007369424C4220022020DE
:1005100003206174534B0004206174424C4220203C
:100520002073694332200500457869742020022039
:1005300020032020204E657874004D756C7469206E
:10054000022020032053696E676C65000420526509
:1005500061642020202020426F7820050004205272
:1005600065616420202020424553432005004578E2
:10057000697420200220200320536574757000598F
:10058000657320202002202003202020204E6F00B1
:10059000746F20424553433F00204F4B2000577259
:1005A0006974652000546172676574004C61796FED
:1005B00075742000206D696E0020562F63656C6C89
:1005C00000332E00207553656300436F6E6E6563C4
:1005D00074004D656D00204572726F722100526586
:1005E000762E0000040E1F04040400000404041FFF
:1005F0000E040000040C1F0C0400000004061F067B
:1006000004000041746D20536B2D4D6F64650053E1
:10061000696C20424C422D4D6F64650041746D2021
:10062000424C422D4D6F64650053696C2043322D5E
:100630004D6F6465002020504320496E74657266DA
:10064000616365005570646174696E672E2E2E00BB
:1006500011241FBECFEFD4E0DEBFCDBF11E0A0E07C
:10066000B1E0E8EEFBE302C005900D92A83CB107B3
:10067000D9F724E0A8ECB1E001C01D92AF33B20776
:10068000E1F70E947A160C94F21D0C94000081E0B0
:100690008093EF02E091D301F091D40120EC32E19C
:1006A00080814091CE0190E002C0959587954A9552
:1006B000E2F780FD06C01092B200232B31F480E0F7
:1006C00008952150310961F7FACF8091B200873047
:1006D000E0F3E091D301F091D40180812091CE012B
:1006E00090E002C0959587952A95E2F780FDE7CFC7
:1006F00040E050E080E097E061E070E0935F20919F
:10070000B2002917E0F32081A091CE0130E002C0B1
:1007100035952795AA95E2F720FF07C09B01042E87
:1007200001C0220F0A94EAF7822B4F5F5F4F9F367A
:1007300029F79091B2009B37E0F320819091CE0190
:1007400030E002C0359527959A95E2F720FFB7CFA4
:100750001092EF0208954091CE01E091FA02F091DB
:10076000FB02908121E030E002C0220F331F4A9546
:10077000E2F720953095292320831092B2009091C2
:10078000B2009D30E0F39DE041E050E0E091FA02DC
:10079000F091FB022091CE016081DA0102C0AA0F24
:1007A000BB1F2A95E2F79D0180FF02C0262B03C0E4
:1007B0002095309526232083935F86952091B20063
:1007C0002917E0F3953711F73091CE01E091FA0245
:1007D000F091FB02208181E090E001C0880F3A9502
:1007E000EAF7822B80838091B2008238E0F308958B
:1007F0002091CD018091F8029091F90238E0AC018E
:1008000042279695879540FF04C041E0842740EA3F
:1008100094272695315099F79093F9028093F80226
:100820002093CD0108951F93CF93DF931092F90287
:100830001092F8021092D0011092CF012FEF209366
:10084000CC01C82FD92F162F180F0E944703809371
:10085000CD019091EF0291112BC089930E94F80372
:100860001C13F3CF8091D7018823F1F00E94470336
:100870008093CF018091EF0281111AC00E9447033B
:100880008093D0018091EF02811112C02091F80273
:100890003091F9028091CF019091D001281739074A
:1008A00019F082EC8093CC010E9447038093CC0125
:1008B00081E09091CC01903309F080E0DF91CF91FD
:1008C0001F9108951F93CF93DF935091CE01E09134
:1008D000D501F091D601408121E030E001C0220F26
:1008E0005A95EAF7242B2083E7ECF0E03197F1F7F3
:1008F00000C000001092F9021092F802C82FD92F00
:10090000162F180F89918093CD010E94AB030E948E
:10091000F8031C13F7CF8091D701882341F0809111
:10092000F8020E94AB038091F9020E94AB03309160
:10093000CE01E091D501F091D601208181E090E0D7
:1009400002C0880F991F3A95E2F78095909582230F
:100950008083DF91CF911F910895CF93DF93CDB71F
:10096000DEB76D970FB6F894DEBF0FBECDBF84E340
:1009700097E3A1E38B8F9C8FAD8F81E1EDE8F1E0F0
:10098000DE01119601900D928A95E1F761E1CE01A9
:1009900001960E94620468E0CE0142960E94130410
:1009A0008823C1F0DE015B96FE01729683E08E0F14
:1009B00021919D9129130DC08E13FACF8D898093BB
:1009C000D9018E898093D8018F898093D70181E0E6
:1009D00001C080E06D960FB6F894DEBF0FBECDBFAC
:1009E000DF91CF910895CF93C82F0E944703809342
:1009F000CC01C1508091EF02882329F0C111F5CFBD
:100A00008FEF8093CC018091CC01CF910895CF934B
:100A1000DF9300D0CDB7DEB78DEF89831A8262E015
:100A2000CE0101960E94620481E00E94F304813CA1
:100A300021F00E94661380E001C081E00F900F90CA
:100A4000DF91CF910895CF93DF9300D0CDB7DEB77C
:100A500019821A8281E08093D70162E0CE0101966B
:100A60000E9462040E9466130F900F90DF91CF9155
:100A70000895CF93DF9300D000D0CDB7DEB790912B
:100A8000F6028091F0029F3F11F48F3F91F02FEF1B
:100A900029831A829B838C8364E0CE0101960E9495
:100AA000620482E00E94F30491E0803319F090E048
:100AB00001C091E0892F0F900F900F900F90DF9160
:100AC000CF910895CF93DF9300D000D0CDB7DEB79C
:100AD0008EEF89831A821B828091F7028C838111A9
:100AE00002C081E08B8364E0CE0101960E94620423
:100AF00082E00E94F3048F3F71F46091F7028091CD
:100B0000D1019091D2010E94620488E20E94F30414
:100B100091E0803309F090E0892F0F900F900F90B3
:100B20000F90DF91CF910895CF93DF9300D0CDB791
:100B3000DEB70E9439058823D1F08091F7028A83BD
:100B40008091F502813021F0823021F487E001C0EC
:100B500083E0898362E0CE0101960E946204609185
:100B6000F7028091D1019091D2010E9413040F905D
:100B70000F90DF91CF910895CF93DF9300D0CDB741
:100B8000DEB70E943905882391F084E08983809143
:100B9000F7028A8362E0CE0101960E9462046091AE
:100BA000F7028091D1019091D2010E9413040F901D
:100BB0000F90DF91CF910895CF93DF9300D0CDB701
:100BC000DEB70E943905982F8823A9F00E9462059C
:100BD000982F882381F085E0898381E08A8362E011
:100BE000CE0101960E9462048FEF0E94F30491E00F
:100BF000803309F090E0892F0F900F90DF91CF9113
:100C00000895CF93DF9300D0CDB7DEB70E943905AA
:100C1000982F882381F082E0898381E08A8362E0D3
:100C2000CE0101960E94620484E00E94F30491E0E8
:100C3000803309F090E0892F0F900F90DF91CF91D2
:100C40000895CF93DF9300D0CDB7DEB70E9439056A
:100C5000982F8823A1F00E946205982F882379F0AD
:100C600081E089838A8362E0CE0101960E9462045A
:100C700084E00E94F30491E0803309F090E0892F32
:100C80000F900F90DF91CF9108951F93CF93DF9333
:100C9000182FEC01CE010E94D81DEC2FE11BF0E0D3
:100CA000ED5EFB4F808321968111F4CFDF91CF91D0
:100CB0001F9108952F923F92AF92BF92DF92EF92D1
:100CC0000F931F93CF93DF93E10181E099819111FD
:100CD00080E0D82ED194EA8124E0E29FF001112433
:100CE000E050FF4F828193810E9445068A8144E053
:100CF000849FF0011124E050FF4FE0801181E091CA
:100D00008A01F0918B018F3091F49281923148F4F5
:100D100090910104992329F190913404992309F1C8
:100D200025C09091340491111CC012E01FC08C3179
:100D300019F4109112041AC0873021F492819E3068
:100D400090F414C0893039F49281903170F49F305E
:100D500069F417E00BC08E3049F49281903130F085
:100D600002C013E003C016E001C01DE09281913182
:100D700060F0823129F480910104811105C005C021
:100D8000833011F0813109F413E0AA24AA94B12C24
:100D90008981D81609F460C10E94F61583E194E0B8
:100DA0000E940D168A81833060F4809101048230A4
:100DB00041F460E080E00E94EF1589E994E00E9430
:100DC0003316898160E0843610F08DE005C08A30EA
:100DD00010F08EE001C08FE00E94EF15898190E055
:100DE0000E94191661E080E00E94EF1582ED90E00C
:100DF0000E9433168981181708F42DC18E1508F446
:100E00002AC1EA814E2F50E04232510508F023C139
:100E1000FA01EC5CFF4F0C94A11DE82FF0E0EE0FFF
:100E2000FF1FEB55FE4F13C190910104E82FF0E036
:100E3000EE0FFF1F911103C0E356FE4F08C1EB56A2
:100E4000FE4F05C1E82FF0E0EE0FFF1FE557FE4F04
:100E5000FEC0E0918A01F0918B0192819E3010F0EA
:100E60000EEF01C00FEF080F0F3F59F081EC95E036
:100E70000E943316802F90E00E94191689EB95E0AE
:100E8000E8C08CE492E0E5C0E0918A01F0918B012A
:100E90009281903110F0EFEF05C09F3011F4E5E042
:100EA00001C0E7E0E80FF0E0EE0FFF1FE759FE4F4B
:100EB000CEC09091F5029111CEC0E82FF0E0EE0F78
:100EC000FF1FE35AFE4FC3C09091F5029111C3C0BA
:100ED000E82FF0E0EE0FFF1FED5AFE4FB8C0E82FED
:100EE000F0E0EE0FFF1FEF57FE4FB1C0E82FF0E02C
:100EF000EE0FFF1FE95BFE4FAAC0E0918A01F0915F
:100F00008B019281E82FF0E0EE0FFF1F9B3018F469
:100F1000E95CFE4F9CC0E15CFE4F99C0E82FF0E019
:100F2000EE0FFF1FE15EFE4F92C0E82FF0E0EE0FE4
:100F3000FF1FEF5CFE4F8BC0E82FF0E0EE0FFF1FAE
:100F4000E35DFE4F84C0E82FF0E0EE0FFF1FEF5D82
:100F5000FE4F7DC0E4E68E9FC0011124B5010E94C2
:100F60008D1DCB0199270E94191685E20E94F91563
:100F700072C0A0918A01B0918B0112969C91E82FCA
:100F8000F0E0EE0FFF1F913118F0ED5DFE4F5FC0F6
:100F9000E75DFE4F5CC09091F50291115CC0E82FB7
:100FA000F0E0EE0FFF1FEF5FFE4F51C0E82FF0E0C3
:100FB000CF0186509F4F880F991F880F991F0E945D
:100FC000191684EC95E045C090E00E94191643C0C4
:100FD000A0918A01B0918B019C9111962C9130E0E7
:100FE000FAE09F9F200D311D1124E82FF0E0EE0F55
:100FF000FF1F203731051CF4E950FF4F02C0E351B9
:10100000FF4F859194910E94331684EB95E021C0A7
:10101000E82FF0E0EE0FFF1FEB5FFE4F18C0A0912E
:101020008A01B0918B0112969C91E82FF0E0EE0FAF
:10103000FF1F913118F0E352FF4F09C0ED51FF4FF0
:1010400006C0E82FF0E0EE0FFF1FED52FF4F859135
:1010500094910E943316D98080E20E944F15882314
:1010600081F08FEF888385E6EFE3FCE93197F1F7B4
:1010700000C00000815011F488EC35C04D9BF4CFC6
:1010800036C088E00E944F15882331F08981E81628
:1010900040F48150898305C088E00E945A1581116F
:1010A000F5CF80E10E944F15882331F089818117A7
:1010B00040F48F5F898305C080E10E945A15811139
:1010C000F5CF84E00E944F15882309F461CE81E0BA
:1010D000888385E6EFE3FCE93197F1F700C0000073
:1010E000815019F484E68A8302C04A9BF3CFDF91D2
:1010F000CF911F910F91EF90DF90BF90AF903F90F5
:101100002F9008951092F00220E72093F702909319
:10111000D2018093D1010E946B138823D9F0809172
:10112000F502813071F040F0823081F0833091F42B
:101130001092F6020C94481D8AE18093F6020C94FA
:10114000F0128AE18093F6020C9494051092F60254
:101150000C94BC0580E00895CF93DF9380918801C3
:10116000909189010E948208882309F4C9C0A09146
:101170008A01B0918B01E0918801F09189019C91E5
:1011800080819813BFC011969C911197818198130B
:10119000B9C01D969C911D9785859813B3C01E9666
:1011A0009C911E9786859813ADC01092F00280E73F
:1011B0008093F70280818C93828112968C93129790
:1011C000EF01C05CDF4FCD01805C9F4FAF01405904
:1011D0005F4F2991FC012193CF01C417D507C9F7AF
:1011E000B093D201A093D1018091F5028130F9F042
:1011F00048F0843008F0BFC081E08093F702C0E07F
:10120000D0E03DC00E943913882309F4B4C00E9485
:101210001813882309F4AFC0809188019091890147
:101220009093D2018093D1010E94F01251C00E948C
:101230000106882309F49FC080E78093F7020E948B
:101240002106882309F497C0809188019091890133
:101250009093D2018093D1010E94940539C0C0932C
:10126000F002F093D201E093D1018091F502833036
:10127000B9F40E945E1D2196C034D105B1F0E09111
:101280008A01F0918B01A0918801B0918901AC0F86
:10129000BD1FEC0FFD1F9C9180819813E0CFEBCF19
:1012A000823049F70E94DC05E6CF1092F00280E719
:1012B0008093F70280918801909189019093D201E7
:1012C0008093D1018091F502833029F40E94481D5A
:1012D00081113DC050C0823009F04DC0EFE3FCE900
:1012E0003197F1F700C000000E94BC05882309F483
:1012F00042C08FE39CE90197F1F700C0000027C0CE
:10130000C1E001C0C2E080911104811136C08EE9B4
:1013100095E00E94331688ED94E00E943316809188
:10132000F40290E001960E941916C11103C089E9E8
:1013300095E008C0C23021F485EA95E00E9433169A
:1013400086ED95E00E9433160E94651516C0E09167
:101350008A01F0918B01A0918801B0918901CF01A0
:10136000805C9F4FC0E031912D913213C3E0E817AC
:10137000F907C9F7C8CFC3E0C6CF8C2FDF91CF9153
:1013800008952F923F92FF920F931F93CF93DF9375
:1013900000D01F92CDB7DEB71B8281E0898378949D
:1013A00015E00EE181E2F82E8B81893089F4E0911D
:1013B0008A01F0918B0181858A83CE0101961C01FF
:1013C0000E945A06E0918A01F0918B018A818187FF
:1013D0008B818F3089F4E0918A01F0918B018285B5
:1013E0008A83CE0101961C010E945A06E0918A016F
:1013F000F0918B018A8182878B81823189F4E0911F
:101400008A01F0918B0183858A83CE0101961C01AC
:101410000E945A06E0918A01F0918B018A818387AC
:101420008B81833189F4E0918A01F0918B0184856D
:101430008A83CE0101961C010E945A06E0918A011E
:10144000F0918B018A8184878B81843189F4E091CA
:101450008A01F0918B0187858A83CE0101961C0158
:101460000E945A06E0918A01F0918B018A81878758
:101470008B818630A9F480910104813089F4E09158
:101480008A01F0918B0180858A83CE0101961C012F
:101490000E945A06E0918A01F0918B018A8180872F
:1014A00080910104E0918A01F0918B01882329F059
:1014B0008230D9F582818031C0F18B8181110DC0DC
:1014C00083818A83CE0101961C010E945A06E09115
:1014D0008A01F0918B018A8183838B81813089F429
:1014E000E0918A01F0918B0184818A83CE0101967B
:1014F0001C010E945A06E0918A01F0918B018A81B9
:1015000084838B81823089F4E0918A01F0918B0190
:1015100085818A83CE0101961C010E945A06E091C2
:101520008A01F0918B018A8185838091010488234F
:1015300069F18B81853089F4E0918A01F0918B010A
:1015400087818A83CE0101961C010E945A06E09190
:101550008A01F0918B018A8187838B818831B1F474
:10156000E0918A01F0918B018281813178F081A133
:101570008A8310938C01CE0101961C010E945A06A9
:10158000E0918A01F0918B018A8181A38B81873060
:10159000D1F480910104E0918A01F0918B018823BC
:1015A00029F09281943178F4823069F486818A83BB
:1015B000CE0101961C010E945A06E0918A01F09129
:1015C0008B018A8186838091F502811142C0E0916E
:1015D0008A01F0918B0182818331D8F58B818A3029
:1015E00069F482898A83CE0101961C010E945A0601
:1015F000E0918A01F0918B018A81828B8B818B3003
:1016000089F4E0918A01F0918B0183898A83CE016C
:1016100001961C010E945A06E0918A01F0918B010B
:101620008A81838BE0918A01F0918B0182818D30D8
:1016300080F08B81883069F4808D8A83CE01019699
:101640001C010E945A06E0918A01F0918B018A8167
:10165000808FE0918A01F0918B0182818B3038F18B
:101660008B818C3069F485898A83CE0101961C01B7
:101670000E945A06E0918A01F0918B018A81858B44
:101680008B818E30A1F4E0918A01F0918B018281EF
:10169000833168F486898A83CE0101961C010E94F9
:1016A0005A06E0918A01F0918B018A81868B8B81A9
:1016B0008031A1F4E0918A01F0918B0182818E301A
:1016C00068F484898A83CE0101961C010E945A061F
:1016D000E0918A01F0918B018A81848B80910104D1
:1016E000811141C08B81853189F4E0918A01F091AB
:1016F0008B0180898A83CE0101961C010E945A06C3
:10170000E0918A01F0918B018A81808B8B818430FA
:1017100099F4E0918A01F0918B0181898A83109379
:101720008C01CE0101961C010E945A06E0918A01AB
:10173000F0918B018A81818BE0918A01F0918B017C
:1017400082818C3080F08B81833069F487898A8331
:10175000CE0101961C010E945A06E0918A01F09187
:101760008B018A81878BE0918A01F0918B018281C4
:101770008D3008F47FC08B81863179F4818D8A8326
:1017800010938C01CE0101961C010E945A06E09133
:101790008A01F0918B018A81818F8B81873199F445
:1017A000E0918A01F0918B01828D8A8310938C01E4
:1017B000CE0101961C010E945A06E0918A01F09127
:1017C0008B018A81828F8B81893199F4E0918A0122
:1017D000F0918B01838D8A8310938C01CE01019649
:1017E0001C010E945A06E0918A01F0918B018A81C6
:1017F000838F8B818A3199F4E0918A01F0918B017A
:10180000848D8A8310938C01CE0101961C010E9465
:101810005A06E0918A01F0918B018A81848F8B8135
:101820008B3189F4E0918A01F0918B01858D8A8357
:10183000CE0101961C010E945A06E0918A01F091A6
:101840008B018A81858F8B818D30A1F4E0918A0193
:10185000F0918B018281833168F4868D8A83CE0179
:1018600001961C010E945A06E0918A01F0918B01B9
:101870008A81868F8B818131A1F4E0918A01F09178
:101880008B0182818E3068F0878D8A83CE0101962C
:101890001C010E945A06E0918A01F0918B018A8115
:1018A000878F8B818C31A9F480911204882389F071
:1018B000E0918A01F0918B0180A18A83CE0101968B
:1018C0001C010E945A06E0918A01F0918B018A81E5
:1018D00080A3E0918A01F0918B018281823140F1F5
:1018E0008B818D3189F48091010481110DC082A119
:1018F0008A83CE0101961C010E945A06E0918A015A
:10190000F0918B018A8182A38B818E3189F4E091E1
:101910008A01F0918B0183A18A83CE0101961C017B
:101920000E945A06E0918A01F0918B018A8183A37B
:10193000E0918A01F0918B0182818431E0F18B8109
:101940008F3169F484A18A83CE0101961C010E9423
:101950005A06E0918A01F0918B018A8184A38B81E0
:10196000803289F4E0918A01F0918B0185A18A830C
:10197000CE0101961C010E945A06E0918A01F09165
:101980008B018A8185A38B818132A9F48091010426
:10199000882389F0E0918A01F0918B0186A18A83E6
:1019A000CE0101961C010E945A06E0918A01F09135
:1019B0008B018A8186A300938C019B81943611F060
:1019C000983C19F50E94F6158B81843639F48EE91E
:1019D00095E00E94331680E995E002C08EEA94E01B
:1019E0000E94331661E080E00E94EF158FE795E0DA
:1019F0000E9433160E946515823081F4F89481E0CC
:101A00009B81943679F080E00DC08981890F8F3FEA
:101A100039F08B838B81823208F4C6CC1B82C4CC14
:101A2000FB82F8CF0F900F900F90DF91CF911F9115
:101A30000F91FF903F902F9008958EED95E00E94BA
:101A40003316E0918A01F0918B01808190E00E9431
:101A5000191680ED90E00E943316E0918A01F09112
:101A60008B01818190E00E9419168CEC90E00E941D
:101A7000331680910104813039F018F0823039F04A
:101A8000089589EA94E005C084EA94E002C08EE9F2
:101A900094E00C943316CF93DF930E94F61560E028
:101AA00080E00E94EF1580911104813019F487EED7
:101AB00094E002C08BED94E00E94331661E080E078
:101AC0000E94EF1581ED94E00E9433168091F4029C
:101AD00090E001960E9419160E9465150E94F61565
:101AE000C0E0D0E0E0918A01F0918B01EC0FFD1F86
:101AF000E05AFF4F80810E94F9152196C031D1052F
:101B000089F761E080E00E94EF1582E094E00E9496
:101B10000D160E9465150E94F6150E941D0D61E0CC
:101B200080E00E94EF158CEA95E00E9433168EED5E
:101B300095E00E943316E0918A01F0918B01828139
:101B400090E00E941916DF91CF910C946515FF92D9
:101B50000F931F93CF93DF931092C8010E94F61545
:101B600080918A0190918B010E948208882309F458
:101B7000B7C0A0918A01B0918B01AF5BBF4FE2E08B
:101B8000F4E08E2F2EE02E0F11929D91933219F0DA
:101B9000EF01219798832E13F7CF10921004109223
:101BA0003404109212049091F5022EEF290F223086
:101BB00080F507ED13E0CFE0C80FD1E0F8016591A3
:101BC000749183E194E00E94A71DA3E1B4E0E2E0F8
:101BD000F4E081919D91891719F0992319F007C0BC
:101BE000811103C0D093340402C0CE13F2CF0E5F34
:101BF0001F4F83E00B3F180709F791E09093C8014E
:101C0000E0918A01F0918B018585853A09F045C004
:101C10003EC0923090F7C0E0DFE0D80FFF24F3948D
:101C20000C2F10E0F801EE0FFF1FE05CFC4F6591F8
:101C3000749183E194E00E94A71DA3E1B4E0E2E087
:101C4000F4E081919D91891719F0992319F01BC037
:101C5000811115C0E0918A01F0918B018281803160
:101C600028F4C43078F4F09234040CC0F0923404B8
:101C7000F801ED54FE4F80818093120403C0DE13FF
:101C8000E0CF01C0C5E1CF5FC53150F2B6CF868548
:101C90008A35A1F41092010413C08A3531F4868587
:101CA000853A61F4909301040BC0853539F486853B
:101CB0008A3A21F482E08093010402C01092C801A4
:101CC0008091C801811103C082ED95E00BC0808135
:101CD00084508B3048F01092C8018EED95E002C020
:101CE0008AEC95E00E9433168091C801882319F090
:101CF0000E944B0D06C086ED95E00E9433160E94AF
:101D000065158091C801DF91CF911F910F91FF90D0
:101D100008950F931F93CF93DF93D82F13E002E022
:101D20008091F502843058F50E942017DD23A1F040
:101D30000E94E4148AEF9091C10094FF04C0909136
:101D4000C00097FD4BC0EFE7FEE33197F1F700C00D
:101D50000000815081F742C086EF94E00E94331664
:101D60000E946515C82F0E94F615C33041F0C4309B
:101D7000D9F6DF91CF911F910F910C94E4140E943A
:101D8000F61587E195E00E94331661E080E00E943D
:101D9000EF1587E095E00E9433160E946515C82F65
:101DA0000E94F615C33089F030F4C23041F781E06B
:101DB0008093F5020CC0C43029F0C53001F71093B0
:101DC000F50205C01092F50202C00093F502609181
:101DD000F50280E090E00E94E01DA2CFDF91CF915C
:101DE0001F910F9108958091C80181110E944B0DA0
:101DF0000E94F6158FE791E00E94450683E194E08A
:101E00000E940D160E9465150E94F6158EE991E05C
:101E10000E940D1661E080E00E94EF158EED95E0C6
:101E20000E94331688E797E30E9419160E946515F1
:101E30000E94F61560E083E00E94EF158091110486
:101E4000813019F485EC94E002C08DEB94E00E949F
:101E500033168CEC94E00E94331661E080E00E941F
:101E6000EF1581ED94E00E9433168091F40290E02A
:101E700001960E9419160E94651580E00C94890E47
:101E8000CF92DF92EF92FF920F931F93CF93DF9346
:101E90001F92CDB7DEB70E94F6158AE395E00E9447
:101EA00033160E94651589830E94F6158981823058
:101EB00009F452C0853079F71092110481ED94E055
:101EC0000E94331661E080E00E94EF1588E295E001
:101ED0000E94331660E08FE00E94EF158091F402BB
:101EE00090E001960E9419160E946515833091F0CA
:101EF00018F48230C9F0EECF843021F0853009F437
:101F000060C0E8CF8091F402853020F78091F40220
:101F10008F5F07C08091F4028823E1F28091F40280
:101F200081508093F402D6CF8091F50281111CC1BB
:101F30000E940B110E94F61588E894E00E94331667
:101F40000E94DD140E94CF142FEF49E658E1215082
:101F500040405040E1F706C181E08093110481EDDB
:101F600094E00E94331600E01FEF802F0E941F14A0
:101F70008091F40261E0880F0E94EF158091880142
:101F8000909189010E948208882359F08091F4027F
:101F900090E001960E9419161F3F39F41091F40247
:101FA00004C08DEA91E00E940D160F5F0630E9F63D
:101FB0001F3F19F01093F40202C01092F4020E9425
:101FC00065158091F4020E941F1401E010E00E9448
:101FD000F6158091C801882319F08DE595E002C0BF
:101FE0008CE495E00E94331661E080E00E94EF15DA
:101FF0008EE695E00E9433160E946515833009F441
:1020000097C020F4823009F496C0E1CF843009F4FF
:102010008CC08530E1F68091C801882329F00E94A8
:10202000C1098823A1F205C00E94A70D8111F7CF35
:10203000CECF0E94F6158091C801882341F280918D
:102040001104813009F06CC089E995E00E943316D3
:1020500081ED94E00E943316E090F402CC24C39406
:10206000D12CFC2C8FEF8C0D9091F502911112C0A8
:102070002091CE01E091FA02F091FB029081A8013B
:1020800002C0440F551F2A95E2F79A01209530951A
:10209000292320830E941F140E94AC08982F8FE7E9
:1020A0008F0D61E0880F99830E94EF15998191113E
:1020B00004C0C6010E94191610C0913019F48DEAAF
:1020C00091E009C0923019F48FEA91E004C0933096
:1020D00021F481EB91E00E940D165FEFC51AD50A3D
:1020E00087E0C816D10409F0BCCF0E946515809125
:1020F000F502811111C09091CE01E091FA02F091A8
:10210000FB028081980102C0220F331F9A95E2F7EB
:1021100020953095282320838E2D0E941F1402C005
:102120000E94AC080E94691D52CF0E94F30E4FCF4F
:102130000E94A70D4CCF8091F502811115C00E941D
:102140000B110E94F61588E894E00E9433160E9455
:10215000DD140E94CF149FEF29E648E19150204002
:102160004040E1F700C000000F90DF91CF911F9138
:102170000F91FF90EF90DF90CF9008951F93CF9332
:10218000DF930E94F3140E94691D8CE00E944216A6
:1021900080E50E94DD15C3EED5E01C2F105EFE0128
:1021A00084910E94E61521961C13F9CF80E090E0FF
:1021B0000E94D81D843018F48093F50202C010925A
:1021C000F50281E00E94890EDF91CF911F910C945E
:1021D000400F2091CE01E091FA02F091FB02408184
:1021E00081E090E0BC0102C0660F771F2A95E2F7FC
:1021F0009B0120953095242320833091CE01E091DE
:10220000FA02F091FB02208101C0880F3A95EAF7AB
:10221000822B808308951092D7011092D8011092DA
:10222000D9011092DA010E94D6140E94CF14209195
:10223000CE01E091D501F091D601408181E090E09E
:10224000BC0102C0660F771F2A95E2F79B0120951B
:10225000309524232083AFE8B1E01197F1F700C057
:102260000000E091D301F091D40120814091CE0192
:1022700030E002C0359527954A95E2F72170332763
:10228000422F6091CE01E091D501F091D6015081AD
:10229000DC0102C0AA0FBB1F6A95E2F7BD01652BE6
:1022A00060836091CE01E091FA02F091FB025081CF
:1022B00002C0880F991F6A95E2F780959095852353
:1022C0008083B0E7BA95F1F71D9942602D98259863
:1022D0002091CE01E091FA02F091FB02508181E061
:1022E00090E0BC0102C0660F771F2A95E2F79B01C0
:1022F000252B208375E07A95F1F700003091CE010F
:10230000E091D501F091D601208102C0880F991F7C
:102310003A95E2F780959095822380834093D90186
:1023200081E0411101C080E008953091CE01E0913B
:10233000D501F091D601208181E090E001C0880FA5
:102340003A95EAF7822B80830E94E910259A089536
:102350002D9825980E94E9103091CE01E091D50189
:10236000F091D601208181E090E002C0880F991F92
:102370003A95E2F780959095822380830895CF93D4
:10238000DF930E9495112D980E94E9102D9A0E94CA
:10239000E9102D982598D8E0C0E0C6950E94E91074
:1023A0001D99C068D150C9F70E94A8118C2FDF91E8
:1023B000CF910895CF93DF93CFEFDFEF0E94BF114E
:1023C00080FD04C0209711F02197F8CF81E0CD2B3C
:1023D00009F480E0DF91CF910895CF93DF93D82F58
:1023E0000E9495112D9A0E94E9100E94E910C8E000
:1023F000D0FF02C02D9A01C02D980E94E910D695F9
:10240000C150B1F7DF91CF910C94A811CF93DF9316
:102410002D982598CFEFDFEF0E94E910219711F05A
:102420001D9BFACF81E0CD2B09F480E0DF91CF91A5
:102430000895CF93109235040E9495112D980E9413
:10244000E9100E94E9100E94E9100E94E9100E9420
:1024500006128823A1F0C8E0809135048695809308
:1024600035040E94E9101D9B05C0809135048068E9
:1024700080933504C15081F70E94A81181E0CF916B
:1024800008950E94DA11882349F00E9419128823C6
:1024900029F081E0909135049D3009F080E00895A5
:1024A00080E00E94ED110E94191280913504982F4E
:1024B0009D7F983031F08B3221F0803311F01092F3
:1024C0003504809135048093D7010895CF93DF932D
:1024D000D82F0E9495112D9A0E94E9102D980E94E4
:1024E000E9100E94E9100E94E910C8E0D0FF02C084
:1024F0002D9A01C02D980E94E910D695C150B1F7D0
:102500000E940612882361F00E94A811CFEFDFEF2E
:102510000E94BF1181FF04C0209711F02197F8CFCE
:10252000DF91CF9108958091F6020E94661280910A
:10253000F0020E9466128091F7020E9466120C94CB
:102540004112CF93C82F84EB0E94ED118C2F0E9473
:102550006612CF910C9441120E940B11811102C09E
:1025600080E008950E9450128823D1F382E00E94F7
:10257000ED1182E00E94661284E00E94661287EBF1
:1025800091E00197F1F700C0000081E00E9466121F
:102590009FE725EB81E0915020408040E1F700C0AB
:1025A000000082E00E94A1128823D1F20E94191239
:1025B000809135048093D8018FEF0E94ED1180E85F
:1025C0000E9466128FE99FE00197F1F700C00000BA
:1025D0008FEE0E94ED1182E00E94661281E0089564
:1025E000CF9386E00E94A112811102C080E01EC03C
:1025F0000E9493128823D1F3C091F7020E94DA114E
:102600008823A1F30E941912882381F3E091D1015C
:10261000F091D201CF0101969093D2018093D10124
:10262000809135048083C15049F781E0CF910895AE
:10263000CF9387E00E94A1128823C1F00E949312D9
:102640008823A1F0C091F702E091D101F091D2016D
:10265000CF0101969093D2018093D10180810E9495
:102660006612C15089F7CF910C94DA1180E0CF91B6
:102670000895CF93C091F602C695CF3090F488E0CC
:102680000E94A112882369F08C2F0E9466120E947A
:102690004112882331F080E00E946612CF910C94A1
:1026A000DA1180E0CF91089583E00E94A11288237F
:1026B00059F08EED0E9466128DEA0E94661285EA3C
:1026C0000E9466120C94DA1180E008951092D801ED
:1026D0001092D7010895FF920F931F93CF93DF932A
:1026E0001092D8011092D7018091F502882351F001
:1026F000843008F099C0C3E0D0E003E012E0FF248A
:10270000F3946DC00E94AC128DC08091C00087FD13
:1027100082C00E94421C811168C00E94AD048111D8
:102720001093F5028091D7019091D8018730934999
:1027300009F45EC08091D7019091D8018A30934905
:1027400009F456C08091D7019091D8018F309349F8
:1027500009F44EC02091D7013091D80191E080E07A
:102760002B30344909F090E0292F382F8091D70180
:102770009091D8018031934F09F43DC08091D701E9
:102780009091D8018033934FB1F18091D70190910E
:10279000D8018039934F79F14091D7015091D801F8
:1027A00091E080E04035584F09F090E0492F582FD4
:1027B0002115310519F5CA016091F502613031F139
:1027C0006230F9F0219751F1892B39F58FEF99EFAC
:1027D00020E0815090402040E1F700C00000A89523
:1027E0008091C10084FD91CF94CF0093F5029ACFE0
:1027F00021E030E0BBCF41E050E0DACF81E090E073
:10280000DBCF452BF9F2F092F502DCCF232BD1F28E
:102810001093F502D7CF80E001C081E09091F502DE
:102820009093DA01811105C01092D8011092D7015E
:1028300080E0DF91CF911F910F91FF9008959091CB
:10284000F4029817B1F09091F502911112C04091E5
:10285000CE01E091FA02F091FB02908121E030E09C
:1028600002C0220F331F4A95E2F7209530952923A5
:102870002083823009F44BC0C8F48823A1F1813051
:1028800009F083C02AE230E03093D6012093D501CD
:102890002BE230E03093FB022093FA0229E230E091
:1028A0003093D4012093D30196E044C0843009F4DE
:1028B00058C008F442C0853009F067C027E230E014
:1028C0003093D6012093D50128E230E03093FB020B
:1028D0002093FA0226E230E03093D4012093D30112
:1028E0001092CE0152C024E230E03093D601209302
:1028F000D50125E230E03093FB022093FA0223E277
:1029000030E03093D4012093D30194E013C02AE245
:1029100030E03093D6012093D5012BE230E03093A4
:10292000FB022093FA0229E230E03093D401209395
:10293000D30197E09093CE0128C027E230E0309396
:10294000D6012093D50128E230E03093FB0220939A
:10295000FA0226E230E03093D4012093D30195E0CF
:10296000E9CF27E230E03093D6012093D50128E269
:1029700030E03093FB022093FA0226E230E03093FD
:10298000D4012093D30191E0D5CF8093F402089530
:102990002C9A5E9A5F9A459A419A409A08952C988B
:1029A0005E985F984598419840980895249A569A61
:1029B000579A3D9A399A389A089524985698579874
:1029C0003D983998389808958091F502882351F000
:1029D00084E08093B1000E94DD140E94C81480E05E
:1029E0000C941F1408958AB1837C8AB98BB18C63CF
:1029F0008BB985E085BD84E686BDEEE6F0E080819A
:102A00008160808308951F920F920FB60F92112458
:102A10002F938F939F9384E686BD9091380429B1BC
:102A2000209529278091CB01822380958093CB012B
:102A30009091CA01922398279093CA0182238923F7
:102A400090913804982790933804209138049091FD
:102A500037048223892B80933704809138048C7348
:102A600019F486E48093C9018091C9018150809353
:102A7000C90181110CC080918C018093C9018091A2
:102A80003804909136048C73892B809336049F917F
:102A90008F912F910F900FBE0F901F901895F89463
:102AA00090913704892390913704982790933704A5
:102AB00078940895F894909136048923909136047F
:102AC00098279093360478940895CF93CFB778944D
:102AD0008091C10084FF0AC08091C00087FF06C0BA
:102AE0000E9446171092FC0280E015C080E20E940E
:102AF0004F15811113C080E10E944F15811110C044
:102B000088E00E944F1581110DC084E00E944F158E
:102B10008823F1F282E0CFBFCF91089585E0FBCF0B
:102B200084E0F9CF83E0F7CF449A00C04498089539
:102B30001F93CF93DF931F92CDB7DEB7662311F0BB
:102B4000429A01C04298439894B19F6094B995B15C
:102B5000192F107F982F92959F70912B95B989838B
:102B60000E94941589818F70812B85B90E949415DC
:102B70001F6015B90F90DF91CF911F910895429872
:102B8000439A84B1807F84B9449A00C093B1449839
:102B900000C0449A00C023B12F70892F8295807F96
:102BA0004498822B08950E94BF1587FDFCCF88E0D2
:102BB00090E00197F1F70C94BF15CF93C82F0E94B6
:102BC000D31560E08C2FCF910C949815CF93C82F1C
:102BD0000E94D31561E08C2FCF910C949815611150
:102BE00002C0805801C080540C94DD1581E00C9423
:102BF000DD15CF93C82F0E94D315CA3049F4803415
:102C000010F080E001C080E48058CF910C94DD1575
:102C100061E08C2FCF910C949815CF93DF93EC014A
:102C20008991882319F00E94F915FACFDF91CF918D
:102C30000895CF93DF9300D000D000D0CDB7DEB79A
:102C40004AE0BE016F5F7F4F0E94AE1DCE0101962C
:102C50000E940D1626960FB6F894DEBF0FBECDBFAC
:102C6000DF91CF910895CF93DF93FC018491EF0121
:102C70002196882321F00E94F915FE01F7CFDF91FC
:102C8000CF9108951F93CF93DF93182F94B19F6036
:102C900094B93A9A3B9A3C9AE0E0FAEF3197F1F70F
:102CA000299A289A0E949415E0E0FEE43197F1F702
:102CB0000E949415C0E0D1E0FE013197F1F70E9427
:102CC0009415FE013197F1F728980E9494152197E9
:102CD000F1F788E20E94DD1588E00E94DD150E9470
:102CE000F61586E00E94DD15812FDF91CF911F91AF
:102CF0000C94DD150FB6F894A8958091600088615A
:102D000080936000109260000FBE0E94BE109BE096
:102D100088E10FB6F894A895809360000FBE909359
:102D20006000FFCF9627092E0294202D2F702927AF
:102D3000692F6025660F607E2627602D6927607FDA
:102D40006695092E000C661F9695969596959F712F
:102D500096279827822F08952F923F92FF920F93E4
:102D60001F93CF93DF93E1016EE280E090E00E9439
:102D7000921668850E9492166091F6020E94921641
:102D80006091F0020E9492166F810E949216482F65
:102D9000392F2D81FF80022F1E81F20EF8016191E3
:102DA0008F01842F932F0E949216482F392FF012F3
:102DB000F5CF6C810E949216082FF92E88E080933F
:102DC000C1008EE20E947B1D88850E947B1D809140
:102DD000F6020E947B1D8091F0020E947B1D8F8174
:102DE0000E947B1D1F81ED81FE8180810E947B1DE1
:102DF0002D813E812F5F3F4F3E832D83115099F7E8
:102E00008C810E947B1D8F2D0E947B1D802F0E9434
:102E10007B1D80E18093C1008FE39FE10197F1F773
:102E200000C000008091C6008B838091C600888717
:102E3000DF91CF911F910F91FF903F902F900895B8
:102E40000E94F61561E082E00E94EF158091F50284
:102E5000813059F038F0823059F0833069F483E0E2
:102E600096E008C089E296E005C08FE096E002C0D7
:102E70008CE196E00E94331660E080E00C94EF1540
:102E80000E94201785E396E00C943316CF93DF93CE
:102E9000CDB7DEB72C970FB6F894DEBF0FBECDBF0F
:102EA00081E08093FC020E944017F8943E014AE0C2
:102EB000640E711C0DEF12E09BEDE92E91E0F92EEE
:102EC000CC24C394D12C37EDA32E31E0B32E4EE9A0
:102ED000842E41E0942E0FB6F894A895809160005E
:102EE000886180936000109260000FBE312C0E94B8
:102EF000861D8C83811115C0339453E03512F7CFB2
:102F00000E94F61584E496E00E9433169BE088E167
:102F10000FB6F894A895809360000FBE9093600060
:102F2000FFCF8F3219F71B861A867F826E8281E06F
:102F300088870E94861D89878F3219F40E94861D1A
:102F400089878FE098E10FB6F894A8959093600078
:102F50000FBE809360006FE280E090E00E949216C6
:102F600069850E9492161C010E94861D8093F602BC
:102F7000682FC1010E9492161C010E94861D809339
:102F8000F002682FC1010E9492161C010E94861D4A
:102F90008B83682FC1010E9492162C014B818DEF0B
:102FA000282E82E0382E420D4C870E94861DF101AA
:102FB00081931F01682FC2010E9492162C014C853B
:102FC0004211F2CF0E94861D8A830E94861D89834A
:102FD00089819A818415950511F083E001C080E014
:102FE0008D83811165C11093D2010093D101E985D0
:102FF0008E2F90E0FC01F097E031F10508F056C10A
:10300000EA5AFF4F0C94A11D8091D701882309F43F
:103010004FC18091F502833028F4813060F40E9422
:10302000501205C0833009F043C10E94C31B8111B7
:103030003FC18FE03CC10E940705F9CF8AE68A872D
:1030400037C18EE088879F828E8232C182E0888776
:103050008EE88A871B862CC1AE014F5F5F4F1A0135
:103060000E94AC168091F502811106C00E940B11DE
:103070000E94DD140E94CF1480E00E941F140E9461
:10308000661398E088E10FB6F894A89580936000E5
:103090000FBE90936000FFCF8091FD02843010F04E
:1030A00089E005C18093F5020E94E4140E94401754
:1030B000FFC08091FD02863088F40E941F14809129
:1030C000F502882369F0833008F0F2C080E00E94A6
:1030D0002305EEC08091FD02863090F088E0E7C0C5
:1030E0000E940B11E5C08091FD028630B8F70E9466
:1030F0001F1454E05887BF82AE820E946B1397CF93
:103100000E941F148091F5028111D2C08091CE01DE
:10311000E091FA02F091FB022081A60102C0440F67
:10312000551F8A95E2F7CA01809590958223808386
:10313000BFC08091F502833030F4813008F0B6C012
:103140000E94541374CF833009F0B2C00E94141D42
:103150006ECF9091F502923020F0943008F0A8C024
:10316000A5C08091FD028A87880F8093F602109295
:10317000F002911103C00E94391359CF0E94010639
:1031800056CF8091FD028093F7028091F502833043
:1031900028F4813040F40E94F0121AC08330E1F428
:1031A0000E943D1D15C00E94940512C08091FD0231
:1031B0008093F7028091F502823041F028F083304D
:1031C00059F40E94481D04C082E005C00E94BC055D
:1031D000811102C08FE08D838D81811169C0809142
:1031E000F70288871F830E8363C08B818093F70269
:1031F0008FE08D838091F502833018F4813038F0B0
:103200003AC0833009F054C00E94531D4CC00E9444
:103210001813882309F44CC0F092D201E092D10136
:103220000E94F012882309F443C01D821093D2013A
:103230000093D101F092F302E092F2028091F70242
:10324000A091D101B091D201E091F202F091F3028C
:103250002C919081291711F054E05D831196B09361
:10326000D201A093D1013196F093F302E093F202E0
:10327000815031F71DC00E942106882309F4D9CE60
:103280001D8216C08B818093F7028FE08D83809121
:10329000F502823031F050F0833051F40E945E1D0F
:1032A00002C00E94DC058111EBCF02C082E08D8359
:1032B000CE0101961C010E94AC160DCE90913D04EA
:1032C000982790933D0498E021E030E0E091FA02E5
:1032D000F091FB024091CE016081D90102C0AA0F9A
:1032E000BB1F4A95E2F7AD01462B40831092B20016
:1032F00080FF20C04091B2004031E0F34091CE0108
:10330000E091FA02F091FB026081D90102C0AA0F9C
:10331000BB1F4A95E2F7AD01409550954623408387
:103320001092B2004091B2004031E0F38695915086
:1033300069F608954091B2004830E0F34091CE0123
:10334000E091FA02F091FB026081D90102C0AA0F5C
:10335000BB1F4A95E2F7AD01409550954623408347
:103360001092B2004091B2004830E0F34091CE019B
:10337000E091FA02F091FB026081D90102C0AA0F2C
:10338000BB1F4A95E2F7AD01462B40831092B20075
:103390004091B2004830E0F34091CE01E091FA0252
:1033A000F091FB026081D90102C0AA0FBB1F4A95B0
:1033B000E2F7AD0140955095462340831092B2004C
:1033C0004091B2004830E0F3B1CF3091CE01E091AE
:1033D000D501F091D601208181E090E001C0880FF5
:1033E0003A95EAF7822B80838FEF0E945E198FEF68
:1033F0000E945E198FE70E945E1910923D048BE1D6
:103400000E945E1980913A048F5F80933A040C9475
:103410005E1980913D040E945E193091CE01E091C9
:10342000FA02F091FB02208181E090E001C0880F58
:103430003A95EAF7822B80831092B2008091B20015
:103440008830E0F33091CE01E091D501F091D601C2
:10345000208181E090E002C0880F991F3A95E2F741
:10346000809590958223808308951092B200E09118
:10347000D301F091D40180812091CE0190E002C06F
:10348000959587952A95E2F780FF0AC08091B20052
:103490008E3788F38FEF08958091B2008E37D0F782
:1034A00080812091CE0190E002C0959587952A9564
:1034B000E2F780FFF1CF8091B20080933C049091BD
:1034C0003E04981738F11092B200E091D301F091C8
:1034D000D40180812091CE0190E002C0959587951E
:1034E0002A95E2F780FF09C08091B2008E3788F3F9
:1034F000D1CF8091B2008E3768F680812091CE01C5
:1035000090E002C0959587952A95E2F780FFF1CF6C
:1035100080E0089581E00895FC01108280E090E051
:1035200041E050E01092B200A091D301B091D401DB
:103530002C916091CE0130E002C0359527956A95B7
:10354000E2F720FF0AC02091B2002E3788F380E016
:1035500008952091B2002E37D0F72C916091CE01C2
:1035600030E002C0359527956A95E2F720FFF1CF4C
:103570003091B20020913E04231730F11092B20036
:10358000A091D301B091D4012C916091CE0130E093
:1035900002C0359527956A95E2F720FF09C0209172
:1035A000B2002E3788F3D3CF2091B2002E3778F6B1
:1035B0002C916091CE0130E002C0359527956A9537
:1035C000E2F720FFF1CF09C060819A01082E01C007
:1035D000220F0A94EAF7262B208301968830910562
:1035E00009F0A0CF90913904808189278093390414
:1035F00081E00895CF93DF9388E180933E0480912A
:103600003B04853139F0823129F0813031F0C6E454
:10361000D0E005C0C0E6DAEE02C0C1E0D0E00E9412
:10362000351A87FF04C02197D1F780E017C0CAE0A0
:103630000E94351A8F3FC9F3C150D1F780913C04E5
:10364000982F969596958695890F80933E040E94B3
:10365000351A8F3F51F31816D4F381E0DF91CF91E3
:103660000895EF92FF920F931F93CF93DF9300D0B3
:103670001F92CDB7DEB77C011B820E94FA1A81111E
:1036800002C080E076C010923904CE0103960E94F9
:103690008C1A8823B1F38B818B3199F7CE01039675
:1036A0000E948C1A882369F39B8180913A049813B5
:1036B000E8CFCE0102960E948C1A882311F38A81EA
:1036C0008230F8F6CE0101960E948C1A8823C9F246
:1036D00089819A81892BA9F2CE0103960E948C1AC6
:1036E000882379F28B818E3061F6CE0103960E9499
:1036F0008C1A882331F29B8180913B049813C1CFAF
:10370000CE0103960E948C1A882309F4BACF8B81CC
:103710008111B7CF00E010E0C701800F911F298110
:103720003A81225031090217130740F40E948C1A83
:10373000882309F4A6CF0F5F1F4FEECFCE0103966B
:103740000E948C1A882309F49CCF8091390481113E
:1037500098CF3091CE01E091FA02F091FB022081E6
:1037600081E090E001C0880F3A95EAF7822B8083D0
:1037700081E00F900F900F90DF91CF911F910F91EB
:10378000FF90EF900895CF93DF931F92CDB7DEB7F0
:1037900081E080933B040E94E51980E00E945E195D
:1037A00081E00E945E198EE00E945E1981E00E9415
:1037B0005E190E94091A8FED92E00E94311B81115F
:1037C00005C089830E946613898101C081E00F9042
:1037D000DF91CF910895FF920F931F93CF93DF93C3
:1037E00000D0CDB7DEB78C01F62E8DE180933B047F
:1037F0002A8349830E94E51980E00E945E1988E0CF
:103800000E945E198EE00E945E198DE10E945E1991
:1038100084E00E945E1984E00E945E1980E00E94AC
:103820005E198F2D0E945E194981842F0E945E19B6
:103830002A81822F0E945E1980E00E945E190E94F8
:10384000091A8FED92E00E94311B882399F0809134
:10385000DF0281110EC09091E0029F1511F09111CD
:1038600008C08091E102811104C08091E202F80158
:10387000808381E00F900F90DF91CF911F910F9186
:10388000FF9008950E94C31B882399F021E040E037
:1038900060E388ED91E00E94EB1B882351F022E069
:1038A00040E060E387ED91E00E94EB1B91E0811125
:1038B00001C090E0892F08958091F6028F3F21F496
:1038C0008091F0028F3F29F186E080933B040E94B3
:1038D000E51980E00E945E1985E00E945E198EE085
:1038E0000E945E1986E00E945E1980E00E945E19C7
:1038F00080E00E945E198091F6020E945E1980911C
:10390000F0020E945E190E94091A8FED92E00C9459
:10391000311B81E00895CF93C1E08091F7028111BE
:10392000C0E00E94E51980E00E945E1984E00E94D8
:103930005E198EE00E945E1980913B040E945E1920
:103940008C2F0E945E198091F7020E945E1980EA16
:103950000E945E190E94091A8091D1019091D201B2
:10396000CF910C94311BFF920F931F93CF93DF9352
:103970001F92CDB7DEB70091F702002341F0202F50
:1039800030E0265F3F4F122F832FF12C04C01AE046
:1039900081E0FF24F39489830E94E51989810E94C4
:1039A0005E19812F0E945E198EE00E945E1980913F
:1039B0003B040E945E198F2D0E945E19802F0E9489
:1039C0005E1980E00E945E1980E00E945E1980E02E
:1039D0000E945E1980E00E945E1980E00E945E19DC
:1039E00080E00E945E1980E00E945E19E091D101A2
:1039F000F091D20180810E945E198091D101909155
:103A0000D20101969093D2018093D101015071F7B8
:103A10000E94091A8FED92E00F90DF91CF911F91D4
:103A20000F91FF900C94311B82E180933B040E9424
:103A3000E51980E00E945E1987E00E945E198EE021
:103A40000E945E1982E10E945E1984E10E945E1963
:103A500080E00E945E198CEA0E945E1988E80E944C
:103A60005E1983E10E945E1986E70E945E190E943A
:103A7000091A8FED92E00C94311B0E945C1C882384
:103A800029F084E180933B040C948B1C80E0089522
:103A90000E945C1C882329F086E180933B040C94EF
:103AA0008B1C80E008950E945C1C882329F083E130
:103AB00080933B040C94B31C80E008950E945C1C2E
:103AC000882329F085E180933B040C94B31C80E0AB
:103AD0000895E0ECF0E080818D7F808389E190E0C3
:103AE0009093C5008093C40086E08093C20080E17B
:103AF0008093C10008959091C00095FFFCCF809302
:103B0000C6008091C00086FFFCCF08958091C00060
:103B100087FFFCCF8091C6000895AA1BBB1B51E113
:103B200007C0AA1FBB1FA617B70710F0A61BB70B2D
:103B3000881F991F5A95A9F780959095BC01CD01D2
:103B40000895EE0FFF1F0590F491E02D0994FB01FD
:103B5000DC0105900D920020E1F70895BB27FB01E1
:103B60005527AA27880F991FAA1FA41710F0A41B76
:103B700083955051B9F7A05DAA3308F0A95DA193D0
:103B8000009779F7B111B1931192CB010C94C81D34
:103B9000DC01FC01672F71917723E1F7329704C0B4
:103BA0007C916D9370836291AE17BF07C8F308953F
:103BB000F999FECF92BD81BDF89A992780B50895F5
:103BC000262FF999FECF92BD81BDF89A019700B4D6
:103BD000021639F01FBA20BD0FB6F894FA9AF99A76
:083BE0000FBE0895F894FFCF19
:103BE800010D7301010D670101045D010102B600B9
:103BF80000FFC000010552010105470101053B0115
:103C08000102A90001052F0101052501010519017E
:103C180001050C01010D6000010501010104F80016
:103C28000102EE00010555000102E4000102DA007C
:103C38000001D2000001CB00007D9C0082FF8F00B4
:103C480001FE3C0001FF840001FF770001056A00C6
:103C58000001490001112F00000122000001160097
:103C680000010C0001050100DB01FD021400000049
:103C780000000000000D424C48656C69F47D6D340D
:103C880077544151586D313638503136002D005433
:103C980000450000000000000000000000000002D5
:083CA800000000010100000012
:00000001FF
