:100000002AC044C043C042C041C040C03FC03EC0FF
:100010003DC03CC03BC03AC039C038C037C036C014
:1000200035C034C033C005C613C621C634C647C662
:100030005BC66EC681C6D7C7EAC7ECC7F0C7F5C7AF
:1000400017C802C92CC84EC85BC873C8A1C81FC84E
:1000500082C8E7C803C811241FBECFE5D4E0DEBFC5
:10006000CDBF10E0A0E6B0E0E2E8F9E102C0059003
:100070000D92A238B107D9F722E0A2E8B0E001C0A2
:100080001D92AD3BB207E1F79ED679CCB9CF81E0A6
:100090008093A501E0918900F0918A0080EC92E1C3
:1000A00020814091840030E002C0359527954A9523
:1000B000E2F720FD02C014BC04C00197009781F74D
:1000C00043C084B58730E8F3E0918900F0918A005D
:1000D00080812091840090E002C0959587952A95B3
:1000E000E2F780FD31C020E030E080E097E061E0A1
:1000F00070E0935F44B54917E8F34081A091840014
:1001000050E002C055954795AA95E2F740FF07C019
:10011000AB01022E01C0440F0A94EAF7842B2F5F33
:100120003F4F9F3631F794B59B37E8F3208190918C
:10013000840030E002C0359527959A95E2F720FFBC
:1001400003C01092A501089580E00895E091B001E8
:10015000F091B10190814091840021E030E0042EC3
:1001600001C0220F0A94EAF720952923208314BCAA
:1001700094B59D30E8F39DE021E030E0E091B001DE
:10018000F091B101608140918400D90102C0AA0FB1
:10019000BB1F4A95E2F7AD0180FF03C06A2B608365
:1001A00003C0409546234083935F869544B5491725
:1001B000E8F3953719F7E091B001F091B101208192
:1001C0003091840081E090E0032E01C0880F0A94F2
:1001D000EAF7282B208384B58238E8F3089540910C
:1001E00083008091AE019091AF0158E09C012427DB
:1001F0009695879520FF04C021E0822720EA922768
:100200004695515099F7409383009093AF018093A6
:10021000AE0108951F93CF93DF93162F1092AF0175
:100220001092AE0110928600109285002FEF20935D
:100230008200C82FD92F180F2ADF80938300909156
:10024000A501911127C08993CADF1C13F5CF8091B6
:100250008D008823E1F01BDF809385008091A5014C
:10026000811118C014DF809386008091A50181114F
:1002700011C02091AE013091AF0180918500909125
:1002800086002817390719F082EC80938200FFDE80
:100290008093820081E090918200903309F080E0A9
:1002A000DF91CF911F9108950F931F93CF93DF9309
:1002B0001F92CDB7DEB7E0918B00F0918C004081AA
:1002C0005091840021E030E001C0220F5A95EAF7F6
:1002D000422B4083E7ECF0E03197F1F700C00000DB
:1002E0001092AF011092AE018C01680FF80181915C
:1002F0008F0180938300698329DF71DF6981601337
:10030000F5CF80918D00882331F08091AE011EDF02
:100310008091AF011BDFE0918B00F0918C00208178
:100320003091840081E090E0032E01C0880F0A9490
:10033000EAF78095822380830F90DF91CF911F9100
:100340000F910895CF93DF93CDB7DEB76D970FB6BA
:10035000F894DEBF0FBECDBF84E397E3A1E38B8F9C
:100360009C8FAD8F81E1E0E6F0E0DE011196019017
:100370000D928A95E1F761E1CE01019695DF68E083
:10038000CE01429647DF8823C1F0FE017296DE015E
:100390005B96CE01459631912D9132130EC0E81730
:1003A000F907C9F78D8980938F008E8980938E001D
:1003B0008F8980938D0081E001C080E06D960FB63B
:1003C000F894DEBF0FBECDBFDF91CF910895CF93DC
:1003D000C82F5DDE80938200C1508091A5018823E3
:1003E00029F0C111F6CF8FEF8093820080918200B7
:1003F000CF910895CF93DF9300D0CDB7DEB78DEFC7
:1004000089831A8262E0CE0101964EDF81E0DFDF50
:10041000813C19F041D380E001C081E00F900F9042
:10042000DF91CF910895CF93DF9300D0CDB7DEB7A2
:1004300019821A8281E080938D0062E0CE010196DC
:1004400033DF2AD30F900F90DF91CF910895CF9390
:10045000DF9300D000D0CDB7DEB79091AC01809192
:10046000A6019F3F11F48F3F81F02FEF29831A825D
:100470009B838C8364E0CE01019616DF82E0A7DFC8
:1004800091E0803319F090E001C091E0892F0F9046
:100490000F900F900F90DF91CF910895CF93DF933E
:1004A00000D000D0CDB7DEB78EEF89831A821B82D1
:1004B0008091AD018C83811102C081E08B8364E067
:1004C000CE010196F1DE82E082DF8F3F61F4609120
:1004D000AD018091870090918800E6DE88E277DFA9
:1004E00091E0803309F090E0892F0F900F900F90EA
:1004F0000F90DF91CF910895CF93DF9300D0CDB7C8
:10050000DEB7A5DF8823C9F08091AD018A83809191
:10051000AB01813021F0823021F487E001C083E01B
:10052000898362E0CE010196BFDE6091AD018091CA
:100530008700909188006EDE01C080E00F900F90E0
:10054000DF91CF910895CF93DF9300D0CDB7DEB781
:100550007EDF882389F084E089838091AD018A83DE
:1005600062E0CE010196A0DE6091AD01809187002E
:10057000909188004FDE01C080E00F900F90DF91D6
:10058000CF910895CF93DF9300D0CDB7DEB75FDF73
:10059000882381F083DF882369F085E0898381E007
:1005A0008A8362E0CE0101967FDE8FEF10DF91E05B
:1005B000803309F090E0892F0F900F90DF91CF9159
:1005C0000895CF93DF9300D0CDB7DEB740DF882307
:1005D00069F082E0898381E08A8362E0CE0101963E
:1005E00063DE84E0F4DE91E0803309F090E0892F4F
:1005F0000F900F90DF91CF910895CF93DF9300D0AC
:10060000CDB7DEB724DF882379F048DF882361F097
:1006100081E089838A8362E0CE01019645DE84E031
:10062000D6DE91E0803309F090E0892F0F900F9093
:10063000DF91CF910895E091B001F091B101408137
:100640002091840081E090E0BC0102C0660F771F1A
:100650002A95E2F79B01209524232083E091B001A5
:10066000F091B101208130918400032E01C0880FE8
:100670000A94EAF7282B2083089510928D00109297
:100680008E0010928F001092900080D376D3E0916C
:100690008B00F0918C0020813091840081E090E00B
:1006A00001C0880F3A95EAF78095822380838FE80E
:1006B00091E00197F1F700C00000E0918900F0910E
:1006C0008A0080812091840090E002C095958795F2
:1006D0002A95E2F781709927682FE0918B00F091BD
:1006E0008C0070814091840021E030E0D90102C08B
:1006F000AA0FBB1F4A95E2F77A2B7083E091B001F5
:10070000F091B101408150918400052E01C0220F6B
:100710000A94EAF7209524232083B0E7BA95F1F7ED
:10072000B19B02C0682F6260C198B998E091B00196
:10073000F091B10120813091840081E090E001C00E
:10074000880F3A95EAF7282B208325E02A95F1F7C0
:100750000000E0918B00F0918C00208130918400AA
:1007600081E090E0032E01C0880F0A94EAF780959B
:100770008223808360938F0081E0611101C080E05B
:100780000895E0918B00F0918C00208130918400DD
:1007900081E090E001C0880F3A95EAF7282B20838A
:1007A0004ADFB99A0895C198B99845DFE0918B0066
:1007B000F0918C0020813091840081E090E0032E44
:1007C00001C0880F0A94EAF78095822380830895F8
:1007D000CF93DF93D6DFC1982EDFC19A2CDFC1986B
:1007E000B998D8E0C0E0C69526DFB199C068D1506D
:1007F000D1F7D9DF8C2FDF91CF910895CF93DF937D
:10080000CFEFDFEFE5DF80FD04C0209711F02197E7
:10081000F9CF81E0CD2B09F480E0DF91CF910895ED
:10082000CF93DF93D82FADDFC19A05DF04DFC8E097
:10083000D0FF02C0C19A01C0C198FDDED695C1505B
:10084000B9F7DF91CF91AFCFCF93DF93C198B9982C
:10085000CFEFDFEFF0DE2197209711F0B19BFACFB9
:1008600081E0CD2B09F480E0DF91CF910895CF9303
:100870001092B60286DFC198DEDEDDDEDCDEDBDE76
:10088000E3DF882399F0C8E08091B60286958093D3
:10089000B602D1DEB19B05C08091B602806880931C
:1008A000B602C15089F77FDF81E001C080E0CF91BF
:1008B0000895A4DF882341F0DADF882329F081E05E
:1008C0009091B6029D3009F080E0089580E0A8DFA5
:1008D000CEDF9091B602892F8D7F883031F09B3228
:1008E00021F0803311F01092B6028091B60280930D
:1008F0008D000895CF93DF93D82F43DFC19A9BDEFD
:10090000C19899DE98DE97DEC8E0D0FF02C0C19A98
:1009100001C0C19890DED695C150B9F795DF882304
:1009200051F041DFCFEFDFEF53DF81FF04C02097AD
:1009300011F02197F9CFDF91CF9108958091AC010B
:10094000D9DF8091A601D6DF8091AD01D3DFB1CF91
:10095000CF93C82F84EB64DF8C2FCCDFCF91A9CF4E
:100960008CDE811102C080E00895B0DF8823D9F3C6
:1009700082E056DF82E0BEDF84E0BCDF87EB91E0FF
:100980000197F1F700C0000081E0B4DF9FE725EB9D
:1009900081E0915020408040E1F700C0000082E0FB
:1009A000D7DF882301F363DF8091B60280938E0046
:1009B0008FEF36DF80E89EDF8FE99FE00197F1F748
:1009C00000C000008FEE2CDF82E094DF81E008950C
:1009D000CF9386E0BDDF811102C080E01BC0AEDF97
:1009E0008823D9F3C091AD0109DF8823B1F33FDF3C
:1009F000882399F3E0918700F0918800CF01019658
:100A000090938800809387008091B6028083C150C4
:100A100059F781E0CF910895CF9387E099DF88233C
:100A2000A9F08CDF882391F0C091AD01E09187009F
:100A3000F0918800CF010196909388008093870001
:100A4000808158DFC15091F7CF91D8CE80E0CF910F
:100A50000895CF93C091AC01C695CF3068F488E07B
:100A600077DF882349F08C2F45DF23DF882321F0AF
:100A700080E040DFCF91C2CE80E0CF91089583E047
:100A800067DF882339F08EED35DF8DEA33DF85EAC5
:100A900031DFB4CE80E0089510928E0010928D0068
:100AA0000895FF920F931F93CF93DF9310928E00C0
:100AB00010928D008091AB01882351F0843008F0B2
:100AC0008BC0C3E0D0E003E012E0FF24F39464C0E5
:100AD00047DF80C05F9977C055D6811161C032DC95
:100AE00081111093AB0180918D0090918E00873021
:100AF000934909F458C080918D0090918E008A30FE
:100B0000934909F450C080918D0090918E008F30F0
:100B1000934909F448C080918D0090918E0021E0A6
:100B20008B30944909F020E080918D0090918E00E7
:100B30008031934FD1F180918D0090918E00803360
:100B4000934F99F180918D0090918E008039934F51
:100B500061F180918D0090918E0031E08035984F49
:100B600009F030E0832F482F211121C0982F892FC1
:100B70003091AB01313011F13230D9F0219720970B
:100B800029F1911122C08FEF99EF20E08150904020
:100B90002040E1F700C00000A89554999BCF9CCF5E
:100BA0000093AB01A0CF21E0BFCF81E0DCCF91E08B
:100BB000DECF442319F3F092AB01E0CF2223F1F210
:100BC0001093AB01DBCF80E001C081E09091AB01DD
:100BD00090939000811105C010928E0010928D00AC
:100BE00080E0DF91CF911F910F91FF900895909138
:100BF000AA019817A1F09091AB01911110C0E0915A
:100C0000B001F091B10190814091840021E030E089
:100C100001C0220F4A95EAF7209529232083482F07
:100C200050E04830510508F09CC0FA01ED5EFF4FDE
:100C3000099427E330E030938C0020938B0028E365
:100C400030E03093B1012093B00126E330E06EC074
:100C500027E330E030938C0020938B0028E330E0D2
:100C60003093B1012093B00126E330E073C027E355
:100C700030E030938C0020938B0028E330E03093F9
:100C8000B1012093B00126E330E030938A00209335
:100C9000890094E064C027E330E030938C00209317
:100CA0008B0028E330E03093B1012093B00126E3BC
:100CB00030E030938A002093890095E050C024E30F
:100CC00030E030938C0020938B0025E330E03093AC
:100CD000B1012093B00123E330E030938A002093E8
:100CE0008900109284003DC024E330E030938C00F2
:100CF00020938B0025E330E03093B1012093B001C5
:100D000023E330E030938A002093890091E027C0EC
:100D100024E330E030938C0020938B0025E330E017
:100D20003093B1012093B00123E330E030938A0087
:100D30002093890092E013C024E330E030938C00CC
:100D400020938B0025E330E03093B1012093B00174
:100D500023E330E030938A002093890093E090935E
:100D600084008093AA010895C29AC39AC49AC59A2E
:100D7000A89AA99AAA9AAB9A0895C298C398C498B7
:100D8000C598A898A998AA98AB980895BA9ABB9ABA
:100D9000BC9ABD9AA09AA19AA29AA39A0895BA98C9
:100DA000BB98BC98BD98A098A198A298A3980895C4
:100DB0008091AB01882331F084E085BDF0DFD4DF82
:100DC00080E015CF0895F4DFC7D575D02BE088E11A
:100DD00090E00FB6F894A89581BD0FBE21BDFFCF5E
:100DE0009627092E0294202D2F702927692F602520
:100DF000660F607E2627602D6927607F6695092E25
:100E0000000C661F9695969596959F719627982744
:100E1000822F08952F923F92FF920F931F93CF93AB
:100E2000DF93E1016EE280E090E0DADF6F81D8DFEE
:100E30006091AC01D5DF6091A601D2DF6E81D0DF79
:100E4000382F292F8C81FE80082F1D81F80EF80184
:100E500061918F01832F922FC3DF382F292FF0123A
:100E6000F6CF6B81BDDF082FF92E8EE27ED58F8104
:100E70007CD58091AC0179D58091A60176D58E8103
:100E800074D51E81EC81FD8180816FD52C813D81DF
:100E90002F5F3F4F3D832C831150A1F78B8165D588
:100EA0008F2D63D5802FDF91CF911F910F91FF90F0
:100EB0003F902F905AC5CF93DF93CDB7DEB72B97D6
:100EC0000FB6F894DEBF0FBECDBFF8942E0149E0F7
:100ED000440E511C28E1622E712C02EB11E031E925
:100EE000E32E30E0F32E4DE8A42E40E0B42E51E77F
:100EF000852E50E0952E58E10FB6F89451BD11BCE7
:100F00000FBE312C38D581110EC0339483E03812D6
:100F1000F9CF2BE088E190E00FB6F894A89581BD59
:100F20000FBE21BDFFCF8F3261F71A8619865E8210
:100F30004D8281E08F831FD588878F3211F41BD5B6
:100F400088878FE00FB6F894A89561BC0FBE81BD6D
:100F50006FE280E090E044DF688542DF1C010BD542
:100F60008093AC01682FC1013BDF1C0104D5809345
:100F7000A601682FC10134DF1C01FDD48B83682FCB
:100F8000C1012EDF6C014B8192EB292E91E0392EAD
:100F9000420D4B87F0D4F10181931F01682FC601E8
:100FA0001FDF6C014B854211F4CFE5D48A83E3D473
:100FB000898389819A818C159D0511F480E001C097
:100FC00083E08C83811142C11093880000938700D5
:100FD000888590E0FC01F097E031F10508F034C11C
:100FE000E55EFF4F099480918D00882309F42EC19E
:100FF0008091AB01833020F4813038F467DC95C0F8
:10100000833009F023C15BD390C0F4D98EC08AE647
:1010100089871CC18FE08F839E828D8217C182E0F9
:101020008F839FE899878A8711C1AE014F5F5F4F19
:101030001A01F0DE8091AB01811103C01EDBAFDE2F
:101040009CDE80E0D4DD28DD28E088E190E00FB66A
:10105000F894A89581BD0FBE21BDFFCF8091B2014C
:10106000843010F089E0F1C08093AB01A1DEEEC0C6
:101070008091B201883078F4BADD8091AB01882389
:1010800061F0833008F0E2C080E0CDD9DFC080910C
:10109000B201883078F088E0D8C0EFDAD7C080910C
:1010A000B2018830C0F7A3DD54E05F83BE82AD8219
:1010B000F8DC3BC09CDD8091AB018111C7C0E091A1
:1010C000B001F091B10120818091840041E050E0B5
:1010D00002C0440F551F8A95E2F7CA01809582230A
:1010E0008083B4C08091AB01833028F4813008F054
:1010F000ABC0C5DC1AC0833009F0A8C0EDD315C061
:101100008091AB01823020F0843008F09FC09CC0F9
:101110009091B2019987990F9093AC011092A6011A
:10112000811102C096DC01C04CDA81118FC08FE0C2
:101130008CC08091B2018093AD018091AB0183306E
:1011400020F4813030F444DC16C08330C1F4E0D3A5
:1011500012C0D2D910C08091B2018093AD018091AC
:10116000AB01823039F020F0833049F4DAD303C088
:1011700082E004C0E8D9811102C08FE08C838C81A9
:10118000811164C08091AD018F831E830D835EC089
:101190008B818093AD018FE0382E3C828091AB0132
:1011A000833018F4813030F037C0833009F04EC0FE
:1011B000C1D346C031DC882309F448C0F0928800CE
:1011C000E092870005DC882309F440C01C8210935C
:1011D000880000938700F092A901E092A801809115
:1011E000AD01A0918700B0918800E091A801F09135
:1011F000A9012C919081291711F054E05C8311967C
:10120000B0938800A09387003196F093A901E093F2
:10121000A801815031F71AC0F0D9811113C03C8266
:1012200015C08B818093AD018FE08C838091AB01E1
:10123000823029F048F0833049F485D301C0A2D927
:10124000882321F01C8202C082E08C83CE010196AB
:101250001C01E0DD50CE9091BB0298279093BB0219
:1012600098E021E030E0E091B001F091B1016081BF
:1012700040918400D90102C0AA0FBB1F4A95E2F732
:101280006A2B608314BC80FF1CC044B54031E8F376
:10129000E091B001F091B101608140918400D901E9
:1012A00002C0AA0FBB1F4A95E2F7AD014095462345
:1012B000408314BC44B54031E8F38695915099F6CB
:1012C000089544B54830E8F3E091B001F091B101E0
:1012D000608140918400D90102C0AA0FBB1F4A95CA
:1012E000E2F7AD0140954623408314BC44B5483035
:1012F000E8F3E091B001F091B10160814091840088
:10130000D90102C0AA0FBB1F4A95E2F76A2B60837E
:1013100014BC44B54830E8F3E091B001F091B1015C
:10132000608140918400D90102C0AA0FBB1F4A9579
:10133000E2F7AD0140954623408314BC44B54830E4
:10134000E8F3BBCFE0918B00F0918C0020813091CD
:10135000840081E090E001C0880F3A95EAF7282BDD
:1013600020838FEF78DF8FEF76DF8FE774DF1092C7
:10137000BB028BE170DF8091B8028F5F8093B8026F
:101380006ACF8091BB0267DFE091B001F091B101BB
:1013900020813091840081E090E0032E01C0880F0D
:1013A0000A94EAF7282B208314BC84B58830E8F32C
:1013B000E0918B00F0918C0020813091840081E0DD
:1013C00090E0032E01C0880F0A94EAF780958223EB
:1013D0008083089514BCE0918900F0918A00808197
:1013E0002091840090E002C0959587952A95E2F7B8
:1013F00080FF07C084B58E3790F339C084B58E372F
:10140000B0F580812091840090E002C09595879589
:101410002A95E2F780FFF2CF84B58093BA029091CB
:10142000BC02981730F114BCE0918900F0918A0059
:1014300080812091840090E002C0959587952A953F
:10144000E2F780FF07C084B58E3790F310C084B5F3
:101450008E3768F480812091840090E002C09595D9
:1014600087952A95E2F780FFF2CF80E008958FEF0D
:10147000089581E00895FC01108280E090E041E051
:1014800050E014BCA0918900B0918A002C91609129
:10149000840030E002C0359527956A95E2F720FF79
:1014A00008C024B52E3790F380E0089524B52E3778
:1014B000D8F72C916091840030E002C035952795D3
:1014C0006A95E2F720FFF2CF34B52091BC022317D2
:1014D00018F114BCA0918900B0918A002C91609100
:1014E000840030E002C0359527956A95E2F720FF29
:1014F00007C024B52E3790F3D7CF24B52E37A0F6EA
:101500002C916091840030E002C0359527956A9552
:10151000E2F720FFF2CF09C060819A01082E01C0D6
:10152000220F0A94EAF7622B6083019688309105B6
:1015300009F0A7CF8091B702908189278093B702E5
:1015400081E00895CF93DF9388E18093BC0280917E
:10155000B902853139F0823129F0813031F4C1E0AE
:10156000D0E005C0C0E6DAEE02C0C6E4D0E032DF6B
:1015700087FF05C021972097D1F780E015C0CAE00A
:1015800029DF8F3FD1F3C150D9F79091BA02892F4B
:10159000869586959695890F8093BC021BDF8F3FB9
:1015A00061F31816DCF381E0DF91CF910895EF929B
:1015B000FF920F931F93CF93DF9300D01F92CDB76D
:1015C000DEB77C011B82BEDF811102C080E06DC0EE
:1015D0001092B702CE0103964EDF8823B9F38B81B8
:1015E0008B31A1F7CE01039646DF882379F39B81E7
:1015F0008091B8029813EACFCE0102963CDF88238F
:1016000029F38A81823010F7CE01019634DF8823D6
:10161000E9F289819A81892BC9F2CE0103962BDFE9
:101620008823A1F28B818E3089F6CE01039623DFC9
:10163000882361F29B818091B9029813C7CFCE01B4
:10164000039619DF882311F28B818111BFCF00E04F
:1016500010E0C701800F911F29813A812250310982
:101660000217130738F407DF882309F4AFCF0F5FA1
:101670001F4FEFCFCE010396FEDE882309F4A6CFDD
:101680008091B7028111A2CFE091B001F091B10138
:1016900020813091840081E090E0032E01C0880F0A
:1016A0000A94EAF7282B208381E00F900F900F9087
:1016B000DF91CF911F910F91FF90EF90089581E0FE
:1016C0008093B9023FDE80E0C6DD81E0C4DD8EE0BC
:1016D000C2DD81E0C0DD55DE85E991E068DF811182
:1016E00003C0DAD980E0089581E00895EF92FF9277
:1016F0001F93CF93DF9300D0CDB7DEB77C01162FB9
:101700008DE18093B9022A8349831CDE80E0A3DD4A
:1017100088E0A1DD8EE09FDD8DE19DDD84E09BDD35
:1017200084E099DD80E097DD812F95DD4981842F6C
:1017300092DD2A81822F8FDD80E08DDD22DE85E93A
:1017400091E035DF882399F080919501811111C0D6
:1017500080919601811711F081110BC08091970142
:10176000811107C080919801F701808302C080E059
:1017700001C081E00F900F90DF91CF911F91FF90FA
:10178000EF9008959CDF882389F021E040E060E33A
:101790008EE890E0ABDF882349F022E040E060E390
:1017A0008DE890E0A3DF91E0811101C090E0892FE6
:1017B00008958091AC018F3F21F48091A6018F3F65
:1017C000D1F086E08093B902BDDD80E044DD85E0A4
:1017D00042DD8EE040DD86E03EDD80E03CDD80E005
:1017E0003ADD8091AC0137DD8091A60134DDC9DDA1
:1017F00085E991E0DCCE81E00895CF93C1E080914E
:10180000AD018111C0E09EDD80E025DD84E023DDB7
:101810008EE021DD8091B9021EDD8C2F1CDD8091D0
:10182000AD0119DD80EA17DDACDD80918700909174
:101830008800CF91BCCEFF920F931F93CF93DF937D
:101840001F92CDB7DEB70091AD01002341F0202FEC
:1018500030E0265F3F4F122F832FF12C04C01AE097
:1018600081E0FF24F39489836DDD8981F4DC812F8D
:10187000F2DC8EE0F0DC8091B902EDDC8F2DEBDC48
:10188000802FE9DC80E0E7DC80E0E5DC80E0E3DC81
:1018900080E0E1DC80E0DFDC80E0DDDC80E0DBDCE0
:1018A000E0918700F09188008081D5DC209187004D
:1018B000309188002F5F3F4F30938800209387003E
:1018C000015071F75EDD85E991E00F90DF91CF91D6
:1018D0001F910F91FF906BCE82E18093B90232DDB0
:1018E00080E0B9DC87E0B7DC8EE0B5DC82E1B3DC18
:1018F00084E1B1DC80E0AFDC8CEAADDC88E8ABDC15
:1019000083E1A9DC86E7A7DC3CDD85E991E04FCEE9
:1019100050DF882321F084E18093B9026ECF80E00C
:10192000089547DF882321F086E18093B90265CFCF
:1019300080E008953EDF882321F083E18093B9029F
:101940007ACF80E0089535DF882321F085E1809308
:10195000B90271CF80E00895599810BC89E189B926
:1019600086E880BD88E18AB908955D9BFECF8CB979
:101970005E9BFECF08955F9BFECF8CB10895F894D7
:02198000FFCF97
:1019820000000000000000000D424C48656C69F444
:101992007D6D347741544D454741386D385F31365E
:0219A200000043
:00000001FF
