:1000000022C03CC03BC03AC039C038C037C036C03F
:1000100035C034C033C032C031C030C02FC02EC054
:100020002DC02CC02BC0EBC5FEC500C604C609C63A
:100030002BC6F4C635C640C64DC665C693C636C681
:1000400074C6D9C617C611241FBECFE5D4E0DEBFE3
:10005000CDBF10E0A0E6B0E0E0E9F3E102C005901A
:100060000D92A038B107D9F722E0A0E8B0E001C0B6
:100070001D92A33BB207E1F7B2D488C9C1CF81E09A
:1000800080939E0183ED95E4B39902C014BC04C033
:1000900001970097C9F724C084B58730E8F3B39976
:1000A0001FC020E030E080E097E041E050E0935F47
:1000B00064B56917E8F3B39B07C0BA01022E01C00B
:1000C000660F0A94EAF7862B2F5F3F4F9F3679F72A
:1000D00094B59B37E8F3B39B03C010929E0108953B
:1000E00080E00895C39814BC94B59D30E8F39DE07A
:1000F00080FF02C0C39A01C0C398935F869524B560
:100100002917E8F39537A1F7C39A84B58238E8F345
:100110000895409181008091A6019091A70158E037
:100120009C0124279695879520FF04C021E0822713
:1001300020EA92274695515099F740938100909379
:10014000A7018093A60108951F93CF93DF93162FE5
:100150001092A7011092A6011092830010928200C3
:100160002FEF20938000C82FD92F180F88DF80939E
:10017000810090919E01911127C08993CADF1C13C1
:10018000F5CF809186008823E1F079DF80938200AB
:1001900080919E01811118C072DF8093830080914D
:1001A0009E01811111C02091A6013091A70180917B
:1001B0008200909183002817390719F082EC809310
:1001C00080005DDF8093800081E09091800090331B
:1001D00009F080E0DF91CF911F9108950F931F9355
:1001E000CF93DF931F92CDB7DEB7BB9AE7ECF0E079
:1001F0003197F1F700C000001092A7011092A601FC
:100200008C01680FF80181918F01809381006983CF
:1002100069DF7FDF69816013F5CF809186008823D5
:1002200031F08091A6015EDF8091A7015BDFBB9872
:100230000F90DF91CF911F910F910895CF93DF938E
:10024000CDB7DEB76D970FB6F894DEBF0FBECDBF4A
:1002500084E397E3A1E38B8F9C8FAD8F81E1E0E690
:10026000F0E0DE01119601900D928A95E1F761E1CF
:10027000CE010196B3DF68E0CE01429665DF8823A8
:10028000C1F0FE017296DE015B96CE01459631917A
:100290002D9132130EC0E817F907C9F78D898093A5
:1002A00088008E89809387008F898093860081E003
:1002B00001C080E06D960FB6F894DEBF0FBECDBFD3
:1002C000DF91CF910895CF93C82FD9DE809380001E
:1002D000C15080919E01882329F0C111F6CF8FEF84
:1002E0008093800080918000CF910895CF93DF9319
:1002F00000D0CDB7DEB78DEF89831A8262E0CE01E0
:1003000001966CDF81E0DFDF813C19F0ADD280E047
:1003100001C081E00F900F90DF91CF910895CF93AE
:10032000DF9300D0CDB7DEB719821A8281E08093C7
:10033000860062E0CE01019651DF96D20F900F90B9
:10034000DF91CF910895CF93DF9300D000D0CDB748
:10035000DEB79091A40180919F019F3F11F48F3FE0
:1003600081F02FEF29831A829B838C8364E0CE0176
:10037000019634DF82E0A7DF91E0803319F090E04E
:1003800001C091E0892F0F900F900F900F90DF9197
:10039000CF910895CF93DF9300D000D0CDB7DEB7D3
:1003A0008EEF89831A821B828091A5018C83811133
:1003B00002C081E08B8364E0CE0101960FDF82E012
:1003C00082DF8F3F61F46091A5018091840090915C
:1003D000850004DF88E277DF91E0803309F090E068
:1003E000892F0F900F900F900F90DF91CF9108956C
:1003F000CF93DF9300D0CDB7DEB7A5DF8823C9F058
:100400008091A5018A838091A301813021F08230FF
:1004100021F487E001C083E0898362E0CE01019688
:10042000DDDE6091A50180918400909185008CDED5
:1004300001C080E00F900F90DF91CF910895CF938E
:10044000DF9300D0CDB7DEB77EDF882389F084E06C
:1004500089838091A5018A8362E0CE010196BEDE88
:100460006091A50180918400909185006DDE01C0AE
:1004700080E00F900F90DF91CF910895CF93DF939D
:1004800000D0CDB7DEB75FDF882381F083DF88231C
:1004900069F085E0898381E08A8362E0CE0101967C
:1004A0009DDE8FEF10DF91E0803309F090E0892F1F
:1004B0000F900F90DF91CF910895CF93DF9300D0ED
:1004C000CDB7DEB740DF882369F082E0898381E021
:1004D0008A8362E0CE01019681DE84E0F4DE91E061
:1004E000803309F090E0892F0F900F90DF91CF912A
:1004F0000895CF93DF9300D0CDB7DEB724DF8823F4
:1005000079F048DF882361F081E089838A8362E0A3
:10051000CE01019663DE84E0D6DE91E0803309F0FF
:1005200090E0892F0F900F90DF91CF910895C3989D
:1005300000000000C39A0895109286001092870070
:10054000109288001092890096B393FB992790F936
:10055000BB9AC39880E88A95F1F7B4999260C498E1
:10056000BC98C39A8AE08A95F1F700C0BB98909333
:10057000880081E0911101C080E00895BB9AD7DF27
:10058000BC9A0895C498BC98D2DFBB980895CF93C5
:10059000DF93F4DFC498CBDFC49AC9DFC498BC985A
:1005A000D8E0C0E0C695C3DFB499C068D150D1F798
:1005B000E9DF8C2FDF91CF910895CF93DF93CFEFB9
:1005C000DFEFE5DF80FD04C0209711F02197F9CF20
:1005D00081E0CD2B09F480E0DF91CF910895CF9396
:1005E000DF93D82FCBDFC49AA2DFA1DFC8E0D0FF12
:1005F00002C0C49A01C0C4989ADFD695C150B9F719
:10060000DF91CF91BFCFCF93DF93C498BC98CFEF4A
:10061000DFEF8DDF2197209711F0B49BFACF81E0B7
:10062000CD2B09F480E0DF91CF910895CF93109204
:10063000AC02A4DFC4987BDF7ADF79DF78DFE3DF09
:10064000882399F0C8E08091AC0286958093AC0233
:100650006EDFB49B05C08091AC0280688093AC02D1
:10066000C15089F78FDF81E001C080E0CF9108950C
:10067000A4DF882341F0DADF882329F081E090911C
:10068000AC029D3009F080E0089580E0A8DFCEDF65
:100690009091AC02892F8D7F883031F09B3221F010
:1006A000803311F01092AC028091AC0280938600EE
:1006B0000895CF93DF93D82F61DFC49A38DFC498B1
:1006C00036DF35DF34DFC8E0D0FF02C0C49A01C096
:1006D000C4982DDFD695C150B9F795DF882351F026
:1006E00051DFCFEFDFEF53DF81FF04C0209711F020
:1006F0002197F9CFDF91CF9108958091A401D9DF9F
:1007000080919F01D6DF8091A501D3DFB1CFCF9338
:10071000C82F84EB64DF8C2FCCDFCF91A9CF0CDF07
:10072000811102C080E00895B0DF8823D9F382E010
:1007300056DF82E0BEDF84E0BCDF87EB91E001970B
:10074000F1F700C0000081E0B4DF9FE725EB81E016
:10075000915020408040E1F700C0000082E0D7DFE8
:10076000882301F363DF8091AC02809387008FEFD1
:1007700036DF80E89EDF8FE99FE00197F1F700C048
:1007800000008FEE2CDF82E094DF81E00895CF93AC
:1007900086E0BDDF811102C080E01BC0AEDF882390
:1007A000D9F3C091A50109DF8823B1F33FDF882386
:1007B00099F3E0918400F0918500CF010196909328
:1007C0008500809384008091AC028083C15059F7EA
:1007D00081E0CF910895CF9387E099DF8823A9F036
:1007E0008CDF882391F0C091A501E0918400F09105
:1007F0008500CF01019690938500809384008081CD
:1008000058DFC15091F7CF91D8CE80E0CF910895B5
:10081000CF93C091A401C695CF3068F488E077DF0C
:10082000882349F08C2F45DF23DF882321F080E0E7
:1008300040DFCF91C2CE80E0CF91089583E067DFA3
:10084000882339F08EED35DF8DEA33DF85EA31DF3D
:10085000B4CE80E008958091A301882321F084E044
:1008600085BDBB98C39A08951092870010928600A8
:100870000895FF920F931F93CF93DF9310928700F9
:10088000109286008091A301882351F0843008F0F3
:100890009BC0CAE3D1E003E012E0FF24F39474C0EC
:1008A0003EDF90C05F9987C074D4811171C0C6DCEF
:1008B00081111093A3018091860090918700873069
:1008C000934909F468C080918600909187008A302E
:1008D000934909F460C080918600909187008F3021
:1008E000934909F458C0809186009091870021E0D7
:1008F0008B30944909F020E0809186009091870028
:100900008031934F09F449C080918600909187000F
:100910008033934F09F441C0809186009091870005
:100920008039934FD1F18091860090918700803576
:10093000984F99F18091860090918700813B984E65
:1009400061F1809186009091870031E0823B984E62
:1009500009F030E0832F482F211121C0982F892FD3
:100960003091A301313011F13230D9F02197209725
:1009700029F1911122C08FEF99EF20E08150904032
:100980002040E1F700C00000A89554998BCF8CCF90
:100990000093A30190CF21E0AFCF81E0DCCF91E0C5
:1009A000DECF442319F3F092A301E0CF2223F1F22A
:1009B0001093A301DBCF80E001C081E09091A301FF
:1009C00090938900811105C01092870010928600D3
:1009D00080E0DF91CF911F910F91FF9008953BDF51
:1009E000C2D475D02BE088E190E00FB6F894A895BA
:1009F00081BD0FBE21BDFFCF9627092E0294202D69
:100A00002F702927692F6025660F607E2627602DAD
:100A10006927607F6695092E000C661F969596954E
:100A200096959F7196279827822F08952F923F922F
:100A3000FF920F931F93CF93DF93E1016EE280E06B
:100A400090E0DADF6F81D8DF6091A401D5DF60919B
:100A50009F01D2DF6E81D0DF382F292F8C81FE805D
:100A6000082F1D81F80EF80161918F01832F922FBD
:100A7000C3DF382F292FF012F6CF6B81BDDF082F8F
:100A8000F92E8EE279D48F8177D48091A40174D429
:100A900080919F0171D48E816FD41E81EC81FD8184
:100AA00080816AD42C813D812F5F3F4F3D832C8311
:100AB0001150A1F78B8160D48F2D5ED4802FDF91F0
:100AC000CF911F910F91FF903F902F9055C4CF93DE
:100AD000DF93CDB7DEB72B970FB6F894DEBF0FBE0E
:100AE000CDBFF8943E0189E0680E711C28E1C22E4A
:100AF000D12C08EA11E03AE8E32E30E0F32E46E884
:100B0000A42E40E0B42E51E7852E50E0952E98E1BA
:100B10000FB6F89491BD11BC0FBE312C33D48111A6
:100B20000EC03394E3E03E12F9CF2BE088E190E071
:100B30000FB6F894A89581BD0FBE21BDFFCF8F32AF
:100B400061F71A8619867E826D82F1E0FF831AD4DE
:100B500088878F3211F416D488878FE00FB6F89407
:100B6000A895C1BC0FBE81BD6FE280E090E044DF7C
:100B7000688542DF1C0106D48093A401682FC1015F
:100B80003BDF1C01FFD380939F01682FC10134DF3D
:100B90001C01F8D38B83682FC1012EDF2C014B8100
:100BA00098EA292E91E0392E420D4B87EBD3F101C3
:100BB00081931F01682FC2011FDF2C014B85421159
:100BC000F4CFE0D38A83DED3898389819A81841527
:100BD000950511F480E001C083E08C83811120C170
:100BE0001093850000938400888590E0FC01F097C5
:100BF000E031F10508F012C1ED5EFF4F09948091DC
:100C00008600882309F40CC18091A301833020F46D
:100C1000813038F43ADD73C0833009F001C156D217
:100C20006EC064DB6CC08AE68987FAC08EE08F8371
:100C30009E828D82F5C082E08F8380E989871A8643
:100C4000EFC0CE0101961C01F1DE8091A301882343
:100C500029F0843020F4BB98C39A01C06DDC04DE17
:100C600028E088E190E00FB6F894A89581BD0FBE0A
:100C700021BDFFCF8091A801843010F089E0CFC062
:100C80008093A301E8DDCCC08091A301882331F0DB
:100C9000833008F0C5C080E042DBC2C04DDCC0C07C
:100CA00094E09F83BE82AD82E4DD29C08091A301E0
:100CB0008111B6C0C398B4C08091A301833028F4D9
:100CC000813008F0ABC0BADD1AC0833009F0A8C08B
:100CD0000AD315C08091A301823020F0843008F03F
:100CE0009FC09CC09091A8019987990F9093A401EF
:100CF00010929F01811102C08BDD01C0DEDB8111EA
:100D00008FC08FE08CC08091A8018093A501809155
:100D1000A301833020F4813030F439DD16C08330F4
:100D2000C1F4FDD212C064DB10C08091A801809391
:100D3000A5018091A301823039F020F0833049F47D
:100D4000F7D203C082E004C07ADB811102C08FE0D9
:100D50008C838C81811164C08091A5018F831E8357
:100D60000D835EC08B818093A5018FE0382E3C827D
:100D70008091A301833018F4813030F037C0833084
:100D800009F04EC0DED246C026DD882309F448C0F3
:100D9000F0928500E0928400FADC882309F440C0D8
:100DA0001C821093850000938400F092A201E092CF
:100DB000A1018091A501A0918400B0918500E091EE
:100DC000A101F091A2012C919081291711F094E0DA
:100DD0009C831196B0938500A09384003196F09384
:100DE000A201E093A101815031F71AC082DB811189
:100DF00013C03C8215C08B818093A5018FE08C834A
:100E00008091A301823029F048F0833049F4A2D2C6
:100E100001C034DB882321F01C8202C082E08C8375
:100E2000FE0131961F0102DE72CE9091B102982729
:100E30009093B10298E0C39A14BC80FF0CC024B513
:100E40002031E8F3C39814BC24B52031E8F386952B
:100E5000915089F7089524B52830E8F3C39814BC5D
:100E600024B52830E8F3C39A14BC24B52830E8F33D
:100E7000C39814BC24B52830E8F3E9CFBB9A8FEFB0
:100E8000D4DF8FEFD2DF8FE7D0DF1092B1028BE19A
:100E9000CCDF8091AE028F5F8093AE02C6CF80918F
:100EA000B102C3DFC39A14BC84B58830E8F3BB98A1
:100EB000089514BCB39B07C084B58E37D8F31AC00D
:100EC00084B58E37B8F4B39BFBCF84B58093B00262
:100ED0009091B202981780F014BCB39B07C084B500
:100EE0008E37D8F307C084B58E3720F4B39BFBCF81
:100EF00080E008958FEF089581E00895FC0110824D
:100F000080E090E021E030E014BCB39B08C044B521
:100F10004E37D8F380E0089544B54E37D8F7B39BE9
:100F2000FBCF54B54091B202451768F014BCB39B97
:100F300007C044B54E37D8F3EDCF44B54E3750F720
:100F4000B39BFBCF09C06081A901082E01C0440FEB
:100F50000A94EAF7642B6083019688309105A1F624
:100F60008091AD02908189278093AD0281E0089540
:100F7000CF93DF9388E18093B2028091AF028531F5
:100F800039F0823129F0813031F4C1E0D0E005C080
:100F9000C0E6DAEE02C0C6E4D0E08BDF87FF05C012
:100FA00021972097D1F780E015C0CAE082DF8F3FFC
:100FB000D1F3C150D9F79091B002892F86958695CB
:100FC0009695890F8093B20274DF8F3F61F31816F4
:100FD000DCF381E0DF91CF910895EF92FF920F93C0
:100FE0001F93CF93DF9300D01F92CDB7DEB77C0164
:100FF0001B82BEDF811102C080E05EC01092AD0294
:10100000CE0103967BDF8823B9F38B818B31A1F767
:10101000CE01039673DF882379F39B818091AE0222
:101020009813EACFCE01029669DF882329F38A81DB
:10103000823010F7CE01019661DF8823E9F28981C1
:101040009A81892BC9F2CE01039658DF8823A1F239
:101050008B818E3089F6CE01039650DF882361F2B2
:101060009B818091AF029813C7CFCE01039646DFD4
:10107000882311F28B818111BFCF00E010E0C701FE
:10108000800F911F29813A812250310902171307DD
:1010900038F434DF882309F4AFCF0F5F1F4FEFCF51
:1010A000CE0103962BDF882309F4A6CF8091AD02F1
:1010B0008111A2CFC39A81E00F900F900F90DF9122
:1010C000CF911F910F91FF90EF90089581E0809351
:1010D000AF02D4DE80E0A9DE81E0A7DE8EE0A5DEEF
:1010E00081E0A3DEDCDE8EE891E077DF811103C0D2
:1010F000BBDB80E0089581E00895EF92FF921F939B
:10110000CF93DF9300D0CDB7DEB77C01162F8DE1F2
:101110008093AF022A834983B1DE80E086DE88E0D7
:1011200084DE8EE082DE8DE180DE84E07EDE84E09F
:101130007CDE80E07ADE812F78DE4981842F75DEC7
:101140002A81822F72DE80E070DEA9DE8EE891E0D7
:1011500044DF882399F080918E01811111C0809124
:101160008F01811711F081110BC0809190018111C5
:1011700007C080919101F701808302C080E001C027
:1011800081E00F900F90DF91CF911F91FF90EF9032
:1011900008959CDF882389F021E040E060E387E840
:1011A00090E0ABDF882349F022E040E060E386E88E
:1011B00090E0A3DF91E0811101C090E0892F0895B4
:1011C0008091A4018F3F21F480919F018F3FD1F046
:1011D00086E08093AF0252DE80E027DE85E025DEE8
:1011E0008EE023DE86E021DE80E01FDE80E01DDE73
:1011F0008091A4011ADE80919F0117DE50DE8EE8F7
:1012000091E0EBCE81E00895CF93C1E08091A501FC
:101210008111C0E033DE80E008DE84E006DE8EE08F
:1012200004DE8091AF0201DE8C2FFFDD8091A501ED
:10123000FCDD80EAFADD33DE809184009091850048
:10124000CF91CBCEFF920F931F93CF93DF931F923B
:10125000CDB7DEB70091A501002341F0202F30E08B
:10126000265F3F4F122F832FF12C04C01AE081E03C
:10127000FF24F394898302DE8981D7DD812FD5DDB8
:101280008EE0D3DD8091AF02D0DD8F2DCEDD802FBB
:10129000CCDD80E0CADD80E0C8DD80E0C6DD80E036
:1012A000C4DD80E0C2DD80E0C0DD80E0BEDDE09135
:1012B0008400F09185008081B8DD20918400309118
:1012C00085002F5F3F4F30938500209384000150AD
:1012D00071F7E5DD8EE891E00F90DF91CF911F91DE
:1012E0000F91FF907ACE82E18093AF02C7DD80E05C
:1012F0009CDD87E09ADD8EE098DD82E196DD84E179
:1013000094DD80E092DD8CEA90DD88E88EDD83E17B
:101310008CDD86E78ADDC3DD8EE891E05ECE50DFAE
:10132000882321F084E18093AF026ECF80E008959E
:1013300047DF882321F086E18093AF0265CF80E00C
:1013400008953EDF882321F083E18093AF027ACFB6
:1013500080E0089535DF882321F085E18093AF0296
:1013600071CF80E00895599810BC89E189B986E869
:1013700080BD88E18AB908955D9BFECF8CB95E9BE4
:10138000FECF08955F9BFECF8CB10895F894FFCFF8
:1013900000000000000000000D424C48656C69F43C
:1013A0007D347741544D454741386D385F313600C3
:00000001FF
