:1000000034C24EC24DC24CC24BC24AC249C248C29F
:1000100047C25CCB45C244C243C242C241C240C295
:100020003FC23EC23DC2D7C4D6C4DBC463C556C5B9
:10003000E5C419C5E9C4B6C501C5B4C5B3C513C582
:1000400098C517C51CC52CC59AC530C535C53AC558
:100050003FC561C560C55FC56AC569C56CC567C573
:1000600066C530C5F9C60CC71FC72BC815C830C731
:1000700043C756C730C968C72EC92DC976C7A9C896
:1000800089C79EC7AEC7BBC8C1C7D1C7E1C7F1C743
:100090002FC845C8DFC85AC870C886C8C5C8F2C8C6
:1000A00007C9202D20002E003D2000EE01C502A230
:1000B00002EE01970190018801810136022C021D98
:1000C000020E027D01400236022C0227027D01BE93
:1000D00001BC01BA01B801B601B301B001AD01AA7A
:1000E00001A701A401A0019C01EE01EB01EE01EBCF
:1000F00001A202B302C502A202C502D201C901E4F3
:1001000001DB01C001EE01EB01A202C5027D02008C
:1001100000A202C50284027D029102C502BA02A7B2
:1001200002A2029A02770271026B0265025F025913
:10013000024A02450240023B023602FF013102C57B
:1001400002BA02B302A702A2023B0209023602046B
:1001500002FF01A202B302C502EE01FC01F801F2A6
:1001600001EE0154024F024A02450240023B0236B0
:100170000231022C022702220218021302496E6683
:1001800000372E352F313500372E352F372E3500DD
:1001900031352F372E350031352F300032353500CF
:1001A0003132380036340034380033320032340013
:1001B000313600313200380036003400330032006E
:1001C0004269646972656374004E6567617469763B
:1001D0006500506F73697469766500526576657263
:1001E000736564004E6F726D616C004F4E004F4638
:1001F000460053455455500041524D00545800316B
:100200002E323500312E313200302E383800313068
:100210002E3000382E303000362E303000352E3063
:100220003000342E303000332E303000322E30305B
:1002300000312E353000312E303000302E37350071
:10024000302E353000302E333800302E323500302D
:100250002E313700302E313300302E313838003017
:100260002E31323500302E30393400302E303633D6
:1002700000302E30343700302E3033310044616D81
:100280007065640044616D706564204C69676874D2
:100290000056657279204C6F77004869676865730E
:1002A000740048696768004D656469756D20486928
:1002B0006768004D656469756D004D656469756DAD
:1002C000204C6F77004C6F770074036A036003560D
:1002D000034C034203400336032C03220317030C91
:1002E000030403FA02F802F402EB0253757065721C
:1002F000535F340053756E0052004D79737465720C
:10030000795F34004D537461725F34004D537461F2
:10031000725F32304176004D537461725F3230410A
:100320005F00484B5F554245435F3400484B5F5583
:100330004245435F330048485F554245435F3200C2
:100340004400426C75655365725F3700426C756599
:100350005365725F3600426C75655365725F33009A
:10036000426C75655365725F3200426C756553650A
:10037000725F310041004C6F6F70004D554C544915
:10038000005441494C004D41494E0043616E636544
:100390006C202620457869743F0004205265616412
:1003A000202020200520426F7800042052656164DF
:1003B00020202020052042455343004578697420C1
:1003C0000220205365747570200300596573202046
:1003D0000220202020204E6F200300746F20424511
:1003E00053433F00204F4B20005772697465200033
:1003F000546172676574004C61796F7574200020D8
:100400006D696E0020562F63656C6C00332E0020E2
:100410007553656300436F6E6E656374004D656D63
:1004200000204572726F7221005265762E00000422
:100430000E1F04040400000404041F0E0400000442
:100440000C1F0C0400000004061F06040000506F7F
:100450007765722075702042455343202100557006
:10046000646174696E672E2E2E0011241FBECFE5C5
:10047000D4E0DEBFCDBF10E0A0E6B0E0ECEAFAE1E8
:1004800002C005900D92A438B107D9F722E0A4E884
:10049000B0E001C01D92AA3DB207E1F765DA04CBD6
:1004A000AFCD81E08093970183ED95E4B49902C0CC
:1004B00014BC04C001970097C9F724C084B58730E5
:1004C000E8F3B4991FC020E030E080E097E041E01D
:1004D00050E0935F64B56917E8F3B49B07C0BA01B5
:1004E000022E01C0660F0A94EAF7862B2F5F3F4F5A
:1004F0009F3679F794B59B37E8F3B49B03C010920D
:100500009701089580E00895C49814BC94B59D3077
:10051000E8F39DE080FF02C0C49A01C0C498935FD5
:10052000869524B52917E8F39537A1F7C49A84B5C1
:100530008238E8F308954091890080919E0190915E
:100540009F0158E09C0124279695879520FF04C0C1
:1005500021E0822720EA92274695515099F740934F
:10056000890090939F0180939E0108951F93CF93DC
:10057000DF93162F10929F0110929E0110928B0014
:1005800010928A002FEF20938800C82FD92F180FC0
:1005900088DF8093890090919701911127C08993FA
:1005A000CADF1C13F5CF80918E008823E1F079DF3C
:1005B00080938A0080919701811118C072DF809327
:1005C0008B0080919701811111C020919E01309183
:1005D0009F0180918A0090918B002817390719F0AC
:1005E00082EC809388005DDF8093880081E09091A9
:1005F0008800903309F080E0DF91CF911F9108953A
:100600000F931F93CF93DF9300D0CDB7DEB7BC9A83
:10061000E7ECF0E03197F1F700C0000010929F0185
:1006200010929E018C01680FF80181918F018093D7
:10063000890049836A8368DF7EDF6A8149816013AC
:10064000F3CF442331F080919E015EDF80919F01C2
:100650005BDFBC980F900F90DF91CF911F910F91AE
:100660000895CF93DF93CDB7DEB76D970FB6F894AB
:10067000DEBF0FBECDBF84E397E3A1E38B8F9C8FDA
:10068000AD8F81E1E5E6F0E0DE01119601900D927B
:100690008A95E1F740E061E1CE010196B1DF68E0C3
:1006A000CE01429663DF8823A9F0FE017296DE0137
:1006B0005B96CE01459631912D9132130BC0E81710
:1006C000F907C9F78E8980938F008F8980938E00F8
:1006D00081E001C080E06D960FB6F894DEBF0FBEDA
:1006E000CDBFDF91CF910895CF93C82FDADE8093ED
:1006F0008800C15080919701882329F0C111F6CF5D
:100700008FEF8093880080918800CF910895CF93D8
:10071000DF9300D000D0CDB7DEB78FEF89831A8288
:1007200080919C018B83809198018C8341E064E0EF
:10073000CE01019665DF82E0D7DF91E0803309F0DA
:1007400090E0892F0F900F900F900F90DF91CF9135
:100750000895CF93DF9300D000D0CDB7DEB78EEFF2
:1007600089831A821B8280919D018C83811102C032
:1007700081E08B8341E064E0CE01019641DF82E0BD
:10078000B3DF8F3F69F441E060919D0180918C005F
:1007900090918D0035DF88E2A7DF91E0803309F08A
:1007A00090E0892F0F900F900F900F90DF91CF91D5
:1007B0000895CF93DF9300D0CDB7DEB7A8DF8823AD
:1007C00079F01A8284E0898341E062E0CE010196EB
:1007D00017DF60E080918C0090918D00C7DE01C032
:1007E00080E00F900F90DF91CF910895CF93DF932A
:1007F00000D0CDB7DEB78BDF882389F0AADF88234E
:1008000071F085E0898381E08A8341E062E0CE0176
:100810000196F6DE8FEF68DF91E0803309F090E01B
:10082000892F0F900F90DF91CF9108951F93CF9351
:10083000DF93182FEC01CE010AD9EC2FE11BF0E079
:10084000EB54FD4F808321968111F5CFDF91CF913D
:100850001F9108952F923F92AF92BF92DF92EF9235
:100860000F931F93CF93DF931F92CDB7DEB781E035
:10087000D10111969C91911180E0D82ED194F10173
:100880008281F4E08F9FC00111248E5F9F4FE7D8D3
:10089000CDDFD10112962C91B4E02B9F8001112461
:1008A000C801805090402983D2D8E82EC8018F5FBC
:1008B0009F4FCDD8182FE0916200F09163002981FD
:1008C0002F3091F48281823148F48091A4028823F0
:1008D00029F18091D602882309F125C08091D602A2
:1008E00081111CC012E01FC02C3119F41091B40208
:1008F0001AC0273021F482818E30A8F013C029302D
:1009000039F48281803160F48F3069F417E00BC0D4
:100910002E3049F48281803128F405C013E003C0F1
:100920001DE001C016E08281813160F0223129F49E
:100930008091A402811105C005C0233011F021313E
:1009400009F413E0AA24AA94B12CF1018181D816EC
:1009500009F42BC198D785EB92E0A8D7D101129664
:100960008C91833050F48091A402823031F460E0A5
:1009700080E083D786E793E0BCD7F101818160E016
:10098000843610F08DE005C08A3010F08EE001C092
:100990008FE073D7D10111968C9190E092D761E0EE
:1009A00080E06BD788EA90E0A4D7D1011196EC9152
:1009B00011971E1708F4F6C0EE1508F4F3C012964E
:1009C0004C9150E04F31510508F0ECC04D5E5F4F47
:1009D0004F935F930895F0E0EE0FFF1FEF59FE4F26
:1009E000DEC08091A402F0E0EE0FFF1F811103C072
:1009F000E75AFE4FD4C0EF5AFE4FD1C0F0E0EE0FE1
:100A0000FF1FE95BFE4FCBC0A0916200B091630075
:100A100012968C918E3010F00EEF01C00FEF0E0F7A
:100A20000F3F49F08CE094E064D7802F90E049D7E5
:100A300084E094E0B6C08EEE91E0B3C0A091620075
:100A4000B091630012968C91803110F0E15005C096
:100A50008F3011F4EB5F01C0E95FF0E0EE0FFF1F94
:100A6000EB5DFE4F9CC0F0E0EE0FFF1FE35CFE4F1E
:100A700096C0F0E0EE0FFF1FE95EFE4F90C0A09120
:100A80006200B091630012968C91F0E0EE0FFF1FB0
:100A90008B3018F4E95FFE4F82C0E15FFE4F7FC0EC
:100AA000F0E0EE0FFF1FED5FFE4F79C0F0E0EE0FBC
:100AB000FF1FE350FF4F73C0F0E0EE0FFF1FE75042
:100AC000FF4F6DC0F0E0EE0FFF1FE351FF4F67C017
:100AD000F0E0EE0FFF1FE751FF4F61C0B4E6EB9F60
:100AE000C0011124B5017FD7CB019927EAD685E251
:100AF000CCD658C0A0916200B091630012968C9140
:100B0000F0E0EE0FFF1F813118F0E151FF4F47C0B9
:100B1000EB50FF4F44C0F0E0CF0186509F4F880F4D
:100B2000991F880F991FCDD68FE094E03AC08E2F81
:100B300090E0C7D637C0A0916200B09163008C915D
:100B400011962C9130E0FAE08F9F200D311D112479
:100B5000F0E0EE0FFF1F203731051CF4ED53FF4F7F
:100B600002C0E754FF4F85919491C3D68FEF93E075
:100B700018C0F0E0EE0FFF1FE353FF4F10C0A0912D
:100B80006200B091630012968C91F0E0EE0FFF1FAF
:100B9000813118F0E755FF4F02C0E155FF4F8591B5
:100BA0009491A7D6D1011196DC9080E2DBD5882301
:100BB00099F08FEFF101808385E6AFE3BCE91197EF
:100BC000F1F700C00000815021F488ECF10182832C
:100BD0003DC0859BF2CF3AC088E0C4D5882349F058
:100BE000D10111968C91E81640F48150F101818376
:100BF00004C088E0C2D58111F3CF80E1B3D588234A
:100C000049F0D10111968C91811740F48F5FF10169
:100C1000818304C080E1B1D58111F3CF84E0A2D5F6
:100C2000882309F492CE81E0D1018C9385E6EFE32D
:100C3000FCE93197F1F700C00000815029F484E607
:100C4000D10112968C9302C0829BF1CF0F90DF915D
:100C5000CF911F910F91EF90DF90BF90AF903F9099
:100C60002F9008951092980120E720939D01909372
:100C70008D0080938C0010929C01B1D4882339F0B0
:100C800098DD91E0811101C090E0892F089580E006
:100C90000895CF93DF938091600090916100E2DF2F
:100CA000882309F48DC0E0916200F0916300A09167
:100CB0006000B091610090818C91981383C0918104
:100CC00011968C91119798137DC095851D968C91E6
:100CD0001D97981377C096851E968C911E97981332
:100CE00071C01092980180E780939D018C91808360
:100CF00012968C911297828380E090E0ED01C80FEC
:100D0000D91FC05CDF4F2881EF01C80FD91FC05C1D
:100D1000DF4F288301968033910581F7F0938D0092
:100D2000E0938C0081E080939D01C0E0D0E0E091F1
:100D30006200F0916300A0916000B0916100AC0F7F
:100D4000BD1FEC0FFD1F9C918081981739F0C09357
:100D50009801F0938D00E0938C0048DD2196C0341B
:100D6000D10529F71092980180E780939D01809129
:100D700060009091610090938D0080938C008FE3D0
:100D80009CE90197F1F700C0000013DD8823E1F032
:100D90008FE39CE90197F1F700C00000A091620089
:100DA000B0916300E0916000F091610080E0C0E0EC
:100DB0002D9191912913C3E08F5F8037C9F705C04A
:100DC000C1E003C0C2E001C0C3E089EE93E091D569
:100DD000C11103C084EE93E007C0C23019F480EF64
:100DE00093E087D581E294E084D5D2D48C2FDF9133
:100DF000CF9108952F923F920F931F93CF93DF933C
:100E000000D01F92CDB7DEB71B8281E08983789432
:100E10000EE115E08B81813F08F00B838B818F31D0
:100E200008F01B822091A402222359F0223011F0F5
:100E300030E008C0E0916200F0916300828180316F
:100E4000B8F331E08B8190E08F31910508F043C217
:100E5000FC01EE5CFF4F0994332309F43CC2E0919E
:100E60006200F091630083818A83CE0101961C01A8
:100E7000F1DCE0916200F09163008A8183832BC2F0
:100E8000332309F428C2E0916200F0916300848169
:100E90008A83CE0101961C01DDDCE0916200F091B5
:100EA00063008A81848317C2332309F414C2E0915A
:100EB0006200F091630085818A83CE0101961C0156
:100EC000C9DCE0916200F09163008A81858303C2EE
:100ED000222309F400C2E0916200F091630087814F
:100EE0008A83CE0101961C01B5DCE0916200F0918D
:100EF00063008A818783EFC1213009F0ECC1E09162
:100F00006200F091630080858A83CE0101961C0106
:100F1000A1DCE0916200F09163008A818087DBC1EF
:100F2000213009F4D8C1E0916200F091630086811C
:100F30008A83CE0101961C018DDCE0916200F09164
:100F400063008A818683C7C1E0916200F0916300EB
:100F500081858A83CE0101961C017CDCE0916200D0
:100F6000F09163008A818187B6C1E0916200F091BF
:100F7000630082818B3008F4AEC185898A83CE01FB
:100F800001961C0167DCE0916200F09163008A81A8
:100F9000858BA1C1E0916200F091630082818B504A
:100FA000883008F098C186898A83CE0101961C0199
:100FB00051DCE0916200F09163008A81868B8BC1E5
:100FC000E0916200F091630082858A83CE010196F0
:100FD0001C0140DCE0916200F09163008A8182870D
:100FE0007AC1E0916200F091630082818E3008F056
:100FF00072C184898A83CE0101961C012BDCE091A9
:101000006200F09163008A81848B65C1E091620087
:10101000F091630083858A83CE0101961C011ADC5E
:10102000E0916200F09163008A81838754C1E0916E
:101030006200F091630084858A83CE0101961C01D1
:1010400009DCE0916200F09163008A81848743C1EA
:10105000E0916200F091630087858A83CE0101965A
:101060001C01F8DBE0916200F09163008A818787C0
:1010700032C1211130C1E0916200F091630080899A
:101080008A83CE0101961C01E5DBE0916200F091BC
:1010900063008A81808B1FC121111DC1E091620014
:1010A000F091630081898A8310936400CE010196D8
:1010B0001C01D0DBE0916200F09163008A81818B9A
:1010C0000AC1E0916200F091630082818C3008F4E3
:1010D00002C1211100C187898A83CE0101961C01BA
:1010E000B9DBE0916200F09163008A81878BF3C0E5
:1010F000E0916200F091630082818D3008F4EBC0D2
:10110000818D8A8310936400CE0101961C01A2DBBD
:10111000E0916200F09163008A81818FDCC0E091F0
:101120006200F091630082818D3008F4D4C0828D1A
:101130008A8310936400CE0101961C018BDBE09141
:101140006200F09163008A81828FC5C0E0916200E5
:10115000F091630082818D3008F4BDC0838D8A8355
:1011600010936400CE0101961C0174DBE0916200D3
:10117000F09163008A81838FAEC0E0916200F091AC
:10118000630082818D3008F4A6C0848D8A83109319
:101190006400CE0101961C015DDBE0916200F091DC
:1011A00063008A81848F97C0E0916200F0916300B0
:1011B00082818D3008F48FC0858D8A83CE0101969F
:1011C0001C0148DBE0916200F09163008A81858F09
:1011D00082C0E0916200F091630082818D50863080
:1011E00008F079C0868D8A83CE0101961C0132DB1E
:1011F000E0916200F09163008A81868F6CC0E0917B
:101200006200F091630082818D3008F464C0878DA4
:101210008A83CE0101961C011DDBE0916200F091F2
:1012200063008A81878F57C08091B402882309F4B4
:1012300052C0E0916200F091630080A18A83CE01E8
:1012400001961C0107DBE0916200F09163008A8146
:1012500080A341C0E0916200F091630082818131FE
:10126000D0F12223C1F181A18A8310936400CE01C1
:1012700001961C01EFDAE0916200F09163008A812F
:1012800081A329C0E0916200F091630082818231E4
:1012900010F1211120C082A18A83CE0101961C0188
:1012A000D9DAE0916200F09163008A8182A313C0D1
:1012B000E0916200F09163008281823160F083A14D
:1012C0008A83CE0101961C01C5DAE0916200F0919B
:1012D00063008A8183A3009364009B81943611F09C
:1012E000983CF9F4D0D28B81843631F489EE93E0C6
:1012F00000D38BED93E002C08BE893E0FAD261E07B
:1013000080E0BBD28BEC93E0F4D242D2823039F44D
:10131000F89481E09B81943641F080E006C01B8206
:1013200079CD8981890F8B8375CD0F900F900F90A8
:10133000DF91CF911F910F913F902F90089589E2F7
:1013400094E0D7D2E0916200F0916300808190E058
:10135000B8D286EA90E0CDD2E0916200F0916300CD
:10136000818190E0AED282EA90E0C3D28091A40263
:10137000813039F018F0823039F0089586E893E032
:1013800005C081E893E002C08BE793E0B2C2CF933F
:10139000DF9379D2C0E0D0E0809162009091630049
:1013A0008C0F9D1FFC01E05AFF4F80816ED2219669
:1013B000C031D10589F761E080E05FD285EA92E033
:1013C00075D2E6D160D2BBDF61E080E056D287EF14
:1013D00093E08FD289E294E08CD2E0916200F091A8
:1013E0006300828190E06DD2DF91CF91D1C11F93D4
:1013F000CF93DF931092840046D280916200909147
:10140000630030DC882309F46FC080916200909102
:101410006300E5EAF2E01082DC01AF5BBF4F2C9184
:10142000233209F020833196019622E0E33BF20754
:1014300091F71092B3021092D6021092B402C9EC46
:10144000D2E011E0FE016591749185EB92E0DFD26C
:10145000A5EBB2E0E5EAF2E081919D91891719F0E0
:10146000992319F009C0811103C01093D60204C05A
:1014700082E0E43BF80781F7229622E0CB3ED207D8
:1014800009F791E090938400E0916200F09163008D
:101490008585853A31F486858A35A1F41092A402B7
:1014A00013C08A3531F48685853A61F49093A4029D
:1014B0000BC0853539F486858A3A21F482E0809321
:1014C000A40202C01092840080918400811103C0A4
:1014D0008DE194E00BC0808184508A3040F01092FE
:1014E000840089E294E002C085E194E002D2809118
:1014F0008400882311F04BDF04C081E294E0F9D12D
:1015000047D180918400DF91CF911F910895BBD185
:1015100089ED91E08BD985EB92E0C8D139D1B3D177
:1015200086E790E0C3D161E080E0A7D189E294E052
:10153000E0D180E993E3C5D12BC1A5D1809184008E
:10154000882319F08AEA93E002C08AE993E0D1D1B6
:1015500061E080E092D18BEB93E0CBD119D1833065
:1015600009F118F4823049F708958430A9F08530E4
:1015700021F780918400882321F03CDC8823E9F264
:1015800004C035DF8111F9CFD8CF7DD1809184009F
:10159000882399F27EDBD1CF809184008111F7DE20
:1015A000B6DFCBCF24DFC9CFCF93DF9313D080D06A
:1015B0000DD28CE0ACD180E552D1CEE2D4E0FE0178
:1015C000849154D12196F4E0CE34DF07C1F7DF9146
:1015D000CF91B3CF84E085BDBC98C49A0895EF92B3
:1015E000FF920F931F93CF93DF931F92CDB7DEB778
:1015F00010928F0010928E0046D18EE494E079D143
:1016000061E080E03AD184E4E82E83E0F82E04E340
:1016100010E0A89521E0E21AF108C701B801E3D172
:10162000892B19F481E890E041D18CE39BD08111A2
:1016300033C0549B02C05F992FC08FE39CE9019790
:10164000F1F700C000000DD880918E0090918F00BE
:1016500087309349C1F080918E0090918F008A303D
:10166000934989F080918E0090918F008F3093493B
:1016700051F020918E0030918F0081E02B30344961
:1016800019F080E001C081E0E114F10431F0882319
:1016900009F4BFCF81E001C080E08983F4D0898163
:1016A0000F90DF91CF911F910F91FF90EF900895D0
:1016B00081B3837C81BB82B38C6382BB85E083BFB3
:1016C00084E682BF89B7816089BF08951F920F9217
:1016D0000FB60F9211242F938F939F9384E682BFAE
:1016E0009091D90280B380958927909187009823A3
:1016F0009095909387002091860028232927209396
:101700008600892382239091D90298279093D90249
:101710009091D8022091D9022823292B2093D80216
:101720008091D9028C7319F486E4809385008091AE
:10173000850081508093850081110CC080916400E8
:10174000809385009091D7028091D9028C73892B68
:101750008093D7029F918F912F910F900FBE0F9082
:101760001F901895F8949091D80289239091D802EF
:1017700098279093D80278940895F8949091D7027E
:1017800089239091D70298279093D702789408954F
:10179000CF93CFB77894549B05C05F9B03C0F5D01F
:1017A00080E011C080E2DEDF811110C080E1DADF6D
:1017B00081110EC088E0D6DF81110CC084E0D2DF39
:1017C000882349F382E0CFBFCF91089585E0FBCF16
:1017D00084E0F9CF83E0F7CFAC9A00C0AC980895CD
:1017E0001F93CF93DF931F92CDB7DEB7662311F01F
:1017F000AA9A01C0AA98AB9897B39F6097BB18B3F9
:10180000107F982F92959F70912B98BB8983E4DF6E
:1018100089818F70812B88BBDFDF1F6018BB0F9021
:10182000DF91CF911F910895AA98AB9A87B3807FDB
:1018300087BBAC9A00C086B3AC9800C0AC9A00C01D
:1018400096B39F708295807FAC98892B0895ECDFCA
:1018500087FDFDCF88E090E00197F1F7E5CFCF93CA
:10186000C82FF5DF60E08C2FCF91BACFCF93C82F70
:10187000EEDF61E08C2FCF91B3CF611102C08058B1
:1018800001C08054ECCF81E0EACFCF93C82FDFDFD7
:10189000CA3041F4803410F480E401C080E0805804
:1018A000CF91DDCF61E08C2FCF919ACFCF93DF9393
:1018B000EC018991882311F0E8DFFBCFDF91CF9114
:1018C0000895CF93DF9300D000D000D0CDB7DEB71E
:1018D0004AE0BE016F5F7F4FA1D0CE010196E6DFE7
:1018E00026960FB6F894DEBF0FBECDBFDF91CF9125
:1018F0000895CF93DF93FC018491EF012196882313
:1019000019F0C3DFFE01F8CFDF91CF910895CF9397
:10191000C82F97B39F6097BBA29AA39AA49AE0E0BE
:10192000FAEF3197F1F7C19AC09A56DFE0E0FEE492
:101930003197F1F751DFE0E0F1E03197F1F74CDF5B
:10194000E0E0F1E03197F1F7C09846DFE0E0F1E048
:101950003197F1F788E283DF88E081DF94DF86E06A
:101960007EDF8C2FCF917BCF88E10FB6F89481BDBD
:1019700011BC0FBE19DE2BE088E190E00FB6F894A1
:10198000A89581BD0FBE21BDFFCFCF93F89488E10C
:101990000FB6F89481BD11BC0FBEC0E020D08111FC
:1019A00011C0CF5FC330D1F76EDF8EE594E0A1DFC9
:1019B0002BE088E190E00FB6F894A89581BD0FBEAA
:1019C00021BDFFCF8F3249F7CF910895599810BCB0
:1019D00089E189B986E880BD80E18AB908955F9B75
:1019E000FECF8CB10895AA1BBB1B51E107C0AA1FF3
:1019F000BB1FA617B70710F0A61BB70B881F991FB0
:101A00005A95A9F780959095BC01CD010895FB01E9
:101A1000DC0105900D920020E1F70895BB27FB0142
:101A20005527AA27880F991FAA1FA41710F0A41BD7
:101A300083955051B9F7A05DAA3308F0A95DA19331
:101A4000009779F7B111B1931192CB010DC0E199D3
:101A5000FECF9FBB8EBBE09A99278DB30895A8E176
:101A6000B0E042E050E012C0DC01FC01672F719150
:101A70007723E1F7329704C07C916D937083629174
:101A8000AE17BF07C8F30895DC01CB01FC01E19953
:101A9000FECF06C0FFBBEEBBE09A31960DB20D92B1
:0C1AA00041505040B8F70895F894FFCF73
:101AAC009300A0011400000000000000000D424C47
:101ABC0048656C69F47D3254444C586D385F31364E
:041ACC00002E0000E8
:00000001FF
