:1000000036C250C24FC24EC24DC24CC24BC24AC28F
:1000100049C2B5C947C246C245C244C243C242C230
:1000200041C240C23FC2FCC2FBC200C382C375C30F
:100030000AC33EC30EC3D5C326C3D3C3D2C338C37A
:10004000B7C33CC341C351C3B9C355C35AC35FC34C
:100050005EC380C37FC37EC389C388C38BC386C38B
:1000600085C355C354C353C381C3FCC40FC522C544
:100070002EC618C633C546C559C575C76BC573C7E7
:1000800072C779C5ACC68CC5A1C5B1C5BEC6C4C54D
:10009000D4C5E4C5F4C532C648C6E2C65DC673C65B
:1000A00089C6C8C6F7C60DC721C734C747C7202DA4
:1000B00020002E003D2000F201C902A602F2019BA1
:1000C0000194018C0185013A023002210212028161
:1000D0000144023A0230022B028101C201C001BE7A
:1000E00001BC01BA01B701B401B101AE01AB01A875
:1000F00001A401A001F201EF01A602B702C902A604
:1001000002C902D601CD01E801DF01C401A602C97E
:100110000281020000A602C902880281029502C97A
:1001200002BE02AB02A6029E027B0275026F02694A
:100130000263025D024E02490244023F023A020398
:10014000023502C902BE02B702AB02A6023F020D8F
:10015000023A0208020302A602B702C902F2010033
:1001600002FC01F601F201580253024E0249024418
:10017000023F023A02350230022B0226021C02170D
:1001800002496E6600372E352F313500372E352F58
:10019000372E350031352F372E350031352F3000D1
:1001A00032353500313238003634003438003332DD
:1001B000003234003136003132003800360034006D
:1001C000330032004269646972656374004E65678A
:1001D000617469766500506F736974697665005261
:1001E00065766572736564004E6F726D616C004F69
:1001F0004E004F46460053455455500041524D0065
:10020000545800312E323500312E313200302E3824
:10021000380031302E3000382E303000362E30305D
:1002200000352E303000342E303000332E30300088
:10023000322E303000312E353000312E303000304B
:100240002E373500302E353000302E333800302E2A
:10025000323500302E313700302E313300302E3120
:10026000383800302E31323500302E3039340030FD
:100270002E30363300302E30343700302E303331CC
:100280000044616D7065640044616D706564204C6C
:10029000696768740056657279204C6F7700486909
:1002A00067686573740048696768004D65646975BF
:1002B0006D2048696768004D656469756D004D651E
:1002C0006469756D204C6F77004C6F770078036E12
:1002D0000364035A035003460344033A03300326DE
:1002E000031B0310030803FE02FC02F802EF025393
:1002F00075706572535F340053756E0052004D790E
:1003000073746572795F34004D537461725F3400A9
:100310004D537461725F32304176004D5374617297
:100320005F3230415F00484B5F554245435F3400C8
:10033000484B5F554245435F330048485F5542454F
:10034000435F32004400426C75655365725F37004D
:10035000426C75655365725F3600426C7565536516
:10036000725F3300426C75655365725F3200426C98
:1003700075655365725F310041004C6F6F70004DC1
:10038000554C5449005441494C004D41494E00439D
:10039000616E63656C202620457869743F000420F7
:1003A00052656164202020200520426F78000420DF
:1003B00052656164202020200520424553430045BA
:1003C00078697420022020536574757020030059E9
:1003D000657320200220202020204E6F200300740F
:1003E0006F20424553433F00204F4B200057726916
:1003F00074652000546172676574004C61796F7593
:10040000742000206D696E0020562F63656C6C00AF
:10041000332E00207553656300436F6E6E65637401
:10042000004D656D00204572726F72210052657635
:100430002E0000040E1F04040400000404041F0E18
:10044000040000040C1F0C0400000004061F060436
:100450000000506F7765722075702042455343202D
:1004600021005570646174696E672E2E2E00112470
:100470001FBECFE5D4E0DEBFCDBF10E0A0E6B0E008
:10048000E4E1FCE102C005900D92AA3FB107D9F763
:1004900023E0AAEFB0E001C01D92AD35B207E1F74D
:1004A000BCD8B6CBADCD1F93CF93DF93182FEC0103
:1004B000CE0196DBEC2FE11BF0E0E65DFD4F808383
:1004C00021968111F5CFDF91CF911F9108952F9241
:1004D0003F92AF92BF92DF92EF920F931F93CF9311
:1004E000DF93E10181E09981911180E0D82ED194D0
:1004F000EA8124E0E29FF0011124E05AFF4F82815B
:100500009381D1DF8A8194E0899FF0011124E05A20
:10051000FF4FE0801181E091EA00F091EB008F3015
:1005200091F49281923148F49091FE00992329F13F
:1005300090915303992309F125C090915303911190
:100540001CC012E01FC08C3119F4109129021AC08E
:10055000873021F492819E30A8F013C0893039F49D
:100560009281903160F49F3069F417E00BC08E30B7
:1005700049F49281903128F405C013E003C01DE0D6
:1005800001C016E09281913160F0823129F48091AE
:10059000FE00811105C005C0833011F0813109F4DE
:1005A00013E0AA24AA94B12C8981D81609F41AC19F
:1005B000C3D78AE292E0D3D78A81833050F4809106
:1005C000FE00823031F460E080E0B0D78AE793E04B
:1005D000E9D7898160E0843610F08DE005C08A306B
:1005E00010F08EE001C08FE0A1D7898190E0C2D7E2
:1005F00061E080E09BD784EB90E0D4D7E9811E17BF
:1006000008F4EFC0EE1508F4ECC04A8150E0423225
:10061000510508F0E6C04D5E5F4F4F935F9308951C
:10062000F0E0EE0FFF1FEB59FE4FD8C08091FE00A7
:10063000F0E0EE0FFF1F811103C0E35AFE4FCEC062
:10064000EB5AFE4FCBC0F0E0EE0FFF1FE55BFE4F15
:10065000C5C0A091EA00B091EB0012968C918E304B
:1006600010F00EEF01C00FEF0E0F0F3F49F080E1C9
:1006700094E098D7802F90E07DD788E094E0B0C0D8
:1006800082EF91E0ADC0A091EA00B091EB0012962C
:100690008C91803110F0E15005C08F3011F4EB5F88
:1006A00001C0E95FF0E0EE0FFF1FE75DFE4F96C06F
:1006B000F0E0EE0FFF1FEF5BFE4F90C0F0E0EE0F9B
:1006C000FF1FE55EFE4F8AC0A091EA00B091EB00EB
:1006D00012968C91F0E0EE0FFF1F8B3018F4E55F5F
:1006E000FE4F7CC0ED5EFE4F79C0F0E0EE0FFF1FC5
:1006F000ED50FF4F73C0F0E0EE0FFF1FEB5FFE4FBA
:100700006DC0F0E0EE0FFF1FEF5FFE4F67C0F0E03F
:10071000EE0FFF1FEB50FF4F61C0F4E6EF9FC001EB
:100720001124B50129DACB01992724D785E206D710
:1007300058C0A091EA00B091EB0012968C91F0E0C5
:10074000EE0FFF1F813118F0E950FF4F47C0E35013
:10075000FF4F44C0F0E0CF0186509F4F880F991F94
:10076000880F991F07D783E194E03AC08E2F90E05D
:1007700001D737C0A091EA00B091EB008C9111969F
:100780002C9130E09AE0899F200D311D1124F0E07A
:10079000EE0FFF1F203731051CF4E153FF4F02C05D
:1007A000EB53FF4F85919491FDD683E094E018C000
:1007B000F0E0EE0FFF1FE752FF4F10C0A091EA00DC
:1007C000B091EB0012968C91F0E0EE0FFF1F81319B
:1007D00018F0EB54FF4F02C0E554FF4F8591949100
:1007E000E1D6D98080E217D6882381F08FEF888305
:1007F00085E6EFE3FCE93197F1F700C00000815096
:1008000011F488EC30C0859BF4CF31C088E003D66A
:10081000882331F08981E81638F48150898304C037
:1008200088E004D68111F6CF80E1F5D5882331F038
:100830008981811738F48F5F898304C080E1F6D500
:100840008111F6CF84E0E7D5882309F4ADCE81E0AD
:10085000888385E6EFE3FCE93197F1F700C00000FB
:10086000815019F484E68A8302C0829BF3CFDF9122
:10087000CF911F910F91EF90DF90BF90AF903F907D
:100880002F9008951092280220E720934E02909313
:100890000F0180930E0110924D02EFD4882339F09E
:1008A0004CD991E0811101C090E0892F089580E03A
:1008B0000895CF93DF938091E8009091E900E2DF03
:1008C000882309F480C0E091EA00F091EB00A09148
:1008D000E800B091E90090818C91981376C09181E5
:1008E00011968C911197981370C095851D968C91D7
:1008F0001D9798136AC096851E968C911E97981323
:1009000064C01092280280E780934E028C9180830D
:1009100012968C911297828380E090E0ED01C80FCF
:10092000D91FC05CDF4F2881EF01C80FD91FC05C01
:10093000DF4F288301968033910581F7F0930F01F3
:10094000E0930E0181E080934E02C0E0D0E0E091A0
:10095000EA00F091EB00A091E800B091E900AC0F43
:10096000BD1FEC0FFD1F9C918081981739F0C0933B
:100970002802F0930F01E0930E01E8D82196C034CD
:10098000D10529F71092280280E780934E028091CA
:10099000E8009091E90090930F0180930E01CDD86B
:1009A0008823A9F0A091EA00B091EB00E091E80063
:1009B000F091E90080E7C0E02D9191912913C3E007
:1009C0008150D1F705C0C1E003C0C2E001C0C3E05F
:1009D0008DEE93E0E7D5C11103C088EE93E007C028
:1009E000C23019F484EF93E0DDD585E294E0DAD5E6
:1009F00028D58C2FDF91CF9108952F923F92FF92AF
:100A00000F931F93CF93DF9300D01F92CDB7DEB724
:100A10001B8281E08983789401E215E0FEE1FF2EDC
:100A20008B81813F08F00B838B81823208F01B821F
:100A30002091FE00222359F0223011F030E008C04E
:100A4000E091EA00F091EB0082818031B8F331E06F
:100A50008B8190E08232910508F085C2FC01EB5C4D
:100A6000FF4F0994332309F47EC2E091EA00F0912C
:100A7000EB0083818A83CE0101961C0128DDE09181
:100A8000EA00F091EB008A8183836DC2332309F47D
:100A90006AC2E091EA00F091EB0084818A83CE0182
:100AA00001961C0114DDE091EA00F091EB008A81CF
:100AB000848359C2332309F456C2E091EA00F091CD
:100AC000EB0085818A83CE0101961C0100DDE09157
:100AD000EA00F091EB008A81858345C2222309F464
:100AE00042C2E091EA00F091EB0087818A83CE0157
:100AF00001961C01ECDCE091EA00F091EB008A81A8
:100B0000878331C2213009F02EC2E091EA00F091D2
:100B1000EB0080858A83CE0101961C01D8DCE09130
:100B2000EA00F091EB008A8180871DC2213009F430
:100B30001AC2E091EA00F091EB0086818A83CE012F
:100B400001961C01C4DCE091EA00F091EB008A817F
:100B5000868309C2E091EA00F091EB0081858A83E7
:100B6000CE0101961C01B3DCE091EA00F091EB00AC
:100B70008A818187F8C1E091EA00F091EB008281DF
:100B80008B3008F4F0C185898A83CE0101961C015F
:100B90009EDCE091EA00F091EB008A81858BE3C155
:100BA000E091EA00F091EB0082818B50883008F0F0
:100BB000DAC186898A83CE0101961C0188DCE09126
:100BC000EA00F091EB008A81868BCDC1E091EA00CA
:100BD000F091EB0082858A83CE0101961C0177DCBF
:100BE000E091EA00F091EB008A818287BCC1E0913C
:100BF000EA00F091EB0082818E3008F0B4C1848964
:100C00008A83CE0101961C0162DCE091EA00F0913A
:100C1000EB008A81848BA7C1E091EA00F091EB00A0
:100C200083858A83CE0101961C0151DCE091EA00A4
:100C3000F091EB008A81838796C1E091EA00F09100
:100C4000EB0084858A83CE0101961C0140DCE09193
:100C5000EA00F091EB008A81848785C1E091EA0087
:100C6000F091EB0087858A83CE0101961C012FDC71
:100C7000E091EA00F091EB008A81878774C121112D
:100C800072C1E091EA00F091EB0080898A83CE0185
:100C900001961C011CDCE091EA00F091EB008A81D6
:100CA000808B61C121115FC1E091EA00F091EB00FE
:100CB00081898A831093EC00CE0101961C0107DC28
:100CC000E091EA00F091EB008A81818B4CC1E091C8
:100CD000EA00F091EB0082818C3008F444C12111CC
:100CE00042C187898A83CE0101961C01F0DBE09125
:100CF000EA00F091EB008A81878B35C1E091EA0030
:100D0000F091EB0082818D3008F42DC1818D8A83B2
:100D10001093EC00CE0101961C01D9DBE091EA00B2
:100D2000F091EB008A81818F1EC1E091EA00F09181
:100D3000EB0082818D3008F416C1828D8A83109376
:100D4000EC00CE0101961C01C2DBE091EA00F091BB
:100D5000EB008A81828F07C1E091EA00F091EB00FD
:100D600082818D3008F4FFC0838D8A831093EC005C
:100D7000CE0101961C01ABDBE091EA00F091EB00A3
:100D80008A81838FF0C0E091EA00F091EB008281CC
:100D90008D3008F4E8C0848D8A831093EC00CE0176
:100DA00001961C0194DBE091EA00F091EB008A814E
:100DB000848FD9C0E091EA00F091EB0082818D3000
:100DC00008F4D1C0858D8A83CE0101961C017FDB9A
:100DD000E091EA00F091EB008A81858FC4C0E09138
:100DE000EA00F091EB0082818D50863008F0BBC0A4
:100DF000868D8A83CE0101961C0169DBE091EA00B1
:100E0000F091EB008A81868FAEC0E091EA00F0910C
:100E1000EB0082818D3008F4A6C0878D8A83CE01D5
:100E200001961C0154DBE091EA00F091EB008A810D
:100E3000878F99C080912902882309F494C0E0919A
:100E4000EA00F091EB0080A18A83CE0101961C019B
:100E50003EDBE091EA00F091EB008A8180A383C041
:100E6000E091EA00F091EB008281813108F47BC0CF
:100E7000222309F478C081A18A831093EC00CE016B
:100E800001961C0124DBE091EA00F091EB008A81DD
:100E900081A369C0E091EA00F091EB008281823188
:100EA00008F461C021115FC082A18A83CE0101963E
:100EB0001C010DDBE091EA00F091EB008A8182A336
:100EC00052C0E091EA00F091EB008281823108F497
:100ED0004AC083A18A83CE0101961C01F8DAE09111
:100EE000EA00F091EB008A8183A33DC0E091EA0023
:100EF000F091EB0082818431B0F184A18A83CE012C
:100F000001961C01E4DAE091EA00F091EB008A819D
:100F100084A329C0E091EA00F091EB008281843142
:100F200010F185A18A83CE0101961C01D0DAE091EF
:100F3000EA00F091EB008A8185A315C0E091EA00F8
:100F4000F091EB008281843170F0222361F086A160
:100F50008A83CE0101961C01BADAE091EA00F09191
:100F6000EB008A8186A3F092EC009B81943611F00D
:100F7000983CF9F4E1D28B81843631F48DEE93E024
:100F800011D38FED93E002C08FE893E00BD361E0C3
:100F900080E0CCD28FEC93E005D353D2823039F489
:100FA000F89481E09B81943641F080E006C01B827A
:100FB00037CD8981890F8B8333CD0F900F900F90A0
:100FC000DF91CF911F910F91FF903F902F90089547
:100FD0008DE294E0E7D2E091EA00F091EB008081AD
:100FE00090E0C8D282EB90E0DDD2E091EA00F0918F
:100FF000EB00818190E0BED28EEA90E0D3D2809166
:10100000FE00813039F018F0823039F008958AE816
:1010100093E005C085E893E002C08FE793E0C2C289
:10102000CF93DF9389D2C0E0D0E08091EA00909125
:10103000EB008C0F9D1FFC01E05AFF4F80817ED298
:101040002196C031D10589F761E080E06FD28FEF42
:1010500090E085D2F6D170D2BBDF61E080E066D24D
:101060008BEF93E09FD28DE294E09CD2E091EA0076
:10107000F091EB00828190E07DD2DF91CF91E1C1D0
:101080001F93CF93DF931092FA0056D28091EA001B
:101090009091EB00F7DB882309F46FC08091EA00A0
:1010A0009091EB00EFEFF0E01082DC01AF5BBF4FFF
:1010B0002C91233209F020833196019621E0ED3006
:1010C000F20791F710920D0110925303109229022A
:1010D000CDECD2E011E0FE01659174918AE292E0DC
:1010E0005FD5AAE2B2E0EFEFF0E081919D91891720
:1010F00019F0992319F009C0811103C0109353030B
:1011000004C081E0EE30F80781F7229622E0CF3E5E
:10111000D20709F791E09093FA00E091EA00F0918C
:10112000EB008585853A31F486858A35A1F41092E5
:10113000FE0013C08A3531F48685853A61F49093B8
:10114000FE000BC0853539F486858A3A21F482E0A9
:101150008093FE0002C01092FA008091FA00811183
:1011600003C081E294E00BC0808184508B3040F05A
:101170001092FA008DE294E002C089E194E012D26C
:101180008091FA00882311F04BDF04C085E294E0DF
:1011900009D257D18091FA00DF91CF911F91089524
:1011A0008091FA0081113CDFC7D18EE791E07BD9B5
:1011B0008AE292E0D4D145D1BFD18DEE90E0CFD17B
:1011C00061E080E0B3D18DE294E0ECD183EB96E373
:1011D000D1D137C1B1D18091FA00882319F08EEABC
:1011E00093E002C08EE993E0DDD161E080E09ED122
:1011F0008FEB93E0D7D125D18330E9F018F482301A
:1012000049F708958430A9F0853021F78091FA00DC
:10121000882321F0F2DB8823E9F204C031DF811159
:10122000F9CFD8CF89D18091FA00882399F241DB98
:10123000D1CFB6DFCFCF24DFCDCFCF93DF9313D085
:1012400090D08DD48CE0BCD180E562D1C2E3D4E0F3
:10125000FE01849164D12196F4E0C235DF07C1F725
:10126000DF91CF91B7CF84E085BDBC98C49A089533
:1012700010921101109210010895EF92FF920F93B6
:101280001F93CF93DF931F92CDB7DEB7109211015A
:101290001092100151D182E594E084D161E080E0A8
:1012A00045D182E1E82E82E0F82E01E210E0A89517
:1012B00021E0E21AF108C701B8015ED4892B19F4C4
:1012C00088EF90E04CD18CE3A6D0811136C0549BBE
:1012D00002C05F9932C087D38091100190911101B3
:1012E00087309349C9F080911001909111018A30A3
:1012F000934991F080911001909111018F309349A1
:1013000059F0809110019091110121E08B309449A6
:1013100009F020E0922F01C091E0892FE114F1043F
:1013200079F091110CC08FEF99EFE0E0815090407F
:10133000E040E1F700C00000BACF80E001C081E0EA
:101340008983FAD08981811104C010921101109211
:1013500010010F90DF91CF911F910F91FF90EF90AF
:10136000089581B3837C81BB82B38C6382BB85E0AB
:1013700083BF84E682BF89B7816089BF08951F92C9
:101380000F920FB60F9211242F938F939F9384E6A1
:1013900082BF9091560380B3809589279091FD007C
:1013A000982390959093FD002091FC0028232927F5
:1013B0002093FC00892382239091560398279093D1
:1013C000560390915503209156032823292B2093EF
:1013D0005503809156038C7319F486E48093FB00C7
:1013E0008091FB0081508093FB0081110CC08091A3
:1013F000EC008093FB0090915403809156038C7312
:10140000892B809354039F918F912F910F900FBE42
:101410000F901F901895F8949091550389239091FF
:10142000550398279093550378940895F8949091D4
:1014300054038923909154039827909354037894EC
:101440000895CF93CFB77894549B05C05F9B03C09A
:10145000F5D080E011C080E2DEDF811110C080E1B4
:10146000DADF81110EC088E0D6DF81110CC084E084
:10147000D2DF882349F382E0CFBFCF91089585E082
:10148000FBCF84E0F9CF83E0F7CFAC9A00C0AC98F3
:1014900008951F93CF93DF931F92CDB7DEB76623D6
:1014A00011F0AA9A01C0AA98AB9897B39F6097BB16
:1014B00018B3107F982F92959F70912B98BB8983BA
:1014C000E4DF89818F70812B88BBDFDF1F6018BB51
:1014D0000F90DF91CF911F910895AA98AB9A87B38F
:1014E000807F87BBAC9A00C086B3AC9800C0AC9A32
:1014F00000C096B39F708295807FAC98892B089529
:10150000ECDF87FDFDCF88E090E00197F1F7E5CFB4
:10151000CF93C82FF5DF60E08C2FCF91BACFCF9358
:10152000C82FEEDF61E08C2FCF91B3CF611102C0E5
:10153000805801C08054ECCF81E0EACFCF93C82F10
:10154000DFDFCA3041F4803410F480E401C080E071
:101550008058CF91DDCF61E08C2FCF919ACFCF9380
:10156000DF93EC018991882311F0E8DFFBCFDF9155
:10157000CF910895CF93DF9300D000D000D0CDB7A6
:10158000DEB74AE0BE016F5F7F4F11D3CE010196F7
:10159000E6DF26960FB6F894DEBF0FBECDBFDF9113
:1015A000CF910895CF93DF93FC018491EF012196B1
:1015B000882319F0C3DFFE01F8CFDF91CF910895A2
:1015C000CF93C82F97B39F6097BBA29AA39AA49A70
:1015D000E0E0FAEF3197F1F7C19AC09A56DFE0E008
:1015E000FEE43197F1F751DFE0E0F1E03197F1F7F8
:1015F0004CDFE0E0F1E03197F1F7C09846DFE0E042
:10160000F1E03197F1F788E283DF88E081DF94DF52
:1016100086E07EDF8C2FCF917BCF88E10FB6F894E8
:1016200081BD11BC0FBE09DE2BE088E190E00FB652
:10163000F894A89581BD0FBE21BDFFCFCF93F8943C
:1016400088E10FB6F89481BD11BC0FBEC0E090D206
:10165000811111C0CF5FC330D1F76EDF82E694E015
:10166000A1DF2BE088E190E00FB6F894A89581BD4A
:101670000FBE21BDFFCF8F3249F7CF9108959091D2
:101680005B03982790935B0398E0C49A14BC80FF97
:101690000CC024B52031E8F3C49814BC24B5203123
:1016A000E8F38695915089F7089524B52830E8F33A
:1016B000C49814BC24B52830E8F3C49A14BC24B5EB
:1016C0002830E8F3C49814BC24B52830E8F3E9CFF7
:1016D000BC9A8FEFD4DF8FEFD2DF8FE7D0DF10928D
:1016E0005B038BE1CCDF809158038F5F80935803BD
:1016F000C6CF80915B03C3DFC49A14BC84B5883025
:10170000E8F3BC98089514BCB49B07C084B58E3729
:10171000D8F31AC084B58E37B8F4B49BFBCF84B528
:1017200080935A0390915C03981780F014BCB49B8B
:1017300007C084B58E37D8F307C084B58E3720F440
:10174000B49BFBCF80E008958FEF089581E008956A
:10175000FC01108280E090E021E030E014BCB49BFA
:1017600008C044B54E37D8F380E0089544B54E37ED
:10177000D8F7B49BFBCF54B540915C03451768F094
:1017800014BCB49B07C044B54E37D8F3EDCF44B575
:101790004E3750F7B49BFBCF09C06081A901082EDA
:1017A00001C0440F0A94EAF7642B608301968830E5
:1017B0009105A1F680915703908189278093570363
:1017C00081E00895CF93DF9388E180935C0380915B
:1017D0005903853139F0823129F0813031F4C1E08B
:1017E000D0E005C0C0E6DAEE02C0C6E4D0E08BDF90
:1017F00087FF05C021972097D1F780E015C0CAE088
:1018000082DF8F3FD1F3C150D9F790915A03892FCE
:10181000869586959695890F80935C0374DF8F3F3C
:1018200061F31816DCF381E0DF91CF910895EF9218
:10183000FF920F931F93CF93DF9300D01F92CDB7EA
:10184000DEB77C011B82BEDF811102C080E05EC07A
:1018500010925703CE0103967BDF8823B9F38B8167
:101860008B31A1F7CE01039673DF882379F39B8137
:10187000809158039813EACFCE01029669DF88233E
:1018800029F38A81823010F7CE01019661DF882327
:10189000E9F289819A81892BC9F2CE01039658DF3A
:1018A0008823A1F28B818E3089F6CE01039650DF1A
:1018B000882361F29B81809159039813C7CFCE0191
:1018C000039646DF882311F28B818111BFCF00E0A0
:1018D00010E0C701800F911F29813A812250310900
:1018E0000217130738F434DF882309F4AFCF0F5FF2
:1018F0001F4FEFCFCE0103962BDF882309F4A6CF2D
:10190000809157038111A2CFC49A81E00F900F906C
:101910000F90DF91CF911F910F91FF90EF9008955D
:1019200081E080935903D4DE80E0A9DE81E0A7DE68
:101930008EE0A5DE81E0A3DEDCDE88E192E077DFE9
:10194000811103C095DC80E0089581E00895EF9255
:10195000FF921F93CF93DF9300D0CDB7DEB77C010A
:10196000162F8DE1809359032A834983B1DE80E0ED
:1019700086DE88E084DE8EE082DE8DE180DE84E03B
:101980007EDE84E07CDE80E07ADE812F78DE4981B5
:10199000842F75DE2A81822F72DE80E070DEA9DE60
:1019A00088E192E044DF882399F080911802811148
:1019B00011C080911902811711F081110BC0809123
:1019C0001A02811107C080911B02F701808302C0B7
:1019D00080E001C081E00F900F90DF91CF911F91C7
:1019E000FF90EF9008959CDF882389F021E040E08C
:1019F00060E381E191E0ABDF882349F022E040E041
:101A000060E380E191E0A3DF91E0811101C090E00B
:101A1000892F089580914D028F3F21F480912802F3
:101A20008F3FD1F086E08093590352DE80E027DEBD
:101A300085E025DE8EE023DE86E021DE80E01FDE0D
:101A400080E01DDE80914D021ADE8091280217DEB3
:101A500050DE88E192E0EBCE81E00895CF93C1E0C3
:101A600080914E028111C0E033DE80E008DE84E028
:101A700006DE8EE004DE8091590301DE8C2FFFDD4F
:101A800080914E02FCDD80EAFADD33DE80910E01AA
:101A900090910F01CF91CBCEFF920F931F93CF93D5
:101AA000DF931F92CDB7DEB700914E02002341F0C5
:101AB000202F30E0265F3F4F122F832FF12C04C0E0
:101AC0001AE081E0FF24F394898302DE8981D7DD67
:101AD000812FD5DD8EE0D3DD80915903D0DD8F2DB0
:101AE000CEDD802FCCDD80E0CADD80E0C8DD80E087
:101AF000C6DD80E0C4DD80E0C2DD80E0C0DD80E0E6
:101B0000BEDDE0910E01F0910F018081B8DD2091E2
:101B10000E0130910F012F5F3F4F30930F01209343
:101B20000E01015071F7E5DD88E192E00F90DF9141
:101B3000CF911F910F91FF907ACE6CDF882321F017
:101B400086E1809359038ACF80E0089563DF88237C
:101B500021F085E1809359039FCF80E00895599843
:101B600010BC89E189B986E880BD80E18AB9089511
:101B70005F9BFECF8CB10895AA1BBB1B51E107C030
:101B8000AA1FBB1FA617B70710F0A61BB70B881F0D
:101B9000991F5A95A9F780959095BC01CD0108959C
:101BA000FB01DC0105900D920020E1F70895BB27B1
:101BB000FB015527AA27880F991FAA1FA41710F009
:101BC000A41B83955051B9F7A05DAA3308F0A95D15
:101BD000A193009779F7B111B1931192CB0108C08D
:101BE000E199FECF9FBB8EBBE09A99278DB30895F4
:101BF000DC01FC01672F71917723E1F7329704C074
:101C00007C916D9370836291AE17BF07C8F30895FE
:041C1000F894FFCF76
:101C1400010D7201010D660101045C010102B500B0
:101C240000FFBF00010551010105460101053A010C
:101C34000102A80001052E01010524010105180176
:101C440001050B01010D5F00010500010104F7000E
:101C54000102ED00010554000102E3000102D90074
:101C64000001D1000001CA00007D9B0082FF8E00AC
:101C740001FE3B0001FF830001FF760001056900BE
:101C84000001480001112E0000012100000115008F
:101C940000010B000105000014014F0214335444E9
:0A1CA4004C586D385F3136002E00F9
:00000001FF
