:1000000024C23EC23DC23CC23BC23AC239C238C21F
:1000100037C2AFC935C234C233C232C231C230C2B4
:100020002FC22EC22DC2EAC2E9C2EEC270C363C3A0
:10003000F8C22CC3FCC2C9C314C3C7C3C6C326C3FA
:10004000A5C32AC32FC33FC3A7C343C348C34DC3DC
:100050004CC36EC36DC36CC377C376C379C374C31B
:1000600073C343C342C341C3A8C3202D20002E0045
:100070003D2000C3018B0183017A017101C3019A04
:10008000027702C30161015A0152014B010B0201C7
:1000900002F201E301470115020B020102FC0147D4
:1000A00001930191018F018D018901860180017DFC
:1000B00001770174016E016A016601C301C0017715
:1000C0000288029A0277029A02A7019E01B901B042
:1000D00001950177029A025202000077029A0259B2
:1000E00002520266029A028F027C0277026F024C71
:1000F00002460240023A0234022E021F021A021580
:100100000210020B02D40106029A028F0288027CBE
:100110000277021002DE010B02D901D401770288B6
:10012000029A02C301D101CD01C701C301290224F2
:10013000021F021A02150210020B0206020102FC43
:1001400001F701ED01E801496E6600372E352F31C8
:100150003500372E352F372E350031352F372E35D8
:100160000031352F30003235350031323800363429
:10017000003633003438003332003331003234007B
:100180003136003135003132003800370036003466
:1001900000330032004269646972656374004E6521
:1001A00067617469766500506F736974697665007C
:1001B0005265766572736564004E6F726D616C0096
:1001C0004F4E004F46460053455455500041524D46
:1001D00000545800312E323500312E313200302E8D
:1001E00038380031302E3000382E303000362E3086
:1001F0003000352E303000342E303000332E303089
:1002000000322E303000312E353000312E303000AB
:10021000302E373500302E353000302E3338003058
:100220002E323500302E313700302E313300302E53
:1002300031383800302E31323500302E303934002C
:10024000302E30363300302E30343700302E3033FD
:10025000310044616D7065640044616D70656420B7
:100260004C696768740056657279204C6F77004856
:100270006967686573740048696768004D656469FB
:10028000756D2048696768004D656469756D004D3E
:10029000656469756D204C6F77004C6F7700510372
:1002A00047033D03330329031F031D0313030903FE
:1002B000FF02F402E902E102D702D502D102C8022C
:1002C000C602C4025A0054005375706572535F34FD
:1002D0000053756E0052004D7973746572795F3406
:1002E000004D537461725F34004D537461725F321C
:1002F000304176004D537461725F3230415F004887
:100300004B5F554245435F3400484B5F5542454380
:100310005F330048485F554245435F320044004226
:100320006C75655365725F3700426C756553657215
:100330005F3600426C75655365725F3300426C75C1
:10034000655365725F3200426C75655365725F314B
:100350000041004C6F6F70004D554C5449005441A2
:10036000494C004D41494E0043616E63656C202647
:1003700020457869743F0004205265616420202084
:10038000200520426F7800042052656164202020FF
:1003900020052045534300457869742002202053EE
:1003A0006574757020030059657320200220202099
:1003B00020204E6F200300746F204553433F0020E0
:1003C0004F4B2000577269746520000A54617267B0
:1003D00065742077726F6E6700204572726F7200CD
:1003E0004C61796F75742000206D696E0020562F66
:1003F00063656C6C00332E00207553656300436F9A
:100400006E6E656374004D656D005265762E00005A
:10041000040E1F04040400000404041F0E04000062
:10042000040C1F0C0400000004061F06040000500A
:100430006F776572207570204553432021005570F9
:10044000646174696E672E2E2E0011241FBECFE5E5
:10045000D4E0DEBFCDBF10E0A0E6B0E0E8E0FCE114
:1004600002C005900D92AA3FB107D9F723E0AAEF89
:10047000B0E001C01D92AD35B207E1F7C8D8C2CBDC
:10048000BFCD1F93CF93DF93182FEC01CE01A2DBDA
:10049000EC2FE11BF0E0E65DFD4F8083219681119A
:1004A000F5CFDF91CF911F9108952F923F92AF9298
:1004B000BF92DF92EF920F931F93CF93DF93E101EF
:1004C00081E09981911180E0D82ED194EA8124E0D5
:1004D000E29FF0011124E05AFF4F82819381D1DF26
:1004E0008A8194E0899FF0011124E05AFF4FE08057
:1004F0001181E091EA00F091EB008F3091F492814C
:10050000923148F49091FE00992329F19091530380
:10051000992309F125C09091530391111CC012E059
:100520001FC08C3119F4109129021AC0873021F4B0
:1005300092819E30A8F013C0893039F492819031B5
:1005400060F49F3069F417E00BC08E3049F492815B
:10055000903128F405C013E003C01DE001C016E08F
:100560009281913160F0823129F48091FE008111F5
:1005700005C005C0833011F0813109F413E0AA24CD
:10058000AA94B12C8981D81609F420C1CFD78AE268
:1005900092E0DFD78A81833050F48091FE00823070
:1005A00031F460E080E0BCD783E593E0F5D7898142
:1005B00060E0843610F08DE005C08A3010F08EE0E7
:1005C00001C08FE0ADD7898190E0CED761E080E0B7
:1005D000A7D780E790E0E0D7E9811E1708F4F5C0BF
:1005E000EE1508F4F2C04A8150E04232510508F09D
:1005F000ECC04D5E5F4F4F935F930895F0E0EE0FB8
:10060000FF1FE55DFE4FDEC08091FE00F0E0EE0FC3
:10061000FF1F811103C0ED5DFE4FD4C0E55EFE4FAC
:10062000D1C0F0E0EE0FFF1FEF5EFE4FCBC0A091F8
:10063000EA00B091EB0012968C918E3010F00EEF24
:1006400001C00FEF0E0F0F3F49F085EF93E0A4D7E5
:10065000802F90E089D78DEE93E0B6C083EC91E0D7
:10066000B3C0A091EA00B091EB0012968C9180315A
:1006700010F0E15005C08F3011F4EB5F01C0E95F6D
:10068000F0E0EE0FFF1FE151FF4F9CC0F0E0EE0FD6
:10069000FF1FE95FFE4F96C0F0E0EE0FFF1FEF5126
:1006A000FF4F90C0A091EA00B091EB0012968C91A0
:1006B000F0E0EE0FFF1F8B3018F4EF52FF4F82C0B7
:1006C000E752FF4F7FC0F0E0EE0FFF1FE754FF4FF0
:1006D00079C0F0E0EE0FFF1FE553FF4F73C0F0E06D
:1006E000EE0FFF1FE953FF4F6DC0F0E0EE0FFF1F4D
:1006F000E554FF4F67C0F4E6EF9FC0011124B50138
:1007000035DACB01992730D785E212D75EC0A091A8
:10071000EA00B091EB0012968C91F0E0EE0FFF1F13
:10072000813118F0E354FF4F4DC0ED53FF4F4AC0E5
:10073000F0E0CF0186509F4F880F991F880F991FB7
:1007400013D788EF93E040C08E2F90E00DD73DC0C7
:10075000A091EA00B091EB008C9111962C9130E0C1
:100760009AE0899F200D311D1124F0E0EE0FFF1F4C
:10077000203731051CF4EB56FF4F02C0E557FF4F01
:100780008591949109D788EE93E01EC0F0E0EE0FBA
:10079000FF1FE156FF4F16C0A091EA00B091EB0099
:1007A00012968C91F0E0EE0FFF1F813118F0E558A2
:1007B000FF4F08C0EF57FF4F05C0F0E0EE0FFF1FDF
:1007C000EF58FF4F85919491E7D6D98080E21DD6EE
:1007D000882381F08FEF888385E6EFE3FCE931978A
:1007E000F1F700C00000815011F488EC30C0859B07
:1007F000F4CF31C088E009D6882331F08981E8162A
:1008000038F48150898304C088E00AD68111F6CF7C
:1008100080E1FBD5882331F08981811738F48F5F1F
:10082000898304C080E1FCD58111F6CF84E0EDD549
:10083000882309F4A7CE81E0888385E6EFE3FCE90D
:100840003197F1F700C00000815019F484E68A83E3
:1008500002C0829BF3CFDF91CF911F910F91EF9058
:10086000DF90BF90AF903F902F9008951092280294
:1008700020E720934E0290930F0180930E01109277
:100880004D02F5D4882339F052D991E0811101C08D
:1008900090E0892F089580E00895CF93DF938091B1
:1008A000E8009091E900E2DF882309F480C0E0913C
:1008B000EA00F091EB00A091E800B091E90090818E
:1008C0008C91981376C0918111968C911197981301
:1008D00070C095851D968C911D9798136AC096855A
:1008E0001E968C911E97981364C01092280280E780
:1008F00080934E028C91808312968C911297828302
:1009000080E090E0ED01C80FD91FC05CDF4F288167
:10091000EF01C80FD91FC05CDF4F288301968033D9
:10092000910581F7F0930F01E0930E0181E0809330
:100930004E02C0E0D0E0E091EA00F091EB00A0911F
:10094000E800B091E900AC0FBD1FEC0FFD1F9C91BA
:100950008081981739F0C0932802F0930F01E0933B
:100960000E01EED82196C034D10529F71092280245
:1009700080E780934E028091E8009091E900909387
:100980000F0180930E01D3D88823A9F0A091EA002B
:10099000B091EB00E091E800F091E90080E7C0E061
:1009A0002D9191912913C3E08150D1F705C0C1E089
:1009B00003C0C2E001C0C3E084EC93E0EDD5C111F7
:1009C00003C08FEB93E007C089ED93E0E5D5C2301B
:1009D00019F48BEC93E0E0D52ED58C2FDF91CF91DD
:1009E00008952F923F92FF920F931F93CF93DF931F
:1009F00000D01F92CDB7DEB71B8281E08983789447
:100A000015E00EE1F1E2FF2E8B81893081F4E09157
:100A1000EA00F091EB0081858A83CE0101961C01EA
:100A200044DDE091EA00F091EB008A8181878B81BF
:100A30008F3081F4E091EA00F091EB0082858A83A7
:100A4000CE0101961C0131DDE091EA00F091EB004E
:100A50008A8182878B81823181F4E091EA00F09172
:100A6000EB0083858A83CE0101961C011EDDE09197
:100A7000EA00F091EB008A8183878B81833181F4D6
:100A8000E091EA00F091EB0084858A83CE01019623
:100A90001C010BDDE091EA00F091EB008A81848774
:100AA0008B81843181F4E091EA00F091EB0087853D
:100AB0008A83CE0101961C01F8DCE091EA00F091F6
:100AC000EB008A8187878B818630A1F48091FE00BC
:100AD000813081F4E091EA00F091EB0080858A8317
:100AE000CE0101961C01E1DCE091EA00F091EB00FF
:100AF0008A8180878091FE00E091EA00F091EB000E
:100B0000882329F08230C1F582818031A8F18B8160
:100B100081110CC083818A83CE0101961C01C5DC42
:100B2000E091EA00F091EB008A8183838B81813030
:100B300081F4E091EA00F091EB0084818A83CE0198
:100B400001961C01B2DCE091EA00F091EB008A8191
:100B500084838B81823081F4E091EA00F091EB0094
:100B600085818A83CE0101961C019FDCE091EA0019
:100B7000F091EB008A8185838091FE00882359F1F2
:100B80008B81853081F4E091EA00F091EB00878160
:100B90008A83CE0101961C0188DCE091EA00F09185
:100BA000EB008A8187838B818831A9F4E091EA0088
:100BB000F091EB008281813170F081A18A831093E2
:100BC000EC00CE0101961C0170DCE091EA00F0918E
:100BD000EB008A8181A38B818730C9F48091FE006C
:100BE000E091EA00F091EB00882329F092819431A2
:100BF00070F4823061F486818A83CE0101961C01F3
:100C000054DCE091EA00F091EB008A818683E09168
:100C1000EA00F091EB0082818B3028F18B818C30DF
:100C200061F485898A83CE0101961C013EDCE09146
:100C3000EA00F091EB008A81858B8B818E3099F4EC
:100C4000E091EA00F091EB008281833160F48689C3
:100C50008A83CE0101961C0128DCE091EA00F09124
:100C6000EB008A81868B8B81803199F4E091EA00D8
:100C7000F091EB0082818E3060F484898A83CE010A
:100C800001961C0112DCE091EA00F091EB008A81F0
:100C9000848B8091FE0081113EC08B81853181F46F
:100CA000E091EA00F091EB0080898A83CE01019601
:100CB0001C01FBDBE091EA00F091EB008A81808B64
:100CC0008B81843091F4E091EA00F091EB0081890E
:100CD0008A831093EC00CE0101961C01E6DBE091C3
:100CE000EA00F091EB008A81818BE091EA00F091BB
:100CF000EB0082818C3078F08B81833061F48789BE
:100D00008A83CE0101961C01D0DBE091EA00F091CC
:100D1000EB008A81878BE091EA00F091EB00828101
:100D20008D3008F479C08B81863171F4818D8A838E
:100D30001093EC00CE0101961C01B7DBE091EA00B4
:100D4000F091EB008A81818F8B81873191F4E09162
:100D5000EA00F091EB00828D8A831093EC00CE01C3
:100D600001961C01A2DBE091EA00F091EB008A8180
:100D7000828F8B81893191F4E091EA00F091EB0050
:100D8000838D8A831093EC00CE0101961C018DDBCC
:100D9000E091EA00F091EB008A81838F8B818A31A8
:100DA00091F4E091EA00F091EB00848D8A83109336
:100DB000EC00CE0101961C0178DBE091EA00F09195
:100DC000EB008A81848F8B818B3181F4E091EA0082
:100DD000F091EB00858D8A83CE0101961C0165DBC5
:100DE000E091EA00F091EB008A81858F8B818D3054
:100DF00099F4E091EA00F091EB008281833160F494
:100E0000868D8A83CE0101961C014FDBE091EA00BA
:100E1000F091EB008A81868F8B81813199F4E0918A
:100E2000EA00F091EB0082818E3060F0878D8A833A
:100E3000CE0101961C0139DBE091EA00F091EB0054
:100E40008A81878F8B818C31A1F48091290288233C
:100E500081F0E091EA00F091EB0080A18A83CE015D
:100E600001961C0122DBE091EA00F091EB008A81FF
:100E700080A3E091EA00F091EB008281823130F1B1
:100E80008B818D3181F48091FE0081110CC082A193
:100E90008A83CE0101961C0108DBE091EA00F09103
:100EA000EB008A8182A38B818E3181F4E091EA008C
:100EB000F091EB0083A18A83CE0101961C01F5DA43
:100EC000E091EA00F091EB008A8183A3E091EA00CF
:100ED000F091EB0082818431C8F18B818F3161F414
:100EE00084A18A83CE0101961C01DFDAE091EA0039
:100EF000F091EB008A8184A38B81803281F4E091B0
:100F0000EA00F091EB0085A18A83CE0101961C01D5
:100F1000CCDAE091EA00F091EB008A8185A38B8125
:100F20008132A1F48091FE00882381F0E091EA00F3
:100F3000F091EB0086A18A83CE0101961C01B5DAFF
:100F4000E091EA00F091EB008A8186A30093EC0027
:100F50009B81943611F0983CE9F4E8D28B81843679
:100F600031F484EC93E018D387EB93E002C088E679
:100F700093E012D361E080E0D3D287EA93E00CD310
:100F80005AD2823091F4F89481E09B81943679F0C2
:100F900080E00DC08981890F8F3F11F08B8301C0E4
:100FA000FB828B81823208F42FCD1B822DCD0F90D6
:100FB0000F900F90DF91CF911F910F91FF903F9075
:100FC0002F9008958AE094E0E7D2E091EA00F09152
:100FD000EB00808190E0C8D28EE690E0DDD2E09117
:100FE000EA00F091EB00818190E0BED28AE690E0C9
:100FF000D3D28091FE00813039F018F0823039F080
:10100000089583E693E005C08EE593E002C088E58D
:1010100093E0C2C2CF93DF9389D2C0E0D0E0809149
:10102000EA009091EB008C0F9D1FFC01E05AFF4FEE
:1010300080817ED22196C031D10589F761E080E0C0
:101040006FD28FEF90E085D2F6D170D2BBDF61E036
:1010500080E066D280EE93E09FD28AE094E09CD25A
:10106000E091EA00F091EB00828190E07DD2DF9187
:10107000CF91E1C11F93CF93DF931092FA0056D224
:101080008091EA009091EB00F1DB882309F46FC0B6
:101090008091EA009091EB00EFEFF0E01082DC012C
:1010A000AF5BBF4F2C91233209F02083319601961C
:1010B00021E0ED30F20791F710920D0110925303E9
:1010C00010922902CEE9D2E011E0FE0165917491FF
:1010D0008AE292E05FD5AAE2B2E0EFEFF0E0819120
:1010E0009D91891719F0992319F009C0811103C046
:1010F0001093530304C081E0EE30F80781F7229685
:1011000022E0C43CD20709F791E09093FA00E09105
:10111000EA00F091EB008585853A31F486858A35C1
:10112000A1F41092FE0013C08A3531F48685853A09
:1011300061F49093FE000BC0853539F486858A3AB8
:1011400021F482E08093FE0002C01092FA008091A8
:10115000FA00811103C086E094E00BC080818450C6
:101160008B3040F01092FA008AE094E002C08EEFDB
:1011700093E012D28091FA00882311F04BDF04C073
:1011800089ED93E009D257D18091FA00DF91CF9198
:101190001F9108958091FA0081113CDFC7D18EE73D
:1011A00091E06FD98AE292E0D4D145D1BFD18DEEE2
:1011B00090E0CFD161E080E0B3D18AE094E0ECD15F
:1011C00080E498E3D1D137C1B1D18091FA0088236E
:1011D00019F087E893E002C087E793E0DDD161E092
:1011E00080E09ED187E993E0D7D125D18330E9F023
:1011F00018F4823049F708958430A9F0853021F73A
:101200008091FA00882321F0ECDB8823E9F204C006
:1012100031DF8111F9CFD8CF89D18091FA008823AD
:1012200099F23BDBD1CFB6DFCFCF24DFCDCFCF9349
:10123000DF9313D090D08DD48CE0BCD180E562D107
:10124000CFE0D4E0FE01849164D12196F4E0CF3266
:10125000DF07C1F7DF91CF91B7CF84E085BDBC98A0
:10126000C49A089510921101109210010895EF92FE
:10127000FF920F931F93CF93DF931F92CDB7DEB7EB
:10128000109211011092100151D18FE294E084D19B
:1012900061E080E045D182E1E82E82E0F82E01E2B3
:1012A00010E0A89521E0E21AF108C701B8015ED468
:1012B000892B19F488EF90E04CD18CE3A6D08111F2
:1012C00036C0549B02C05F9932C087D38091100111
:1012D0009091110187309349C9F08091100190914C
:1012E00011018A30934991F0809110019091110180
:1012F0008F30934959F0809110019091110121E0B4
:101300008B30944909F020E0922F01C091E0892FA1
:10131000E114F10479F091110CC08FEF99EFE0E046
:1013200081509040E040E1F700C00000BACF80E07B
:1013300001C081E08983FAD08981811104C01092B3
:101340001101109210010F90DF91CF911F910F9119
:10135000FF90EF90089581B3837C81BB82B38C634F
:1013600082BB85E083BF84E682BF89B7816089BF85
:1013700008951F920F920FB60F9211242F938F93FF
:101380009F9384E682BF9091560380B3809589270E
:101390009091FD00982390959093FD002091FC0082
:1013A000282329272093FC00892382239091560328
:1013B0009827909356039091550320915603282324
:1013C000292B20935503809156038C7319F486E4DE
:1013D0008093FB008091FB0081508093FB00811182
:1013E0000CC08091EC008093FB009091540380919D
:1013F00056038C73892B809354039F918F912F9167
:101400000F900FBE0F901F901895F8949091550370
:1014100089239091550398279093550378940895C4
:10142000F8949091540389239091540398279093B2
:10143000540378940895CF93CFB77894549B05C004
:101440005F9B03C0F5D080E011C080E2DEDF811138
:1014500010C080E1DADF81110EC088E0D6DF811193
:101460000CC084E0D2DF882349F382E0CFBFCF9164
:10147000089585E0FBCF84E0F9CF83E0F7CFAC9A05
:1014800000C0AC9808951F93CF93DF931F92CDB700
:10149000DEB7662311F0AA9A01C0AA98AB9897B359
:1014A0009F6097BB18B3107F982F92959F70912BD8
:1014B00098BB8983E4DF89818F70812B88BBDFDF54
:1014C0001F6018BB0F90DF91CF911F910895AA98CC
:1014D000AB9A87B3807F87BBAC9A00C086B3AC98C9
:1014E00000C0AC9A00C096B39F708295807FAC9884
:1014F000892B0895ECDF87FDFDCF88E090E0019710
:10150000F1F7E5CFCF93C82FF5DF60E08C2FCF91B7
:10151000BACFCF93C82FEEDF61E08C2FCF91B3CF3E
:10152000611102C0805801C08054ECCF81E0EACF45
:10153000CF93C82FDFDFCA3041F4803410F480E449
:1015400001C080E08058CF91DDCF61E08C2FCF913A
:101550009ACFCF93DF93EC018991882311F0E8DFD4
:10156000FBCFDF91CF910895CF93DF9300D000D0D0
:1015700000D0CDB7DEB74AE0BE016F5F7F4F11D319
:10158000CE010196E6DF26960FB6F894DEBF0FBEB9
:10159000CDBFDF91CF910895CF93DF93FC0184916C
:1015A000EF012196882319F0C3DFFE01F8CFDF9108
:1015B000CF910895CF93C82F97B39F6097BBA29AFE
:1015C000A39AA49AE0E0FAEF3197F1F7C19AC09A92
:1015D00056DFE0E0FEE43197F1F751DFE0E0F1E0C3
:1015E0003197F1F74CDFE0E0F1E03197F1F7C09887
:1015F00046DFE0E0F1E03197F1F788E283DF88E051
:1016000081DF94DF86E07EDF8C2FCF917BCF88E176
:101610000FB6F89481BD11BC0FBE09DE2BE088E146
:1016200090E00FB6F894A89581BD0FBE21BDFFCF05
:10163000CF93F89488E10FB6F89481BD11BC0FBE2A
:10164000C0E090D2811111C0CF5FC330D1F76EDFFF
:101650008EE394E0A1DF2BE088E190E00FB6F894F0
:10166000A89581BD0FBE21BDFFCF8F3249F7CF9125
:10167000089590915B03982790935B0398E0C49A38
:1016800014BC80FF0CC024B52031E8F3C49814BC0E
:1016900024B52031E8F38695915089F7089524B553
:1016A0002830E8F3C49814BC24B52830E8F3C49A71
:1016B00014BC24B52830E8F3C49814BC24B52830F1
:1016C000E8F3E9CFBC9A8FEFD4DF8FEFD2DF8FE75B
:1016D000D0DF10925B038BE1CCDF809158038F5FEA
:1016E00080935803C6CF80915B03C3DFC49A14BCB8
:1016F00084B58830E8F3BC98089514BCB49B07C047
:1017000084B58E37D8F31AC084B58E37B8F4B49B3D
:10171000FBCF84B580935A0390915C03981780F0B7
:1017200014BCB49B07C084B58E37D8F307C084B50A
:101730008E3720F4B49BFBCF80E008958FEF08959F
:1017400081E00895FC01108280E090E021E030E02B
:1017500014BCB49B08C044B54E37D8F380E008955C
:1017600044B54E37D8F7B49BFBCF54B540915C03DA
:10177000451768F014BCB49B07C044B54E37D8F386
:10178000EDCF44B54E3750F7B49BFBCF09C0608115
:10179000A901082E01C0440F0A94EAF7642B608364
:1017A000019688309105A1F6809157039081892791
:1017B0008093570381E00895CF93DF9388E180936E
:1017C0005C0380915903853139F0823129F08130F1
:1017D00031F4C1E0D0E005C0C0E6DAEE02C0C6E4F4
:1017E000D0E08BDF87FF05C021972097D1F780E0FD
:1017F00015C0CAE082DF8F3FD1F3C150D9F7909175
:101800005A03892F869586959695890F80935C0358
:1018100074DF8F3F61F31816DCF381E0DF91CF9125
:101820000895EF92FF920F931F93CF93DF9300D011
:101830001F92CDB7DEB77C011B82BEDF811102C0D3
:1018400080E05EC010925703CE0103967BDF8823B1
:10185000B9F38B818B31A1F7CE01039673DF882317
:1018600079F39B81809158039813EACFCE010296B9
:1018700069DF882329F38A81823010F7CE0101962F
:1018800061DF8823E9F289819A81892BC9F2CE012F
:10189000039658DF8823A1F28B818E3089F6CE0122
:1018A000039650DF882361F29B818091590398133E
:1018B000C7CFCE01039646DF882311F28B818111B9
:1018C000BFCF00E010E0C701800F911F29813A814E
:1018D000225031090217130738F434DF882309F442
:1018E000AFCF0F5F1F4FEFCFCE0103962BDF8823C3
:1018F00009F4A6CF809157038111A2CFC49A81E049
:101900000F900F900F90DF91CF911F910F91FF904B
:10191000EF90089581E080935903D4DE80E0A9DE42
:1019200081E0A7DE8EE0A5DE81E0A3DEDCDE88E1DB
:1019300092E077DF811103C095DC80E0089581E0BB
:101940000895EF92FF921F93CF93DF9300D0CDB70E
:10195000DEB77C01162F8DE1809359032A834983DA
:10196000B1DE80E086DE88E084DE8EE082DE8DE11E
:1019700080DE84E07EDE84E07CDE80E07ADE812F23
:1019800078DE4981842F75DE2A81822F72DE80E025
:1019900070DEA9DE88E192E044DF882399F080912F
:1019A0001802811111C080911902811711F0811163
:1019B0000BC080911A02811107C080911B02F701B0
:1019C000808302C080E001C081E00F900F90DF9122
:1019D000CF911F91FF90EF9008959CDF882389F0AD
:1019E00021E040E060E381E191E0ABDF882349F052
:1019F00022E040E060E380E191E0A3DF91E081112B
:101A000001C090E0892F089580914D028F3F21F40D
:101A1000809128028F3FD1F086E08093590352DEF7
:101A200080E027DE85E025DE8EE023DE86E021DE15
:101A300080E01FDE80E01DDE80914D021ADE809185
:101A4000280217DE50DE88E192E0EBCE81E00895B7
:101A5000CF93C1E080914E028111C0E033DE80E07F
:101A600008DE84E006DE8EE004DE8091590301DEAC
:101A70008C2FFFDD80914E02FCDD80EAFADD33DE43
:101A800080910E0190910F01CF91CBCEFF920F93D9
:101A90001F93CF93DF931F92CDB7DEB700914E0215
:101AA000002341F0202F30E0265F3F4F122F832F7D
:101AB000F12C04C01AE081E0FF24F394898302DE54
:101AC0008981D7DD812FD5DD8EE0D3DD809159036B
:101AD000D0DD8F2DCEDD802FCCDD80E0CADD80E033
:101AE000C8DD80E0C6DD80E0C4DD80E0C2DD80E0EE
:101AF000C0DD80E0BEDDE0910E01F0910F0180813C
:101B0000B8DD20910E0130910F012F5F3F4F3093D0
:101B10000F0120930E01015071F7E5DD88E192E09D
:101B20000F90DF91CF911F910F91FF907ACE6CDFD4
:101B3000882321F086E1809359038ACF80E00895BD
:101B400063DF882321F085E1809359039FCF80E0F4
:101B50000895599810BC89E189B986E880BD80E173
:101B60008AB908955F9BFECF8CB10895AA1BBB1B59
:101B700051E107C0AA1FBB1FA617B70710F0A61B8D
:101B8000B70B881F991F5A95A9F780959095BC01AE
:101B9000CD010895FB01DC0105900D920020E1F7D5
:101BA0000895BB27FB015527AA27880F991FAA1F55
:101BB000A41710F0A41B83955051B9F7A05DAA3368
:101BC00008F0A95DA193009779F7B111B193119233
:101BD000CB0108C0E199FECF9FBB8EBBE09A99274D
:101BE0008DB30895DC01FC01672F71917723E1F734
:101BF000329704C07C916D9370836291AE17BF07DA
:081C0000C8F30895F894FFCF2A
:101C0800010D7201010D660101045C010102B500BC
:101C180000FFBF00010551010105460101053A0118
:101C28000102A80001052E01010524010105180182
:101C380001050B01010D5F00010500010104F7001A
:101C48000102ED00010554000102E3000102D90080
:101C58000001D1000001CA00007D9B0082FF8E00B8
:101C680001FE3B0001FF830001FF760001056900CA
:101C78000001480001112E0000012100000115009B
:101C880000010B000105000014014F0214335444F5
:0A1C98004C586D385F3136002E0005
:00000001FF
