:100000002AC244C243C242C241C240C23FC23EC2EF
:100010003DC264CA3BC23AC239C238C237C236C2D4
:1000200035C234C233C2FFC2FEC203C3A3C396C3E8
:100030000DC346C311C307C42EC302C401C440C3C9
:10004000C8C344C349C359C3CAC35DC362C380C3E1
:100050007FC3A1C3A0C39FC3E7C3F2C3A8C3F0C3B8
:10006000EFC314C375C374C3CBC372C33D20002058
:100070002D20002E00DF019F01990191018801DFF1
:10008000019901910188017F01DF01B6029302DF2E
:10009000016F0168016001590127021D020E02FF74
:1000A000015501310227021D0218025501A1019FCD
:1000B000019D019B01970194018E018B01850182B5
:1000C000017C0178017401DF01DC019302A402B616
:1000D000029302B602C301BA01D501CC01B101A35A
:1000E000019302B6026E0200009302B60275026E20
:1000F000028202B602AB02980293028B026802628D
:10010000025C02560250024A023B02360231022CC5
:10011000022702F0012202B602AB02A40298029367
:10012000022C02FA012702F501F0019302A402B6A3
:1001300002DF01ED01E901E301DF01450240023B7D
:1001400002360231022C02270222021D021802137B
:100150000209020402496E6600372E352F31350040
:10016000372E352F372E350031352F372E350031CC
:10017000352F300032353500313238003634003614
:10018000330034380033320033310032340031363A
:10019000003135003132003800370036003400338A
:1001A0000032004269646972656374207265762E5C
:1001B000004269646972656374004E6567617469C1
:1001C000766500506F73697469766500526576656F
:1001D00072736564004E6F726D616C004F4E004F1C
:1001E00046460053455455500041524D0054580066
:1001F000312E323500312E313200302E3838003178
:10020000302E3000382E303000362E303000352E73
:10021000303000342E303000332E303000322E306B
:100220003000312E353000312E303000302E373551
:1002300000302E353000302E333800302E3235006D
:10024000302E313700302E313300302E3138380027
:10025000302E31323500302E30393400302E3036E9
:100260003300302E30343700302E303331004461CB
:100270006D7065640044616D706564204C696768E9
:10028000740056657279204C6F770048696768651D
:1002900073740048696768004D656469756D20482E
:1002A000696768004D656469756D004D65646975C1
:1002B0006D204C6F77004C6F770069035F03550327
:1002C0004B034103370335032B03210317031403A7
:1002D0000903FE02F602EC02EA02E602E402E2028E
:1002E00000005A00540053756E0052004D7973742B
:1002F0006572795F34004D537461725F34004D5301
:100300007461725F32304176004D537461725F32B6
:1003100030415F00487400484B5F554245435F34AD
:1003200000484B5F554245435F330048485F5542A4
:1003300045435F32004400426C75655365725F3718
:1003400000426C75655365725F3600426C7565538B
:1003500065725F3300426C75655365725F320042AF
:100360006C75655365725F310041004C6F6F7000B2
:100370004D554C5449005441494C004D41494E00A3
:1003800043616E63656C202620457869743F0004E4
:100390002052656164202020200520426F780004EF
:1003A00020526561642020202005204553430045EC
:1003B00078697420022020536574757020030059F9
:1003C000657320200220202020204E6F200300741F
:1003D0006F204553433F00204F4B200057726974F4
:1003E0006520000A5461726765742077726F6E67CA
:1003F00000204572726F72004C61796F7574200035
:10040000206D696E0020562F63656C6C00332E00E2
:10041000207553656300436F6E6E656374004D65B0
:100420006D005265762E0000040E1F0404040000C7
:100430000404041F0E040000040C1F0C0400000040
:1004400004061F06040000506F7765722075702047
:1004500045534320210011241FBECFE5D4E0DEBF69
:10046000CDBF11E0A0E6B0E0E8E0FDE102C00590FC
:100470000D92A830B107D9F723E0A8E0B1E001C0A0
:100480001D92AF36B207E1F770D93CCCB9CD1F93BE
:10049000CF93DF93182FEC01CE011CDCEC2FE11B76
:1004A000F0E0E65CFD4F808321968111F5CFDF916E
:1004B000CF911F9108952F923F92AF92BF92CF920A
:1004C000EF920F931F93CF93DF93E10181E0998126
:1004D000911180E0C82EC194EA8124E0E29FF001EE
:1004E0001124E05AFF4F82819381D1DF8A8134E069
:1004F000839FF0011124E05AFF4FE0801181E091C9
:10050000F200F091F3008F3091F49281923148F42F
:1005100090911C01992351F190916503992331F138
:100520002CC090916503911121C012E026C08C313E
:1005300019F41091390221C0873021F492819E3044
:10054000E0F018C0893031F49281903188F49F3006
:1005500099F013C08E3021F49281903158F40DC07F
:100560008E3159F49281913238F407C013E005C0FE
:100570001DE003C016E001C017E09281913198F0B0
:10058000823129F480911C01811106C00CC0833096
:1005900049F0813141F406C080913802882311F07E
:1005A00014E001C013E0AA24AA94B12C0AE08981C6
:1005B000C81609F449C168D88AE392E078D88A81DC
:1005C000833050F480911C01823031F460E080E08F
:1005D00055D88BE693E08ED8898160E0843610F0A0
:1005E0008DE005C08A3010F08EE001C08FE046D863
:1005F000898190E067D861E080E040D88CE690E0A7
:1006000079D8E9811E1708F41EC1EE1508F41BC144
:100610004A8150E04332510508F012C14D5E5F4FF0
:100620004F935F930895F0E0EE0FFF1FE75CFE4FDE
:10063000F7C080911C01F0E0EE0FFF1F811103C095
:10064000EF5CFE4FEDC0E75DFE4FEAC0F0E0EE0F5D
:10065000FF1FE15EFE4FE4C0A091F200B091F300F5
:1006600012968C918E3018F05EEFC52E02C0CC240D
:10067000CA94CE0E8FEFC81659F08DE094E03AD8A8
:100680008C2D90E01FD885E094E0CCC0E11147C0EC
:100690008FED91E0C7C0A091F200B091F3001296E7
:1006A0008C91803110F0E15005C08F3011F4EB5F78
:1006B00001C0E95FF0E0EE0FFF1FE350FF4FB0C055
:1006C000F0E0EE0FFF1FEB5EFE4FAAC0F0E0EE0F72
:1006D000FF1FE151FF4FA4C0A091F200B091F300C1
:1006E00012968C91F0E0EE0FFF1F8B3018F4E15260
:1006F000FF4F96C0E951FF4F93C0F0E0EE0FFF1F90
:10070000EB53FF4F8DC0F0E0EE0FFF1FE952FF4F9C
:1007100087C0F0E0EE0FFF1FED52FF4F81C0A091A8
:10072000F200B091F30012968C91813270F08E2F0E
:1007300090E00796FC010E9FC0010F9F900D1124C1
:10074000C1D786EF90E0B3D77EC08CED91E06AC050
:10075000F0E0EE0FFF1FE953FF4F62C0F4E6EF9F9A
:10076000C0011124B50182DACB019927ABD785E20C
:100770008DD769C0A091F200B091F30012968C91D0
:10078000F0E0EE0FFF1F813118F0E753FF4F48C034
:10079000E153FF4F45C0F0E0CF0186509F4F880FD7
:1007A000991F880F991F8ED780E194E03BC08091FC
:1007B0005F02F0E0EE0FFF1F803718F4EF55FF4F98
:1007C00002C0E956FF4F8591949194D780E094E060
:1007D00029C0F0E0EE0FFF1FE555FF4F21C0A091AB
:1007E000F200B091F30012968C91F0E0EE0FFF1F33
:1007F000813118F0E957FF4F13C0E357FF4F10C086
:10080000A091F200B091F30012968C91F0E0EE0FFF
:10081000FF1F853118F4E358FF4F02C0ED58FF4F1A
:100820008591949167D70FC0E13051F480915F02B8
:100830009DE6980F9D3008F42BCF833A08F028CF1F
:100840008E2F90E03FD7C98080E294D6882381F034
:100850008FEF888385E6EFE3FCE93197F1F700C07D
:100860000000815011F488EC30C0859BF4CF31C07A
:1008700088E080D6882331F08981E81638F48150E9
:10088000898304C088E081D68111F6CF80E172D6D9
:10089000882331F08981811738F48F5F898304C000
:1008A00080E173D68111F6CF84E064D6882309F401
:1008B0007ECE81E0888385E6EFE3FCE93197F1F7AE
:1008C00000C00000815019F484E68A8302C0829B34
:1008D000F3CFDF91CF911F910F91EF90CF90BF9009
:1008E000AF903F902F900895CF93DF93EC0110923B
:1008F000370280E780936002D0932E01C0932D01D0
:10090000FE0111928A95E9F710925D0269D588235C
:1009100039F09AD991E0811101C090E0892F01C08E
:1009200080E09FEF90931D01882301F19D85953A0A
:1009300031F49E859A3591F410921D010FC09A35BD
:1009400029F49E85953A51F491E006C0953531F42D
:100950009E859A3A19F492E090931D01288199811D
:10096000FAE02F9F900D112490935E02DF91CF91BA
:100970000895CF93DF938091F0009091F100B4DF60
:10098000882309F47FC090915F0280915E029813E2
:100990007BC090911C0180911D01981375C010922D
:1009A000370280E780936002E091F200F091F3005B
:1009B000A091F000B091F1008D919D91AC91808358
:1009C0009183A283A091F200B091F300E091F00036
:1009D000F091F100858596851E969C938E931D97C8
:1009E000A05CBF4FE05CFF4F80E301900D928A95C1
:1009F000E1F78091F2009091F30090932E018093A3
:100A00002D0181E080936002C0E0D0E0E091F2002F
:100A1000F091F300A091F000B091F100AC0FBD1F78
:100A2000EC0FFD1F9C918081981739F0C09337021D
:100A3000F0932E01E0932D0110D92196C034D105F9
:100A400029F71092370280E7809360028091F000CE
:100A50009091F10090932E0180932D01F5D8882379
:100A6000A9F0E091F200F091F300A091F000B091B4
:100A7000F10080E7C0E021919D912913C3E08150EE
:100A8000D1F705C0C1E003C0C2E001C0C3E08CEDF6
:100A900093E030D6C11103C087ED93E007C081EF2A
:100AA00093E028D6C23019F483EE93E023D678D5AC
:100AB0008C2FDF91CF91089582E294E01BD6E091D4
:100AC000F200F091F300808190E0FCD583E790E0A4
:100AD00011D6E091F200F091F300818190E0F2D51F
:100AE0008FE690E007D680911C01813039F018F034
:100AF000823039F008958BE793E005C086E793E0F4
:100B000002C080E793E0F6C5CF93DF93BDD5C0E088
:100B1000D0E08091F2009091F3008C0F9D1FFC01BA
:100B2000E05AFF4F8081B2D52196C031D10589F7B7
:100B300061E080E0A3D58EE191E0B9D531D5A4D5AF
:100B4000BBDF61E080E09AD588EF93E0D3D582E205
:100B500094E0D0D5E091F200F091F300828190E032
:100B6000B1D5DF91CF911CC51F93CF93DF93109226
:100B700008018AD58091F2009091F300B5DE8823B8
:100B800009F46BC08091F2009091F300EEE1F1E086
:100B90001082DC01AF5BBF4F2C91233209F0208320
:100BA0003196019621E0EC32F20791F710922C0178
:100BB0001092650310923902CAEBD2E011E0FE01F7
:100BC000659174918AE392E065D8AAE3B2E0EEE120
:100BD000F1E081919D91891719F0992319F009C0CD
:100BE000811103C01093650304C081E0ED32F80762
:100BF00081F7229622E0C23ED20709F790911D01AB
:100C000081E09F3F09F480E08093080190931C01EC
:100C100090915E0290935F02811103C08EE194E097
:100C20001EC0E091F200F091F3008081E95AFF4F7D
:100C300091E02081243209F090E0909338028430D2
:100C400038F0911103C08F3018F40AC0813140F0A0
:100C50001092080182E294E002C086E194E04AD555
:100C600080910801882311F04FDF04C081EF93E0E9
:100C700041D596D480910801DF91CF911F910895BD
:100C80002F923F92FF920F931F93CF93DF9300D049
:100C90001F92CDB7DEB71B8281E08983789415E07F
:100CA0000EE183E2F82E8B81893081F4E091F2002D
:100CB000F091F30081858A83CE0101961C01FBDB54
:100CC000E091F200F091F3008A8181878B818F306F
:100CD000A1F480913802811110C0E091F200F091EE
:100CE000F30082858A83CE0101961C01E4DBE0914A
:100CF000F200F091F3008A8182878B81823181F446
:100D0000E091F200F091F30083858A83CE01019691
:100D10001C01D1DBE091F200F091F3008A8183871E
:100D20008B818331A1F480913802811110C0E09150
:100D3000F200F091F30084858A83CE0101961C01B4
:100D4000BADBE091F200F091F3008A8184878B8115
:100D5000843181F4E091F200F091F30087858A8379
:100D6000CE0101961C01A7DBE091F200F091F300A7
:100D70008A8187878B818630A1F480911C01813024
:100D800081F4E091F200F091F30080858A83CE0136
:100D900001961C0190DBE091F200F091F3008A8152
:100DA000808780911C01E091F200F091F30088238C
:100DB00049F08230E1F582818031C8F180913802BA
:100DC000811135C08B8181110CC083818A83CE0152
:100DD00001961C0170DBE091F200F091F3008A8132
:100DE00083838B81813081F4E091F200F091F300F4
:100DF00084818A83CE0101961C015DDBE091F200C3
:100E0000F091F3008A8184838B81823081F4E091B8
:100E1000F200F091F30085818A83CE0101961C01D6
:100E20004ADBE091F200F091F3008A8185838091A2
:100E30001C01882379F18B818530A1F480913802DF
:100E4000811110C0E091F200F091F30087818A8354
:100E5000CE0101961C012FDBE091F200F091F3002E
:100E60008A8187838B818831A9F4E091F200F09127
:100E7000F3008281813170F081A18A831093F500A3
:100E8000CE0101961C0117DBE091F200F091F30016
:100E90008A8181A38B818730C9F480911C01E09104
:100EA000F200F091F300882329F09281943170F4DC
:100EB000823061F486818A83CE0101961C01FBDABF
:100EC000E091F200F091F3008A818683E091F200D4
:100ED000F091F30082818B3028F18B818C3061F4AA
:100EE00085898A83CE0101961C01E5DAE091F20042
:100EF000F091F3008A81858B8B818E3099F4E0919B
:100F0000F200F091F3008281833160F486898A8354
:100F1000CE0101961C01CFDAE091F200F091F300CE
:100F20008A81868B8B81803199F4E091F200F09177
:100F3000F30082818E3060F484898A83CE01019629
:100F40001C01B9DAE091F200F091F3008A81848B00
:100F500080911C0181113EC08B81853181F4E0912B
:100F6000F200F091F30080898A83CE0101961C0182
:100F7000A2DAE091F200F091F3008A81808B8B81FC
:100F8000843091F4E091F200F091F30081898A833A
:100F90001093F500CE0101961C018DDAE091F2006C
:100FA000F091F3008A81818BE091F200F091F300DF
:100FB00082818C3078F08B81833061F487898A83D9
:100FC000CE0101961C0177DAE091F200F091F30076
:100FD0008A81878BE091F200F091F30082818D305D
:100FE00008F479C08B81863171F4818D8A831093E6
:100FF000F500CE0101961C015EDAE091F200F0915D
:10100000F3008A81818F8B81873191F4E091F20026
:10101000F091F300828D8A831093F500CE01019642
:101020001C0149DAE091F200F091F3008A81828F8D
:101030008B81893191F4E091F200F091F300838D7E
:101040008A831093F500CE0101961C0134DAE091F9
:10105000F200F091F3008A81838F8B818A3191F4C1
:10106000E091F200F091F300848D8A831093F500F3
:10107000CE0101961C011FDAE091F200F091F3001D
:101080008A81848F8B818B3181F4E091F200F09121
:10109000F300858D8A83CE0101961C010CDAE09164
:1010A000F200F091F3008A81858F8B818D3099F465
:1010B000E091F200F091F3008281833160F4868D3B
:1010C0008A83CE0101961C01F6D9E091F200F091DD
:1010D000F3008A81868F8B81813199F4E091F2004F
:1010E000F091F30082818E3060F0878D8A83CE018B
:1010F00001961C01E0D9E091F200F091F3008A81A1
:10110000878F8B818C31A1F480913902882381F003
:10111000E091F200F091F30080A18A83CE01019664
:101120001C01C9D9E091F200F091F3008A8180A3FB
:10113000E091F200F091F3008281823130F18B81F5
:101140008D3181F480911C0181110CC082A18A83B0
:10115000CE0101961C01AFD9E091F200F091F300AD
:101160008A8182A38B818E3181F4E091F200F0912B
:10117000F30083A18A83CE0101961C019CD9E091E2
:10118000F200F091F3008A8183A3E091F200F091E4
:10119000F3008281843108F441C08B818F3161F486
:1011A00084A18A83CE0101961C0185D9E091F200C9
:1011B000F091F3008A8184A38B818032A1F4809125
:1011C0003802811110C0E091F200F091F30085A186
:1011D0008A83CE0101961C016ED9E091F200F09154
:1011E000F3008A8185A38B818132C1F480911C0137
:1011F0008823A1F080913802811110C0E091F200A3
:10120000F091F30086A18A83CE0101961C0153D987
:10121000E091F200F091F3008A8186A3E091F20060
:10122000F091F3008281853178F08B81823261F414
:1012300087A18A83CE0101961C013DD9E091F2007D
:10124000F091F3008A8187A3809138028823A9F066
:101250008B81833291F4E091F200F091F30080A54C
:101260008A831093F500CE0101961C0124D9E091E8
:10127000F200F091F3008A8180A70093F5009B8132
:10128000943611F0983CE9F4FFD18B81843631F427
:101290008CED93E02FD28FEC93E002C080E893E0D6
:1012A00029D261E080E0EAD18FEB93E023D278D1BC
:1012B000823091F4F89481E09B81943679F080E05B
:1012C0000DC08981890F8F3F11F08B8301C0FB8294
:1012D0008B81843208F4E7CC1B82E5CC0F900F9011
:1012E0000F90DF91CF911F910F91FF903F902F9022
:1012F000089580910801811107DCC6D188E991E049
:10130000C6D88AE392E0D3D14BD1BED189EF90E029
:10131000CED161E080E0B2D182E294E0EBD18CEA00
:101320009FE3D0D13DC1B0D180910801882319F04D
:101330008FE993E002C08FE893E0DCD161E080E0C8
:101340009DD18FEA93E0D6D18091F400882319F0E3
:101350001092F40020C024D18330E9F018F48230D8
:1013600011F708958430A9F08530E9F680910801DD
:10137000882321F085DC8823B1F204C0F5DB8111DC
:10138000F9CFD1CF81D180910801882361F2F1DAC0
:10139000CACFAFDFC8CFE8DBC6CFCF93DF9312D081
:1013A0008FD08CE0B5D180E55BD1C7E2D4E0FE01FF
:1013B00084915DD12196F4E0C734DF07C1F7DF9156
:1013C000CF91B1CF84E085BD1AB8909A889A909A4F
:1013D0008998919808951092300110922F010895E4
:1013E000EF92FF920F931F93CF93DF931F92CDB78E
:1013F000DEB71092300110922F0146D187E494E0BD
:1014000079D161E080E03AD18AE3E82EF12C03E063
:1014100010E0A89521E0E21AF108C701B80126D42E
:10142000892B19F485E091E042D18CE3A3D081119E
:1014300032C060D380912F01909130018730934961
:10144000C9F080912F01909130018A30934991F039
:1014500080912F01909130018F30934959F0809104
:101460002F019091300121E08B30944909F020E068
:10147000922F01C091E0892FE114F10479F09111CC
:101480000CC08FEF94E3ECE081509040E040E1F736
:1014900000C00000BECF80E001C081E0F8948983E5
:1014A000F3D08981811104C01092300110922F0174
:1014B0000F90DF91CF911F910F91FF90EF900895C2
:1014C00081B3837C81BB82B38C6382BB85E083BFA5
:1014D00084E682BF89B7816089BF08951F920F9209
:1014E0000FB60F9211242F938F939F9384E682BFA0
:1014F0009091680380B38095892790910B01982380
:10150000909590930B0120910A012823292720937D
:101510000A01892382239091680398279093680396
:1015200090916703209168032823292B2093670358
:10153000809168038C7319F486E48093090180918B
:10154000090181508093090181110CC08091F5003F
:101550008093090190916603809168038C73892BB5
:10156000809366039F918F912F910F900FBE0F90E4
:101570001F901895F89490916703892390916703C1
:1015800098279093670378940895F8949091660350
:101590008923909166039827909366037894089521
:1015A000CF93CFB7789480E2E5DF81110EC080E160
:1015B000E1DF81110CC088E0DDDF81110AC084E029
:1015C000D9DF882381F382E005C085E003C084E091
:1015D00001C083E0CFBFCF910895AC9A00C0AC9812
:1015E00008951F93CF93DF931F92CDB7DEB7662385
:1015F00011F0AA9A01C0AA98AB9897B39F6097BBC5
:1016000018B3107F982F92959F70912B98BB898368
:10161000E4DF89818F70812B88BBDFDF1F6018BBFF
:101620000F90DF91CF911F910895AA98AB9A87B33D
:10163000807F87BBAC9A00C086B3AC9800C0AC9AE0
:1016400000C096B39F708295807FAC98892B0895D7
:10165000ECDF87FDFDCF88E090E00197F1F7E5CF63
:10166000CF93C82FF5DF60E08C2FCF91BACFCF9307
:10167000C82FEEDF61E08C2FCF91B3CF611102C094
:10168000805801C08054ECCF81E0EACFCF93C82FBF
:10169000DFDFCA3041F4803410F480E401C080E020
:1016A0008058CF91DDCF61E08C2FCF919ACFCF932F
:1016B000DF93EC018991882311F0E8DFFBCFDF9104
:1016C000CF910895CF93DF9300D000D000D0CDB755
:1016D000DEB74AE0BE016F5F7F4FE3D2CE010196D5
:1016E000E6DF26960FB6F894DEBF0FBECDBFDF91C2
:1016F000CF910895CF93DF93FC018491EF01219660
:10170000882319F0C3DFFE01F8CFDF91CF91089550
:10171000CF93C82F97B39F6097BBA29AA39AA49A1E
:10172000E0E0FAEF3197F1F7C19AC09A56DFE0E0B6
:10173000FEE43197F1F751DFE0E0F1E03197F1F7A6
:101740004CDFE0E0F1E03197F1F7C09846DFE0E0F0
:10175000F1E03197F1F788E283DF88E081DF94DF01
:1017600086E07EDF8C2FCF917BCF88E10FB6F89497
:1017700081BD11BC0FBE11DE2BE088E190E00FB6F9
:10178000F894A89581BD0FBE21BDFFCF90916D0348
:10179000982790936D0398E0909A14BC80FF0CC03A
:1017A00024B52031E8F3909814BC24B52031E8F337
:1017B0008695915089F7089524B52830E8F39098DC
:1017C00014BC24B52830E8F3909A14BC24B5283012
:1017D000E8F3909814BC24B52830E8F3E9CF889A50
:1017E0008FEFD4DF8FEFD2DF8FE7D0DF10926D0362
:1017F0008BE1CCDF80916A038F5F80936A03C6CF51
:1018000080916D03C3DF909A14BC84B58830E8F3EF
:101810008898089514BC809B07C084B58E37D8F390
:101820001AC084B58E37B8F4809BFBCF84B5809303
:101830006C0390916E03981780F014BC809B07C0D6
:1018400084B58E37D8F307C084B58E3720F4809BDB
:10185000FBCF80E008958FEF089581E00895FC01AB
:10186000108280E090E021E030E014BC809B08C052
:1018700044B54E37D8F380E0089544B54E37D8F7D5
:10188000809BFBCF54B540916E03451768F014BCA4
:10189000809B07C044B54E37D8F3EDCF44B54E37E3
:1018A00050F7809BFBCF09C06081A901082E01C0C1
:1018B000440F0A94EAF7642B6083019688309105FF
:1018C000A1F680916903908189278093690381E063
:1018D0000895CF93DF9388E180936E0380916B032B
:1018E000853139F0823129F0813031F4C1E0D0E026
:1018F00005C0C0E6DAEE02C0C6E4D0E08BDF87FFA9
:1019000005C021972097D1F780E015C0CAE082DF9B
:101910008F3FD1F3C150D9F790916C03892F8695F1
:1019200086959695890F80936E0374DF8F3F61F3E0
:101930001816DCF381E0DF91CF910895EF92FF92CA
:101940000F931F93CF93DF9300D01F92CDB7DEB7D5
:101950007C011B82BEDF811102C080E05EC010925C
:101960006903CE0103967BDF8823B9F38B818B312A
:10197000A1F7CE01039673DF882379F39B818091D1
:101980006A039813EACFCE01029669DF882329F310
:101990008A81823010F7CE01019661DF8823E9F257
:1019A00089819A81892BC9F2CE01039658DF882359
:1019B000A1F28B818E3089F6CE01039650DF882309
:1019C00061F29B8180916B039813C7CFCE01039680
:1019D00046DF882311F28B818111BFCF00E010E038
:1019E000C701800F911F29813A81225031090217C6
:1019F000130738F434DF882309F4AFCF0F5F1F4F8C
:101A0000EFCFCE0103962BDF882309F4A6CF809178
:101A100069038111A2CF909A81E00F900F900F90EF
:101A2000DF91CF911F910F91FF90EF90089581E08A
:101A300080936B03D4DE80E0A9DE81E0A7DE8EE038
:101A4000A5DE81E0A3DEDCDE8CE091E077DF8111B2
:101A500003C0C1DC80E0089581E00895EF92FF9219
:101A60001F93CF93DF9300D0CDB7DEB77C01162F45
:101A70008DE180936B032A834983B1DE80E086DEAB
:101A800088E084DE8EE082DE8DE180DE84E07EDE32
:101A900084E07CDE80E07ADE812F78DE4981842F4D
:101AA00075DE2A81822F72DE80E070DEA9DE8CE096
:101AB00091E044DF882399F080910C01811111C0DD
:101AC00080910D01811711F081110BC080910E01E1
:101AD000811107C080910F01F701808302C080E06F
:101AE00001C081E00F900F90DF91CF911F91FF9087
:101AF000EF9008959CDF882389F021E040E060E3C7
:101B000080E391E0ABDF882349F022E040E060E32E
:101B10008FE291E0A3DF91E0811101C090E0892F75
:101B2000089580915D028F3F21F4809137028F3FAD
:101B3000D1F086E080936B0352DE80E027DE85E003
:101B400025DE8EE023DE86E021DE80E01FDE80E001
:101B50001DDE80915D021ADE8091370217DE50DEB5
:101B60008CE091E0EBCE81E00895CF93C1E08091CD
:101B700060028111C0E033DE80E008DE84E006DE32
:101B80008EE004DE80916B0301DE8C2FFFDD8091FF
:101B90006002FCDD80EAFADD33DE80912D01909158
:101BA0002E01CF91CBCEFF920F931F93CF93DF9354
:101BB0001F92CDB7DEB700916002002341F0202FC5
:101BC00030E0265F3F4F122F832FF12C04C01AE024
:101BD00081E0FF24F394898302DE8981D7DD812FA0
:101BE000D5DD8EE0D3DD80916B03D0DD8F2DCEDD92
:101BF000802FCCDD80E0CADD80E0C8DD80E0C6DD7E
:101C000080E0C4DD80E0C2DD80E0C0DD80E0BEDDDC
:101C1000E0912D01F0912E018081B8DD20912D0100
:101C200030912E012F5F3F4F30932E0120932D01D5
:101C3000015071F7E5DD8CE091E00F90DF91CF91DD
:101C40001F910F91FF907ACE6CDF882321F086E1FF
:101C500080936B038ACF80E0089563DF882321F0AF
:101C600085E180936B039FCF80E00895AA1BBB1B87
:101C700051E107C0AA1FBB1FA617B70710F0A61B8C
:101C8000B70B881F991F5A95A9F780959095BC01AD
:101C9000CD010895FB01DC0105900D920020E1F7D4
:101CA0000895BB27FB015527AA27880F991FAA1F54
:101CB000A41710F0A41B83955051B9F7A05DAA3367
:101CC00008F0A95DA193009779F7B111B193119232
:101CD000CB0108C0E199FECF9FBB8EBBE09A99274C
:101CE0008DB30895DC01FC01672F71917723E1F733
:101CF000329704C07C916D9370836291AE17BF07D9
:081D0000C8F30895F894FFCF29
:101D0800010D8C01010D8001010476010102CF0053
:101D180000FFD90001056B010105600101055401AF
:101D28000102C2000105480101053E010105320119
:101D380001052501010D790001051A0101041101B0
:101D48000102070101056E000102FD000102F30016
:101D58000001EB000001E400007DB50082FFA8004F
:101D680001FE550001FF9D0001FF90000105830061
:101D7800000162000111480000013B0000012F0032
:101D88000001250001051A0000010C0000FF0000F9
:101D9800330161020114204300337354444C586DDD
:081DA800385F3136002E000007
:00000001FF
