:100000000C9429030C9446030C9446030C94460369
:100010000C9446030C9446030C9446030C9446033C
:100020000C9446030C9446030C9446030C9446032C
:100030000C9446030C9446030C9446030C9446031C
:100040000C941B150C9446030C9446030C94460325
:100050000C9446030C9446030C9446030C944603FC
:100060000C9446030C9446030C070C071307BA07BD
:10007000AB0721076F072807CC0743075907640719
:100080006F070A0876077D078F07110896079D07F7
:10009000A407A407D707D707D707E507E507EA07A7
:1000A000E507E507A407A407A407230812182918E1
:1000B0002C1831183718651862197F18A518B5184B
:1000C000D01804197618E5184D195818202D20005D
:1000D0002E003D20004C020502FD01F401EB014C15
:1000E000023C0319034C02DB01D401CC01C501AD74
:1000F00002A30294028502C101B702AD02A3029ECF
:1001000002C1011F0218020D020B020902070203BD
:10011000020002FA01F701F101EE01E801E401E059
:10012000014C02490219032A033C0319033C033022
:10013000022702420239020F0219033C03F40200B3
:100140000019033C03FB02F40208033C0331031EC5
:10015000031903110367026202AD02A8025D027176
:10016000026C02AD027602A802EE02E802E202DCB4
:1001700002D602D002C102BC02B702B202AD0276C0
:1001800002A8023C0331032A031E031903B20280B2
:1001900002AD027B02760219032A033C034C025A89
:1001A00002560250024C02CB02C602C102BC02B788
:1001B00002B202AD02A802A3029E0299028F028A35
:1001C00002496E6600372E352F313500372E352F18
:1001D000372E350031352F372E350031352F300091
:1001E0003235350031323800363400363300343899
:1001F0000033320033310032340031360031350003
:10020000313200380037003600340033003200420B
:10021000696469726563740044697265637400534C
:10022000746570706564004E656761746976650019
:10023000506F73697469766500526576657273658F
:1002400064004E6F726D616C004F4E004F46460069
:1002500053455455500041524D00545800322E33EE
:100260003000302E373000302E343000302E383011
:1002700000302E363700312E323500312E3132002B
:10028000302E38380031302E3000382E30300036E5
:100290002E303000352E303000342E303000332EEA
:1002A000303000322E303000312E353000312E30DB
:1002B0003000302E373500302E353000302E3338B8
:1002C00000302E323500302E313700302E313300E1
:1002D000302E31383800302E31323500302E303962
:1002E0003400302E30363300302E30343700302E8C
:1002F0003033310044616D7065640044616D706538
:1003000064204C696768740056657279204C6F7779
:1003100000486967686573740048696768004D65DF
:100320006469756D2048696768004D656469756D1D
:10033000004D656469756D204C6F77004C6F7700D8
:10034000EB03E803E403DE03D503D303D003C503C3
:10035000C003BD03BA03B703B503B303A903A603E0
:10036000A3039E039B039003890380037703740315
:1003700072035A005852005475726E6967794E00C4
:100380005475726E69677934005467794B4634004E
:100390005475726E69677941453400544200536B5D
:1003A000797700526F00506C00506C6174696E7503
:1003B0006D35004F004D00484B00475F004656002A
:1003C00046435F520046435F46616972795F33007E
:1003D0004638004500416C69676E424C3300585006
:1003E00037414600585033005375004400A004962E
:1003F000048C04820478046E046C04620458044E75
:10040000044304380430042604240420041704158B
:100410000413045A0054005375706572535F34001E
:1004200053756E0052004D7973746572795F3400B4
:100430004D537461725F34004D537461725F32309A
:100440004176004D537461725F3230415F00484B1A
:100450005F554245435F3400484B5F554245435F1B
:10046000330048485F554245435F32004400426CC8
:1004700075655365725F3700426C75655365725FD1
:100480003600426C75655365725F3300426C75656A
:100490005365725F3200426C75655365725F31005F
:1004A00041005265736574696E6720616C6C202E23
:1004B0002E2E004C6F6F70004D554C544900544126
:1004C000494C004D41494E0043616E63656C2026E6
:1004D00020457869743F0073696E676C6520006D14
:1004E000756C746920004D6F64650045534323208B
:1004F0000023000420456469742020202020204F20
:100500004B2005007369424C4220022020032061E9
:1005100074534B0004206174424C422020207369C4
:1005200043322005004578697420200220200320F2
:1005300020204E657874004D756C7469200220206F
:10054000032053696E676C65000420526561642066
:1005500020202020426F782005000420526561642D
:100560002020202020455343200500457869742031
:100570002002202003205365747570005965732094
:10058000202002202003202020204E6F00746F20A6
:100590004553433F00204F4B20005772697465203C
:1005A000000A5461726765742077726F6E6700206D
:1005B0004572726F72004C61796F75742000206D06
:1005C000696E0020562F63656C6C00332E00207519
:1005D00053656300436F6E6E656374004D656D0017
:1005E0005265762E0000040E1F040404000004046B
:1005F000041F0E040000040C1F0C0400000004067D
:100600001F0604000041746D20534B204D6F64653C
:100610000053696C20424C42204D6F646500417468
:100620006D20424C42204D6F64650053696C20433D
:1006300032204D6F6465002020504320496E746560
:100640007266616365005570646174696E672E2E11
:100650002E0011241FBECFEFD8E0DEBFCDBF11E0CA
:10066000A0E0B1E0E2EFFBE302C005900D92AC3CEC
:10067000B107D9F724E0ACECB1E001C01D92A13480
:10068000B207E1F70E948E160C94F71D0C9400003F
:1006900081E08093F502E091D101F091D20180ECEC
:1006A00092E120814091D00130E002C0359527953C
:1006B0004A95E2F720FD03C01092B20004C00197F2
:1006C000009779F746C08091B2008730E0F3E0915F
:1006D000D101F091D20180812091D00190E002C03F
:1006E000959587952A95E2F780FD33C020E030E0AC
:1006F00080E097E061E070E0935F4091B2004917BD
:10070000E0F34081A091D00150E002C0559547959B
:10071000AA95E2F740FF07C0AB01022E01C0440FCB
:100720000A94EAF7842B2F5F3F4F9F3629F7909169
:10073000B2009B37E0F320819091D00130E002C0FD
:10074000359527959A95E2F720FF03C01092F502A0
:10075000089580E00895E091D801F091D901908149
:100760004091D00121E030E0042E01C0220F0A9414
:10077000EAF72095292320831092B2009091B200CD
:100780009D30E0F39DE021E030E0E091D801F09170
:10079000D90160814091D001D90102C0AA0FBB1FCD
:1007A0004A95E2F7AD0180FF03C06A2B608303C066
:1007B000409546234083935F86954091B200491748
:1007C000E0F3953711F7E091D801F091D90120813C
:1007D0003091D00181E090E0032E01C0880F0A948F
:1007E000EAF7282B20838091B2008238E0F3089545
:1007F0004091D3018091FC029091FD0258E09C0150
:1008000024279695879520FF04C021E0822720EABF
:1008100092274695515099F74093D3019093FD024A
:100820008093FC0208951F93CF93DF93162F1092AD
:10083000FD021092FC021092D5011092D401C82F33
:10084000D92F180F0E9448038093D3019091F5028D
:10085000911125C089930E94F8031C13F3CF809156
:10086000DC01882311F10E9448038093D401809118
:10087000F502811114C00E9448038093D501809134
:10088000F50281110CC02091FC023091FD02809193
:10089000D4019091D5012817390751F406C08FEF84
:1008A00091E0803349F090E007C00E944803F8CF00
:1008B0000E94480382ECF4CF892FDF91CF911F91E2
:1008C00008950F931F93CF93DF931F92CDB7DEB799
:1008D000E091D601F091D70140815091D00121E003
:1008E00030E001C0220F5A95EAF7422B4083E7EC33
:1008F000F0E03197F1F700C000001092FD02109275
:10090000FC028C01680FF80181918F018093D30163
:1009100069830E94AB030E94F80369816013F3CFDF
:100920008091DC01882341F08091FC020E94AB039E
:100930008091FD020E94AB03E091D601F091D701B6
:1009400020813091D00181E090E0032E01C0880F1A
:100950000A94EAF78095822380830F90DF91CF91EC
:100960001F910F910895CF93DF93CDB7DEB76D97A9
:100970000FB6F894DEBF0FBECDBF84E397E3A1E3CB
:100980008B8F9C8FAD8F81E1EDE8F1E0DE01119658
:1009900001900D928A95E1F761E1CE0101960E94E6
:1009A000610468E0CE0142960E9413048823C1F0DE
:1009B000FE017296DE015B96CE01459631912D9136
:1009C00032130EC0E817F907C9F78D898093DE014D
:1009D0008E898093DD018F898093DC0181E001C0E5
:1009E00080E06D960FB6F894DEBF0FBECDBFDF91ED
:1009F000CF910895CF93C82F0E944803C150909182
:100A0000F502992319F0C111F7CF8FEFCF91089517
:100A1000CF93DF9300D0CDB7DEB78DEF89831A82F5
:100A200062E0CE0101960E94610481E00E94FA0416
:100A3000813C21F00E946E1380E001C081E00F90A4
:100A40000F90DF91CF910895CF93DF9300D0CDB772
:100A5000DEB719821A8281E08093DC0162E0CE0168
:100A600001960E9461040E946E130F900F90DF9117
:100A7000CF910895CF93DF9300D000D0CDB7DEB7EC
:100A80009091FA028091F6029F3F11F48F3F91F00E
:100A90002FEF29831A829B838C8364E0CE01019619
:100AA0000E94610482E00E94FA0491E0803319F010
:100AB00090E001C091E0892F0F900F900F900F9060
:100AC000DF91CF910895CF93DF9300D000D0CDB7C1
:100AD000DEB78EEF89831A821B828091FB028C83A2
:100AE000811102C081E08B8364E0CE0101960E94F7
:100AF000610482E00E94FA048F3F71F46091FB026E
:100B00008091DA019091DB010E94610488E20E94E9
:100B1000FA0491E0803309F090E0892F0F900F9054
:100B20000F900F90DF91CF910895CF93DF9300D076
:100B3000CDB7DEB70E943A058823D9F08091FB0239
:100B40008A838091F902813021F0823021F487E09C
:100B500001C083E0898362E0CE0101960E946104B6
:100B60006091FB028091DA019091DB010E941304F5
:100B700001C080E00F900F90DF91CF910895CF9347
:100B8000DF9300D0CDB7DEB70E943A05882399F0F5
:100B900084E089838091FB028A8362E0CE01019622
:100BA0000E9461046091FB028091DA019091DB0167
:100BB0000E94130401C080E00F900F90DF91CF914D
:100BC0000895CF93DF9300D0CDB7DEB70E943A05EA
:100BD000882399F00E946305882379F085E0898352
:100BE00081E08A8362E0CE0101960E9461048FEF6A
:100BF0000E94FA0491E0803309F090E0892F0F9071
:100C00000F90DF91CF910895CF93DF9300D0CDB7B0
:100C1000DEB70E943A05882379F082E0898381E07B
:100C20008A8362E0CE0101960E94610484E00E9402
:100C3000FA0491E0803309F090E0892F0F900F9033
:100C4000DF91CF910895CF93DF9300D0CDB7DEB77A
:100C50000E943A05882391F00E946305882371F071
:100C600081E089838A8362E0CE0101960E9461045B
:100C700084E00E94FA0491E0803309F090E0892F2B
:100C80000F900F90DF91CF9108951F93CF93DF9333
:100C9000182FEC01CE010E94CD1DEC2FE11BF0E0DE
:100CA000EB5EFB4F808321968111F4CFDF91CF91D2
:100CB0001F9108952F923F92AF92BF92DF92EF92D1
:100CC0000F931F93CF93DF93E10181E099819111FD
:100CD00080E0D82ED194EA8124E0E29FF001112433
:100CE000E050FF4F828193810E9445068A8194E003
:100CF000899FF0011124E050FF4FE0801181E091C5
:100D00008A01F0918B018F3091F49281923148F4F5
:100D100090910304992329F190913604992309F1C4
:100D200025C09091360491111CC012E01FC08C3177
:100D300019F4109114041AC0873021F492819E3066
:100D4000A8F013C0893039F49281903160F49F305B
:100D500069F417E00BC08E3049F49281903128F489
:100D600005C013E003C01DE001C016E0928191317F
:100D700060F0823129F480910304811105C005C01F
:100D8000833011F0813109F413E0AA24AA94B12C24
:100D90008981D81609F462C10E940C1685E194E09D
:100DA0000E9423168A81833060F48091030482308C
:100DB00041F460E080E00E94051683EB94E00E941D
:100DC0004916898160E0843610F08DE005C08A30D4
:100DD00010F08EE001C08FE00E940516898190E03E
:100DE0000E942F1661E080E00E94051682ED90E0DF
:100DF0000E9449160981101708F42FC10E1508F436
:100E00002CC14A8150E04232510508F026C14C5CA9
:100E10005F4FFA010C94A61DE02FF0E0EE0FFF1FCC
:100E2000EB55FE4F16C180910304E02FF0E0EE0F6A
:100E3000FF1F811103C0E356FE4F0BC1EB56FE4F5F
:100E400008C1E02FF0E0EE0FFF1FE557FE4F01C194
:100E5000A0918A01B0918B0112968C918E3010F086
:100E6000025001C001500F3F59F08BEC95E00E94F9
:100E70004916802F90E00E942F1683EC95E0EBC07E
:100E80008CE492E0E8C0A0918A01B0918B011296A7
:100E90008C91803110F0EFEF05C08F3011F4E5E058
:100EA00001C0E7E0E00FF0E0EE0FFF1FE759FE4F53
:100EB000D0C08091F9028111D0C0E02FF0E0EE0F98
:100EC000FF1FE35AFE4FC5C08091F9028111C5C0D2
:100ED000E02FF0E0EE0FFF1FED5AFE4FBAC0E02FFB
:100EE000F0E0EE0FFF1FEF57FE4FB3C0E02FF0E032
:100EF000EE0FFF1FE95BFE4FACC0A0918A01B091DD
:100F00008B0112968C91E02FF0E0EE0FFF1F8B30DB
:100F100018F4E95CFE4F9DC0E15CFE4F9AC0E02FE3
:100F2000F0E0EE0FFF1FE15EFE4F93C0E02FF0E018
:100F3000EE0FFF1FEF5CFE4F8CC0E02FF0E0EE0FD6
:100F4000FF1FE35DFE4F85C0E02FF0E0EE0FFF1FB7
:100F5000EF5DFE4F7EC0F4E60F9FC0011124B50186
:100F60000E94921DCB0199270E942F1685E20E94B4
:100F70000F1673C0A0918A01B0918B0112968C91CB
:100F8000E02FF0E0EE0FFF1F813118F0ED5DFE4F16
:100F900060C0E75DFE4F5DC08091F90281115DC0C8
:100FA000E02FF0E0EE0FFF1FEF5FFE4F52C0E02F8B
:100FB000F0E0CF0186509F4F880F991F880F991F2F
:100FC0000E942F168EEC95E046C0802F90E00E9484
:100FD0002F1643C0A0918A01B0918B018C9111967C
:100FE0002C9130E09AE0899F200D311D1124E02FD3
:100FF000F0E0EE0FFF1F203731051CF4E950FF4FE2
:1010000002C0E351FF4F859194910E9449168EEBE7
:1010100095E021C0E02FF0E0EE0FFF1FEB5FFE4FE9
:1010200018C0A0918A01B0918B0112968C91E02F8B
:10103000F0E0EE0FFF1F813118F0E352FF4F09C0BF
:10104000ED51FF4F06C0E02FF0E0EE0FFF1FED5215
:10105000FF4F859194910E944916D98080E10E94AA
:101060006715882381F08FEF888385E6EFE3FCE93D
:101070003197F1F700C00000815011F488EC35C0C1
:101080004C9BF4CF36C088E00E946715882331F06E
:101090008981E81640F48150898305C088E00E9468
:1010A00072158111F5CF80E20E946715882331F017
:1010B0008981811740F48F5F898305C080E20E9497
:1010C00072158111F5CF84E00E946715882309F419
:1010D0005FCE81E0888385E6EFE3FCE93197F1F7A5
:1010E00000C00000815019F484E68A8302C04A9B44
:1010F000F3CFDF91CF911F910F91EF90DF90BF90D1
:10110000AF903F902F9008951092F60220E7209321
:10111000FB029093DB018093DA010E947313882312
:10112000D9F08091F902813071F040F0823081F085
:10113000833091F41092FA020C944D1D8AE1809351
:10114000FA020C94F8128AE18093FA020C94950545
:101150001092FA020C94BF0580E00895CF93DF93BC
:1011600080918801909189010E948408882309F464
:10117000C9C0E0918A01F0918B01A0918801B091E2
:10118000890190818C919813BFC0918111968C91A7
:1011900011979813B9C095851D968C911D9798133A
:1011A000B3C096851E968C911E979813ADC0109271
:1011B000F60280E78093FB028C91808312968C91DB
:1011C0001297828380E090E0ED01C80FD91FC05CC8
:1011D000DF4F2881EF01C80FD91FC05CDF4F288384
:1011E00001968033910581F7F093DB01E093DA01FA
:1011F0008091F9028130F9F048F0843008F0AAC0FB
:1012000081E08093FB02C0E0D0E03DC00E9441132A
:10121000882309F49FC00E942013882309F49AC0F0
:1012200080918801909189019093DB018093DA018C
:101230000E94F81251C00E940406882309F48AC053
:1012400080E78093FB020E942306882309F482C072
:1012500080918801909189019093DB018093DA015C
:101260000E94950539C0C093F602F093DB01E0932C
:10127000DA018091F9028330B9F40E94631D21964E
:10128000C034D105B1F0E0918A01F0918B01A091B9
:101290008801B0918901AC0FBD1FEC0FFD1F9C911F
:1012A00080819813E0CFEBCF823049F70E94E105AF
:1012B000E6CF1092F60280E78093FB0280918801CE
:1012C000909189019093DB018093DA018091F9027A
:1012D000833029F40E944D1D81113EC03BC08230F5
:1012E000C9F58FE39CE90197F1F700C000000E9467
:1012F000BF05882379F18FE39CE90197F1F700C0DE
:1013000000002AC0C1E001C0C2E080911304811135
:1013100034C08AE995E00E94491681EF94E00E946A
:1013200049162091F402822F90E001960E942F1618
:10133000C11103C085E995E008C08FEA95E00E94DD
:101340004916C23021F481EA95E00E9449160E94B4
:101350007D1513C0C3E0D9CFA0918A01B0918B0154
:10136000E0918801F091890180E4C0E02D91919194
:101370002913C3E08150D1F7C8CF8C2FDF91CF91D3
:1013800008952F923F92EF92FF920F931F93CF9366
:10139000DF9300D01F92CDB7DEB71B8281E0898337
:1013A000789405E08EE1F82E91E2E92EE0918A0131
:1013B000F0918B01DF01A95ABF4F11E08C9184326B
:1013C00009F010E08B81893069F481858A83CE0130
:1013D00001961C010E945A06E0918A01F0918B014E
:1013E0008A8181878B818F3099F4111111C0E0912E
:1013F0008A01F0918B0182858A83CE0101961C01BE
:101400000E945A06E0918A01F0918B018A818287BD
:101410008B81823189F4E0918A01F0918B0183857F
:101420008A83CE0101961C010E945A06E0918A012E
:10143000F0918B018A8183878B81833199F411111B
:1014400011C0E0918A01F0918B0184858A83CE01DD
:1014500001961C010E945A06E0918A01F0918B01CD
:101460008A8184878B81843189F4E0918A01F091AB
:101470008B0187858A83CE0101961C010E945A0642
:10148000E0918A01F0918B018A8187878B81863078
:10149000A9F480910304813089F4E0918A01F091EC
:1014A0008B0180858A83CE0101961C010E945A0619
:1014B000E0918A01F0918B018A81808780910304F9
:1014C000E0918A01F0918B01882339F08230E9F5AF
:1014D00082818031D0F1111138C08B8181110DC012
:1014E00083818A83CE0101961C010E945A06E091F5
:1014F0008A01F0918B018A8183838B81813089F409
:10150000E0918A01F0918B0184818A83CE0101965A
:101510001C010E945A06E0918A01F0918B018A8198
:1015200084838B81823089F4E0918A01F0918B0170
:1015300085818A83CE0101961C010E945A06E091A2
:101540008A01F0918B018A8185838091030488232D
:1015500079F18B81853099F4111111C0E0918A01E4
:10156000F0918B0187818A83CE0101961C010E9434
:101570005A06E0918A01F0918B018A8187838B81E1
:101580008831B1F4E0918A01F0918B01828181313F
:1015900078F081A18A8300938C01CE0101961C0111
:1015A0000E945A06E0918A01F0918B018A8181A301
:1015B0008B818730D1F480910304E0918A01F0910E
:1015C0008B01882329F09281943178F4823069F478
:1015D00086818A83CE0101961C010E945A06E09101
:1015E0008A01F0918B018A8186838091F9028111B1
:1015F00042C0E0918A01F0918B0182818331D8F55C
:101600008B818A3069F482898A83CE0101961C011C
:101610000E945A06E0918A01F0918B018A81828BA7
:101620008B818B3089F4E0918A01F0918B01838961
:101630008A83CE0101961C010E945A06E0918A011C
:10164000F0918B018A81838BE0918A01F0918B016B
:1016500082818D3080F08B81883069F4808D8A831F
:10166000CE0101961C010E945A06E0918A01F09178
:101670008B018A81808FE0918A01F0918B018281B8
:101680008B3038F18B818C3069F485898A83CE0167
:1016900001961C010E945A06E0918A01F0918B018B
:1016A0008A81858B8B818E30A1F4E0918A01F09143
:1016B0008B018281833168F486898A83CE01019609
:1016C0001C010E945A06E0918A01F0918B018A81E7
:1016D000868B8B818031A1F4E0918A01F0918B019E
:1016E00082818E3068F484898A83CE0101961C0140
:1016F0000E945A06E0918A01F0918B018A81848BC5
:1017000080910304811141C08B81853189F4E0917E
:101710008A01F0918B0180898A83CE0101961C0198
:101720000E945A06E0918A01F0918B018A81808B98
:101730008B81843099F4E0918A01F0918B01818949
:101740008A8300938C01CE0101961C010E945A06E7
:10175000E0918A01F0918B018A81818BE0918A016D
:10176000F0918B0182818C3080F08B81833069F421
:1017700087898A83CE0101961C010E945A06E09156
:101780008A01F0918B018A81878BE0918A01F09127
:101790008B0182818D3008F47FC08B81863179F492
:1017A000818D8A8300938C01CE0101961C010E94D9
:1017B0005A06E0918A01F0918B018A81818F8B8199
:1017C000873199F4E0918A01F0918B01828D8A83AF
:1017D00000938C01CE0101961C010E945A06E091F3
:1017E0008A01F0918B018A81828F8B81893199F4F2
:1017F000E0918A01F0918B01838D8A8300938C01A3
:10180000CE0101961C010E945A06E0918A01F091D6
:101810008B018A81838F8B818A3199F4E0918A01CF
:10182000F0918B01848D8A8300938C01CE01019607
:101830001C010E945A06E0918A01F0918B018A8175
:10184000848F8B818B3189F4E0918A01F0918B0137
:10185000858D8A83CE0101961C010E945A06E09173
:101860008A01F0918B018A81858F8B818D30A1F463
:10187000E0918A01F0918B018281833168F4868D39
:101880008A83CE0101961C010E945A06E0918A01CA
:10189000F0918B018A81868F8B818131A1F4E09157
:1018A0008A01F0918B0182818E3068F0878D8A8366
:1018B000CE0101961C010E945A06E0918A01F09126
:1018C0008B018A81878F8B818C31A9F480911404DC
:1018D000882389F0E0918A01F0918B0180A18A83AD
:1018E000CE0101961C010E945A06E0918A01F091F6
:1018F0008B018A8180A3E0918A01F0918B01828122
:10190000823140F18B818D3189F480910304811102
:101910000DC082A18A83CE0101961C010E945A0645
:10192000E0918A01F0918B018A8182A38B818E31B3
:1019300089F4E0918A01F0918B0183A18A83CE0121
:1019400001961C010E945A06E0918A01F0918B01D8
:101950008A8183A3E0918A01F0918B018281843195
:1019600008F440C08B818F3169F484A18A83CE0151
:1019700001961C010E945A06E0918A01F0918B01A8
:101980008A8184A38B81803299F4111111C0E09176
:101990008A01F0918B0185A18A83CE0101961C01F9
:1019A0000E945A06E0918A01F0918B018A8185A3F9
:1019B0008B818132B9F480910304882399F011114D
:1019C00011C0E0918A01F0918B0186A18A83CE013A
:1019D00001961C010E945A06E0918A01F0918B0148
:1019E0008A8186A3F0928C019B81943611F0983CF9
:1019F00019F50E940C168B81843639F48AE995E03A
:101A00000E9449168DE895E002C088EC94E00E949F
:101A1000491661E080E00E9405168CE795E00E947F
:101A200049160E947D15823091F4F89481E09B81E3
:101A3000943679F080E00DC08981890F8F3F11F0D5
:101A40008B8301C0EB828B81823208F4AFCC1B8286
:101A5000ADCC0F900F900F90DF91CF911F910F9110
:101A6000FF90EF903F902F90089580EE95E00E94B8
:101A70004916E0918A01F0918B01808190E00E94EB
:101A80002F1680ED90E00E944916E0918A01F091B6
:101A90008B01818190E00E942F168CEC90E00E94D7
:101AA000491680910304813039F018F0823039F002
:101AB000089583EC94E005C08EEB94E002C088EBBF
:101AC00094E00C944916CF93DF930E940C1660E0CB
:101AD00080E00E94051680911304813019F48FED87
:101AE00094E002C087ED94E00E94491661E080E036
:101AF0000E9405168BEE94E00E9449168091F40234
:101B000090E001960E942F160E947D150E940C16EF
:101B1000C0E0D0E080918A0190918B018C0F9D1FD5
:101B2000FC01E05AFF4F80810E940F162196C031C0
:101B3000D10581F761E080E00E94051684E094E021
:101B40000E9423160E947D150E940C160E94350DDE
:101B500061E080E00E94051686EB95E00E94491640
:101B600080EE95E00E944916E0918A01F0918B0188
:101B7000828190E00E942F16DF91CF910C947D1509
:101B80000F931F93CF93DF931092CC010E940C16FA
:101B900080918A0190918B010E948408882309F426
:101BA000B4C080918A0190918B01E4E0F4E010824E
:101BB000DC01AF5BBF4F2C91233209F020833196BB
:101BC000019624E0E231F20791F71092120410928C
:101BD0003604109214048091F9029EEF980F92300F
:101BE00078F5CDEED3E011E0FE016591749185E1C9
:101BF00094E00E94AC1DA5E1B4E0E4E0F4E0819142
:101C00009D91891719F0992319F009C0811103C01A
:101C10001093360404C084E0E331F80781F722967C
:101C200024E0C331D20701F791E09093CC01E09119
:101C30008A01F0918B018585853A09F043C03CC04B
:101C4000823090F710E001E0C12FD0E0FE01EE0FEE
:101C5000FF1FE05CFC4F6591749185E194E00E9468
:101C6000AC1DA5E1B4E0E4E0F4E081919D91891719
:101C700019F0992319F01CC0811114C0E0918A0158
:101C8000F0918B018281803128F4143080F400932C
:101C900036040DC000933604CD54DE4F8881809306
:101CA000140405C084E0E331F807F9F601C019E136
:101CB0001F5F193148F2B8CF86858A35A1F410929A
:101CC000030413C08A3531F48685853A61F4909314
:101CD00003040BC0853539F486858A3A21F482E005
:101CE0008093030402C01092CC018091CC01811139
:101CF00003C08CED95E00BC0808184508B3048F0A0
:101D00001092CC0180EE95E002C084ED95E00E9437
:101D100049168091CC01882319F00E94630D06C0FA
:101D20008FEA95E00E9449160E947D158091CC01B2
:101D3000DF91CF911F910F9108950F931F93CF9330
:101D4000DF93D82F12E003E08091F902843058F538
:101D50000E943217DD23A1F00E94FC148AEF9091BB
:101D6000C10094FF04C09091C00097FD4BC0EFE705
:101D7000FEE33197F1F700C00000815081F742C0C7
:101D800083EF94E00E9449160E947D15C82F0E949F
:101D90000C16C33041F0C530D9F6DF91CF911F91B9
:101DA0000F910C94FC140E940C1684E195E00E94A3
:101DB000491661E080E00E94051684E095E00E94EB
:101DC00049160E947D15C82F0E940C16C33089F059
:101DD00030F4C23041F781E08093F9020CC0C43086
:101DE00029F0C53001F71092F90205C00093F902FD
:101DF00002C01093F9026091F90280E090E00E9425
:101E0000D51DA2CFDF91CF911F910F9108958091A1
:101E1000CC0181110E94630D0E940C168FE791E0A6
:101E20000E94450685E194E00E9423160E947D15DC
:101E30000E940C168EE991E00E94231661E080E07A
:101E40000E94051680EE95E00E94491682E498E310
:101E50000E942F160E947D150E940C1660E083E000
:101E60000E94051680911304813019F48FED94E0DF
:101E700002C087ED94E00E94491686EE94E00E942D
:101E8000491661E080E00E9405168BEE94E00E9406
:101E900049168091F40290E001960E942F160E944C
:101EA0007D1580E00C949D0ECF92DF92EF92FF9211
:101EB0000F931F93CF93DF931F92CDB7DEB70E948E
:101EC0000C1687E395E00E9449160E947D158983D0
:101ED0000E940C168981823009F451C0843079F750
:101EE000109213048BEE94E00E94491661E080E0AA
:101EF0000E94051685E295E00E94491660E08FE099
:101F00000E9405168091F40290E001960E942F161F
:101F10000E947D15833089F018F48230C1F0EECF35
:101F2000843009F461C0853049F78091F40285302E
:101F300028F78091F4028F5F07C08091F402882314
:101F4000E9F28091F40281508093F402D7CF80911E
:101F5000F90281111AC10E941A110E940C1682EA1C
:101F600094E00E9449160E94F5140E94E7142FEF96
:101F700049E658E1215040405040E1F704C181E07A
:101F8000809313048BEE94E00E94491600E01FEF4B
:101F9000802F0E9438148091F40261E0880F0E9423
:101FA000051680918801909189010E9484088823F8
:101FB00059F08091F40290E001960E942F161F3F85
:101FC00039F41091F40204C08DEA91E00E942316C6
:101FD0000F5F0630E9F61F3F19F01093F40202C0BC
:101FE0001092F4020E947D158091F4020E94381430
:101FF00001E010E00E940C168091CC01882319F0BA
:102000008AE595E002C089E495E00E94491661E006
:1020100080E00E9405168BE695E00E9449160E941A
:102020007D15833009F495C020F4823009F494C002
:10203000E1CF843029F08530E9F60E94070FDACF2E
:102040008091CC01882329F00E94C109882391F254
:1020500005C00E94C00D8111F7CFCCCF0E940C1695
:102060008091CC01882331F280911304813009F0F2
:102070006BC085E995E00E9449168BEE94E00E94C2
:102080004916F090F402CC24C394D12CEC2C8FEFA1
:102090008C0D9091F902911111C0E091D801F0914D
:1020A000D90190812091D001A80102C0440F551F91
:1020B0002A95E2F79A012095292320830E9438145B
:1020C0000E94AE08982F8FE78E0D61E0880F9983EC
:1020D0000E9405169981911104C0C6010E942F1615
:1020E00010C0913019F48DEA91E009C0923019F4D2
:1020F0008FEA91E004C0933021F481EB91E00E94DB
:1021000023165FEFC51AD50A87E0C816D10409F077
:10211000BDCF0E947D158091F902811111C0E0911F
:10212000D801F091D90180812091D001A80102C08D
:10213000440F551F2A95E2F79A0120952823208302
:102140008F2D0E94381402C00E94AE080E946E1D9E
:1021500051CF0E94C00D4ECF8091F902811115C060
:102160000E941A110E940C1682EA94E00E944916FD
:102170000E94F5140E94E7145FEF89E698E1515040
:1021800080409040E1F700C000000F90DF91CF91B8
:102190001F910F91FF90EF90DF90CF900895CF9314
:1021A000DF930E940B150E946E1D8CE00E94581652
:1021B00080E50E94F315C5EED5E0FE0184910E94F2
:1021C000FC152196F6E0C530DF07B9F780E090E016
:1021D0000E94CD1D843018F48093F90202C0109241
:1021E000F90281E00E949D0EDF91CF910C94540F73
:1021F000E091D801F091D90140812091D00181E096
:1022000090E0BC0102C0660F771F2A95E2F79B01A0
:10221000209524232083E091D801F091D9012081D9
:102220003091D001032E01C0880F0A94EAF7282BC1
:10223000208308951092DC011092DD011092DE01DE
:102240001092DF010E94EE140E94E714E091D60183
:10225000F091D70120813091D00181E090E001C060
:10226000880F3A95EAF78095822380838FE891E082
:102270000197F1F700C00000E091D101F091D20187
:1022800080812091D00190E002C0959587952A9594
:10229000E2F781709927682FE091D601F091D7017C
:1022A00070814091D00121E030E0D90102C0AA0F35
:1022B000BB1F4A95E2F77A2B7083E091D801F09129
:1022C000D90140815091D001052E01C0220F0A94FE
:1022D000EAF7209524232083B0E7BA95F1F71D9BF8
:1022E00002C0682F62602D982598E091D801F09186
:1022F000D90120813091D00181E090E001C0880FA8
:102300003A95EAF7282B208325E02A95F1F700007B
:10231000E091D601F091D70120813091D00181E088
:1023200090E0032E01C0880F0A94EAF7809582237B
:1023300080836093DE0181E0611101C080E0089537
:10234000E091D601F091D70120813091D00181E058
:1023500090E001C0880F3A95EAF7282B20830E946D
:10236000F810259A08952D9825980E94F810E0916C
:10237000D601F091D70120813091D00181E090E029
:10238000032E01C0880F0A94EAF780958223808388
:102390000895CF93DF930E94A0112D980E94F8100A
:1023A0002D9A0E94F8102D982598D8E0C0E0C69587
:1023B0000E94F8101D99C068D150C9F70E94B3114E
:1023C0008C2FDF91CF910895CF93DF93CFEFDFEF85
:1023D0000E94C91180FD04C0209711F02197F8CF09
:1023E00081E0CD2B09F480E0DF91CF910895CF9368
:1023F000DF93D82F0E94A0112D9A0E94F8100E94FE
:10240000F810C8E0D0FF02C02D9A01C02D980E949C
:10241000F810D695C150B1F7DF91CF910C94B3115C
:10242000CF93DF932D982598CFEFDFEF0E94F81020
:102430002197209711F01D9BF9CF81E0CD2B09F456
:1024400080E0DF91CF910895CF93109237040E94DE
:10245000A0112D980E94F8100E94F8100E94F81008
:102460000E94F8100E9410128823A9F0C8E0809101
:1024700037048695809337040E94F8101D9B05C091
:1024800080913704806880933704C15081F70E949F
:10249000B31181E001C080E0CF9108950E94E41162
:1024A000882349F00E942412882329F081E090912A
:1024B00037049D3009F080E0089580E00E94F71114
:1024C0000E9424128091370488508B3210F01092B1
:1024D0003704809137048093DC010895CF93DF9314
:1024E000D82F0E94A0112D9A0E94F8102D980E94BA
:1024F000F8100E94F8100E94F810C8E0D0FF02C047
:102500002D9A01C02D980E94F810D695C150B1F7B0
:102510000E941012882361F00E94B311CFEFDFEF09
:102520000E94C91181FF04C0209711F02197F8CFB4
:10253000DF91CF9108958091FA020E946E128091EE
:10254000F6020E946E128091FB020E946E120C94A1
:102550004E12CF93C82F84EB0E94F7118C2F0E944C
:102560006E12CF910C944E120E941A11811102C06A
:1025700080E008950E945D128823D1F382E00E94DA
:10258000F71182E00E946E1284E00E946E1287EBC7
:1025900091E00197F1F700C0000081E00E946E1207
:1025A0009FE725EB81E0915020408040E1F700C09B
:1025B000000082E00E94A9128823D1F20E94241216
:1025C000809137048093DD018FEF0E94F71180E83E
:1025D0000E946E128FE99FE00197F1F700C00000A2
:1025E0008FEE0E94F71182E00E946E1281E0089542
:1025F000CF9386E00E94A912811102C080E01EC024
:102600000E949B128823D1F3C091FB020E94E41127
:102610008823A1F30E942412882381F3E091DA0138
:10262000F091DB01CF0101969093DB018093DA01F9
:10263000809137048083C15049F781E0CF9108959C
:10264000CF9387E00E94A9128823C1F00E949B12B9
:102650008823A1F0C091FB02E091DA01F091DB0147
:10266000CF0101969093DB018093DA0180810E9473
:102670006E12C15089F7CF910C94E41180E0CF9194
:102680000895CF93C091FA02C695CF3090F488E0B8
:102690000E94A912882369F08C2F0E946E120E945A
:1026A0004E12882331F080E00E946E12CF910C947C
:1026B000E41180E0CF91089583E00E94A91288235D
:1026C00059F08EED0E946E128DEA0E946E1285EA1C
:1026D0000E946E120C94E41180E008951092DD01C6
:1026E0001092DC010895FF920F931F93CF93DF9315
:1026F0001092DD011092DC018091F902882351F0E3
:10270000843008F0AAC0C3E0D0E003E012E0FF2468
:10271000F39481C00E94B4129EC08091C00087FDD6
:1027200093C00E94461C81117CC00E94B304811199
:102730001093F9028091DC019091DD01873093497B
:1027400009F472C08091DC019091DD018A309349D7
:1027500009F46AC08091DC019091DD018F309349CA
:1027600009F462C08091DC019091DD0121E08B30A1
:10277000944909F020E08091DC019091DD018031E5
:10278000934F09F453C08091DC019091DD018033B7
:10279000934F09F44BC08091DC019091DD018031B1
:1027A000944F09F443C08091DC019091DD018039A0
:1027B000934FE1F18091DC019091DD018035984FDC
:1027C000A9F18091DC019091DD01813B984E71F17E
:1027D0008091DC019091DD0131E0823B984E09F05F
:1027E00030E0832F482F211123C0982F892F30915B
:1027F000F902313021F13230E9F02197209739F197
:10280000911124C08FEF99EF20E08150904020403B
:10281000E1F700C00000A8958091C10084FD7DCF44
:1028200080CF0093F90286CF21E0A5CF81E0DACFF7
:1028300091E0DCCF442309F3F092F902DECF2223AA
:10284000E1F21093F902D9CF80E001C081E09091CC
:10285000F9029093DF01811105C01092DD01109201
:10286000DC0180E0DF91CF911F910F91FF900895DF
:102870009091F4029817A9F09091F902911111C06A
:10288000E091D801F091D90190814091D00121E0EF
:1028900030E0042E01C0220F0A94EAF72095292384
:1028A0002083823009F44BC0C8F48823A1F1813021
:1028B00009F083C02AE230E03093D7012093D6019B
:1028C0002BE230E03093D9012093D80129E230E0A7
:1028D0003093D2012093D10196E044C0843009F4B2
:1028E00058C008F442C0853009F067C027E230E0E4
:1028F0003093D7012093D60128E230E03093D901FC
:102900002093D80126E230E03093D2012093D10108
:102910001092D00152C024E230E03093D7012093CE
:10292000D60125E230E03093D9012093D80123E28B
:1029300030E03093D2012093D10194E013C02AE219
:1029400030E03093D7012093D6012BE230E0309372
:10295000D9012093D80129E230E03093D2012093AD
:10296000D10197E09093D00128C027E230E0309366
:10297000D7012093D60128E230E03093D90120938B
:10298000D80126E230E03093D2012093D10195E0C6
:10299000E9CF27E230E03093D7012093D60128E237
:1029A00030E03093D9012093D80126E230E0309313
:1029B000D2012093D10191E0D5CF8093F402089504
:1029C0002C9A5E9A5F9A459A419A409A08952C985B
:1029D0005E985F984598419840980895249A569A31
:1029E000579A3D9A399A389A089524985698579844
:1029F0003D983998389808958091F902882351F0CC
:102A000084E08093B1000E94F5140E94E01480E0FD
:102A10000C94381408958AB1837C8AB98BB18C6385
:102A20008BB985E085BD84E686BDEEE6F0E0808169
:102A30008160808308951F920F920FB60F92112428
:102A40002F938F939F9384E686BD90913A0489B12A
:102A5000809589279091CF01982390959093CF01ED
:102A60002091CE01282329272093CE018923822378
:102A700090913A04982790933A04909139042091C8
:102A80003A042823292B2093390480913A048C732B
:102A900019F486E48093CD018091CD01815080931B
:102AA000CD0181110CC080918C018093CD0190915A
:102AB000380480913A048C73892B809338049F9159
:102AC0008F912F910F900FBE0F901F901895F89433
:102AD000909139048923909139049827909339046F
:102AE00078940895F894909138048923909138044B
:102AF00098279093380478940895CF93CFB778941B
:102B00008091C10084FF0AC08091C00087FF06C089
:102B10000E9458171092FE0280E015C080E10E94CA
:102B20006715811113C080E20E946715811110C0E2
:102B300088E00E94671581110DC084E00E9467152E
:102B40008823F1F282E0CFBFCF91089584E0FBCFDC
:102B500085E0F9CF83E0F7CF449A00C04498089508
:102B60001F93CF93DF931F92CDB7DEB7662311F08B
:102B7000429A01C04298439894B19F6094B915B1AC
:102B8000107F982F92959F70912B95B989830E9401
:102B9000AC1589818F70812B85B90E94AC151F609F
:102BA00015B90F90DF91CF911F9108954298439AE4
:102BB00084B1807F84B9449A00C083B1449800C036
:102BC000449A00C093B19F708295807F4498892B6E
:102BD00008950E94D61587FDFCCF88E090E001970C
:102BE000F1F70C94D615CF93C82F0E94E91560E039
:102BF0008C2FCF910C94B015CF93C82F0E94E9155C
:102C000061E08C2FCF910C94B015611102C08058F7
:102C100001C080540C94F31581E00C94F315CF930C
:102C2000C82F0E94E915CA3049F4803410F480E4BA
:102C300001C080E08058CF910C94F31561E08C2F97
:102C4000CF910C94B015CF93DF93EC018991882339
:102C500019F00E940F16FACFDF91CF910895CF930C
:102C6000DF9300D000D000D0CDB7DEB74AE0BE0180
:102C70006F5F7F4F0E94B31DCE0101960E94231605
:102C800026960FB6F894DEBF0FBECDBFDF91CF9171
:102C90000895CF93DF93FC018491EF01219688235F
:102CA00021F00E940F16FE01F7CFDF91CF9108951A
:102CB000CF93C82F94B19F6094B93A9A3B9A3C9AAB
:102CC000E0E0FAEF3197F1F7299A289A0E94AC15C3
:102CD000E0E0FEE43197F1F70E94AC15E0E0F1E0AE
:102CE0003197F1F70E94AC15E0E0F1E03197F1F790
:102CF00028980E94AC15E0E0F1E03197F1F788E206
:102D00000E94F31588E00E94F3150E940C1686E0DD
:102D10000E94F3158C2FCF910C94F31588E10FB618
:102D2000F89480936000109260000FBE0E94CF1054
:102D30002BE088E190E00FB6F894A89580936000AE
:102D40000FBE20936000FFCF9627092E0294202DFE
:102D50002F702927692F6025660F607E2627602D3A
:102D60006927607F6695092E000C661F96959695DB
:102D700096959F7196279827822F08952F923F92BC
:102D8000FF920F931F93CF93DF93E1016EE280E0F8
:102D900090E00E94A41668850E94A4166091FA0231
:102DA0000E94A4166091F6020E94A4166F810E94F0
:102DB000A416382F292F8D81FF80082F1E81F80E31
:102DC000F80161918F01832F922F0E94A416382F52
:102DD000292FF012F5CF6C810E94A416082FF92E2E
:102DE00088E08093C1008EE20E94801D88850E9449
:102DF000801D8091FA020E94801D8091F6020E943F
:102E0000801D8F810E94801D1F81ED81FE81808148
:102E10000E94801D2D813E812F5F3F4F3E832D8379
:102E2000115099F78C810E94801D8F2D0E94801D6A
:102E3000802F0E94801D80E18093C1008FE39FE17D
:102E40000197F1F700C000008091C6008B8380914C
:102E5000C6008887DF91CF911F910F91FF903F901F
:102E60002F9008950E940C1661E082E00E940516E2
:102E70008091F902813059F038F0823059F0833076
:102E800069F485E096E008C08BE296E005C081E138
:102E900096E002C08EE196E00E94491660E080E074
:102EA0000C9405160E94321787E396E00C9449169D
:102EB000CF93DF93CDB7DEB72C970FB6F894DEBF74
:102EC0000FBECDBF81E08093FE020E945217F8949E
:102ED0002E014AE0440E511C98E1692E712C0FEF2F
:102EE00012E020EEE22E21E0F22E3CEDA32E31E0A6
:102EF000B32E4EE9842E41E0942E58E10FB6F8949B
:102F000050936000109260000FBE312C0E948B1D08
:102F10008C83811116C0339483E03812F7CF0E945E
:102F20000C1686E496E00E9449162BE088E190E0BA
:102F30000FB6F894A895809360000FBE20936000B0
:102F4000FFCF8F3211F71B861A865F824E8281E097
:102F500088870E948B1D89878F3219F40E948B1DF0
:102F600089878FE00FB6F894A895609260000FBE35
:102F7000809360006FE280E090E00E94A416698573
:102F80000E94A4161C010E948B1D8093FA02682FD8
:102F9000C1010E94A4161C010E948B1D8093F602A1
:102FA000682FC1010E94A4161C010E948B1D8B83F7
:102FB000682FC1010E94A4166C014B818FEF282E4F
:102FC00082E0382E420D4C870E948B1DF1018193C7
:102FD0001F01682FC6010E94A4166C014C85421186
:102FE000F2CF0E948B1D8A830E948B1D8983898169
:102FF0009A818C159D0511F480E001C083E08D83DA
:10300000811162C11093DB010093DA01898590E0A0
:10301000FC01F097E031F10508F054C1EA5AFF4F86
:103020000C94A61D8091DC01882309F44DC1809188
:10303000F902833028F4813048F40E945D12ACC05C
:10304000833009F041C10E94CD1BA6C00E94080533
:10305000A3C08AE68A8738C18EE088879F828E82E5
:1030600033C182E0888790E99A878B872DC1AE01B2
:103070004F5F5F4F1A010E94BE168091F9028111C5
:1030800006C00E941A110E94F5140E94E71480E005
:103090000E9438140E946E1328E088E190E00FB679
:1030A000F894A895809360000FBE20936000FFCF36
:1030B0008091FF02843010F089E005C18093F9020D
:1030C0000E94FC140E945217FFC08091FF028630BC
:1030D00088F40E9438148091F902882369F08330C3
:1030E00008F0F2C080E00E942405EEC08091FF024B
:1030F000863090F088E0E7C00E941A11E5C0809108
:10310000FF028630B8F70E94381454E05887BF8217
:10311000AE820E94731340C00E9438148091F9025D
:103120008111D2C0E091D801F091D9012081809124
:10313000D00141E050E002C0440F551F8A95E2F7EC
:10314000CA01809582238083BFC08091F9028330B9
:1031500030F4813008F0B6C00E945C131DC083308B
:1031600009F0B2C00E94191D17C08091F902823087
:1031700020F0843008F0A8C0A5C09091FF029A8783
:10318000990F9093FA021092F602811103C00E94E7
:10319000411302C00E940406811196C08FE093C0C3
:1031A0008091FF028093FB028091F902833028F422
:1031B000813040F40E94F8121AC08330E1F40E947A
:1031C000421D15C00E94950512C08091FF02809398
:1031D000FB028091F902823041F028F0833059F4EB
:1031E0000E944D1D04C082E005C00E94BF058111F0
:1031F00002C08FE08D838D81811166C08091FB02BA
:1032000088871F830E8360C08B818093FB028FE0D1
:103210008D838091F902833018F4813038F03AC000
:10322000833009F051C00E94581D48C00E942013ED
:10323000882309F449C0F092DB01E092DA010E9490
:10324000F812882309F440C01D821093DB0100931B
:10325000DA01F092F802E092F7028091FB02A0916D
:10326000DA01B091DB01E091F702F091F8022C91C4
:103270009081291711F054E05D831196B093DB0122
:10328000A093DA013196F093F802E093F7028150AF
:1032900031F71AC00E94230611C08B818093FB0274
:1032A0008FE08D838091F902823031F058F08330C5
:1032B00059F40E94631D02C00E94E105882321F099
:1032C0001D8202C082E08D83CE0101961C010E9406
:1032D000BE1613CE90913F04982790933F0498E038
:1032E00021E030E0E091D801F091D9016081409176
:1032F000D001D90102C0AA0FBB1F4A95E2F76A2B81
:1033000060831092B20080FF1FC04091B200403134
:10331000E0F3E091D801F091D90160814091D001B2
:10332000D90102C0AA0FBB1F4A95E2F7AD01409533
:10333000462340831092B2004091B2004031E0F346
:103340008695915079F608954091B2004830E0F3A7
:10335000E091D801F091D90160814091D001D9016B
:1033600002C0AA0FBB1F4A95E2F7AD014095462364
:1033700040831092B2004091B2004830E0F3E091F7
:10338000D801F091D90160814091D001D90102C0EA
:10339000AA0FBB1F4A95E2F76A2B60831092B20016
:1033A0004091B2004830E0F3E091D801F091D901AA
:1033B00060814091D001D90102C0AA0FBB1F4A957C
:1033C000E2F7AD014095462340831092B200409150
:1033D000B2004830E0F3B4CFE091D601F091D701CC
:1033E00020813091D00181E090E001C0880F3A95B2
:1033F000EAF7282B20838FEF0E946A198FEF0E9433
:103400006A198FE70E946A1910923F048BE10E94AB
:103410006A1980913C048F5F80933C040C946A1974
:1034200080913F040E946A19E091D801F091D9017E
:1034300020813091D00181E090E0032E01C0880FFF
:103440000A94EAF7282B20831092B2008091B200F0
:103450008830E0F3E091D601F091D70120813091DE
:10346000D00181E090E0032E01C0880F0A94EAF7B2
:1034700080958223808308951092B200E091D1015B
:10348000F091D20180812091D00190E002C0959509
:1034900087952A95E2F780FF09C08091B2008E37A8
:1034A00088F33EC08091B2008E37D0F580812091A4
:1034B000D00190E002C0959587952A95E2F780FFAC
:1034C000F1CF8091B20080933E0490914004981710
:1034D00048F11092B200E091D101F091D2018081C7
:1034E0002091D00190E002C0959587952A95E2F74A
:1034F00080FF09C08091B2008E3788F311C080919F
:10350000B2008E3768F480812091D00190E002C033
:10351000959587952A95E2F780FFF1CF80E0089591
:103520008FEF089581E00895FC01108280E090E023
:1035300041E050E01092B200A091D101B091D201CF
:103540002C916091D00130E002C0359527956A95A5
:10355000E2F720FF0AC02091B2002E3788F380E006
:1035600008952091B2002E37D0F72C916091D001B0
:1035700030E002C0359527956A95E2F720FFF1CF3C
:103580003091B20020914004231730F11092B20024
:10359000A091D101B091D2012C916091D00130E085
:1035A00002C0359527956A95E2F720FF09C0209162
:1035B000B2002E3788F3D3CF2091B2002E3778F6A1
:1035C0002C916091D00130E002C0359527956A9525
:1035D000E2F720FFF1CF09C060819A01082E01C0F7
:1035E000220F0A94EAF7622B6083019688309105D6
:1035F00009F0A0CF80913B049081892780933B0400
:1036000081E00895CF93DF9388E180934004809117
:103610003D04853139F0823129F0813031F4C1E047
:10362000D0E005C0C0E6DAEE02C0C6E4D0E00E94F9
:103630003C1A87FF05C021972097C9F780E017C083
:10364000CAE00E943C1A8F3FC9F3C150D1F7909154
:103650003E04892F869586959695890F8093400420
:103660000E943C1A8F3F51F31816D4F381E0DF918A
:10367000CF910895EF92FF920F931F93CF93DF9313
:1036800000D01F92CDB7DEB77C011B820E94021BC7
:10369000811102C080E077C010923B04CE010396F6
:1036A0000E94941A8823B1F38B818B3199F7CE0154
:1036B00003960E94941A882369F39B8180913C04AD
:1036C0009813E8CFCE0102960E94941A882311F332
:1036D0008A818230F8F6CE0101960E94941A8823DE
:1036E000C9F289819A81892BA9F2CE0103960E94A1
:1036F000941A882379F28B818E3061F6CE0103967D
:103700000E94941A882331F29B8180913D04981382
:10371000C1CFCE0103960E94941A882309F4BACF30
:103720008B818111B7CF00E010E0C701800F911F9E
:1037300029813A81225031090217130740F40E946F
:10374000941A882309F4A6CF0F5F1F4FEECFCE0146
:1037500003960E94941A882309F49CCF80913B041D
:10376000811198CFE091D801F091D9012081309159
:10377000D00181E090E0032E01C0880F0A94EAF79F
:10378000282B208381E00F900F900F90DF91CF9135
:103790001F910F91FF90EF90089581E080933D0479
:1037A0000E94EC1980E00E946A1981E00E946A1967
:1037B0008EE00E946A1981E00E946A190E94101A24
:1037C00084EE92E00E943A1B811104C00E946E13A5
:1037D00080E0089581E00895EF92FF921F93CF93C8
:1037E000DF9300D0CDB7DEB77C01162F8DE180933B
:1037F0003D042A8349830E94EC1980E00E946A19E3
:1038000088E00E946A198EE00E946A198DE10E9488
:103810006A1984E00E946A1984E00E946A1980E0B3
:103820000E946A19812F0E946A194981842F0E947F
:103830006A192A81822F0E946A1980E00E946A19FF
:103840000E94101A84EE92E00E943A1B882399F09D
:103850008091E402811111C08091E502811711F07D
:1038600081110BC08091E602811107C08091E702AF
:10387000F701808302C080E001C081E00F900F90CB
:10388000DF91CF911F91FF90EF9008950E94CD1B83
:10389000882399F021E040E060E38DED91E00E9403
:1038A000EC1B882351F022E040E060E38CED91E0D6
:1038B0000E94EC1B91E0811101C090E0892F0895D6
:1038C0008091FA028F3F21F48091F6028F3F29F117
:1038D00086E080933D040E94EC1980E00E946A1902
:1038E00085E00E946A198EE00E946A1986E00E94B3
:1038F0006A1980E00E946A1980E00E946A1980912A
:10390000FA020E946A198091F6020E946A190E94C6
:10391000101A84EE92E00C943A1B81E00895CF9344
:10392000C1E08091FB028111C0E00E94EC1980E0AF
:103930000E946A1984E00E946A198EE00E946A1946
:1039400080913D040E946A198C2F0E946A1980910F
:10395000FB020E946A1980EA0E946A190E94101AEA
:103960008091DA019091DB01CF910C943A1BFF9288
:103970000F931F93CF93DF931F92CDB7DEB70091C4
:10398000FB02002341F0202F30E0265F3F4F122F33
:10399000832FF12C04C01AE081E0FF24F394898383
:1039A0000E94EC1989810E946A19812F0E946A196C
:1039B0008EE00E946A1980913D040E946A198F2D41
:1039C0000E946A19802F0E946A1980E00E946A1979
:1039D00080E00E946A1980E00E946A1980E00E94DB
:1039E0006A1980E00E946A1980E00E946A1980E0EA
:1039F0000E946A19E091DA01F091DB0180810E9456
:103A00006A192091DA013091DB012F5F3F4F30932B
:103A1000DB012093DA01015069F70E94101A84EE4D
:103A200092E00F90DF91CF911F910F91FF900C9436
:103A30003A1B82E180933D040E94EC1980E00E94D1
:103A40006A1987E00E946A198EE00E946A1982E171
:103A50000E946A1984E10E946A1980E00E946A1932
:103A60008CEA0E946A1988E80E946A1983E10E9420
:103A70006A1986E70E946A190E94101A84EE92E081
:103A80000C943A1B0E94601C882329F084E18093E7
:103A90003D040C948F1C80E008950E94601C8823D4
:103AA00029F086E180933D040C948F1C80E00895FA
:103AB0000E94601C882329F083E180933D040C94CC
:103AC000B71C80E008950E94601C882329F085E1DE
:103AD00080933D040C94B71C80E00895E0ECF0E086
:103AE00080818D7F808389E190E09093C5008093F1
:103AF000C40086E08093C20080E18093C1000895F5
:103B00009091C00095FFFCCF8093C6008091C000CB
:103B100086FFFCCF08958091C00087FFFCCF809185
:103B2000C6000895AA1BBB1B51E107C0AA1FBB1FFB
:103B3000A617B70710F0A61BB70B881F991F5A9539
:103B4000A9F780959095BC01CD010895EE0FFF1F58
:103B50000590F491E02D0994FB01DC0105900D9294
:103B60000020E1F70895BB27FB015527AA27880FFE
:103B7000991FAA1FA41710F0A41B83955051B9F7E1
:103B8000A05DAA3308F0A95DA193009779F7B11160
:103B9000B1931192CB010C94E71DF999FECF92BD20
:103BA00081BDF89A992780B50895262FF999FECFFF
:103BB00092BD81BDF89A019700B4021639F01FBA80
:103BC00020BD0FB6F894FA9AF99A0FBE0895DC0159
:103BD000FC01672F71917723E1F7329704C07C9144
:103BE0006D9370836291AE17BF07C8F30895F89480
:023BF000FFCF05
:103BF200010D7301010D670101045D010102B600AF
:103C020000FFC000010552010105470101053B010A
:103C12000102A90001052F01010525010105190174
:103C220001050C01010D6000010501010104F8000C
:103C32000102EE00010555000102E4000102DA0072
:103C42000001D2000001CB00007D9C0082FF8F00AA
:103C520001FE3C0001FF840001FF770001056A00BC
:103C62000001490001112F0000012200000116008D
:103C720000010C0001050100E001FF021400000038
:103C820000000000000D424C48656C69F47D6D3403
:103C92007754444C586D333238503136002D00542D
:103CA20000450000000000000000000000000000CD
:0C3CB20000020000000001010000000002
:00000001FF
