:100000000C94CE030C94EB030C94EB030C94EB03D5
:100010000C94EB030C94EB030C94EB030C94EB03A8
:100020000C94EB030C94EB030C94EB030C94EB0398
:100030000C94EB030C94EB030C94EB030C94EB0388
:100040000C949B120C94EB030C94EB030C94EB03B9
:100050000C94EB030C94EB030C94EB030C94EB0368
:100060000C94EB030C94EB03300730073707DC07E5
:10007000CD07450792074C07EE0767077C07870700
:1000800092072B089907A007B1073208B807BF07E6
:10009000C607C607F907F907F907070807080B0895
:1000A00007080708C607C607C60744087A15941547
:1000B00097159C15A215CC15A116DA15E815F8159B
:1000C00010164416E21525168E16BF15202D200099
:1000D0002E00202020202020202020202020002052
:1000E0002020003D0050574D20446974686572001F
:1000F00050574D20496E70757400506F77205072C4
:100100006F746563740054656D702050726F746510
:1001100063740053706F6F6C75702054696D650067
:1001200050504D2043656E205468726F0042454325
:1001300020566F6C746167650044656D616720438C
:100140006F6D70005468726F205261746500426573
:1001500061636F6E2044656C617900426561636F15
:100160006E20537472656E00426565702053747220
:10017000656E0050504D204D6178205468726F00BC
:1001800050504D204D696E205468726F0053746159
:100190007274204D6574686F6400474F5620526139
:1001A0006E676500474F5620546172676574005250
:1001B000652D41726D0054582050726F6700496E72
:1001C00070757420506F6C004D6F746F72204469AD
:1001D0007200566F6C7420436F6D700050574D2045
:1001E000467265710044616D7020466F72636500F0
:1001F0004D6F746F722054696D696E67005374613E
:10020000727420416363656C005374617274205290
:10021000504D00537461727420506F776572004CBA
:100220006F772056204C696D6974004D6F746F7242
:100230002049646C65004D6F746F72204761696E70
:1002400000474F5620204D6F646500474F562020D1
:1002500049204761696E00474F5620205020476172
:10026000696E00DA0393038B0382037903DA03CA0E
:1002700004A704DA03690362035A0353033B0431FE
:1002800004220413044F0345043B0431042C044F9F
:1002900003AD03A6039B0399039703950391038E74
:1002A00003880385037F037C03760372036E03DAFE
:1002B00003D703A704B804CA04A704CA04BE03B53D
:1002C00003D003C7039D03A704CA0482040000A748
:1002D00004CA04890482049604CA04BF04AC04A7B7
:1002E000049F04F503F0033B043604EB03FF03FA19
:1002F000033B04040436047C04760470046A04643A
:10030000045E044F044A04450440043B04040436DC
:1003100004CA04BF04B804AC04A70440040E043BA0
:100320000409040404A704B804CA04DA03E803E4D3
:1003300003DE03DA03590454044F044A044504401D
:10034000043B04360431042C0427041D041804491A
:100350006E6600372E352F313500372E352F372E6C
:10036000350031352F372E350031352F30003235FD
:10037000350031323800363400363300343800333B
:100380003200333100323400313600313500313241
:100390000038003700360034003300320042696410
:1003A00069726563740044697265637400537465AF
:1003B00070706564004E6567617469766500506FA2
:1003C0007369746976650052657665727365640059
:1003D0004E6F726D616C004F4E004F4646005345A4
:1003E0005455500041524D00545800322E333000C5
:1003F000302E373000302E343000302E3830003080
:100400002E363700312E323500312E313200302E6B
:1004100038380031302E3000382E303000362E3053
:100420003000352E303000342E303000332E303056
:1004300000322E303000312E353000312E30300079
:10044000302E373500302E353000302E3338003026
:100450002E323500302E313700302E313300302E21
:1004600031383800302E31323500302E30393400FA
:10047000302E30363300302E30343700302E3033CB
:10048000310044616D7065640044616D7065642085
:100490004C696768740056657279204C6F77004824
:1004A0006967686573740048696768004D656469C9
:1004B000756D2048696768004D656469756D004D0C
:1004C000656469756D204C6F77004C6F770063052C
:1004D00060055C0556054D054B0540053D053B0592
:1004E0003805360534052A05270524051F0514059A
:1004F0000D050405FB04F8045852005475726E692A
:1005000067794E005475726E696779340054677963
:100510004B4634005475726E696779414534005317
:100520006B797700526F00506C00506C6174696E8B
:10053000756D35004E004D00484B00470046560093
:1005400046435F46616972795F33004500416C69DB
:10055000676E424C330058503741460058503300C4
:10056000537500440014060A060006F605EC05E281
:1005700005E005D605CC05C205B705AC05A4059A6E
:1005800005980594058B05890554005375706572AF
:10059000535F340053756E0052004D797374657269
:1005A000795F34004D537461725F34004D53746150
:1005B000725F32304176004D537461725F32304168
:1005C0005F00484B5F554245435F3400484B5F55E1
:1005D0004245435F330048485F554245435F320020
:1005E0004400426C75655365725F3700426C7565F7
:1005F0005365725F3600426C75655365725F3300F8
:10060000426C75655365725F3200426C7565536567
:10061000725F310041004C6F6F70004D554C544972
:10062000005441494C004D41494E0043616E6365A1
:100630006C202620457869743F0004204564697465
:100640002020202020204F4B2005007369424C427F
:1006500020022003206174534B0004206174424C3B
:100660004220202073694332200500042052656136
:10067000642020202020426F78200500042052654D
:1006800061642020202042455343200500457869BD
:100690007420200220032020536574757000596572
:1006A0007320202002200320202020204E6F007481
:1006B0006F20424553433F00204F4B200057726943
:1006C00074652000546172676574004C61796F75C0
:1006D000742000206D696E0020562F63656C6C00DD
:1006E000332E00207553656300436F6E6E6563742F
:1006F000004D656D00204572726F72210052657663
:100700002E00424C48656C69537569746520426FD0
:10071000780A20202020627920343731320000040A
:100720000E1F04040400000404041F0E040000044F
:100730000C1F0C0400000004061F06040000506F8C
:100740007765722075702042455343202100417423
:100750006D20536B2D4D6F64650053696C20424CC6
:10076000422D4D6F64650041746D20424C422D4D09
:100770006F64650053696C2043322D4D6F646500D2
:100780002020504320496E74657266616365005590
:1007900070646174696E672E2E2E000011241FBED6
:1007A000CFEFD8E0DEBFCDBF11E0A0E0B1E0E0EBDD
:1007B000F4E302C005900D92A23CB107D9F724E002
:1007C000A2ECB1E001C01D92A233B207E1F70E9492
:1007D0000A140C94561A0C94000081E08093E402F1
:1007E00083ED95E41B9906C01092B200892B29F481
:1007F00080E008950197B1F7FBCF8091B200873078
:10080000E0F31B99F5CF20E030E080E097E041E095
:1008100050E0935F6091B2006917E0F31B9B07C043
:10082000BA01022E01C0660F0A94EAF7862B2F5FE9
:100830003F4F9F3671F79091B2009B37E0F31B9BBF
:10084000D7CF1092E40208952B981092B2009091A5
:10085000B2009D30E0F39DE080FF02C02B9A01C002
:100860002B98935F86952091B2002917E0F3953776
:1008700099F72B9A8091B2008238E0F30895209185
:10088000C7018091EC029091ED0238E0AC01422763
:100890009695879540FF04C041E0842740EA94275D
:1008A0002695315099F79093ED028093EC022093B6
:1008B000C70108951F93CF93DF931092ED0210921A
:1008C000EC021092C9011092C8012FEF2093C601CB
:1008D000C82FD92F162F180F0E94ED038093C70140
:1008E0009091E40291112BC089930E943F041C1344
:1008F000F3CF8091CC018823F1F00E94ED03809327
:10090000C8018091E40281111AC00E94ED03809316
:10091000C9018091E402811112C02091EC02309152
:10092000ED028091C8019091C9012817390719F08B
:1009300082EC8093C6010E94ED038093C60181E0A2
:100940009091C601903309F080E0DF91CF911F9123
:1009500008951F93CF93DF93239AE7ECF0E031974C
:10096000F1F700C000001092ED021092EC02C82FC7
:10097000D92F162F180F89918093C7010E94240444
:100980000E943F041C13F7CF8091CC01882341F0D3
:100990008091EC020E9424048091ED020E942404C4
:1009A0002398DF91CF911F910895CF93DF93CDB717
:1009B000DEB76D970FB6F894DEBF0FBECDBF84E3F0
:1009C00097E3A1E38B8F9C8FAD8F81E1EDE8F1E0A0
:1009D000DE01119601900D928A95E1F761E1CE0159
:1009E00001960E94A90468E0CE0142960E945A0432
:1009F0008823C1F0DE015B96FE01729683E08E0FC4
:100A000021919D9129130DC08E13FACF8D8980936A
:100A1000CE018E898093CD018F898093CC0181E0B6
:100A200001C080E06D960FB6F894DEBF0FBECDBF5B
:100A3000DF91CF910895CF93C82F0E94ED0380934B
:100A4000C601C1508091E402882329F0C111F5CF7D
:100A50008FEF8093C6018091C601CF910895CF9307
:100A6000DF9300D0CDB7DEB78DEF89831A8262E0C5
:100A7000CE0101960E94A90481E00E941B05813CE1
:100A800021F00E94661180E001C081E00F900F907C
:100A9000DF91CF910895CF93DF9300D0CDB7DEB72C
:100AA00019821A8281E08093CC0162E0CE01019626
:100AB0000E94A9040E9466110F900F90DF91CF91C0
:100AC0000895CF93DF9300D000D0CDB7DEB79091DB
:100AD000EA028091E5029F3F11F48F3F91F02FEFE2
:100AE00029831A829B838C8364E0CE0101960E9445
:100AF000A90482E00E941B0591E0803319F090E088
:100B000001C091E0892F0F900F900F900F90DF910F
:100B1000CF910895CF93DF9300D000D0CDB7DEB74B
:100B20008EEF89831A821B828091EB028C83811164
:100B300002C081E08B8364E0CE0101960E94A9048B
:100B400082E00E941B058F3F71F46091EB0280915F
:100B5000CA019091CB010E94A90488E20E941B0562
:100B600091E0803309F090E0892F0F900F900F9063
:100B70000F90DF91CF910895CF93DF9300D0CDB741
:100B8000DEB70E9461058823D1F08091EB028A8351
:100B90008091E902813021F0823021F487E001C0A8
:100BA00083E0898362E0CE0101960E94A9046091EE
:100BB000EB028091CA019091CB010E945A040F90E0
:100BC0000F90DF91CF910895CF93DF9300D0CDB7F1
:100BD000DEB70E946105882391F084E089838091CB
:100BE000EB028A8362E0CE0101960E94A904609123
:100BF000EB028091CA019091CB010E945A040F90A0
:100C00000F90DF91CF910895CF93DF9300D0CDB7B0
:100C1000DEB70E946105982F8823A9F00E948A05FB
:100C2000982F882381F085E0898381E08A8362E0C0
:100C3000CE0101960E94A9048FEF0E941B0591E04E
:100C4000803309F090E0892F0F900F90DF91CF91C2
:100C50000895CF93DF9300D0CDB7DEB70E94610532
:100C6000982F882381F082E0898381E08A8362E083
:100C7000CE0101960E94A90484E00E941B0591E028
:100C8000803309F090E0892F0F900F90DF91CF9182
:100C90000895CF93DF9300D0CDB7DEB70E946105F2
:100CA000982F8823A1F00E948A05982F882379F035
:100CB00081E089838A8362E0CE0101960E94A904C3
:100CC00084E00E941B0591E0803309F090E0892FB9
:100CD0000F900F90DF91CF9108952F923F92AF9296
:100CE000BF92DF92EF920F931F93CF93DF93E101B7
:100CF00081E09981911180E0D82ED1940E948E13C9
:100D0000EA8124E0E29FF0011124E050FF4F82814C
:100D100093810E94C3138A81833060F48091F5032C
:100D2000823041F460E080E00E94871386E196E023
:100D30000E94C31361E080E00E94871383EE90E07D
:100D40000E94C3138A8144E0849FF0011124E05083
:100D5000FF4FE0801181E0918A01F0918B018F308B
:100D600091F49281923148F49091F503992329F1FD
:100D700090912704992309F125C09091270491119E
:100D80001CC012E01FC08C3119F4109105041AC068
:100D9000873021F492819E3090F414C0893039F468
:100DA0009281903170F49F3069F417E00BC08E305F
:100DB00049F49281903130F002C013E003C016E094
:100DC00001C01DE09281913160F0823129F480915F
:100DD000F503811105C005C0833011F0813109F49C
:100DE00013E0AA24AA94B12C8981D81609F457C11A
:100DF00060E08DE00E9487138FED90E00E94C313A6
:100E0000898160E0843610F08DE005C08A3010F0F2
:100E10008EE001C08FE00E948713898190E00E94DC
:100E2000A91361E082E00E94871382ED90E00E94A6
:100E3000C31361E082E00E9487138981181708F4C8
:100E40002DC18E1508F42AC1EA814E2F50E042329E
:100E5000510508F023C1FA01EC5CFF4F0C94051A10
:100E6000E82FF0E0EE0FFF1FED5CFC4F13C19091F7
:100E7000F503E82FF0E0EE0FFF1F911103C0E55DD1
:100E8000FC4F08C1ED5DFC4F05C1E82FF0E0EE0F0F
:100E9000FF1FE75EFC4FFEC0E0918A01F0918B01DD
:100EA00092819E3010F00EEF01C00FEF080F0F3F40
:100EB00059F080EE96E00E94C313802F90E00E94CC
:100EC000A91388ED96E0E8C08AED93E0E5C0E091D3
:100ED0008A01F0918B019281903110F0EFEF05C003
:100EE0009F3011F4E5E001C0E7E0E80FF0E0EE0F1D
:100EF000FF1FE950FD4FCEC09091E9029111CEC085
:100F0000E82FF0E0EE0FFF1FE551FD4FC3C09091B9
:100F1000E9029111C3C0E82FF0E0EE0FFF1FEF517F
:100F2000FD4FB8C0E82FF0E0EE0FFF1FE15FFC4F70
:100F3000B1C0E82FF0E0EE0FFF1FEB52FD4FAAC04B
:100F4000E0918A01F0918B019281E82FF0E0EE0FA1
:100F5000FF1F9B3018F4EB53FD4F9CC0E353FD4F34
:100F600099C0E82FF0E0EE0FFF1FE355FD4F92C050
:100F7000E82FF0E0EE0FFF1FE154FD4F8BC0E82F8C
:100F8000F0E0EE0FFF1FE554FD4F84C0E82FF0E0C6
:100F9000EE0FFF1FE155FD4F7DC024E6829FC0018B
:100FA0001124B5010E94F119CB0199270E94A913C0
:100FB00085E20E94911372C0A0918A01B0918B01C9
:100FC00012969C91E82FF0E0EE0FFF1F913118F080
:100FD000EF54FD4F5FC0E954FD4F5CC09091E902B2
:100FE00091115CC0E82FF0E0EE0FFF1FE157FD4FBD
:100FF00051C0E82FF0E0CF0186509F4F880F991F16
:10100000880F991F0E94A91383EE96E045C090E0D7
:101010000E94A91343C0A0918A01B0918B019C91B9
:1010200011962C9130E04AE0949F200D311D11243F
:10103000E82FF0E0EE0FFF1F203731051CF4EB57CF
:10104000FD4F02C0E558FD4F859194910E94C31356
:1010500083ED96E021C0E82FF0E0EE0FFF1FED5684
:10106000FD4F18C0A0918A01B0918B0112969C91FE
:10107000E82FF0E0EE0FFF1F913118F0E559FD4F1A
:1010800009C0EF58FD4F06C0E82FF0E0EE0FFF1F3C
:10109000EF59FD4F859194910E94C313D98084E04C
:1010A0000E94FC12882391F08FEF888315E68FE36E
:1010B0009CE90197F1F700C00000115011F488EC91
:1010C00037C00E94751282FFF2CF38C080E10E94C3
:1010D000FC12882331F08981E81640F4815089831D
:1010E00005C080E10E9407138111F5CF88E00E94BE
:1010F000FC12882331F08981811740F48F5F898346
:1011000005C088E00E9407138111F5CF80E20E949C
:10111000FC12882309F468CE81E0888315E68FE30A
:101120009CE90197F1F700C00000115019F484E622
:101130008A8304C00E94751285FFF1CFDF91CF91A1
:101140001F910F91EF90DF90BF90AF903F902F9045
:1011500008951092E50220E72093EB029093CB01D3
:101160008093CA010E946B118823D9F08091E90213
:10117000813071F040F0823081F0833091F4109230
:10118000EA020C94AC198AE18093EA020C94E6100E
:101190008AE18093EA020C94BC051092EA020C9456
:1011A000E40580E00895CF93DF93809188019091CA
:1011B00089010E94A908882309F4C8C0A0918A0166
:1011C000B0918B01E0918801F09189019C9180811F
:1011D0009813BEC011969C91119781819813B8C045
:1011E0001D969C911D9785859813B2C01E969C9163
:1011F0001E9786859813ACC01092E50280E7809315
:10120000EB0280818C93828112968C931297EF016E
:10121000C05CDF4FCD01805C9F4FAF0140595F4FF5
:101220002991FC012193CF01C417D507C9F7B093C9
:10123000CB01A093CA018091E9028130F9F048F016
:10124000843008F0B3C081E08093EB02C0E0D0E0CE
:101250003DC00E942F11882309F4A8C00E940E11DE
:10126000882309F4A3C0809188019091890190930B
:10127000CB018093CA010E94E61051C00E9429064A
:10128000882309F493C080E78093EB020E9449060B
:10129000882309F48BC080918801909189019093F3
:1012A000CB018093CA010E94BC0539C0C093E502FE
:1012B000F093CB01E093CA018091E9028330B9F445
:1012C0000E94C2192196C034D105B1F0E0918A0183
:1012D000F0918B01A0918801B0918901AC0FBD1FE5
:1012E000EC0FFD1F9C9180819813E0CFEBCF8230F3
:1012F00049F70E940406E6CF1092E50280E780934A
:10130000EB0280918801909189019093CB018093A9
:10131000CA018091E902833029F40E94AC1981113D
:1013200031C044C0823009F041C0EFE3FCE931979D
:10133000F1F700C000000E94E4058823B9F18FE3B3
:101340009CE90197F1F700C000001CC0C1E001C09A
:10135000C2E08DEB96E00E94C313C11103C088EB7D
:1013600096E008C0C23021F484EC96E00E94C313DA
:1013700085EF96E00E94C3130E9412138C2FDF9119
:10138000CF910895E0918A01F0918B01A09188019D
:10139000B0918901CF0180599F4FC0E031912D91CB
:1013A0003213C3E0E817F907C9F7D3CFC3E0D1CFB1
:1013B0002F923F92FF920F931F93CF93DF9300D012
:1013C0001F92CDB7DEB71B8281E08983789415E048
:1013D0000EE181E2F82E8B81893089F4E0918A0157
:1013E000F0918B0181858A83CE0101961C010E94B8
:1013F0006D06E0918A01F0918B018A8181878B8152
:101400008F3089F4E0918A01F0918B0182858A8383
:10141000CE0101961C010E946D06E0918A01F091B7
:101420008B018A8182878B81823189F4E0918A01E4
:10143000F0918B0183858A83CE0101961C010E9465
:101440006D06E0918A01F0918B018A8183878B81FF
:10145000833189F4E0918A01F0918B0184858A833C
:10146000CE0101961C010E946D06E0918A01F09167
:101470008B018A8184878B81843189F4E0918A0190
:10148000F0918B0187858A83CE0101961C010E9411
:101490006D06E0918A01F0918B018A8187878B81AB
:1014A0008630A9F48091F503813089F4E0918A01B6
:1014B000F0918B0180858A83CE0101961C010E94E8
:1014C0006D06E0918A01F0918B018A81808780917D
:1014D000F503E0918A01F0918B01882329F0823095
:1014E000D9F582818031C0F18B8181110DC083815A
:1014F0008A83CE0101961C010E946D06E0918A014B
:10150000F0918B018A8183838B81813089F4E09112
:101510008A01F0918B0184818A83CE0101961C019E
:101520000E946D06E0918A01F0918B018A8184838B
:101530008B81823089F4E0918A01F0918B01858161
:101540008A83CE0101961C010E946D06E0918A01FA
:10155000F0918B018A8185838091F503882369F15D
:101560008B81853089F4E0918A01F0918B0187812C
:101570008A83CE0101961C010E946D06E0918A01CA
:10158000F0918B018A8187838B818831B1F4E0915E
:101590008A01F0918B018281813178F081A18A8367
:1015A00010938C01CE0101961C010E946D06E09102
:1015B0008A01F0918B018A8181A38B818730D1F4DC
:1015C0008091F503E0918A01F0918B01882329F045
:1015D0009281943178F4823069F486818A83CE01D5
:1015E00001961C010E946D06E0918A01F0918B0129
:1015F0008A8186838091E902811142C0E0918A014B
:10160000F0918B0182818331D8F58B818A3069F426
:1016100082898A83CE0101961C010E946D06E091A9
:101620008A01F0918B018A81828B8B818B3089F4C6
:10163000E0918A01F0918B0183898A83CE01019622
:101640001C010E946D06E0918A01F0918B018A8154
:10165000838BE0918A01F0918B0182818D3080F043
:101660008B81883069F4808D8A83CE0101961C01BC
:101670000E946D06E0918A01F0918B018A81808F32
:10168000E0918A01F0918B0182818B3038F18B815E
:101690008C3069F485898A83CE0101961C010E94F1
:1016A0006D06E0918A01F0918B018A81858B8B8197
:1016B0008E30A1F4E0918A01F0918B018281833117
:1016C00068F486898A83CE0101961C010E946D060A
:1016D000E0918A01F0918B018A81868B8B81803128
:1016E000A1F4E0918A01F0918B0182818E3068F43F
:1016F00084898A83CE0101961C010E946D06E091C7
:101700008A01F0918B018A81848B8091F50381118C
:1017100041C08B81853189F4E0918A01F0918B0180
:1017200080898A83CE0101961C010E946D06E0919A
:101730008A01F0918B018A81808B8B81843099F4AE
:10174000E0918A01F0918B0181898A8310938C0149
:10175000CE0101961C010E946D06E0918A01F09174
:101760008B018A81818BE0918A01F0918B018281CA
:101770008C3080F08B81833069F487898A83CE0135
:1017800001961C010E946D06E0918A01F0918B0187
:101790008A81878BE0918A01F0918B0182818D3063
:1017A00008F47FC08B81863179F4818D8A83109310
:1017B0008C01CE0101961C010E946D06E0918A0108
:1017C000F0918B018A81818F8B81873199F4E0912F
:1017D0008A01F0918B01828D8A8310938C01CE0156
:1017E00001961C010E946D06E0918A01F0918B0127
:1017F0008A81828F8B81893199F4E0918A01F091FD
:101800008B01838D8A8310938C01CE0101961C017C
:101810000E946D06E0918A01F0918B018A81838F8D
:101820008B818A3199F4E0918A01F0918B01848D4A
:101830008A8310938C01CE0101961C010E946D06D3
:10184000E0918A01F0918B018A81848F8B818B31A9
:1018500089F4E0918A01F0918B01858D8A83CE0114
:1018600001961C010E946D06E0918A01F0918B01A6
:101870008A81858F8B818D30A1F4E0918A01F0916E
:101880008B018281833168F4868D8A83CE01019633
:101890001C010E946D06E0918A01F0918B018A8102
:1018A000868F8B818131A1F4E0918A01F0918B01C7
:1018B00082818E3068F0878D8A83CE0101961C016B
:1018C0000E946D06E0918A01F0918B018A81878FD9
:1018D0008B818C31A9F480910504882389F0E091F3
:1018E0008A01F0918B0180A18A83CE0101961C01AF
:1018F0000E946D06E0918A01F0918B018A8180A39C
:10190000E0918A01F0918B018281823140F18B81DB
:101910008D3189F48091F50381110DC082A18A83F4
:10192000CE0101961C010E946D06E0918A01F091A2
:101930008B018A8182A38B818E3189F4E0918A01A7
:10194000F0918B0183A18A83CE0101961C010E9434
:101950006D06E0918A01F0918B018A8183A3E09169
:101960008A01F0918B0182818431E0F18B818F318A
:1019700069F484A18A83CE0101961C010E946D0640
:10198000E0918A01F0918B018A8184A38B8180325E
:1019900089F4E0918A01F0918B0185A18A83CE01BF
:1019A00001961C010E946D06E0918A01F0918B0165
:1019B0008A8185A38B818132A9F48091F5038823E4
:1019C00089F0E0918A01F0918B0186A18A83CE0192
:1019D00001961C010E946D06E0918A01F0918B0135
:1019E0008A8186A300938C019B81943611F0983CE8
:1019F00019F50E948E138B81843639F48DEB96E0B5
:101A00000E94C3138FEA96E002C08BE296E00E9428
:101A1000C31361E080E00E9487138EE996E00E9484
:101A2000C3130E941213853081F4F89481E09B81E6
:101A3000943679F080E00DC08981890F8F3F39F0AD
:101A40008B838B81823208F4C6CC1B82C4CCFB8290
:101A5000F8CF0F900F900F90DF91CF911F910F91C2
:101A6000FF903F902F9008958DEF96E00E94C31352
:101A7000E0918A01F0918B01808190E00E94A9138E
:101A800080ED90E00E94C313E0918A01F0918B01F8
:101A9000818190E00E94A9138CEC90E00E94C31316
:101AA0008091F503813039F018F0823039F00895D3
:101AB00086E296E005C081E296E002C08BE196E006
:101AC0000C94C313CF93DF930E948E13C0E0D0E039
:101AD000E0918A01F0918B01EC0FFD1FE05AFF4F5E
:101AE00080810E9491132196C031D10589F761E070
:101AF00080E00E94871386EF93E00E949D130E946E
:101B000012130E948E130E94340D61E080E00E9447
:101B100087138BEC96E00E94C3138DEF96E00E9432
:101B2000C313E0918A01F0918B01828190E00E94C1
:101B3000A913DF91CF910C941213FF920F931F936F
:101B4000CF93DF931092C2010E948E1380918A017D
:101B500090918B010E94A908882309F4B7C0A09135
:101B60008A01B0918B01AF5BBF4FE6EFF3E08E2FA0
:101B70002EE02E0F11929D91933219F0EF012197D3
:101B800098832E13F7CF109204041092270410921A
:101B900005049091E9022EEF290F223080F505E629
:101BA00015E0CFE0C80FD1E0F8016591749186E0AF
:101BB00094E00E940B1AA6E0B4E0E6EFF3E0819116
:101BC0009D91891719F0992319F007C0811103C05D
:101BD000D093270402C0CE13F2CF0E5F1F4F85E0D3
:101BE0000938180709F791E09093C201E0918A0142
:101BF000F0918B018585853A09F045C03EC0923051
:101C000090F7C0E0DFE0D80FFF24F3940C2F10E032
:101C1000F801EE0FFF1FE253FB4F6591749186E0D0
:101C200094E00E940B1AA6E0B4E0E6EFF3E08191A5
:101C30009D91891719F0992319F01BC0811115C0C6
:101C4000E0918A01F0918B018281803128F4C430C7
:101C500078F4F09227040CC0F0922704F801E555BF
:101C6000FE4F80818093050403C0DE13E0CF01C0E6
:101C7000C5E1CF5FC53150F2B6CF86858A35A1F474
:101C80001092F50313C08A3531F48685853A61F4E4
:101C90009093F5030BC0853539F486858A3A21F493
:101CA00082E08093F50302C01092C2018091C201CC
:101CB000811103C081EF96E00BC0808184508B308E
:101CC00048F01092C2018DEF96E002C089EE96E0D6
:101CD0000E94C3138091C201882319F00E94620DF3
:101CE00006C085EF96E00E94C3130E9412138091F4
:101CF000C201DF91CF911F910F91FF9008950F9333
:101D00001F93CF93DF93D82F12E003E08091E90275
:101D1000843060F50E949D14DD23A1F00E945C11C7
:101D20008AEF9091C10094FF04C09091C00097FD8C
:101D30004CC0EFE7FEE33197F1F700C0000081509F
:101D400081F743C08AE396E00E94C3130E941213F6
:101D5000C82F0E948E13C33019F0C43039F0DACF87
:101D6000DF91CF911F910F910C945C110E948E1303
:101D70008AE596E00E94C31361E080E00E94871329
:101D80008BE496E00E94C3130E941213C82F0E9496
:101D90008E13C33071F028F4C23041F70093E9028A
:101DA0000DC0C43049F0C53009F781E08093E902E5
:101DB00005C01092E90202C01093E9026091E902A5
:101DC00080E090E00E94441AA1CFDF91CF911F9153
:101DD0000F9108958091C20181110E94620D0E94AD
:101DE0008E1382E097E00E94C3130E9412130E9498
:101DF0008E138EE991E00E949D1361E080E00E94C5
:101E000087138DEF96E00E94C31388E797E30E9443
:101E1000A9130E94121380E00C947F0E0E948E136F
:101E20008091C201882319F08CE796E002C08BE60E
:101E300096E00E94C31361E080E00E9487138DE862
:101E400096E00E94C3130E941213833021F118F40C
:101E5000823031F0E3CF843009F1853011F1DECFEB
:101E60008091C201882329F00E94D8098823B1F209
:101E700005C00E949D0D8111F7CFD0CF0E948E1317
:101E80008091C201882351F21092C1000E94D308B0
:101E90000E94CD19C3CF0E94EA0EC0CF0E949D0DB3
:101EA000BDCF8091E902811102C00C94880F089582
:101EB0001F93CF93DF930E948F120E94CD198CE065
:101EC0000E94D21380E50E947913CEE1D7E01C2F47
:101ED000105EFE0184910E94801321961C13F9CF9D
:101EE00080E090E00E943C1A843018F48093E9026C
:101EF00002C01092E90281E00E947F0EDF91CF9133
:101F00001F910C940E0F2B98000000002B9A08953F
:101F10001092CC011092CD011092CE011092CF01FF
:101F200093B193FB992790F9239A2B9880E88A958F
:101F3000F1F71C9992602C9824982B9A8AE08A9544
:101F4000F1F700C023989093CE0181E0911101C078
:101F500080E00895239A0E94830F249A08952C9874
:101F600024980E94830F23980895CF93DF930E94B3
:101F7000AA0F2C980E94830F2C9A0E94830F2C98F2
:101F80002498D8E0C0E0C6950E94830F1C99C068D1
:101F9000D150C9F70E94AF0F8C2FDF91CF910895D8
:101FA000CF93DF93CFEFDFEF0E94B50F80FD04C02A
:101FB000209711F02197F8CF81E0CD2B09F480E034
:101FC000DF91CF910895CF93DF93D82F0E94AA0F6E
:101FD0002C9A0E94830F0E94830FC8E0D0FF02C09A
:101FE0002C9A01C02C980E94830FD695C150B1F74E
:101FF000DF91CF910C94AF0FCF93DF932C9824985F
:10200000CFEFDFEF0E94830F219711F01C9BFACFD7
:1020100081E0CD2B09F480E0DF91CF910895CF933B
:10202000109228040E94AA0F2C980E94830F0E94ED
:10203000830F0E94830F0E94830F0E94FC0F88234E
:10204000A1F0C8E0809128048695809328040E941E
:10205000830F1C9B05C0809128048068809328040E
:10206000C15081F70E94AF0F81E0CF9108950E9487
:10207000D00F882349F00E940F10882329F081E0B7
:10208000909128049D3009F080E0089580E00E943E
:10209000E30F0E940F1080912804982F9D7F9830A5
:1020A00031F08B3221F0803311F0109228048091AE
:1020B00028048093CC010895CF93DF93D82F0E94FA
:1020C000AA0F2C9A0E94830F2C980E94830F0E94C3
:1020D000830F0E94830FC8E0D0FF02C02C9A01C07A
:1020E0002C980E94830FD695C150B1F70E94FC0F27
:1020F000882361F00E94AF0FCFEFDFEF0E94B50F92
:1021000081FF04C0209711F02197F8CFDF91CF9184
:1021100008958091EA020E945C108091E5020E947D
:102120005C108091EB020E945C100C943710CF93EE
:10213000C82F84EB0E94E30F8C2F0E945C10CF917C
:102140000C9437100E94880F811102C080E008951E
:102150000E9446108823D1F382E00E94E30F82E0C0
:102160000E945C1084E00E945C1087EB91E0019774
:10217000F1F700C0000081E00E945C109FE725EBB2
:1021800081E0915020408040E1F700C0000082E0F3
:102190000E9497108823D1F20E940F10809128048A
:1021A0008093CD018FEF0E94E30F80E80E945C10C6
:1021B0008FE99FE00197F1F700C000008FEE0E94C9
:1021C000E30F82E00E945C1081E00895CF9386E0E7
:1021D0000E949710811102C080E01EC00E948910E9
:1021E0008823D1F3C091EB020E94D00F8823A1F382
:1021F0000E940F10882381F3E091CA01F091CB0176
:10220000CF0101969093CB018093CA01809128045D
:102210008083C15049F781E0CF910895CF9387E043
:102220000E9497108823C1F00E9489108823A1F092
:10223000C091EB02E091CA01F091CB01CF01019670
:102240009093CB018093CA0180810E945C10C150A1
:1022500089F7CF910C94D00F80E0CF910895CF9360
:10226000C091EA02C695CF3090F488E00E949710A2
:10227000882369F08C2F0E945C100E9437108823FD
:1022800031F080E00E945C10CF910C94D00F80E080
:10229000CF91089583E00E949710882359F08EED26
:1022A0000E945C108DEA0E945C1085EA0E945C101E
:1022B0000C94D00F80E008958091E902882329F0E2
:1022C00084E08093B10023982B9A08951092CD0159
:1022D0001092CC010895AF92BF92DF92EF92FF92DD
:1022E0000F931F93CF93DF931F92CDB7DEB710925A
:1022F000CD011092CC018091E9028823C9F084308D
:1023000008F0C5C00E948E138EE397E00E94C313AD
:1023100061E080E00E9487138AE3A82EBB24B39477
:1023200093E1E92EF12C03E012E0DD24D3940FC0F9
:102330000E94A210AAC0232B09F097C08FEF99EF3B
:1023400020E0815090402040E1F700C00000A895B7
:1023500021E0A21AB108C501B7010E94F119892B29
:1023600021F480EC91E00E949D138CE30E94FC120A
:10237000811179C08091C10084FF04C08091C000A8
:1023800087FD71C00E94A618811107C00E94D50464
:10239000882329F01093E90202C00093E90280919A
:1023A000CC019091CD0187309349D9F08091CC0137
:1023B0009091CD018A309349A1F08091CC01909108
:1023C000CD018F30934969F02091CC013091CD013E
:1023D00091E080E02B30344909F090E0492F582FEC
:1023E00002C041E050E08091CC019091CD0180315C
:1023F000934FD9F08091CC019091CD018033934FD0
:10240000A1F08091CC019091CD018039934F69F07A
:102410002091CC013091CD0191E080E02035384F02
:1024200009F090E0E92FF82F02C0E1E0F0E041155B
:10243000510511F49F0102C021E030E08091E902D2
:10244000813039F0823049F4EF2B39F0D092E90233
:1024500004C0452B11F01093E902A114B10409F056
:102460006ACF822F03C080E001C081E09091EE022C
:102470008983992319F00E94BD1402C00E948E1313
:1024800089819091E9029093CF01811105C010924A
:10249000CD011092CC0180E00F90DF91CF911F9180
:1024A0000F91FF90EF90DF90BF90AF900895ACE751
:1024B000B0E080E48C93EAE7F0E082EC80838C91DA
:1024C000807F8C93808180648083089580917A00DE
:1024D00086FDFCCF209178003091790090917A00B0
:1024E000906490937A00C90108950E946612833621
:1024F00022E0920758F4873821E0920748F4833DA0
:10250000910540F4CD9740F488E007C080E005C015
:1025100080E103C084E001C080E2809508950E94BC
:10252000571285E085BD84E686BDEEE6F0E0808149
:102530008160808308951F920F920FB60F9211242D
:102540002F933F934F935F936F937F938F939F93BB
:10255000AF93BF93CF93EF93FF93C0912B040E944F
:10256000751280958C2794E696BD2091C50128238D
:1025700020952093C5019091C401982392279093B0
:10258000C4018223892390912B04982790932B04D4
:1025900020912B0490912A048223892B80932A0472
:1025A00080912B048C7319F486E48093C30180918D
:1025B000C30181508093C30181110CC080918C01B3
:1025C0008093C30180912B04909129048C73892BF3
:1025D00080932904FF91EF91CF91BF91AF919F918B
:1025E0008F917F916F915F914F913F912F910F90BC
:1025F0000FBE0F901F901895F89490912A0489238C
:1026000090912A04982790932A0478940895F89436
:102610009091290489239091290498279093290463
:1026200078940895CF93CFB778948091C10084FFB8
:102630000AC08091C00087FF06C00E94C314109298
:10264000EE0280E015C084E00E94FC12811113C0EC
:1026500088E00E94FC12811110C080E10E94FC12EF
:1026600081110DC080E20E94FC128823F1F285E006
:10267000CFBFCF91089582E0FBCF83E0F9CF84E014
:10268000F7CF299A00C029980895CF93DF931F921E
:10269000CDB7DEB7662311F0289A01C02898549A66
:1026A000559A569A579A5F985E985D985C9887FD00
:1026B0005F9A86FD5E9A85FD5D9A84FD5C9A8983AA
:1026C0000E9441135F985E985D985C98898183FDB4
:1026D0005F9A82FD5E9A81FD5D9A80FD5C9A0E9400
:1026E00041135C9A5D9A5E9A5F9A0F90DF91CF9149
:1026F0000895E0E4FFE13197F1F760E00C944513B1
:10270000E0E4FFE13197F1F761E00C9445136111CA
:1027100002C0805801C080540C94791381E00C945D
:102720007913E0E4FFE13197F1F78A3019F480EC96
:102730000C94791361E00C944513CF93DF93EC0173
:102740008991882319F00E949113FACFDF91CF91DC
:102750000895CF93DF9300D000D000D0CDB7DEB77F
:102760004AE0BE016F5F7F4F0E94121ACE010196B0
:102770000E949D1326960FB6F894DEBF0FBECDBF04
:10278000DF91CF910895CF93DF93FC018491EF0106
:102790002196882321F00E949113FE01F7CFDF914B
:1027A000CF9108951F93CF93DF93182F209A219AEA
:1027B000549A559A569A579AE0E0FAEF3197F1F702
:1027C0005D9A5C9A0E944113E0E0FEE43197F1F7D4
:1027D0000E944113C0E0D1E0FE013197F1F70E9461
:1027E0004113FE013197F1F75C980E944113219744
:1027F000F1F788E20E94791388E00E9479130E9421
:102800008E1386E00E947913812FDF91CF911F9163
:102810000C9479130FB6F894A895809160008861A4
:1028200080936000109260000FBE0E94580F9BE0E2
:1028300088E10FB6F894A895809360000FBE90933E
:102840006000FFCF9627092E0294202D2F70292794
:10285000692F6025660F607E2627602D6927607FBF
:102860006695092E000C661F9695969596959F7114
:1028700096279827822F08952F923F92FF920F93C9
:102880001F93CF93DF93E1016EE280E090E00E941E
:1028900022146F810E9422146091EA020E94221485
:1028A0006091E5020E9422146E810E942214482F3A
:1028B000392F2C81FE80022F1D81F20EF8016191CB
:1028C0008F01842F932F0E942214482F392FF0124A
:1028D000F5CF6B810E942214082FF92E8EE20E9400
:1028E000DF198F810E94DF198091EA020E94DF19AF
:1028F0008091E5020E94DF198E810E94DF191E81FE
:10290000EC81FD8180810E94DF192C813D812F5F48
:102910003F4F3D832C83115099F78B810E94DF1923
:102920008F2D0E94DF19802FDF91CF911F910F9182
:10293000FF903F902F900C94DF190E948E1361E05E
:1029400082E00E9487138091E902813059F038F0CB
:10295000823059F0833069F48EE497E008C084E750
:1029600097E005C08AE597E002C087E697E00E94FD
:10297000C31360E080E00C9487130E949D1480E8EC
:1029800097E00C94C313CF93DF93CDB7DEB72A97AC
:102990000FB6F894DEBF0FBECDBF81E08093EE028C
:1029A0000E94BD14F8946E0189E0C80ED11C9FE00E
:1029B000B92E0FEE12E020EDE22E21E0F22E34E0EF
:1029C000A32E4EE9842E41E0942E0FB6F894A895DC
:1029D00080916000886180936000109260000FBE5B
:1029E000712C0E94EA19811115C0739493E0791239
:1029F000F8CF0E948E138FE897E00E94C3139BE0EC
:102A000088E10FB6F894A895809360000FBE90936C
:102A10006000FFCF8F3221F71A861986DE82CD82C1
:102A2000E1E0EF830E94EA1988878F3219F40E944F
:102A3000EA198887F8E10FB6F894A895F09360003A
:102A40000FBEB09260006FE280E090E00E9422141E
:102A500068850E9422143C010E94EA198093EA02D0
:102A6000682FC3010E9422143C010E94EA1980933E
:102A7000E502682FC3010E9422143C010E94EA195A
:102A80008B83682FC3010E9422142C013B808FEEA0
:102A9000682E82E0782E360C0E94EA19F3018193A9
:102AA0003F01682FC2010E9422142C013610F4CF7E
:102AB0000E94EA198A830E94EA19898389819A818E
:102AC0008415950511F083E001C080E08C838111AD
:102AD0003AC11093CB010093CA01E8858E2F90E094
:102AE000FC01F097E031F10508F02BC1EA5AFF4FE5
:102AF0000C94051A8091CC01882309F424C180919B
:102B0000E902833028F4813060F40E94461005C049
:102B1000833009F018C10E942718811114C1BC82AA
:102B200012C10E942F05F9CF8AE689870CC18CE07B
:102B30008F839E828D8207C182E08F838EE8898792
:102B40001A8601C1CE0101961C010E943C1480919D
:102B5000E902882329F0843028F423982B9A02C0B4
:102B60000E94880F0E94661198E088E10FB6F894E1
:102B7000A895809360000FBE90936000FFCF809176
:102B8000EF02843010F089E0DDC08093E9020E94FA
:102B90005C110E94BD14D7C08091E902882339F0EE
:102BA000833008F0D0C080E00E944B05CCC00E946A
:102BB000880FC9C0AF82ECECF1E0FE83ED830E9488
:102BC0006B11ABCF8091E9028111BDC02B98BBC0C6
:102BD0008091E902833030F4813008F0B2C00E9465
:102BE0004A119BCF833009F0AEC00E94781995CF6F
:102BF0009091E902923020F0943008F0A4C0A1C076
:102C00008091EF028987880F8093EA021092E50293
:102C1000911103C00E942F1180CF0E9429067DCF01
:102C20008091EF028093EB028091E902833028F4D7
:102C3000813040F40E94E6101BC08330E1F40E9412
:102C4000A11916C00E94BC0513C08091EF028093A9
:102C5000EB028091E902823049F028F0833059F488
:102C60000E94AC1905C082E08C8305C00E94E40577
:102C7000811101C0BC828C81811165C08091EB0201
:102C80008F831E830D835FC08B818093EB02BC8298
:102C90008091E902833018F4813038F038C08330F5
:102CA00009F051C00E94B71949C00E940E11882333
:102CB00009F449C0F092CB01E092CA010E94E610EB
:102CC000882309F440C01C821093CB010093CA01F1
:102CD000F092E802E092E7028091EB02A091CA0133
:102CE000B091CB01E091E702F091E8022C91908144
:102CF0002913AC821196B093CB01A093CA013196EF
:102D0000F093E802E093E702815041F71CC00E9473
:102D10004906882309F403CF1C8215C08B81809358
:102D2000EB02BC828091E902823031F050F08330B6
:102D300051F40E94C21902C00E9404068111ECCF16
:102D400002C082E08C83CE0101961C010E943C14DB
:102D50003CCE9091300498279093300498E02B9AC1
:102D60001092B20080FF0FC02091B2002031E0F33A
:102D70002B981092B2002091B2002031E0F386959A
:102D8000915069F708952091B2002830E0F32B9814
:102D90001092B2002091B2002830E0F32B9A1092EA
:102DA000B2002091B2002830E0F32B981092B200CC
:102DB0002091B2002830E0F3E2CF239A8FEF0E94F7
:102DC000A9168FEF0E94A9168FE70E94A9161092EC
:102DD00030048BE10E94A91680912D048F5F8093AF
:102DE0002D040C94A916809130040E94A9162B9AE8
:102DF0001092B2008091B2008830E0F323980895D9
:102E00001092B2001B9B0AC08091B2008E37D0F3A3
:102E10008FEF08958091B2008E37D0F71B9BFACFC9
:102E20008091B20080932F0490913104981788F01C
:102E30001092B2001B9B09C08091B2008E37D0F374
:102E4000E7CF8091B2008E3718F71B9BFACF80E056
:102E5000089581E00895FC01108280E090E041E057
:102E600050E01092B2001B9B0AC02091B2002E3796
:102E7000D0F380E008952091B2002E37D0F71B9B4D
:102E8000FACF3091B20020913104231780F01092D4
:102E9000B2001B9B09C02091B2002E37D0F3E9CFBE
:102EA0002091B2002E3728F71B9BFACF09C0608112
:102EB0009A01082E01C0220F0A94EAF7262B2083DC
:102EC00001968830910569F690912C0480818927BC
:102ED00080932C0481E00895CF93DF9388E1809361
:102EE000310480912E04853139F0823129F081300E
:102EF00031F0C6E4D0E005C0C0E6DAEE02C0C1E0C1
:102F0000D0E00E94001787FF04C02197D1F780E02E
:102F100017C0CAE00E9400178F3FC9F3C150D1F714
:102F200080912F04982F969596958695890F80937A
:102F300031040E9400178F3F51F31816D4F381E03B
:102F4000DF91CF910895EF92FF920F931F93CF934C
:102F5000DF9300D01F92CDB7DEB77C011B820E94A9
:102F60006C17811102C080E068C010922C04CE0161
:102F700003960E942B178823B1F38B818B3199F72D
:102F8000CE0103960E942B17882369F39B818091C1
:102F90002D049813E8CFCE0102960E942B178823A8
:102FA00011F38A818230F8F6CE0101960E942B1728
:102FB0008823C9F289819A81892BA9F2CE010396CF
:102FC0000E942B17882379F28B818E3061F6CE0117
:102FD00003960E942B17882331F29B8180912E0447
:102FE0009813C1CFCE0103960E942B17882309F4B2
:102FF000BACF8B818111B7CF00E010E0C701800FFD
:10300000911F29813A81225031090217130740F498
:103010000E942B17882309F4A6CF0F5F1F4FEECF16
:10302000CE0103960E942B17882309F49CCF809130
:103030002C04811198CF2B9A81E00F900F900F9064
:10304000DF91CF911F910F91FF90EF900895CF9353
:10305000DF931F92CDB7DEB781E080932E040E94EC
:10306000DD1680E00E94A91681E00E94A9168EE07C
:103070000E94A91681E00E94A9160E94F31684ED11
:1030800092E00E94A317811105C089830E946611F6
:10309000898101C081E00F90DF91CF910895FF9267
:1030A0000F931F93CF93DF9300D0CDB7DEB78C0182
:1030B000F62E8DE180932E042A8349830E94DD162B
:1030C00080E00E94A91688E00E94A9168EE00E9466
:1030D000A9168DE10E94A91684E00E94A91684E039
:1030E0000E94A91680E00E94A9168F2D0E94A916A1
:1030F0004981842F0E94A9162A81822F0E94A91635
:1031000080E00E94A9160E94F31684ED92E00E94CE
:10311000A317882399F08091D40281110EC0909159
:10312000D5029F1511F0911108C08091D60281112E
:1031300004C08091D702F801808381E00F900F9046
:10314000DF91CF911F910F91FF9008950E94271852
:10315000882399F021E040E060E38DEC91E00E944B
:103160004F18882351F022E040E060E38CEC91E0BE
:103170000E944F1891E0811101C090E0892F0895BD
:103180008091EA028F3F21F48091E5028F3F29F17F
:1031900086E080932E040E94DD1680E00E94A9162E
:1031A00085E00E94A9168EE00E94A91686E00E9482
:1031B000A91680E00E94A91680E00E94A9168091BD
:1031C000EA020E94A9168091E5020E94A9160E94B7
:1031D000F31684ED92E00C94A31781E00895CF9349
:1031E000C1E08091EB028111C0E00E94DD1680E019
:1031F0000E94A91684E00E94A9168EE00E94A916DA
:1032000080912E040E94A9168C2F0E94A9168091ED
:10321000EB020E94A91680EA0E94A9160E94F316EA
:103220008091CA019091CB01CF910C94A317FF928A
:103230000F931F93CF93DF931F92CDB7DEB700910B
:10324000EB02002341F0202F30E0265F3F4F122F8A
:10325000832FF12C04C01AE081E0FF24F3948983CA
:103260000E94DD1689810E94A916812F0E94A9164D
:103270008EE00E94A91680912E040E94A9168F2D1F
:103280000E94A916802F0E94A91680E00E94A9160C
:1032900080E00E94A91680E00E94A91680E00E94AA
:1032A000A91680E00E94A91680E00E94A91680E07D
:1032B0000E94A916E091CA01F091CB0180810E9481
:1032C000A9168091CA019091CB0101969093CB01F0
:1032D0008093CA01015071F70E94F31684ED92E0C9
:1032E0000F90DF91CF911F910F91FF900C94A31736
:1032F00082E180932E040E94DD1680E00E94A916D0
:1033000087E00E94A9168EE00E94A91682E10E9421
:10331000A91684E10E94A91680E00E94A9168CEAF1
:103320000E94A91688E80E94A91683E10E94A916A6
:1033300086E70E94A9160E94F31684ED92E00C9491
:10334000A3170E94C018882329F084E180932E04DB
:103350000C94EF1880E008950E94C018882329F08B
:1033600086E180932E040C94EF1880E008950E946B
:10337000C018882329F083E180932E040C94171938
:1033800080E008950E94C018882329F085E1809389
:103390002E040C94171980E00895E0ECF0E0808191
:1033A0008D7F808389E190E09093C5008093C40075
:1033B00086E08093C20088E18093C10008959091D7
:1033C000C00095FFFCCF8093C6008091C00086FFAF
:1033D000FCCF08958091C00087FFFCCF8091C6008C
:1033E0000895AA1BBB1B51E107C0AA1FBB1FA6174C
:1033F000B70710F0A61BB70B881F991F5A95A9F79E
:1034000080959095BC01CD010895EE0FFF1F0590AA
:10341000F491E02D0994FB01DC0105900D92002050
:10342000E1F70895BB27FB015527AA27880F991FAD
:10343000AA1FA41710F0A41B83955051B9F7A05DE3
:10344000AA3308F0A95DA193009779F7B111B19360
:103450001192CB010C942C1ADC01FC01672F7191A5
:103460007723E1F7329704C07C916D93708362916A
:10347000AE17BF07C8F30895F999FECF92BD81BD7D
:10348000F89A992780B50895262FF999FECF92BD15
:1034900081BDF89A019700B4021639F01FBA20BD19
:1034A0000FB6F894FA9AF99A0FBE0895F894FFCFE0
:1034B000010D5702010D4B020104410201029A0164
:1034C00000FFA4010105360201052B0201051F02C0
:1034D00001028D0101051302010509020105FD012B
:1034E0000105F001010D44010105E5010104DC01C4
:1034F0000102D201010539010102C8010102BE0128
:103500000001B6010001AF01007D800182FF73015F
:1035100001FE200101FF680101FF5B0101054E0171
:1035200000012D0101111301000106010001FA0043
:103530000001F0000105E500D001EF0214000000D9
:1035400000000000000D424C48656C69F47D347742
:1035500041554E6D333238503136000000000000C6
:103560000000000000000002000000010100000057
:023570002E002B
:00000001FF
