:100000000C94E6030C9403040C9403040C94030472
:100010000C9403040C9403040C9403040C94030444
:100020000C9403040C9403040C9403040C94030434
:100030000C9403040C9403040C9403040C94030424
:100040000C94A0120C9403040C9403040C94030469
:100050000C9403040C9403040C9403040C94030404
:100060000C9403040C9403044F074F075607FD0735
:10007000EE076407B2076B070F0886079C07A70700
:10008000B2074D08B907C007D2075408D907E007DF
:10009000E707E7071A081A081A08280828082D0889
:1000A00028082808E707E707E7072808270A3C0A7F
:1000B000510AA00B8A0B660A7B0A900AB80BA50AA4
:1000C000B70AD10AEB0A490C010B180B2A0B600C7A
:1000D000400B520B640B760BD30BEB0B8D0C030C0C
:1000E0001B0C330C760CA80CC00CD60CEB0C000DC2
:1000F0007D15941597159C15A315CE15AA16DC151C
:10010000E915F91514164816E31529169516C115A3
:10011000202D20002E002020202020202020202004
:10012000202000202020003D0050574D20446974BD
:100130006865720050574D20496E70757400506F9D
:10014000772050726F746563740054656D70205031
:10015000726F746563740053706F6F6C75702054A8
:10016000696D650050504D2043656E205468726F74
:100170000042454320566F6C746167650044656DAD
:10018000616720436F6D70005468726F2052617414
:100190006500426561636F6E2044656C6179004261
:1001A0006561636F6E20537472656E0042656570A1
:1001B00020537472656E0050504D204D617820546C
:1001C00068726F0050504D204D696E205468726FF8
:1001D000005374617274204D6574686F6400474FFA
:1001E000562052616E676500474F56205461726712
:1001F00065740052652D41726D0054582050726F25
:100200006700496E70757420506F6C004D6F746F8D
:10021000722044697200566F6C7420436F6D7000D9
:1002200050574D20467265710044616D7020466FD5
:10023000726365004D6F746F722054696D696E67EB
:1002400000537461727420416363656C0053746180
:1002500072742052504D00537461727420506F7745
:100260006572004C6F772056204C696D6974004DA3
:100270006F746F722049646C65004D6F746F7220EB
:100280004761696E00474F5620204D6F64650047F7
:100290004F56202049204761696E00474F56202065
:1002A00050204761696E000904F904D6040904A3CB
:1002B000039C0394038D036A04600451044204897F
:1002C0000374046A0460045B048903DC03D503CA75
:1002D00003C803C603C403C203BF03BC03B903B608
:1002E00003B303B003AC03A80309040604D604E770
:1002F00004F904D604F904ED03E403FF03F603CC88
:1003000003D604F904B1040000D604F904B804B11A
:1003100004C504F904EE04DB04D604CE0424041F4F
:10032000046A0465041A042E0429046A043304656B
:1003300004AB04A5049F04990493048D047E0479FE
:100340000474046F046A0433046504F904EE04E7DA
:1003500004DB04D6046F043D046A0438043304D675
:1003600004E704F9040904170413040D04090488BC
:100370000483047E04790474046F046A04650460D1
:10038000045B0456044C044704496E6600372E355E
:100390002F313500372E352F372E350031352F3799
:1003A0002E350031352F30003235350031323800EE
:1003B0003634003438003332003234003136003104
:1003C000320038003600340033003200426964697C
:1003D0007265637400446972656374005374657078
:1003E000706564004E6567617469766500506F736F
:1003F0006974697665005265766572736564004E4E
:100400006F726D616C004F4E004F4646005345546D
:1004100055500041524D00545800322E33300030B8
:100420002E373000302E343000302E383000302E51
:10043000363700312E323500312E313200302E3831
:10044000380031302E3000382E303000362E30302B
:1004500000352E303000342E303000332E30300056
:10046000322E303000312E353000312E3030003019
:100470002E373500302E353000302E333800302EF8
:10048000323500302E313700302E313300302E31EE
:10049000383800302E31323500302E3039340030CB
:1004A0002E30363300302E30343700302E3033319A
:1004B0000044616D7065640044616D706564204C3A
:1004C000696768740056657279204C6F77004869D7
:1004D00067686573740048696768004D656469758D
:1004E0006D2048696768004D656469756D004D65EC
:1004F0006469756D204C6F77004C6F770097059499
:100500000590058A0585057C0579056E05640562FB
:100510000559054E0547053C053A05380536052BB6
:100520000528052505465600526F0046435F466183
:100530006972795F33004D0058005000416C696763
:100540006E424C333550005467794B463400547535
:10055000726E696779414534005475726E696779C6
:100560004E004500506C6174696E756D3500416CCC
:1005700069676E424C33355800484B005475726EB3
:100580006967793400536B797700585037414600DA
:1005900058503300537500440044063A063006268E
:1005A000061C06120610060606FC05F205E705DC29
:1005B00005D405CA05C805C405BB05537570657229
:1005C000535F340053756E0052004D797374657239
:1005D000795F34004D537461725F34004D53746120
:1005E000725F32304176004D537461725F32304138
:1005F0005F00484B5F554245435F3400484B5F55B1
:100600004245435F330048485F554245435F3200EF
:100610004400426C75655365725F3700426C7565C6
:100620005365725F3600426C75655365725F3300C7
:10063000426C75655365725F3200426C7565536537
:10064000725F310041004C6F6F70004D554C544942
:10065000005441494C004D41494E0043616E636571
:100660006C202620457869743F0004204564697435
:100670002020202020204F4B2005007369424C424F
:1006800020022003206174534B0004206174424C0B
:100690004220202073694332200500042052656106
:1006A000642020202020426F78200500042052651D
:1006B000616420202020424553432005004578698D
:1006C0007420200220032020536574757000596542
:1006D0007320202002200320202020204E6F007451
:1006E0006F20424553433F00204F4B200057726913
:1006F00074652000546172676574004C61796F7590
:10070000742000206D696E0020562F63656C6C00AC
:10071000332E00207553656300436F6E6E656374FE
:10072000004D656D00204572726F72210052657632
:100730002E00424C48656C69537569746520426FA0
:10074000780A2020202062792034373132000004DA
:100750000E1F04040400000404041F0E040000041F
:100760000C1F0C0400000004061F06040000506F5C
:1007700077657220757020424553432021004174F3
:100780006D20536B2D4D6F64650053696C20424C96
:10079000422D4D6F64650041746D20424C422D4DD9
:1007A0006F64650053696C2043322D4D6F646500A2
:1007B0002020504320496E74657266616365005560
:1007C00070646174696E672E2E2E000011241FBEA6
:1007D000CFEFD8E0DEBFCDBF11E0A0E0B1E0ECEBA1
:1007E000F4E302C005900D92A23CB107D9F724E0D2
:1007F000A2ECB1E001C01D92A233B207E1F70E9462
:100800000D140C945C1A0C94000081E08093E402B7
:1008100083ED95E41B9903C01092B20004C00197C8
:100820000097C1F727C08091B2008730E0F31B9991
:1008300021C020E030E080E097E041E050E0935FAD
:100840006091B2006917E0F31B9B07C0BA01022E4A
:1008500001C0660F0A94EAF7862B2F5F3F4F9F3641
:1008600071F79091B2009B37E0F31B9B03C010928D
:10087000E402089580E008952B981092B2009091C0
:10088000B2009D30E0F39DE080FF02C02B9A01C0D2
:100890002B98935F86952091B2002917E0F3953746
:1008A00099F72B9A8091B2008238E0F30895409135
:1008B000C7018091EC029091ED0258E09C01242741
:1008C0009695879520FF04C021E0822720EA922791
:1008D0004695515099F74093C7019093ED0280934C
:1008E000EC0208951F93CF93DF93162F1092ED0221
:1008F0001092EC021092C9011092C8012FEF2093C0
:10090000C601C82FD92F180F0E9405048093C70174
:100910009091E40291112BC089930E9457041C13FB
:10092000F3CF8091CC018823F1F00E9405048093DD
:10093000C8018091E40281111AC00E9405048093CD
:10094000C9018091E402811112C02091EC02309122
:10095000ED028091C8019091C9012817390719F05B
:1009600082EC8093C6010E9405048093C60181E059
:100970009091C601903309F080E0DF91CF911F91F3
:1009800008950F931F93CF93DF931F92CDB7DEB7D8
:10099000239AE7ECF0E03197F1F700C000001092E5
:1009A000ED021092EC028C01680FF80181918F0129
:1009B0008093C70169830E943C040E9457046981A7
:1009C0006013F3CF8091CC01882341F08091EC0239
:1009D0000E943C048091ED020E943C0423980F90F9
:1009E000DF91CF911F910F910895CF93DF93CDB7F2
:1009F000DEB76D970FB6F894DEBF0FBECDBF84E3B0
:100A000097E3A1E38B8F9C8FAD8F81E1EDE8F1E05F
:100A1000DE01119601900D928A95E1F761E1CE0118
:100A200001960E94C10468E0CE0142960E947204C1
:100A30008823C1F0FE017296DE015B96CE014596D9
:100A400031912D9132130EC0E817F907C9F78D893E
:100A50008093CE018E898093CD018F898093CC01C4
:100A600081E001C080E06D960FB6F894DEBF0FBE46
:100A7000CDBFDF91CF910895CF93C82F0E94050479
:100A80008093C601C1508091E402882329F0C111EE
:100A9000F5CF8FEF8093C6018091C601CF91089565
:100AA000CF93DF9300D0CDB7DEB78DEF89831A8265
:100AB00062E0CE0101960E94C10481E00E943C05E3
:100AC000813C21F00E946E1180E001C081E00F9016
:100AD0000F90DF91CF910895CF93DF9300D0CDB7E2
:100AE000DEB719821A8281E08093CC0162E0CE01E8
:100AF00001960E94C1040E946E110F900F90DF9129
:100B0000CF910895CF93DF9300D000D0CDB7DEB75B
:100B10009091EA028091E5029F3F11F48F3F91F09E
:100B20002FEF29831A829B838C8364E0CE01019688
:100B30000E94C10482E00E943C0591E0803319F0DC
:100B400090E001C091E0892F0F900F900F900F90CF
:100B5000DF91CF910895CF93DF9300D000D0CDB730
:100B6000DEB78EEF89831A821B828091EB028C8321
:100B7000811102C081E08B8364E0CE0101960E9466
:100B8000C10482E00E943C058F3F71F46091EB024A
:100B90008091CA019091CB010E94C10488E20E9419
:100BA0003C0591E0803309F090E0892F0F900F9081
:100BB0000F900F90DF91CF910895CF93DF9300D0E6
:100BC000CDB7DEB70E9482058823D9F08091EB0271
:100BD0008A838091E902813021F0823021F487E01C
:100BE00001C083E0898362E0CE0101960E94C104C6
:100BF0006091EB028091CA019091CB010E94720436
:100C000001C080E00F900F90DF91CF910895CF93B6
:100C1000DF9300D0CDB7DEB70E948205882399F01C
:100C200084E089838091EB028A8362E0CE010196A1
:100C30000E94C1046091EB028091CA019091CB01A6
:100C40000E94720401C080E00F900F90DF91CF915D
:100C50000895CF93DF9300D0CDB7DEB70E94820511
:100C6000882399F00E94AB05882379F085E0898379
:100C700081E08A8362E0CE0101960E94C1048FEF79
:100C80000E943C0591E0803309F090E0892F0F909D
:100C90000F90DF91CF910895CF93DF9300D0CDB720
:100CA000DEB70E948205882379F082E0898381E0A3
:100CB0008A8362E0CE0101960E94C10484E00E9412
:100CC0003C0591E0803309F090E0892F0F900F9060
:100CD000DF91CF910895CF93DF9300D0CDB7DEB7EA
:100CE0000E948205882391F00E94AB05882371F051
:100CF00081E089838A8362E0CE0101960E94C1046B
:100D000084E00E943C0591E0803309F090E0892F57
:100D10000F900F90DF91CF9108952F923F92AF9255
:100D2000BF92DF92EF920F931F93CF93DF93E10176
:100D300081E09981911180E0D82ED1940E94931383
:100D4000EA8124E0E29FF0011124E050FF4F82810C
:100D500093810E94C8138A81833060F48091F503E7
:100D6000823041F460E080E00E948C1386E496E0DB
:100D70000E94C81361E080E00E948C1387E291E03A
:100D80000E94C8138A8194E0899FF0011124E050E9
:100D9000FF4FE0801181E0918A01F0918B018F304B
:100DA00091F49281923148F49091F503992329F1BD
:100DB00090912704992309F125C09091270491115E
:100DC0001CC012E01FC08C3119F4109105041AC028
:100DD000873021F492819E30A8F013C0893039F415
:100DE0009281903160F49F3069F417E00BC08E302F
:100DF00049F49281903128F405C013E003C01DE04E
:100E000001C016E09281913160F0823129F4809125
:100E1000F503811105C005C0833011F0813109F45B
:100E200013E0AA24AA94B12C8981D81609F452C1DE
:100E300060E08DE00E948C1383E291E00E94C81371
:100E4000898160E0843610F08DE005C08A3010F0B2
:100E50008EE001C08FE00E948C13898190E00E9497
:100E6000AE1361E082E00E948C1386E191E00E9463
:100E7000C81361E082E00E948C130981101708F406
:100E800028C10E1508F425C14A8150E042325105AF
:100E900008F01FC14C5C5F4FFA010C940B1AE02F55
:100EA000F0E0EE0FFF1FE359FC4F0FC18091F503F7
:100EB000E02FF0E0EE0FFF1F811103C0EB59FC4F54
:100EC00004C1E35AFC4F01C1E02FF0E0EE0FFF1F19
:100ED000ED5AFC4FFAC0A0918A01B0918B01129695
:100EE0008C918E3010F0025001C001500F3F59F02C
:100EF00080E197E00E94C813802F90E00E94AE131B
:100F000088E097E0E4C089E094E0E1C0A0918A0124
:100F1000B0918B0112968C91803110F0EFEF05C0EB
:100F20008F3011F4E5E001C0E7E0E00FF0E0EE0FF4
:100F3000FF1FEF5CFC4FC9C08091E9028111C9C05D
:100F4000E02FF0E0EE0FFF1FEB5DFC4FBEC0809185
:100F5000E9028111BEC0E02FF0E0EE0FFF1FE55E59
:100F6000FC4FB3C0E02FF0E0EE0FFF1FE75BFC4F3C
:100F7000ACC0E02FF0E0EE0FFF1FE15FFC4FA5C01B
:100F8000A0918A01B0918B0112968C91E02FF0E034
:100F9000EE0FFF1F8B3018F4E150FD4F96C0E95F54
:100FA000FC4F93C0E02FF0E0EE0FFF1FE951FD4F23
:100FB0008CC0E02FF0E0EE0FFF1FE750FD4F85C023
:100FC000E02FF0E0EE0FFF1FEB50FD4F7EC0E02F53
:100FD000F0E0EE0FFF1FE751FD4F77C0F4E60F9FE3
:100FE000C0011124B5010E94F719CB0199270E9475
:100FF000AE1385E20E9496136CC0A0918A01B09155
:101000008B0112968C91E02FF0E0EE0FFF1F8131E3
:1010100018F0E551FD4F59C0EF50FD4F56C080917B
:10102000E902811156C0E02FF0E0EE0FFF1FE753F9
:10103000FD4F4BC0E02FF0E0CF0186509F4F880F4F
:10104000991F880F991F0E94AE1383E197E03FC05C
:10105000802F90E00E94AE133CC0A0918A01B09115
:101060008B018C9111962C9130E09AE0899F200D94
:10107000311D1124E02FF0E0EE0FFF1F2037310566
:101080001CF4E154FD4F02C0EB54FD4F8591949147
:101090000E94C81383E097E01AC0E02FF0E0EE0F43
:1010A000FF1FE353FD4F11C0A0918A01B0918B0146
:1010B00012968C91E02FF0E0EE0FFF1F813118F0B7
:1010C000EB55FD4F02C0E555FD4F859194910E946F
:1010D000C813D98084E00E940113882391F08FEF18
:1010E000888315E6EFE3FCE93197F1F700C00000D3
:1010F000115011F488EC37C00E947A1282FFF2CFAF
:1011000038C080E10E940113882331F08981E816FC
:1011100040F48150898305C080E10E940C13811145
:10112000F5CF88E00E940113882331F0898181176F
:1011300040F48F5F898305C088E00E940C13811101
:10114000F5CF80E20E940113882309F46DCE81E07F
:10115000888315E68FE39CE90197F1F700C0000052
:10116000115019F484E68A8304C00E947A1285FF24
:10117000F1CFDF91CF911F910F91EF90DF90BF9052
:10118000AF903F902F9008951092E50220E72093B2
:10119000EB029093CB018093CA010E9473118823C4
:1011A000D9F08091E902813071F040F0823081F015
:1011B000833091F41092EA020C94B2198AE1809380
:1011C000EA020C94EE108AE18093EA020C94DD05A9
:1011D0001092EA020C94070680E00895CF93DF9303
:1011E00080918801909189010E94C408882309F4A4
:1011F000C9C0E0918A01F0918B01A0918801B09162
:10120000890190818C919813BFC0918111968C9126
:1012100011979813B9C095851D968C911D979813B9
:10122000B3C096851E968C911E979813ADC01092F0
:10123000E50280E78093EB028C91808312968C917B
:101240001297828380E090E0ED01C80FD91FC05C47
:10125000DF4F2881EF01C80FD91FC05CDF4F288303
:1012600001968033910581F7F093CB01E093CA0199
:101270008091E9028130F9F048F0843008F09EC096
:1012800081E08093EB02C0E0D0E03DC00E943711C6
:10129000882309F493C00E941611882309F48EC094
:1012A00080918801909189019093CB018093CA012C
:1012B0000E94EE1051C00E944C06882309F47EC0A3
:1012C00080E78093EB020E946B06882309F476C0C6
:1012D00080918801909189019093CB018093CA01FC
:1012E0000E94DD0539C0C093E502F093CB01E09385
:1012F000CA018091E9028330B9F40E94C81921968D
:10130000C034D105B1F0E0918A01F0918B01A09138
:101310008801B0918901AC0FBD1FEC0FFD1F9C919E
:1013200080819813E0CFEBCF823049F70E942906E5
:10133000E6CF1092E50280E78093EB02809188016E
:10134000909189019093CB018093CA018091E90229
:10135000833029F40E94B219811132C02FC082302B
:1013600069F58FE39CE90197F1F700C000000E9446
:101370000706882319F18FE39CE90197F1F700C074
:1013800000001EC0C1E001C0C2E08DEE96E00E94E8
:10139000C813C11103C088EE96E008C0C23021F422
:1013A00084EF96E00E94C81385E297E00E94C8137C
:1013B0000E9417138C2FDF91CF910895C3E0E5CFE2
:1013C000A0918A01B0918B01E0918801F09189018F
:1013D00080E7C0E02D9191912913C3E08150D1F7AE
:1013E000D4CF2F923F92FF920F931F93CF93DF930F
:1013F00000D01F92CDB7DEB71B8281E0898378943D
:1014000001E215E08EE1F82E8B81813F08F00B831D
:101410008B81823208F01B822091F503222359F040
:10142000223011F030E008C0E0918A01F0918B0188
:1014300082818031B8F331E08B8190E08232910576
:1014400008F0F4C2FC01EA5AFF4F0C940B1A332344
:1014500009F4ECC2E0918A01F0918B0183818A83C7
:10146000CE0101961C010E948D06E0918A01F09147
:101470008B018A818383DAC2332309F4D7C2E091D6
:101480008A01F0918B0184818A83CE0101961C012F
:101490000E948D06E0918A01F0918B018A818483FC
:1014A000C5C2332309F4C2C2E0918A01F0918B01D5
:1014B00085818A83CE0101961C010E948D06E091F0
:1014C0008A01F0918B018A818583B0C2222309F4BD
:1014D000ADC2E0918A01F0918B0187818A83CE01B0
:1014E00001961C010E948D06E0918A01F0918B010A
:1014F0008A8187839BC2213009F098C2E0918A01DA
:10150000F0918B0180858A83CE0101961C010E9497
:101510008D06E0918A01F0918B018A81808786C2D5
:10152000213009F483C2E0918A01F0918B01868118
:101530008A83CE0101961C010E948D06E0918A01EA
:10154000F0918B018A81868371C2E0918A01F091CA
:101550008B0181858A83CE0101961C010E948D0634
:10156000E0918A01F0918B018A8181875FC280912D
:10157000E90281115BC2E0918A01F0918B018281C5
:10158000833108F053C282898A83CE0101961C01FF
:101590000E948D06E0918A01F0918B018A81828BF5
:1015A00045C28091E902811141C2E0918A01F09126
:1015B0008B018281833108F039C283898A83CE010D
:1015C00001961C010E948D06E0918A01F0918B0129
:1015D0008A81838B2BC2E0918A01F0918B018281F9
:1015E0008B3008F423C285898A83CE0101961C01C1
:1015F0000E948D06E0918A01F0918B018A81858B92
:1016000015C2E0918A01F0918B0182818B50883064
:1016100008F00CC286898A83CE0101961C010E94C3
:101620008D06E0918A01F0918B018A81868BFEC143
:10163000E0918A01F0918B0182858A83CE01019627
:101640001C010E948D06E0918A01F0918B018A8134
:101650008287ECC1E0918A01F0918B0182818E300A
:1016600008F0E4C184898A83CE0101961C010E949E
:101670008D06E0918A01F0918B018A81848BD6C11D
:10168000E0918A01F0918B0183858A83CE010196D6
:101690001C010E948D06E0918A01F0918B018A81E4
:1016A0008387C4C1E0918A01F0918B0184858A838C
:1016B000CE0101961C010E948D06E0918A01F091F5
:1016C0008B018A818487B2C1E0918A01F0918B01FC
:1016D00087858A83CE0101961C010E948D06E091C8
:1016E0008A01F0918B018A818787A0C121119EC157
:1016F000E0918A01F0918B0180898A83CE01019665
:101700001C010E948D06E0918A01F0918B018A8173
:10171000808B8CC121118AC1E0918A01F0918B01EB
:1017200081898A8310938C01CE0101961C010E944D
:101730008D06E0918A01F0918B018A81818B76C1BF
:10174000E0918A01F0918B0182818C3008F46EC1A6
:1017500021116CC187898A83CE0101961C010E94E8
:101760008D06E0918A01F0918B018A81878B5EC1A1
:101770008091E90281115AC1E0918A01F0918B01B7
:1017800082818D50863008F051C1808D8A83CE01D0
:1017900001961C010E948D06E0918A01F0918B0157
:1017A0008A81808F43C1E0918A01F0918B0182810F
:1017B0008D3008F43BC1818D8A8310938C01CE015A
:1017C00001961C010E948D06E0918A01F0918B0127
:1017D0008A81818F2BC1E0918A01F0918B018281F6
:1017E0008D3008F423C1828D8A8310938C01CE0141
:1017F00001961C010E948D06E0918A01F0918B01F7
:101800008A81828F13C1E0918A01F0918B018281DC
:101810008D3008F40BC1838D8A8310938C01CE0127
:1018200001961C010E948D06E0918A01F0918B01C6
:101830008A81838FFBC0E0918A01F0918B018281C4
:101840008D3008F4F3C0848D8A8310938C01CE010F
:1018500001961C010E948D06E0918A01F0918B0196
:101860008A81848FE3C0E0918A01F0918B018281AB
:101870008D3008F4DBC0858D8A83CE0101961C0172
:101880000E948D06E0918A01F0918B018A81858FFB
:10189000CDC0E0918A01F0918B0182818D5086301C
:1018A00008F0C4C0868D8A83CE0101961C010E9477
:1018B0008D06E0918A01F0918B018A81868FB6C0F6
:1018C000E0918A01F0918B0182818D3008F4AEC0E5
:1018D000878D8A83CE0101961C010E948D06E091BE
:1018E0008A01F0918B018A81878FA0C080910504C5
:1018F000882309F49BC0E0918A01F0918B0180A1BB
:101900008A83CE0101961C010E948D06E0918A0116
:10191000F0918B018A8180A389C0E0918A01F091C6
:101920008B018281813108F481C0222309F47EC0B9
:1019300081A18A8310938C01CE0101961C010E9423
:101940008D06E0918A01F0918B018A8181A36EC09E
:10195000E0918A01F0918B018281823108F466C0A6
:10196000211164C082A18A83CE0101961C010E94CC
:101970008D06E0918A01F0918B018A8182A356C085
:10198000E0918A01F0918B018281823108F44EC08E
:1019900083A18A83CE0101961C010E948D06E091ED
:1019A0008A01F0918B018A8183A340C0E0918A0172
:1019B000F0918B0182818431C8F184A18A83CE01A8
:1019C00001961C010E948D06E0918A01F0918B0125
:1019D0008A8184A32BC0E0918A01F0918B018281DE
:1019E000843120F185A18A83CE0101961C010E94D9
:1019F0008D06E0918A01F0918B018A8185A316C042
:101A0000E0918A01F0918B018281843178F0222368
:101A100069F086A18A83CE0101961C010E948D0681
:101A2000E0918A01F0918B018A8186A3F0928C016A
:101A30009B81943611F0983C29F50E9493138B8179
:101A4000843639F48DEE96E00E94C8138FED96E04F
:101A500002C08BE596E00E94C81361E080E00E941E
:101A60008C138EEC96E00E94C8130E9417138530E9
:101A700039F4F89481E09B81943641F080E006C00F
:101A80001B82C2CC8981890F8B83BECC0F900F90B3
:101A90000F90DF91CF911F910F91FF903F902F906A
:101AA00008958DE297E00E94C813E0918A01F091B9
:101AB0008B01808190E00E94AE1384E191E00E944E
:101AC000C813E0918A01F0918B01818190E00E941E
:101AD000AE1380E191E00E94C8138091F50381303C
:101AE00039F018F0823039F0089586E596E005C0A7
:101AF00081E596E002C08BE496E00C94C813CF9386
:101B0000DF930E949313C0E0D0E080918A0190910E
:101B10008B018C0F9D1FFC01E05AFF4F80810E94BA
:101B200096132196C031D10581F761E080E00E94D3
:101B30008C1386EF93E00E94A2130E9417130E9459
:101B400093130E94510D61E080E00E948C138BEF93
:101B500096E00E94C8138DE297E00E94C813E091BE
:101B60008A01F0918B01828190E00E94AE13DF9197
:101B7000CF910C9417130F931F93CF93DF93109271
:101B8000C2010E94931380918A0190918B010E945F
:101B9000C408882309F4B4C080918A0190918B0114
:101BA000E6EFF3E01082DC01AF5BBF4F2C912332F4
:101BB00009F020833196019624E0E430F20791F792
:101BC0001092040410922704109205048091E902F7
:101BD0009EEF980F923078F5C9E9D5E011E0FE014B
:101BE0006591749186E094E00E94111AA6E0B4E039
:101BF000E6EFF3E081919D91891719F0992319F08F
:101C000009C0811103C01093270404C084E0E530AB
:101C1000F80781F7229625E0CB3BD20701F791E048
:101C20009093C201E0918A01F0918B018585853AFC
:101C300009F043C03CC0823090F710E001E0C12FB2
:101C4000D0E0FE01EE0FFF1FE350FB4F6591749152
:101C500086E094E00E94111AA6E0B4E0E6EFF3E01B
:101C600081919D91891719F0992319F01CC0811158
:101C700014C0E0918A01F0918B018281803128F4B7
:101C8000143080F4009327040DC000932704C55539
:101C9000DE4F88818093050405C084E0E530F807B5
:101CA000F9F601C014E11F5F143148F2B8CF868500
:101CB0008A35A1F41092F50313C08A3531F4868574
:101CC000853A61F49093F5030BC0853539F4868528
:101CD0008A3A21F482E08093F50302C01092C20197
:101CE0008091C201811103C081E297E00BC0808125
:101CF00084508B3048F01092C2018DE297E002C010
:101D000089E197E00E94C8138091C201882319F0ED
:101D10000E947F0D06C085E297E00E94C8130E94D2
:101D200017138091C201DF91CF911F910F910895F8
:101D30000F931F93CF93DF93D82F12E003E080918E
:101D4000E902843060F50E949E14DD23A1F00E9418
:101D500064118AEF9091C10094FF04C09091C0007B
:101D600097FD4CC0EFE7FEE33197F1F700C00000AC
:101D7000815081F743C08AE696E00E94C8130E9412
:101D80001713C82F0E949313C33019F0C43039F0D1
:101D9000DACFDF91CF911F910F910C9464110E94C3
:101DA00093138AE896E00E94C81361E080E00E94E5
:101DB0008C138BE796E00E94C8130E941713C82F5C
:101DC0000E949313C33071F028F4C23041F700939E
:101DD000E9020DC0C43049F0C53009F781E08093B5
:101DE000E90205C01092E90202C01093E902609175
:101DF000E90280E090E00E943A1AA1CFDF91CF91F2
:101E00001F910F9108958091C20181110E947F0D51
:101E10000E94931382E397E00E94C8130E94171355
:101E20000E9493138EE991E00E94A21361E080E08A
:101E30000E948C138DE297E00E94C81383EB96E317
:101E40000E94AE130E94171380E00C94980E0E941B
:101E500093138091C201882319F08CEA96E002C0A6
:101E60008BE996E00E94C81361E080E00E948C1329
:101E70008DEB96E00E94C8130E941713833021F166
:101E800018F4823031F0E3CF843009F1853011F15C
:101E9000DECF8091C201882329F00E94F1098823B6
:101EA000B1F205C00E94BB0D8111F7CFD0CF0E94C7
:101EB00093138091C201882351F21092C1000E94B5
:101EC000EE080E94D319C3CF0E94030FC0CF0E9417
:101ED000BB0DBDCF8091E902811102C00C949F0F10
:101EE0000895CF93DF930E9494120E94D3198CE03F
:101EF0000E94D71380E50E947E13CEE4D7E0FE0156
:101F000084910E9485132196F7E0CE36DF07B9F75A
:101F100080E090E00E94321A843018F48093E90245
:101F200002C01092E90281E00E94980EDF91CF91E9
:101F30000C94270F2B98000000002B9A0895109204
:101F4000CC011092CD011092CE011092CF0193B12D
:101F500093FB992790F9239A2B9880E88A95F1F7BB
:101F60001C9992602C9824982B9A8AE08A95F1F714
:101F700000C023989093CE0181E0911101C080E0D0
:101F80000895239A0E949A0F249A08952C982498D1
:101F90000E949A0F23980895CF93DF930E94C10F58
:101FA0002C980E949A0F2C9A0E949A0F2C98249891
:101FB000D8E0C0E0C6950E949A0F1C99C068D15025
:101FC000C9F70E94C60F8C2FDF91CF910895CF9350
:101FD000DF93CFEFDFEF0E94CC0F80FD04C020978E
:101FE00011F02197F8CF81E0CD2B09F480E0DF914B
:101FF000CF910895CF93DF93D82F0E94C10F2C9AD1
:102000000E949A0F0E949A0FC8E0D0FF02C02C9A3B
:1020100001C02C980E949A0FD695C150B1F7DF915C
:10202000CF910C94C60FCF93DF932C982498CFEFC9
:10203000DFEF0E949A0F2197209711F01C9BF9CF98
:1020400081E0CD2B09F480E0DF91CF910895CF930B
:10205000109228040E94C10F2C980E949A0F0E948F
:102060009A0F0E949A0F0E949A0F0E9413108823C1
:10207000A9F0C8E0809128048695809328040E94E6
:102080009A0F1C9B05C080912804806880932804C7
:10209000C15081F70E94C60F81E001C080E0CF915E
:1020A00008950E94E70F882349F00E942710882393
:1020B00029F081E0909128049D3009F080E0089596
:1020C00080E00E94FA0F0E94271080912804982F28
:1020D0009D7F983031F08B3221F0803311F01092D7
:1020E0002804809128048093CC010895CF93DF9336
:1020F000D82F0E94C10F2C9A0E949A0F2C980E94F0
:102100009A0F0E949A0F0E949A0FC8E0D0FF02C057
:102110002C9A01C02C980E949A0FD695C150B1F705
:102120000E941310882361F00E94C60FCFEFDFEFEB
:102130000E94CC0F81FF04C0209711F02197F8CFA7
:10214000DF91CF9108958091EA020E9476108091EC
:10215000E5020E9476108091EB020E9476100C94AA
:102160005110CF93C82F84EB0E94FA0F8C2F0E943E
:102170007610CF910C9451100E949F0F811102C0D4
:1021800080E008950E9460108823D1F382E00E94CD
:10219000FA0F82E00E94761084E00E94761087EBAE
:1021A00091E00197F1F700C0000081E00E947610F5
:1021B0009FE725EB81E0915020408040E1F700C08F
:1021C000000082E00E94B1108823D1F20E94271003
:1021D000809128048093CD0181E00895CF9386E01B
:1021E0000E94B110811102C080E01EC00E94A310A5
:1021F0008823D1F3C091EB020E94E70F8823A1F35B
:102200000E942710882381F3E091CA01F091CB014D
:10221000CF0101969093CB018093CA01809128044D
:102220008083C15049F781E0CF910895CF9387E033
:102230000E94B1108823C1F00E94A3108823A1F04E
:10224000C091EB02E091CA01F091CB01CF01019660
:102250009093CB018093CA0180810E947610C15077
:1022600089F7CF910C94E70F80E0CF910895CF9339
:10227000C091EA02C695CF3090F488E00E94B11078
:10228000882369F08C2F0E9476100E9451108823B9
:1022900031F080E00E947610CF910C94E70F80E03F
:1022A000CF91089583E00E94B110882359F08EEDFC
:1022B0000E9476108DEA0E94761085EA0E947610C0
:1022C0000C94E70F80E008958091E902882329F0BB
:1022D00084E08093B10023982B9A08951092CD0149
:1022E0001092CC010895AF92BF92DF92EF92FF92CD
:1022F0000F931F93CF93DF931F92CDB7DEB710924A
:10230000CD011092CC018091E9028823D1F0843074
:1023100008F0C3C00E9493138EE697E00E94C81392
:1023200061E080E00E948C138AE3A82EBB24B39462
:1023300003E110E093E0E92E22E0F22EDD24D394B5
:1023400070C00E94BC10A7C08CE30E9401138111D1
:1023500090C08091C10084FD74C00E94AB188111AF
:1023600075C00E94F5048111F092E9028091CC01C0
:102370009091CD018730934909F46BC08091CC01D5
:102380009091CD018A30934909F463C08091CC01CA
:102390009091CD018F30934909F45BC08091CC01BD
:1023A0009091CD0121E08B30944909F020E080919B
:1023B000CC019091CD018031934F09F44CC08091B4
:1023C000CC019091CD018033934F09F444C08091AA
:1023D000CC019091CD018039934FE9F18091CC01EE
:1023E0009091CD0131E08035984F09F030E0832F96
:1023F000482F211132C0982F892F3091E9023130B6
:1024000099F1323061F1A114B104B1F1911133C0ED
:102410002FEF39EF40E0215030404040E1F700C05D
:102420000000A89521E0A21AB108C501B8010E94D8
:10243000F719892B09F088CF8FEB91E00E94A21346
:1024400083CF8091C00087FD14C087CFE092E9025E
:102450008DCF21E0ACCF81E0CBCF91E0CDCF442335
:1024600091F2D092E902CFCF222369F2F092E902F1
:10247000CACF80E001C081E09091EE028983992368
:1024800019F00E94BE1402C00E949313898190919A
:10249000E9029093CF01811105C01092CD011092F5
:1024A000CC0180E00F90DF91CF911F910F91FF90B1
:1024B000EF90DF90BF90AF900895ACE7B0E080E47C
:1024C0008C93EAE7F0E082EC80838C91807F8C93A0
:1024D000808180648083089580917A0086FDFCCF9E
:1024E000809178009091790020917A002064209367
:1024F0007A0008950E946C12833622E0920758F405
:10250000873821E0920748F4833D910540F4CD9748
:1025100040F080E207C080E005C080E103C084E0B5
:1025200001C088E0809508950E945D1285E085BD18
:1025300084E686BDEEE6F0E08081816080830895C8
:102540001F920F920FB60F9211242F933F934F9328
:102550005F936F937F938F939F93AF93BF93CF932B
:10256000EF93FF93C0912B040E947A1280958C27E1
:1025700094E696BD9091C501982390959093C501DE
:102580002091C401282329272093C4019823922352
:1025900080912B04892780932B0480912A04209119
:1025A0002B042923282B20932A0480912B048C733D
:1025B00019F486E48093C3018091C3018150809314
:1025C000C30181110CC080918C018093C301909153
:1025D000290480912B048C73892B80932904FF910B
:1025E000EF91CF91BF91AF919F918F917F916F911B
:1025F0005F914F913F912F910F900FBE0F901F90C1
:102600001895F89490912A04892390912A04982788
:1026100090932A0478940895F8949091290489233A
:102620009091290498279093290478940895CF9342
:10263000CFB778948091C10084FF0AC08091C00018
:1026400087FF06C00E94C4141092EE0280E015C0FD
:1026500084E00E940113811113C088E00E940113DD
:10266000811110C080E10E94011381110DC080E230
:102670000E9401138823F1F285E0CFBFCF91089526
:1026800082E0FBCF83E0F9CF84E0F7CF299A00C046
:1026900029980895CF93DF931F92CDB7DEB76623B5
:1026A00011F0289A01C02898549A559A569A579A28
:1026B0005F985E985D985C9887FD5F9A86FD5E9A4C
:1026C00085FD5D9A84FD5C9A89830E9446135F981C
:1026D0005E985D985C98898183FD5F9A82FD5E9A21
:1026E00081FD5D9A80FD5C9A0E9446135C9A5D9A1A
:1026F0005E9A5F9A0F90DF91CF910895E0E4FFE139
:102700003197F1F760E00C944A13E0E4FFE1319770
:10271000F1F761E00C944A13611102C0805801C0C6
:1027200080540C947E1381E00C947E13E0E4FFE16E
:102730003197F1F78A3019F480EC0C947E1361E044
:102740000C944A13CF93DF93EC018991882319F0FD
:102750000E949613FACFDF91CF910895CF93DF9324
:1027600000D000D000D0CDB7DEB74AE0BE016F5F29
:102770007F4F0E94181ACE0101960E94A21326963E
:102780000FB6F894DEBF0FBECDBFDF91CF91089595
:10279000CF93DF93FC018491EF012196882321F0F0
:1027A0000E949613FE01F7CFDF91CF910895CF934A
:1027B000C82F209A219A549A559A569A579AE0E02F
:1027C000FAEF3197F1F75D9A5C9A0E944613E0E0C8
:1027D000FEE43197F1F70E944613E0E0F1E0319713
:1027E000F1F70E944613E0E0F1E03197F1F75C98D1
:1027F0000E944613E0E0F1E03197F1F788E20E9491
:102800007E1388E00E947E130E94931386E00E944C
:102810007E138C2FCF910C947E1388E10FB6F89421
:1028200080936000109260000FBE0E94710F2BE039
:1028300088E190E00FB6F894A895809360000FBEF1
:1028400020936000FFCF9627092E0294202D2F7031
:102850002927692F6025660F607E2627602D69274E
:10286000607F6695092E000C661F96959695969545
:102870009F7196279827822F08952F923F92FF925B
:102880000F931F93CF93DF93E1016EE280E090E01E
:102890000E9423146F810E9423146091EA020E9417
:1028A00023146091E5020E9423146E810E94231478
:1028B000382F292F8C81FE80082F1D81F80EF801FA
:1028C00061918F01832F922F0E942314382F292F7B
:1028D000F012F5CF6B810E942314082FF92E8EE29F
:1028E0000E94E5198F810E94E5198091EA020E94F9
:1028F000E5198091E5020E94E5198E810E94E51993
:102900001E81EC81FD8180810E94E5192C813D8131
:102910002F5F3F4F3D832C83115099F78B810E948D
:10292000E5198F2D0E94E519802FDF91CF911F911E
:102930000F91FF903F902F900C94E5190E949313F4
:1029400061E082E00E948C138091E902813059F0AD
:1029500038F0823059F0833069F48EE797E008C090
:1029600084EA97E005C08AE897E002C087E997E02B
:102970000E94C81360E080E00C948C130E949E14A7
:1029800080EB97E00C94C813CF93DF93CDB7DEB7FD
:102990002B970FB6F894DEBF0FBECDBF81E08093BA
:1029A000EE020E94BE14F8943E0189E0680E711C8C
:1029B00028E1C22ED12C0FEE12E030EDE32E31E0F3
:1029C000F32E4CECA42E41E0B42E5EE9852E51E0AE
:1029D000952E98E10FB6F8949093600010926000E5
:1029E0000FBE312C0E94F019811116C03394E3E020
:1029F0003E12F8CF0E9493138FEB97E00E94C8130A
:102A00002BE088E190E00FB6F894A89580936000E1
:102A10000FBE20936000FFCF8F3219F71A861986F8
:102A20007E826D82F1E0FF830E94F01988878F32E9
:102A300019F40E94F01988878FE00FB6F894A895D2
:102A4000C09260000FBE809360006FE280E090E073
:102A50000E94231468850E9423141C010E94F0190F
:102A60008093EA02682FC1010E9423141C010E9476
:102A7000F0198093E502682FC1010E9423141C0104
:102A80000E94F0198B83682FC1010E9423142C012E
:102A90004B819FEE292E92E0392E420D4B870E94EA
:102AA000F019F10181931F01682FC2010E942314C4
:102AB0002C014B854211F2CF0E94F0198A830E94AB
:102AC000F019898389819A818415950511F480E034
:102AD00001C083E08C8381113FC11093CB0100932F
:102AE000CA01888590E0FC01F097E031F10508F01B
:102AF00031C1E858FF4F0C940B1A8091CC01882308
:102B000009F42AC18091E902833028F4813048F425
:102B10000E94601085C0833009F01EC10E943218E7
:102B20007FC00E9450057CC08AE6898715C18CE071
:102B30008F839E828D8210C182E08F838CE889878B
:102B400083E08A8709C1CE0101961C010E943D14D1
:102B50008091E902882329F0843028F423982B9A65
:102B600002C00E949F0F0E946E1128E088E190E051
:102B70000FB6F894A895809360000FBE2093600074
:102B8000FFCF8091EF02843010F089E0E4C08093A1
:102B9000E9020E9464110E94BE14DEC08091E90225
:102BA000882339F0833008F0D7C080E00E946C059C
:102BB000D3C00E949F0FD0C094E09F83BE82AD829D
:102BC0000E9473112DC08091E9028111C5C02B981C
:102BD000C3C08091E902833030F4813008F0BAC07C
:102BE0000E9452111DC0833009F0B6C00E947E19A8
:102BF00017C08091E902823020F0843008F0ACC028
:102C0000A9C09091EF029987990F9093EA021092D0
:102C1000E502811103C00E94371102C00E944C06D8
:102C200081119AC08FE097C08091EF028093EB02F0
:102C30008091E902833028F4813040F40E94EE1044
:102C40001AC08330E1F40E94A71915C00E94DD0567
:102C500012C08091EF028093EB028091E9028230F2
:102C600041F028F0833059F40E94B21904C082E088
:102C700005C00E940706811102C08FE08C838C8101
:102C800081116AC08091EB028F831E830D8364C023
:102C90008B818093EB028FE0382E3C828091E90299
:102CA000833018F4813038F03AC0833009F054C0D2
:102CB0000E94BD194BC00E941611882309F44CC014
:102CC000F092CB01E092CA010E94EE10882309F431
:102CD00043C01C821093CB010093CA01F092E8021A
:102CE000E092E7028091EB02A091CA01B091CB0182
:102CF000E091E702F091E8022C919081291711F000
:102D000094E09C831196B093CB01A093CA013196B5
:102D1000F093E802E093E702815031F71DC00E9472
:102D20006B06811115C03C8217C08B818093EB022A
:102D30008FE08C838091E902823031F058F083304B
:102D400059F40E94C81902C00E942906882321F064
:102D50001C8202C082E08C83FE0131961F010E941A
:102D60003D1437CE9091300498279093300498E02A
:102D70002B9A1092B20080FF0FC02091B200203138
:102D8000E0F32B981092B2002091B2002031E0F3D2
:102D90008695915069F708952091B2002830E0F3AC
:102DA0002B981092B2002091B2002830E0F32B9AB9
:102DB0001092B2002091B2002830E0F32B981092CC
:102DC000B2002091B2002830E0F3E2CF239A8FEFD7
:102DD0000E94B2168FEF0E94B2168FE70E94B216C1
:102DE000109230048BE10E94B21680912D048F5F07
:102DF00080932D040C94B216809130040E94B21678
:102E00002B9A1092B2008091B2008830E0F32398A0
:102E100008951092B2001B9B09C08091B2008E37BA
:102E2000D0F31FC08091B2008E37D8F41B9BFACF2D
:102E30008091B20080932F0490913104981798F0FC
:102E40001092B2001B9B09C08091B2008E37D0F364
:102E500008C08091B2008E3720F41B9BFACF80E02F
:102E600008958FEF089581E00895FC01108280E0BD
:102E700090E021E030E01092B2001B9B0AC040912C
:102E8000B2004E37D0F380E008954091B2004E3743
:102E9000D0F71B9BFACF5091B200409131044517F7
:102EA00080F01092B2001B9B09C04091B2004E37D7
:102EB000D0F3E9CF4091B2004E3728F71B9BFACFF1
:102EC00009C06081A901082E01C0440F0A94EAF7E5
:102ED000642B608301968830910569F680912C04FB
:102EE0009081892780932C0481E00895CF93DF930C
:102EF00088E18093310480912E04853139F082314C
:102F000029F0813031F4C1E0D0E005C0C0E6DAEE4E
:102F100002C0C6E4D0E00E94091787FF05C02197D0
:102F20002097C9F780E017C0CAE00E9409178F3FB9
:102F3000C9F3C150D1F790912F04892F86958695BA
:102F40009695890F809331040E9409178F3F51F3A2
:102F50001816D4F381E0DF91CF910895EF92FF929C
:102F60000F931F93CF93DF9300D01F92CDB7DEB79F
:102F70007C011B820E947617811102C080E068C02C
:102F800010922C04CE0103960E9435178823B1F3CA
:102F90008B818B3199F7CE0103960E9435178823D8
:102FA00069F39B8180912D049813E8CFCE0102969E
:102FB0000E943517882311F38A818230F8F6CE01FA
:102FC00001960E9435178823C9F289819A81892B3D
:102FD000A9F2CE0103960E943517882379F28B81DE
:102FE0008E3061F6CE0103960E943517882331F2A8
:102FF0009B8180912E049813C1CFCE0103960E942D
:103000003517882309F4BACF8B818111B7CF00E03F
:1030100010E0C701800F911F29813A8122503109A8
:103020000217130740F40E943517882309F4A6CF2E
:103030000F5F1F4FEECFCE0103960E9435178823F6
:1030400009F49CCF80912C04811198CF2B9A81E0B8
:103050000F900F900F90DF91CF911F910F91FF90E4
:10306000EF90089581E080932E040E94E61680E0A0
:103070000E94B21681E00E94B2168EE00E94B21643
:1030800081E00E94B2160E94FC1684ED92E00E943C
:10309000AE17811104C00E946E1180E0089581E096
:1030A0000895EF92FF921F93CF93DF9300D0CDB797
:1030B000DEB77C01162F8DE180932E042A8349838D
:1030C0000E94E61680E00E94B21688E00E94B216C6
:1030D0008EE00E94B2168DE10E94B21684E00E943A
:1030E000B21684E00E94B21680E00E94B216812FD0
:1030F0000E94B2164981842F0E94B2162A81822F23
:103100000E94B21680E00E94B2160E94FC1684ED66
:1031100092E00E94AE17882399F08091D402811129
:1031200011C08091D502811711F081110BC08091DF
:10313000D602811107C08091D702F701808302C0B7
:1031400080E001C081E00F900F90DF91CF911F913F
:10315000FF90EF9008950E943218882399F021E0A3
:1031600040E060E38DEC91E00E945118882351F01B
:1031700022E040E060E38CEC91E00E94511891E085
:10318000811101C090E0892F08958091EA028F3F5C
:1031900021F48091E5028F3F29F186E080932E048F
:1031A0000E94E61680E00E94B21685E00E94B216E8
:1031B0008EE00E94B21686E00E94B21680E00E9465
:1031C000B21680E00E94B2168091EA020E94B21606
:1031D0008091E5020E94B2160E94FC1684ED92E0F6
:1031E0000C94AE1781E00895CF93C1E08091EB027B
:1031F0008111C0E00E94E61680E00E94B21684E0D1
:103200000E94B2168EE00E94B21680912E040E9497
:10321000B2168C2F0E94B2168091EB020E94B21659
:1032200080EA0E94B2160E94FC168091CA01909119
:10323000CB01CF910C94AE17FF920F931F93CF93B6
:10324000DF931F92CDB7DEB70091EB02002341F070
:10325000202F30E0265F3F4F122F832FF12C04C028
:103260001AE081E0FF24F39489830E94E6168981A5
:103270000E94B216812F0E94B2168EE00E94B216F2
:1032800080912E040E94B2168F2D0E94B216802FBC
:103290000E94B21680E00E94B21680E00E94B21630
:1032A00080E00E94B21680E00E94B21680E00E9488
:1032B000B21680E00E94B21680E00E94B216E09141
:1032C000CA01F091CB0180810E94B2162091CA01FF
:1032D0003091CB012F5F3F4F3093CB012093CA0138
:1032E000015069F70E94FC1684ED92E00F90DF9187
:1032F000CF911F910F91FF900C94AE1782E18093B4
:103300002E040E94E61680E00E94B21687E00E941A
:10331000B2168EE00E94B21682E10E94B21684E1DB
:103320000E94B21680E00E94B2168CEA0E94B21689
:1033300088E80E94B21683E10E94B21686E70E94D6
:10334000B2160E94FC1684ED92E00C94AE170E9417
:10335000C518882329F084E180932E040C94F41876
:1033600080E008950E94C518882329F086E18093A3
:103370002E040C94F41880E008950E94C518882348
:1033800029F083E180932E040C941C1980E00895A9
:103390000E94C518882329F085E180932E040C949F
:1033A0001C1980E00895E0ECF0E080818D7F80833F
:1033B00089E190E09093C5008093C40086E08093FB
:1033C000C20088E18093C10008959091C00095FFEC
:1033D000FCCF8093C6008091C00086FFFCCF08958B
:1033E0008091C00087FFFCCF8091C6000895AA1B82
:1033F000BB1B51E107C0AA1FBB1FA617B70710F0E0
:10340000A61BB70B881F991F5A95A9F78095909511
:10341000BC01CD010895EE0FFF1F0590F491E02D42
:103420000994FB01DC0105900D920020E1F708955D
:10343000BB27FB015527AA27880F991FAA1FA4178E
:1034400010F0A41B83955051B9F7A05DAA3308F082
:10345000A95DA193009779F7B111B1931192CB01B6
:103460000C944C1AF999FECF92BD81BDF89A992718
:1034700080B50895262FF999FECF92BD81BDF89AA7
:10348000019700B4021639F01FBA20BD0FB6F894A8
:10349000FA9AF99A0FBE0895DC01FC01672F719129
:1034A0007723E1F7329704C07C916D93708362912A
:0C34B000AE17BF07C8F30895F894FFCFD3
:1034BC00010D9B02010D8F02010485020102DE0148
:1034CC0000FFE80101057A0201056F0201056302A4
:1034DC000102D1010105570201054D02010541020E
:1034EC0001053402010D88010105290201042002A5
:1034FC000102160201057D0101020C020102020209
:10350C000001FA010001F301007DC40182FFB70143
:10351C0001FE640101FFAC0101FF9F010105920155
:10352C00000171010111570100014A0100013E0126
:10353C000001340101052901D001EF021400000043
:10354C0000000000000D424C48656C69F47D347736
:10355C0041554E6D333238503136000000000000BA
:10356C000000000200000101010000000000002E1C
:02357C0000004D
:00000001FF
