:100000000C9445000C9462000C9462000C94620005
:100010000C9462000C9462000C9462000C946200D8
:100020000C9462000C9462000C9462000C946200C8
:100030000C9462000C94CC040C9462000C9462004A
:100040000C9462000C9462000C9462000C946200A8
:100050000C9462000C9462000C9462000C94620098
:100060000C9462000C946200DD06F906FC0603079E
:100070000907490743085807640774079307CC0723
:100080005E07AA0717083D072C0811241FBECFEFF3
:10009000D4E0DEBFCDBF11E0A0E0B1E0E8E3F7E1DE
:1000A00002C005900D92A032B107D9F723E0A0E27B
:1000B000B1E001C01D92A235B207E1F70E94A1058F
:1000C0000C949A0B0C94000081E080933D0289EE21
:1000D00092E21B9903C01092B20004C00197C9F7C5
:1000E00080E008958091B2008A30E0F31B99F8CF48
:1000F00020E030E080E09AE041E050E0935F6091E2
:10010000B2006917E0F31B9B07C0BA01022E01C0C1
:10011000660F0A94EAF7862B2F5F3F4F923771F7ED
:100120009091B2009F37E0F31B9BDACF10923D0213
:1001300008952B981092B2009091B2009D30E0F398
:100140009DE080FF02C02B9A01C02B98935F86959B
:100150002091B2002917E0F3953799F72B9A8091F7
:10016000B2008238E0F3089520913001809144027A
:100170009091450238E0AC0142279695879540FF63
:1001800004C041E0842740EA94272695315099F72E
:1001900090934502809344022093300108950F9379
:1001A0001F93CF938C01C62F1092450210924402E8
:1001B00010923201109231010E946400809330014C
:1001C00090913D02911127C0F80181938F010E9407
:1001D000B400C15089F780913501882311F10E9444
:1001E00064008093310180913D02811114C00E940E
:1001F00064008093320180913D0281110CC02091F6
:1002000044023091450280913101909132012817CA
:10021000390751F406C08FEF91E0803349F090E048
:1002200007C00E946400F8CF0E94640082ECF4CF03
:10023000892FCF911F910F9108950F931F93CF9303
:100240008C01C62F239A85E88A95F1F70000109259
:10025000450210924402F80181918F018093300190
:100260000E9499000E94B400C150A9F78091350105
:10027000882341F0809144020E94990080914502B8
:100280000E9499002398CF911F910F910895CF93C9
:10029000DF93CDB7DEB76D970FB6F894DEBF0FBE14
:1002A000CDBF8091000190910101A09102018B8F3F
:1002B0009C8FAD8F81E1E4E0F1E0DE0111960190C9
:1002C0000D928A95E1F761E1CE0101960E941D0130
:1002D00068E0CE0142960E94CF008823C9F0FE015B
:1002E0007296DE015B96CE01459631912D913213C7
:1002F0000EC0E817F907C9F78D89809337018E89F9
:10030000809336018F898093350181E001C080E0C0
:100310006D960FB6F894DEBF0FBECDBFDF91CF91C3
:100320000895CF93C82F0E946400C15090913D0260
:10033000992319F0C111F7CF8FEFCF910895CF9383
:10034000DF9300D0CDB7DEB78DEF89831A8262E0EC
:10035000CE0101960E941D0181E00E949101813C25
:1003600021F00E94E20480E001C081E00F900F9034
:10037000DF91CF910895CF93DF9300D0CDB7DEB753
:1003800019821A8281E08093350162E0CE010196E4
:100390000E941D010E94E2040F900F90DF91CF9107
:1003A0000895CF93DF9300D000D0CDB7DEB7909102
:1003B000420280913E029F3F11F48F3F91F02FEF58
:1003C00029831A829B838C8364E0CE0101960E946C
:1003D0001D0182E00E94910191E0803319F090E0CC
:1003E00001C091E0892F0F900F900F900F90DF9137
:1003F000CF910895CF93DF9300D000D0CDB7DEB773
:100400008EEF89831A821B82809143028C83811133
:1004100002C081E08B8364E0CE0101960E941D0141
:1004200082E00E9491018F3F71F4609143028091BC
:100430003301909134010E941D0188E20E949101D4
:1004400091E0803309F090E0892F0F900F900F908A
:100450000F90DF91CF910895CF93DF9300D0CDB768
:10046000DEB70E94D1018823E9F0809143028A839C
:1004700080914102823029F0843029F0813029F4C2
:1004800002C087E001C083E0898362E0CE0101966B
:100490000E941D01609143028091330190913401CB
:1004A0000E94CF000F900F90DF91CF910895CF93CE
:1004B000DF9300D0CDB7DEB70E94D101882391F041
:1004C00084E08983809143028A8362E0CE010196B1
:1004D0000E941D016091430280913301909134018B
:1004E0000E94CF000F900F90DF91CF910895CF938E
:1004F000DF9300D0CDB7DEB70E94D101982F8823BB
:10050000A9F00E94FA01982F882381F085E0898361
:1005100081E08A8362E0CE0101960E941D0180E0A5
:100520000E94910191E0803309F090E0892F0F90B3
:100530000F90DF91CF910895CF93DF9300D0CDB787
:10054000DEB70E94D101882389F082E0898381E0AF
:100550008A8362E0CE0101960E941D0180E00E9424
:100560009101803311F481E001C080E00F900F9081
:10057000DF91CF910895CF93DF9300D0CDB7DEB751
:100580000E94D101982F8823A1F00E94FA01982F90
:10059000882379F081E089838A8362E0CE01019625
:1005A0000E941D0182E30E94910191E0803309F0D5
:1005B00090E0892F0F900F90DF91CF910895CF9306
:1005C000DF9300D0CDB7DEB70E94D101882381F040
:1005D0000E94FA01882361F084E0898381E08A83A4
:1005E00062E0CE0101960E941D0184E00E9491010B
:1005F0000F900F90DF91CF9108952B982B9A08952B
:100600001092350110923601109237011092380184
:1006100093B193FB992790F9239A2B988DE38A95B0
:10062000F1F700001C9992602C9824982B9A23983B
:100630009093370181E0911101C080E00895239AE1
:100640000E94FD02249A08952C9824980E94FD028D
:1006500023980895CF93DF930E941F032C980E9444
:10066000FD022C9A0E94FD022C982498D8E0C0E04C
:10067000C6950E94FD021C99C068D150C9F70E941E
:1006800024038C2FDF91CF910895CF93DF93CFEF89
:10069000DFEF0E942A0380FD04C0209711F021970C
:1006A000F8CF81E0CD2B09F480E0DF91CF91089560
:1006B000CF93DF93D82F0E941F032C9A0E94FD0234
:1006C0000E94FD02C8E0D0FF02C02C9A01C02C9805
:1006D0000E94FD02D695C150B1F7DF91CF910C94E5
:1006E0002403CF93DF932C982498CFEFDFEF0E9461
:1006F000FD02219711F01C9BFACF81E0CD2B09F46C
:1007000080E0DF91CF910895CF9310924A030E9429
:100710001F032C980E94FD020E94FD020E94FD0210
:100720000E94FD020E9471038823A1F0C8E080911D
:100730004A03869580934A030E94FD021C9B05C0D4
:1007400080914A03806880934A03C15081F70E94D8
:10075000240381E0CF9108950E944503882349F046
:100760000E948403882329F081E090914A039D3000
:1007700009F080E0089580E00E9458030E948403FD
:1007800080914A038850823310F010924A0380917E
:100790004A03809335010895CF93DF93D82F0E94A9
:1007A0001F032C9A0E94FD022C980E94FD020E94B9
:1007B000FD020E94FD02C8E0D0FF02C02C9A01C0D9
:1007C0002C980E94FD02D695C150B1F70E9471038A
:1007D000882361F00E942403CFEFDFEF0E942A03F9
:1007E00081FF04C0209711F02197F8CFDF91CF91BE
:1007F0000895809142020E94CC0380913E020E94A3
:10080000CC03809143020E94CC030C94AC03CF93A1
:10081000C82F84EB0E9458038C2F0E94CC03CF91E9
:100820000C94AC030E940003811102C080E0089583
:100830000E94BB038823D1F382E00E94580382E028
:100840000E94CC0384E00E94CC038BED90E00197E2
:10085000F1F700C0000081E00E94CC039FEB2AED7D
:1008600080E0915020408040E1F700C0000082E02D
:100870000E9407048823D1F20E94840380914A03D6
:10088000809336018FEF0E94580380E80E94CC03CA
:100890008FEC97E00197F1F700C000008FEE0E9407
:1008A000580382E00E94CC0381E00895CF9386E054
:1008B0000E940704811102C080E01EC00E94F9035B
:1008C0008823D1F3C09143020E9445038823A1F3FA
:1008D0000E948403882381F3E0913301F091340175
:1008E000CF010196909334018093330180914A03A4
:1008F0008083C15049F781E0CF910895CF9387E07D
:100900000E9407048823C1F00E94F9038823A1F004
:10091000C0914302E0913301F0913401CF0101967F
:10092000909334018093330180810E94CC03C150A5
:1009300089F7CF910C94450380E0CF910895CF9330
:10094000C0914202C695CF3090F488E00E9407041F
:10095000882369F08C2F0E94CC030E94AC0388236B
:1009600031F080E00E94CC03CF910C94450380E0ED
:10097000CF91089583E00E940704882359F08EEDFB
:100980000E94CC038DEA0E94CC0385EA0E94CC032E
:100990000C94450380E008951F920F920FB60F92BA
:1009A00011240C9400000F900FBE0F901F9018950B
:1009B00080914102882329F083E08093B10023983D
:1009C0002B9A089510923601109235010895EF92F6
:1009D000FF920F931F93CF93DF93109236011092E3
:1009E000350180914102882361F0853008F09DC077
:1009F000C8E3D0E014E003E0FF24F39482E0E82EA3
:100A000062C00E9412048FC08091C00087FD84C024
:100A100080914102843009F45BC00E943A0A882325
:100A200009F456C00093410280913501909136013E
:100A30008730934909F454C0809135019091360173
:100A40008A30934909F44CC0809135019091360168
:100A50008F30934909F444C080913501909136015B
:100A600021E08B30944909F020E04091350150910C
:100A70003601809136018823A9F1809136018039B1
:100A800088F58091350161E030E0863009F060E062
:100A9000862F932F382F211128C0413068EE56073A
:100AA00020F5992790914102913010F52197B9F1E5
:100AB000811134C02FE73AE166E0215030406040B8
:100AC000E1F700C000008091C10084FFA1CF9CCF5E
:100AD0000E944701882309F4A7CF10934102A4CFB5
:100AE00021E0C3CF80E090E0D5CF81E090E0DACF85
:100AF000933010F09430D1F64130584E18F0F09207
:100B00004102D4CF222319F0E0924102CFCF332308
:100B100069F210934102CACF80E001C081E0909158
:100B2000410290933801811105C010923601109254
:100B3000350180E0DF91CF911F910F91FF90EF90F1
:100B400008950FB6F894A89580916000886180930D
:100B50006000109260000FBE0E94D8040E94580BE3
:100B60000E942B06EECF9627092E0294202D2F707F
:100B70002927692F6025660F607E2627602D69274B
:100B8000607F6695092E000C661F96959695969542
:100B90009F7196279827822F08952F923F92EF9268
:100BA000FF921F93CF93DF93E1016EE280E090E02C
:100BB0000E94B3056F810E94B305609142020E94BA
:100BC000B30560913E020E94B3056E810E94B30599
:100BD000382F292FEC80FD801E81F70161917F0164
:100BE000832F922F0E94B305382F292F1150A9F778
:100BF0006B810E94B305F82EE92E8EE20E946D0BE8
:100C00008F810E946D0B809142020E946D0B80913A
:100C10003E020E946D0B8E810E946D0B1E81EC8145
:100C2000FD8180810E946D0B8C819D8101969D8349
:100C30008C831150A1F78B810E946D0B8E2D0E9429
:100C40006D0B8F2DDF91CF911F91FF90EF903F9013
:100C50002F900C946D0B2F923F924F925F926F9258
:100C60007F928F929F92AF92BF92CF92DF92EF923C
:100C7000FF920F931F93CF93DF93CDB7DEB72A97E1
:100C80000FB6F894DEBF0FBECDBFF8942E0129E059
:100C9000420E511C06E412E022E0B22E39E3C32ECC
:100CA00031E0D32E44E0A42E55E3652E51E0752E9D
:100CB0000E94780B8F32E1F71A8619865E824D8288
:100CC00081E08F830E94780B888790914B0391116C
:100CD000EFCF8F3219F40E94780B88876FE280E0A3
:100CE00090E00E94B30568850E94B3057C010E94D4
:100CF000780B8093420290914B03992311F081E08D
:100D000048C0682FC7010E94B3057C010E94780B80
:100D100080933E0290914B039111F1CF682FC70150
:100D20000E94B3057C010E94780B8B8390914B034A
:100D30009111E5CF682FC7010E94B3057C013B806C
:100D400096E4892E92E0992E0E94780BF40181930B
:100D50004F0190914B039111D2CF682FC7010E9490
:100D6000B3057C013A943110EFCF0E94780B8A834F
:100D700080914B038111C3CF0E94780B89838091AE
:100D80004B038111BCCF29813A81E216F30609F0A9
:100D900083E08C83811178C1109334010093330177
:100DA000E8858E2F90E0FC01F097E131F10508F025
:100DB0006AC1EC5CFF4F0C94940B80913501882341
:100DC00009F462C180914102833028F4813040F4FB
:100DD0000E94BB0307C0833049F0843009F054C13E
:100DE0000E949F01811150C18FE04CC00E94C80930
:100DF000F9CF8CE6898748C18AE08F8385E191E04D
:100E00009E838D8341C1BF8288EC898786E08A8773
:100E10003BC1FE0131961F010E94CD058091410228
:100E2000882329F0853028F423982B9A02C00E9449
:100E300000030E94E204FFEF21EE84E0F150204025
:100E40008040E1F700C000002A960FB6F894DEBF9C
:100E50000FBECDBFDF91CF911F910F91FF90EF900B
:100E6000DF90CF90BF90AF909F908F907F906F90CA
:100E70005F904F903F902F9008958091460285306B
:100E800018F089E08C8300C1809341020E94D8044D
:100E9000FBC080914102833028F4813030F40E94FD
:100EA0000003F2C0843009F0EFC00E94BB01ECC027
:100EB000AF827E826D820E94E70494CF80914102CE
:100EC0008111E2C02B98E0C080914102833030F460
:100ED000813008F0D8C00E94BA0484CF833009F072
:100EE000B2C00E94030B7ECF90914102943018F45F
:100EF000923020F0C8C0943009F0C6C080914602FC
:100F00008987943019F4880F880F01C0880F809367
:100F1000420210923E02911103C00E949F0462CFD0
:100F20000E949C025FCF8091460280934302809191
:100F30004102833028F4813038F40E9456041BC0EB
:100F4000833029F08430F9F40E942C0214C00E94EE
:100F50002C0B11C080914602809343028091410284
:100F6000823039F020F0833059F0843061F4BC8253
:100F70000AC00E945702811106C08FE08C8303C013
:100F80000E94370BF8CF8C8181117EC08091430283
:100F90008F831E830D8378C08B81809343028FE003
:100FA0008C8380914102833018F4813030F037C057
:100FB0008330D1F1843099F167C00E947E04882388
:100FC00009F462C0D0923401C09233010E945604E9
:100FD000882309F459C01C82109334010093330113
:100FE000D0924002C0923F0280914302A09133010F
:100FF000B0913401E0913F02F09140022C91908138
:101000002913AC821196B0933401A0933301319629
:10101000F0934002E0933F02815041F735C00E94B7
:10102000BB02882389F12BC00E94420BFACF8B812F
:10103000809343028FE08C8380914102823031F0B3
:1010400010F1833031F08430F9F41DC00E94770232
:10105000E8CF0E944D0BE5CFE090410294E0E91209
:1010600012C08B81809343028FE0F82EFC820E9495
:10107000DF02803321F0803C21F4EC8205C01C8229
:1010800003C0FC8201C0BC82FE0131961F010E9498
:10109000CD050ECE9091500398279093500398E081
:1010A0002B9A1092B20080FF0FC02091B200203125
:1010B000E0F32B981092B2002091B2002031E0F3BF
:1010C0008695915069F708952091B2002830E0F399
:1010D0002B981092B2002091B2002830E0F32B9AA6
:1010E0001092B2002091B2002830E0F32B981092B9
:1010F000B2002091B2002830E0F3E2CF239A8FEFC4
:101100000E944A088FEF0E944A088FE70E944A080F
:10111000109250038BE10E944A0880914D038F5F2B
:1011200080934D030C944A08809150030E944A0812
:101130002B9A1092B2008091B2008830E0F323988D
:1011400008951092B2001B9B0AC08091B2008E37A6
:10115000D0F38FEF08958091B2008E37D0F71B9BAC
:10116000FACF8091B20080934F039091510398176A
:1011700088F01092B2001B9B09C08091B2008E379C
:10118000D0F3E7CF8091B2008E3718F71B9BFACFD0
:1011900080E0089581E00895FC01108280E090E0F5
:1011A00041E050E01092B2001B9B0AC02091B200B7
:1011B0002E37D0F380E008952091B2002E37D0F77B
:1011C0001B9BFACF3091B20020915103231780F07E
:1011D0001092B2001B9B09C02091B2002E37D0F3B1
:1011E000E9CF2091B2002E3728F71B9BFACF09C018
:1011F00060819A01082E01C0220F0A94EAF7262B7B
:10120000208301968830910569F690914C03808186
:10121000892780934C0381E00895CF93DF9388E181
:101220008093510380914E03853139F0823129F04A
:10123000813031F0C3E2D0E005C0C0E6DAEE02C092
:10124000C1E0D0E00E94A10887FF04C02197D1F738
:1012500080E017C0CAE00E94A1088F3FC9F3C150C7
:10126000D1F780914F03982F969586958695890F93
:10127000809351030E94A1088F3F51F31816D4F3B5
:1012800081E0DF91CF910895EF92FF920F931F932A
:10129000CF93DF9300D01F92CDB7DEB77C011B82C6
:1012A0000E940D09811102C080E068C010924C03B9
:1012B000CE0103960E94CC088823B1F38B818B3139
:1012C00099F7CE0103960E94CC08882369F39B818D
:1012D00080914D039813E8CFCE0102960E94CC086E
:1012E000882311F38A818230F8F6CE0101960E949C
:1012F000CC088823C9F289819A81892BA9F2CE0171
:1013000003960E94CC08882379F28B818E3061F697
:10131000CE0103960E94CC08882331F29B818091F4
:101320004E039813C1CFCE0103960E94CC088823A8
:1013300009F4BACF8B818111B7CF00E010E0C7016B
:10134000800F911F29813A8122503109021713071A
:1013500040F40E94CC08882309F4A6CF0F5F1F4FEA
:10136000EECFCE0103960E94CC08882309F49CCFCF
:1013700080914C03811198CF2B9A81E00F900F90B0
:101380000F90DF91CF911F910F91FF90EF900895F3
:10139000CF9381E080934E030E947E0880E00E94FC
:1013A0004A0881E00E944A088EE00E944A0881E0D3
:1013B0000E944A080E94940880E291E00E94440939
:1013C000C82F811103C00E94E20401C0C1E08C2F2C
:1013D000CF910895FF920F931F93CF93DF938C01CA
:1013E000C62FF42ED22F8DE180934E030E947E08EB
:1013F00080E00E944A0888E00E944A088EE00E942D
:101400004A088DE10E944A0884E00E944A0884E06C
:101410000E944A0880E00E944A088C2F0E944A08D5
:101420008F2D0E944A088D2F0E944A0880E00E945A
:101430004A080E94940880E291E00E9444098823AF
:1014400099F08091200181110EC080912101C8176F
:1014500011F0811108C080912201811104C0809196
:101460002301F801808381E0DF91CF911F910F91DB
:10147000FF9008950E94C809882399F021E040E078
:1014800060E386E391E00E94EA09882351F022E0BC
:1014900040E060E385E391E00E94EA0991E0811178
:1014A00001C090E0892F0895809142028F3F21F47E
:1014B00080913E028F3F29F186E080934E030E9487
:1014C0007E0880E00E944A0885E00E944A088EE07B
:1014D0000E944A0886E00E944A0880E00E944A086A
:1014E00080E00E944A08809142020E944A0880914E
:1014F0003E020E944A080E94940880E291E00C9407
:10150000440981E00895CF93C1E0809143028111A5
:10151000C0E00E947E0880E00E944A0884E00E94A9
:101520004A088EE00E944A0880914E030E944A08B1
:101530008C2F0E944A08809143020E944A0880EA48
:101540000E944A080E9494088091330190913401CE
:10155000CF910C9444090F931F93CF93DF93C091C5
:101560004302CC2339F08C2F90E00A96182F092FD4
:10157000D0E003C01AE001E0D1E00E947E08802F95
:101580000E944A08812F0E944A088EE00E944A0861
:1015900080914E030E944A088D2F0E944A088C2F8A
:1015A0000E944A0880E00E944A0880E00E944A089F
:1015B00080E00E944A0880E00E944A0880E00E9481
:1015C0004A0880E00E944A0880E00E944A08E091B0
:1015D0003301F091340180810E944A0880913301E7
:1015E0009091340101969093340180933301C1505E
:1015F00071F70E94940880E291E0DF91CF911F91F2
:101600000F910C94440982E180934E030E947E085E
:1016100080E00E944A0887E00E944A088EE00E940B
:101620004A0882E10E944A0884E10E944A0880E058
:101630000E944A088CEA0E944A0888E80E944A08E8
:1016400083E10E944A0886E70E944A080E949408A3
:1016500080E291E00C9444090E94540A882329F006
:1016600084E180934E030C94830A80E008950E94E5
:10167000540A882329F086E180934E030C94830A50
:1016800080E008950E94540A882329F083E1809322
:101690004E030C94AB0A80E008950E94540A8823FC
:1016A00029F085E180934E030C94AB0A80E0089505
:1016B000E0ECF0E080818D7F80838CE090E090937F
:1016C000C5008093C40086E08093C20088E18093C7
:1016D000C10085E08093810008959091C00095FF3E
:1016E000FCCF8093C6008091C00086FFFCCF089598
:1016F00010924B0310928500109284008091C000DC
:1017000087FD0FC0809184009091850021E0853C89
:1017100039E0930708F420E020934B03853C99407F
:1017200068F38091C6000895EE0FFF1F0590F491B5
:08173000E02D0994F894FFCFAD
:101738003437310000000000000000000D424C4822
:10174800656C69F47D347741526D3136385F380005
:00000001FF
