:100000000C9430030C944D030C944D030C944D034D
:100010000C944D030C944D030C944D030C944D0320
:100020000C944D030C944D030C944D030C944D0310
:100030000C944D030C944D030C944D030C944D0300
:100040000C94EE0C0C944D030C944D030C944D0346
:100050000C944D030C944D030C944D030C944D03E0
:100060000C944D030C944D03110411041804BE04A8
:10007000AF0426046C042D04D00448045E04650417
:100080006C040A0573047A048C04110593049A0421
:10009000A104A804D704D704D704E504E504EA04BE
:1000A000E504E504A1045F0674068906D007BA07D3
:1000B0009E06B306C806E807DD06EF0605071B0720
:1000C0007508310748075A078C087007820794079C
:1000D000A607FF071708B9082F0847085F08A208F6
:1000E000D208E9086310C00FC20FC70FCD0FE20F8F
:1000F000E50FE90FF40FF70F04101E105F10202D0D
:1001000020002E0020202020202020202020202021
:1001100000202020003D0054656D702050726F74E7
:100120006563740053706F6F6C75702054696D65F2
:100130000050504D2043656E205468726F00424558
:100140004320566F6C746167650044656D6167207C
:10015000436F6D70005468726F2052617465004285
:100160006561636F6E2044656C617900426561630F
:100170006F6E20537472656E004265657020537413
:1001800072656E0050504D204D6178205468726F3A
:100190000050504D204D696E205468726F005374AA
:1001A000617274204D6574686F6400474F56205229
:1001B000616E676500474F56205461726765740031
:1001C00052652D41726D0054582050726F6700497E
:1001D0006E70757420506F6C004D6F746F72204498
:1001E000697200566F6C7420436F6D700050574DEC
:1001F00020467265710044616D7020466F726365C0
:10020000004D6F746F722054696D696E670053748E
:1002100061727420416363656C0053746172742071
:1002200052504D00537461727420506F77657200A4
:100230004C6F772056204C696D6974004D6F746F58
:10024000722049646C65004D6F746F72204761695C
:100250006E00474F5620204D6F646500474F562073
:100260002049204761696E00474F562020502047A3
:1002700061696E00DE03CE04AB04DE037803710314
:10028000690362033F043504260417045E0349042E
:100290003F04350430045E03B103AA039F039D03AA
:1002A0009B0399039703940391038E038B038803A5
:1002B000850381037D03DE03DB03DE03DB03AB0485
:1002C000BC04CE04AB04CE04C203B903D403CB03F5
:1002D000A103DE03DB03AB04CE0486040000AB0401
:1002E000CE048D0486049A04CE04C304B004AB0487
:1002F000A304F903F4033F043A04EF030304FE03E9
:100300003F0408043A0480047A0474046E04680408
:10031000620453044E04490444043F0408043A04AC
:10032000CE04C304BC04B004AB04440412043F0470
:100330000D040804AB04BC04CE04DE03EC03E803A4
:10034000E203DE035D04580453044E0449044404EC
:100350003F043A04350430042B0421041C04496E84
:100360006600372E352F313500372E352F372E3595
:100370000031352F372E350031352F3000323535ED
:100380000031323800363400343800333200323431
:10039000003136003132003800360034003300328C
:1003A00000426964697265637400446972656374CC
:1003B0000053746570706564004E6567617469769A
:1003C0006500506F73697469766500526576657271
:1003D000736564004E6F726D616C004F4E004F4646
:1003E000460053455455500041524D005458003278
:1003F0002E333000302E373000302E343000302E87
:10040000383000302E363700312E323500312E3163
:100410003200302E38380031302E3000382E303057
:1004200000362E303000352E303000342E30300083
:10043000332E303000322E303000312E3530003146
:100440002E303000302E373500302E353000302E33
:10045000333800302E323500302E313700302E3117
:100460003300302E31383800302E31323500302E06
:1004700030393400302E30363300302E30343700EF
:10048000302E3033310044616D7065640044616D1D
:10049000706564204C696768740056657279204CF9
:1004A0006F7700486967686573740048696768001A
:1004B0004D656469756D2048696768004D656469BC
:1004C000756D004D656469756D204C6F77004C6FDC
:1004D00077004D054A05460540053B0532052F05C9
:1004E00024051A0518050F050405FD04F204F0049F
:1004F0005000416C69676E424C3335500054677947
:100500004B4634005475726E696779414534005426
:1005100075726E6967794E004500506C6174696E42
:10052000756D3500416C69676E424C333558004833
:100530004B005475726E6967793400536B7977009C
:100540005850374146005850330053750044004C12
:100550006F6F70004D554C5449005441494C004D4B
:1005600041494E0043616E63656C202620457869E1
:10057000743F000420526561642020202020426FD7
:100580007820050004205265616420202020424527
:100590005343200500457869742020022003202061
:1005A0005365747570005965732020200220032064
:1005B000202020204E6F00746F20424553433F009F
:1005C000204F4B2000577269746520005461726798
:1005D0006574004C61796F75742000206D696E0040
:1005E00020562F63656C6C00332E002075536563B5
:1005F00000436F6E6E656374004D656D002045723B
:10060000726F7221005265762E00424C48656C690B
:10061000537569746520426F780A20202020627922
:1006200020343731320000040E1F0404040000049B
:1006300004041F0E040000040C1F0C04000000043E
:10064000061F06040000504320496E7465726661FF
:100650006365005570646174696E672E2E2E00000C
:1006600011241FBECFEFD8E0DEBFCDBF11E0A0E068
:10067000B1E0EEEAF1E202C005900D92AC39B107AB
:10068000D9F723E0ACE9B1E001C01D92AE3EB2075C
:10069000E1F70E94590E0C94D5100C9400002F9293
:1006A0003F92AF92BF92DF92EF920F931F93CF933F
:1006B000DF93E10181E09981911180E0D82ED194FE
:1006C0000E94DF0DEA8124E0E29FF0011124E05056
:1006D000FF4F828193810E94140E8A81833060F4DF
:1006E0008091A201823041F460E080E00E94D80D48
:1006F0008FE495E00E94140E61E080E00E94D80D26
:1007000085E191E00E94140E8A8194E0899FF001B6
:100710001124E050FF4FE0801181E0917E01F091C3
:100720007F018F3091F49281923148F49091A2012F
:10073000992329F19091E903992309F125C090911A
:10074000E90391111CC012E01FC08C3119F4109103
:10075000BE021AC0873021F492819E30A8F013C0E7
:10076000893039F49281903160F49F3069F417E058
:100770000BC08E3049F49281903128F405C013E00B
:1007800003C01DE001C016E09281913160F082311A
:1007900029F48091A201811105C005C0833011F0B8
:1007A000813109F413E0AA24AA94B12C8981D816C6
:1007B00009F44DC160E08DE00E94D80D81E191E027
:1007C0000E94140E898160E0843610F08DE005C02F
:1007D0008A3010F08EE001C08FE00E94D80D898130
:1007E00090E00E94FA0D61E082E00E94D80D84E062
:1007F00091E00E94140E61E082E00E94D80D098110
:10080000101708F423C10E1508F420C14A8150E0E6
:100810004F31510508F01AC14C5C5F4FFA010C943E
:100820009E10E02FF0E0EE0FFF1FEE5BFC4F0AC1C1
:100830008091A201E02FF0E0EE0FFF1F811103C0B5
:10084000E65CFC4FFFC0EE5CFC4FFCC0E02FF0E02C
:10085000EE0FFF1FE85DFC4FF5C0A0917E01B09147
:100860007F0112968C918E3010F0025001C0015021
:100870000F3F59F088EE95E00E94140E802F90E013
:100880000E94FA0D80EE95E0DFC08EED93E0DCC0B3
:10089000A0917E01B0917F0112968C91803110F071
:1008A000EFEF05C08F3011F4E5E001C0E7E0E00FA5
:1008B000F0E0EE0FFF1FEA5FFC4FC4C0E02FF0E056
:1008C000EE0FFF1FE650FD4FBDC0E02FF0E0EE0F32
:1008D000FF1FE051FD4FB6C0E02FF0E0EE0FFF1F0D
:1008E000E25EFC4FAFC0E02FF0E0EE0FFF1FEC51D7
:1008F000FD4FA8C0A0917E01B0917F0112968C910E
:10090000E02FF0E0EE0FFF1F8B3018F4EC52FD4F9C
:1009100099C0E452FD4F96C0E02FF0E0EE0FFF1FAC
:10092000E053FD4F8FC0E02FF0E0EE0FFF1FE653C6
:10093000FD4F88C0E02FF0E0EE0FFF1FEA53FD4FA0
:1009400081C0E02FF0E0EE0FFF1FE654FD4F7AC0AC
:10095000E02FF0E0EE0FFF1FEA54FD4F73C0F4E606
:100960000F9FC0011124B5010E948A10CB01992765
:100970000E94FA0D85E20E94E20D68C0A0917E01FE
:10098000B0917F0112968C91E02FF0E0EE0FFF1FE7
:10099000813118F0E454FD4F55C0EE53FD4F52C065
:1009A000E02FF0E0EE0FFF1FEA56FD4F4BC0E02FA7
:1009B000F0E0CF0186509F4F880F991F880F991F35
:1009C0000E94FA0D8BEE95E03FC0802F90E00E94D0
:1009D000FA0D3CC0A0917E01B0917F018C911196DF
:1009E0002C9130E09AE0899F200D311D1124E02FD9
:1009F000F0E0EE0FFF1F203731051CF4E457FD4FE8
:100A000002C0EE57FD4F859194910E94140E8BED1C
:100A100095E01AC0E02FF0E0EE0FFF1FE656FD4F05
:100A200011C0A0917E01B0917F0112968C91E02FB0
:100A3000F0E0EE0FFF1F813118F0EE58FD4F02C0BD
:100A4000E858FD4F859194910E94140ED98084E05E
:100A50000E944F0D882391F08FEF888315E6EFE316
:100A6000FCE93197F1F700C00000115011F488EC57
:100A700037C00E94C80C82FFF2CF38C080E10E94CC
:100A80004F0D882331F08981E81640F48150898325
:100A900005C080E10E945A0D8111F5CF88E00E94C7
:100AA0004F0D882331F08981811740F48F5F89834E
:100AB00005C088E00E945A0D8111F5CF80E20E94A6
:100AC0004F0D882309F472CE81E0888315E68FE309
:100AD0009CE90197F1F700C00000115019F484E679
:100AE0008A8304C00E94C80C85FFF1CFDF91CF91AB
:100AF0001F910F91EF90DF90BF90AF903F902F909C
:100B000008952AE12093E3021092BD0220E720938A
:100B1000E4029093B3018093B2010E94000C8823F9
:100B200029F00E94350C91E0811101C090E0892FDD
:100B30000895CF93DF9380917C0190917D010E9475
:100B400081058823C9F1A0917E01B0917F01E091D8
:100B50007C01F0917D019C91808198132FC01196AA
:100B60009C9111978181981329C01D969C911D9786
:100B70008585981323C01E969C911E978685981391
:100B80001DC080E1ED01C05CDF4F2881EF01C05C3A
:100B9000DF4F9881291312C0ED01C05BDF4F288120
:100BA000EF01C05BDF4F9881291308C08150119677
:100BB00031968111E7CF1CC0C1E001C0C2E085ECD5
:100BC00095E00E94140EC11103C080EC95E008C0AE
:100BD000C23021F48CEC95E00E94140E8DEF95E06C
:100BE0000E94140E0E94650D8C2FDF91CF91089505
:100BF0001092BD020E947E0C882379F080E78093DA
:100C0000E40280917E0190917F019093B3018093E3
:100C1000B2010E945D0C811102C0C3E0D0CF80916F
:100C20007C0190917D019093B3018093B2010E9469
:100C3000350C882391F3E0917E01F0917F01A09122
:100C40007C01B0917D0180E7C0E021919D91291345
:100C5000C3E08150D1F7B3CF2F923F920F931F93F0
:100C6000CF93DF9300D01F92CDB7DEB71B8281E018
:100C7000898378940EE115E08B81813F08F00B8326
:100C80008B818F3108F01B822091A201222359F021
:100C9000223011F030E008C0E0917E01F0917F0138
:100CA00082818031B8F331E08B8190E08F31910502
:100CB00008F0A3C2FC01ED5AFF4F0C949E103323A1
:100CC00009F49BC2E0917E01F0917F0183818A83C8
:100CD000CE0101961C010E944F03E0917E01F0912C
:100CE0007F018A81838389C2332309F486C2E0911C
:100CF0007E01F0917F0184818A83CE0101961C01DF
:100D00000E944F03E0917E01F0917F018A818483EC
:100D100074C2332309F471C2E0917E01F0917F0126
:100D200085818A83CE0101961C010E944F03E091C8
:100D30007E01F0917F018A8185835FC2222309F4BD
:100D40005CC2E0917E01F0917F0187818A83CE01B0
:100D500001961C010E944F03E0917E01F0917F01FA
:100D60008A8187834AC2213009F047C2E0917E011F
:100D7000F0917F0180858A83CE0101961C010E943B
:100D80004F03E0917E01F0917F018A81808735C217
:100D9000213009F432C2E0917E01F0917F01868119
:100DA0008A83CE0101961C010E944F03E0917E01CF
:100DB000F0917F018A81868320C2E0917E01F091CB
:100DC0007F0181858A83CE0101961C010E944F0319
:100DD000E0917E01F0917F018A8181870EC2E091CE
:100DE0007E01F0917F018281833108F006C2828901
:100DF0008A83CE0101961C010E944F03E0917E017F
:100E0000F0917F018A81828BF8C1E0917E01F0919F
:100E10007F018281833108F0F0C183898A83CE010A
:100E200001961C010E944F03E0917E01F0917F0129
:100E30008A81838BE2C1E0917E01F0917F01828102
:100E40008B3008F4DAC185898A83CE0101961C01B2
:100E50000E944F03E0917E01F0917F018A81858B92
:100E6000CCC1E0917E01F0917F0182818B5088306E
:100E700008F0C3C186898A83CE0101961C010E94B5
:100E80004F03E0917E01F0917F018A81868BB5C18D
:100E9000E0917E01F0917F0182858A83CE010196E7
:100EA0001C010E944F03E0917E01F0917F018A8135
:100EB0008287A3C1E0917E01F0917F0182818E3013
:100EC00008F09BC184898A83CE0101961C010E948F
:100ED0004F03E0917E01F0917F018A81848B8DC167
:100EE000E0917E01F0917F0183858A83CE01019696
:100EF0001C010E944F03E0917E01F0917F018A81E5
:100F000083877BC1E0917E01F0917F0184858A8394
:100F1000CE0101961C010E944F03E0917E01F091E9
:100F20007F018A81848769C1E0917E01F0917F0110
:100F300087858A83CE0101961C010E944F03E091B0
:100F40007E01F0917F018A81878757C1211155C1A8
:100F5000E0917E01F0917F0180898A83CE01019624
:100F60001C010E944F03E0917E01F0917F018A8174
:100F7000808B43C1211141C1E0917E01F0917F013D
:100F800081898A8310938001CE0101961C010E9401
:100F90004F03E0917E01F0917F018A81818B2DC109
:100FA000E0917E01F0917F0182818C3008F425C1AF
:100FB000211123C187898A83CE0101961C010E94D9
:100FC0004F03E0917E01F0917F018A81878B15C1EB
:100FD000E0917E01F0917F0182818D50863008F092
:100FE0000CC1808D8A83CE0101961C010E944F03A3
:100FF000E0917E01F0917F018A81808FFEC0E091B7
:101000007E01F0917F0182818D3008F4F6C0818DE0
:101010008A8310938001CE0101961C010E944F0328
:10102000E0917E01F0917F018A81818FE6C0E0919D
:101030007E01F0917F0182818D3008F4DEC0828DC7
:101040008A8310938001CE0101961C010E944F03F8
:10105000E0917E01F0917F018A81828FCEC0E09184
:101060007E01F0917F0182818D3008F4C6C0838DAE
:101070008A8310938001CE0101961C010E944F03C8
:10108000E0917E01F0917F018A81838FB6C0E0916B
:101090007E01F0917F0182818D3008F4AEC0848D95
:1010A0008A8310938001CE0101961C010E944F0398
:1010B000E0917E01F0917F018A81848F9EC0E09152
:1010C0007E01F0917F0182818D3008F496C0858D7C
:1010D0008A83CE0101961C010E944F03E0917E019C
:1010E000F0917F018A81858F88C0E0917E01F09127
:1010F0007F0182818D50863008F07FC0868D8A8383
:10110000CE0101961C010E944F03E0917E01F091F7
:101110007F018A81868F71C0E0917E01F0917F010D
:1011200082818D3008F469C0878D8A83CE01019653
:101130001C010E944F03E0917E01F0917F018A81A2
:10114000878F5BC08091BE02882309F456C0E0916E
:101150007E01F0917F0180A18A83CE0101961C015E
:101160000E944F03E0917E01F0917F018A8180A36C
:1011700044C0E0917E01F0917F0182818131E8F1EC
:101180002223D9F181A18A8310938001CE01019697
:101190001C010E944F03E0917E01F0917F018A8142
:1011A00081A32BC0E0917E01F0917F018281823189
:1011B00020F1211122C082A18A83CE0101961C0157
:1011C0000E944F03E0917E01F0917F018A8182A30A
:1011D00014C0E0917E01F0917F018281823168F03C
:1011E00083A18A83CE0101961C010E944F03E091E6
:1011F0007E01F0917F018A8183A3009380019B810E
:10120000943611F0983C29F50E94DF0D8B818436CD
:1012100039F485EC95E00E94140E87EB95E002C04E
:1012200084E695E00E94140E61E080E00E94D80DF3
:1012300086EA95E00E94140E0E94650D853039F40F
:10124000F89481E09B81943641F080E006C01B82D7
:1012500013CD8981890F8B830FCD0F900F900F9045
:10126000DF91CF911F910F913F902F90089585E0CE
:1012700096E00E94140EE0917E01F0917F01808142
:1012800090E00E94FA0D82E091E00E94140EE0913D
:101290007E01F0917F01818190E00E94FA0D8EEF36
:1012A00090E00E94140E8091A201813039F018F074
:1012B000823039F008958FE595E005C08AE595E024
:1012C00002C084E595E00C94140ECF93DF930E9446
:1012D000DF0DC0E0D0E080917E0190917F018C0F06
:1012E0009D1FFC01E05AFF4F80810E94E20D219674
:1012F000C031D10581F761E080E00E94D80D83EA1A
:1013000091E00E94EE0D0E94650D0E94DF0D0E948B
:10131000370961E080E00E94D80D83ED95E00E94DE
:10132000140E85E096E00E94140EE0917E01F0918B
:101330007F01828190E00E94FA0DDF91CF910C94A1
:10134000650D0F931F93CF93DF9310929C010E9422
:10135000DF0D80917E0190917F010E94810588239D
:1013600009F486C080917E0190917F01E3EAF1E06B
:101370001082DC01AF5BBF4F2C91233209F0208338
:101380003196019621E0E13BF20791F71092B1010D
:101390001092E9031092BE0210E001E0C12FD0E0EC
:1013A000FE01EE0FFF1FEE52FB4F659174918FEB24
:1013B00092E00E94A410AFEBB2E0E3EAF1E0819189
:1013C0009D91891719F0992319F01CC0811114C03F
:1013D000E0917E01F0917F018281803128F4143008
:1013E00080F40093E9030DC00093E903C457DE4F76
:1013F00088818093BE0205C081E0E23BF807F9F6E0
:1014000001C01FE01F5F1F3048F291E090939C01E4
:10141000E0917E01F0917F018585853A31F48685E2
:101420008A35A1F41092A20113C08A3531F4868561
:10143000853A61F49093A2010BC0853539F4868515
:101440008A3A21F482E08093A20102C010929C01AA
:1014500080919C01811103C089EF95E00BC08081D0
:1014600084508A3048F010929C0185E096E002C0DA
:1014700081EF95E00E94140E80919C01882319F061
:101480000E94650906C08DEF95E00E94140E0E942F
:10149000650D80919C01DF91CF911F910F9108956F
:1014A0000E94DF0D8AE096E00E94140E0E94650DF6
:1014B0000E94DF0D81E891E00E94EE0D61E080E086
:1014C0000E94D80D85E096E00E94140E8AEC92E30B
:1014D0000E94FA0D0C94650DCF93DF93C0E1D0E12B
:1014E000D093C1000E94DF0D80919C01882319F0E8
:1014F00084E895E002C083E795E00E94140E61E065
:1015000080E00E94D80D85E995E00E94140E0E94AB
:10151000650D833039F118F4823049F0E1CF843021
:1015200059F18530E9F6DF91CF910C94E20A809170
:101530009C01882329F00E942C06882389F205C08B
:101540000E94A1098111F7CFCBCF0E94DF0D8091BE
:101550009C01882329F21092C1000E949905C09332
:10156000C100BECF80919C01882319F00E946509BB
:10157000B7CF0E94500AB4CF0E94A109B1CFCF9338
:10158000DF930E94E20C0E9469108CE00E94230EFF
:1015900080E50E94CA0DC6E2D6E0FE0184910E9459
:1015A000D10D2196F6E0C634DF07B9F7DF91CF9170
:1015B00008950E94BF0A0C946C0A2B98000000004A
:1015C0002B9A08951092B4011092B5011092B601B1
:1015D0001092B70183B183FB882780F9982F2B9A4B
:1015E000239A2B9820E82A95F1F71C9B02C0982F8C
:1015F00092602C9824982B9A8AE08A95F1F700C083
:1016000023982B989093B60181E0911101C080E05E
:1016100008952B9A239A0E94DD0A249A08952C9803
:1016200024980E94DD0A23982B980895CF93DF9386
:101630000E94090B2C980E94DD0A2C9A0E94DD0A58
:101640002C982498D8E0C0E0C6950E94DD0A1C9929
:10165000C068D150C9F70E940F0B8C2FDF91CF913A
:101660000895CF93DF93CFEFDFEF0E94160B80FD3D
:1016700004C0209711F02197F8CF81E0CD2B09F419
:1016800080E0DF91CF910895CF93DF93D82F0E9410
:10169000090B2C9A0E94DD0A0E94DD0AC8E0D0FFE7
:1016A00002C02C9A01C02C980E94DD0AD695C15028
:1016B000B1F7DF91CF910C940F0BCF93DF932C9860
:1016C0002498CFEFDFEF0E94DD0A2197209711F0D9
:1016D0001C9BF9CF81E0CD2B09F480E0DF91CF9105
:1016E0000895CF930E94090B2C980E94DD0A0E9456
:1016F000DD0A0E94DD0A0E94DD0A0E945D0B88233C
:10170000B9F01092EA03C8E08091EA0386958093CD
:10171000EA030E94DD0A1C9B05C08091EA038068F1
:101720008093EA03C15081F70E940F0B81E001C052
:1017300080E0CF9108950E94310B882339F00E94F8
:10174000710B882319F08091EA0301C082E0809335
:10175000B80181E09091B8019D3009F080E00895D2
:1017600080E00E94440B0E94710B8091EA038093F9
:10177000B4010895CF93DF93D82F0E94090B2C9AC0
:101780000E94DD0A2C980E94DD0A0E94DD0A0E9458
:10179000DD0AC8E0D0FF02C02C9A01C02C980E943C
:1017A000DD0AD695C150B1F70E945D0B882361F028
:1017B0000E940F0BCFEFDFEF0E94160B81FF04C0DA
:1017C000209711F02197F8CFDF91CF910895809164
:1017D000E3020E94BA0B8091BD020E94BA0B809175
:1017E000E4020E94BA0B0C949B0BCF93C82F84EB9E
:1017F0000E94440B8C2F0E94BA0BCF910C949B0B30
:101800000E94E20A811102C080E008950E94B00B9C
:101810008091B40181508E3FB8F782E00E94440B62
:1018200082E00E94BA0B84E00E94BA0B87EB91E041
:101830000197F1F700C0000081E00E94BA0B9FE71A
:1018400025EB81E0915020408040E1F700C000008E
:1018500082E00E94F50B8823B9F20E94710B8091FF
:10186000EA038093B50181E00895CF9386E00E945A
:10187000F50B811102C080E01EC00E94E70B882397
:10188000D1F3C091E4020E94310B8823A1F30E949E
:10189000710B882381F3E091B201F091B301CF0184
:1018A00001969093B3018093B2018091EA03808303
:1018B000C15049F781E0CF910895CF9387E00E940E
:1018C000F50B8823C1F00E94E70B8823A1F0C0919B
:1018D000E402E091B201F091B301CF01019690933F
:1018E000B3018093B20180810E94BA0BC15089F785
:1018F000CF910C94310B80E0CF910895CF93C0919C
:10190000E302C695CF3090F488E00E94F50B88235F
:1019100069F08C2F0E94BA0B0E949B0B882331F038
:1019200080E00E94BA0BCF910C94310B80E0CF91F4
:10193000089583E00E94F50B882359F08EED0E94F4
:10194000BA0B8DEA0E94BA0B85EA0E94BA0B0C947E
:10195000310B80E00895ACE7B0E080E48C93EAE7D7
:10196000F0E082EC80838C91807F8C938081806416
:101970008083089580917A0086FDFCCF8091780065
:101980009091790020917A00206420937A00089544
:101990000E94BA0C833622E0920758F4873821E07F
:1019A000920748F4833D910540F4CD9740F080E2E2
:1019B00007C080E005C080E103C084E001C088E08A
:1019C000809508950E94AB0C85E085BD84E686BDB8
:1019D000EEE6F0E080818160808308951F920F928F
:1019E0000FB60F9211242F933F934F935F936F93F2
:1019F0007F938F939F93AF93BF93CF93EF93FF9377
:101A0000C091ED030E94C80C80958C2794E696BD8A
:101A100090919F019823909590939F0120919E0112
:101A20002823292720939E01982392238091ED0358
:101A300089278093ED038091EC032091ED03292306
:101A4000282B2093EC038091ED038C7319F486E42A
:101A500080939D0180919D01815080939D01811112
:101A60000CC08091800180939D019091EB03809147
:101A7000ED038C73892B8093EB03FF91EF91CF9152
:101A8000BF91AF919F918F917F916F915F914F9196
:101A90003F912F910F900FBE0F901F901895F894C3
:101AA0009091EC0389239091EC0398279093EC0399
:101AB00078940895F8949091EB0389239091EB0327
:101AC00098279093EB0378940895CF93CFB77894A9
:101AD0008091C10084FF08C08091C00087FF04C0CE
:101AE0000E940B0F80E015C084E00E944F0D811111
:101AF00013C088E00E944F0D811110C080E10E9448
:101B00004F0D81110DC080E20E944F0D882301F31B
:101B100085E0CFBFCF91089582E0FBCF83E0F9CF7E
:101B200084E0F7CF299A00C029980895CF93DF93D6
:101B30001F92CDB7DEB7662311F0289A01C028980E
:101B4000549A559A569A579A5F985E985D985C9801
:101B500087FD5F9A86FD5E9A85FD5D9A84FD5C9A9D
:101B600089830E94920D5F985E985D985C98898148
:101B700083FD5F9A82FD5E9A81FD5D9A80FD5C9A8D
:101B80000E94920D5C9A5D9A5E9A5F9A0F90DF9127
:101B9000CF910895E0E4FFE13197F1F760E00C9414
:101BA000960DE0E4FFE13197F1F761E00C94960DBA
:101BB000611102C0805801C080540C94CA0D81E0AC
:101BC0000C94CA0DE0E4FFE13197F1F78A3019F483
:101BD00080EC0C94CA0D61E00C94960DCF93DF93CA
:101BE000EC018991882319F00E94E20DFACFDF9170
:101BF000CF910895CF93DF9300D000D000D0CDB720
:101C0000DEB74AE0BE016F5F7F4F0E94AB10CE018E
:101C100001960E94EE0D26960FB6F894DEBF0FBE19
:101C2000CDBFDF91CF910895CF93DF93FC018491D5
:101C3000EF012196882321F00E94E20DFE01F7CFEB
:101C4000DF91CF910895CF93C82F209A219A549A6B
:101C5000559A569A579AE0E0FAEF3197F1F75D9A64
:101C60005C9A0E94920DE0E0FEE43197F1F70E9449
:101C7000920DE0E0F1E03197F1F70E94920DE0E083
:101C8000F1E03197F1F75C980E94920DE0E0F1E00D
:101C90003197F1F788E20E94CA0D88E00E94CA0DD0
:101CA0000E94DF0D86E00E94CA0D8C2FCF910C940C
:101CB000CA0D88E10FB6F89480936000109260001E
:101CC0000FBE0E94D90A2BE088E190E00FB6F8948D
:101CD000A895809360000FBE20936000FFCF9627E9
:101CE000092E0294202D2F702927692F6025660F59
:101CF000607E2627602D6927607F6695092E000C7F
:101D0000661F9695969596959F7196279827822F90
:101D100008952F923F92FF920F931F93CF93DF93DB
:101D2000E1018A858F3079F48091E202823029F0D6
:101D3000833029F0811105C002C086E003C085E030
:101D400001C087E08A876EE280E090E00E946F0E1B
:101D500069850E946F0E68850E946F0E6F810E94D8
:101D60006F0E6E810E946F0E382F292F8C81FE809E
:101D7000082F1D81F80EF80161918F01832F922F9A
:101D80000E946F0E382F292FF012F5CF6A850E941E
:101D90006F0E082FF92E88E08093C1008EE20E941A
:101DA000781089850E94781088850E9478108F812C
:101DB0000E9478108E810E9478101E81EC81FD8136
:101DC00080810E9478102C813D812F5F3F4F3D83A1
:101DD0002C83115099F78A850E9478108F2D0E94CC
:101DE0007810802F0E94781080E18093C1008FE3EB
:101DF0009FE10197F1F700C000008091C6008B833E
:101E00008091C6008987DF91CF911F910F91FF903C
:101E10003F902F900895CF93DF93CDB7DEB72E97E5
:101E20000FB6F894DEBF0FBECDBF0E94DF0D86E473
:101E300096E00E94140EF8943E018CE0680E711C2E
:101E400098E1C92ED12C05EE12E029EBE22E21E01B
:101E5000F22E34EBA32E31E0B32E41E8842E41E084
:101E6000942E98E10FB6F894909360001092600061
:101E70000FBE1D861C867E826D82E1E0EF83312CD1
:101E80000E9483108C83811116C03394F3E03F12BB
:101E9000F7CF0E94DF0D83E596E00E94140E2BE041
:101EA00088E190E00FB6F894A895809360000FBE8B
:101EB00020936000FFCF8F3211F70E9483108A8732
:101EC0008F3219F40E9483108A878FE00FB6F8943E
:101ED000A895C09260000FBE809360006FE280E022
:101EE00090E00E946F0E6A850E946F0E1C010E9496
:101EF00083108987682FC1010E946F0E1C010E9408
:101F000083108887682FC1010E946F0E1C010E94F8
:101F100083108B83682FC1010E946F0E2C014B81AF
:101F200085EE282E82E0382E420D4E870E948310C7
:101F3000F10181931F01682FC2010E946F0E2C01D5
:101F40004E854211F2CF0E9483108A830E94831033
:101F5000898389819A818415950511F480E001C0F7
:101F600083E08B878111AFC08A8590E0FC01F097F8
:101F7000ED30F10508F0A5C0EE58FF4F0C949E100F
:101F800085E025C08AE08F839E828D829CC082E09E
:101F90008F8392E89C878D8796C0CE0101961C01A5
:101FA0000E94890E0E94E20A23982B982BE088E178
:101FB00090E00FB6F894A895809360000FBE209330
:101FC0006000FFCF0E94E20A7EC00E94B00B8C87A7
:101FD0007AC00E94000C811102C087E08B8783E0E9
:101FE0008F83BE82AD826FC00E94990C0AC080911F
:101FF000E5028C87880F8093E3021092BD020E9455
:102000007E0C811160C018C089858093E3028885A9
:102010008093BD028091E5028093E4021093B301A6
:102020000093B2010E94350C882331F08091E402C4
:102030008F831E830D8347C08FE044C08FE08B8762
:1020400089858093E30288858093BD028B8180938C
:10205000E4021093B3010093B2010E945D0C882347
:1020600091F1F092B301E092B2010E94350C882305
:1020700051F11093B3010093B201F092E102E092AA
:10208000E0021B868091E402A091B201B091B301FD
:10209000E091E002F091E1022C919081291711F07A
:1020A00094E09B871196B093B301A093B20131964F
:1020B000F093E102E093E002815031F704C02B98E5
:1020C00002C082E08B87FE0131961F010E94890EBB
:1020D000C8CEE0ECF0E080818D7F808389E190E0E4
:1020E0009093C5008093C40086E08093C200089559
:1020F0009091C00095FFFCCF8093C6008091C000F6
:1021000086FFFCCF08958091C00087FFFCCF8091AF
:10211000C6000895AA1BBB1B51E107C0AA1FBB1F25
:10212000A617B70710F0A61BB70B881F991F5A9563
:10213000A9F780959095BC01CD010895EE0FFF1F82
:102140000590F491E02D0994FB01DC0105900D92BE
:102150000020E1F70895BB27FB015527AA27880F28
:10216000991FAA1FA41710F0A41B83955051B9F70B
:10217000A05DAA3308F0A95DA193009779F7B1118A
:10218000B1931192CB010C94C510DC01FC01672FB7
:1021900071917723E1F7329704C07C916D9370833E
:0E21A0006291AE17BF07C8F30895F894FFCF01
:1021AE00010D6802010D5C02010452020102AB0135
:1021BE0000FFB5010105470201053C020105300291
:1021CE0001029E010105240201051A0201050E02FB
:1021DE0001050102010D55010105F6010104ED0194
:1021EE000102E30101054A010102D9010102CF01F9
:1021FE000001C7010001C001007D910182FF840131
:10220E0001FE310101FF790101FF6C0101055F0142
:10221E0000013E010111240100011701B901E5027F
:10222E001441554E6D3332385031360000000000E7
:0C223E000000000002000001010100008F
:00000001FF
